:020000040800F2
:10000000E01600209D010008471900082719000884
:10001000451900084D030008B5270008000000003E
:10002000000000000000000000000000A123000804
:100030000D0400080000000069190008A32300084F
:10004000B7010008B7010008B7010008B7010008B0
:10005000B7010008B7010008B7010008B7010008A0
:10006000B7010008B7010008B7010008B701000890
:10007000B7010008B7010008B7010008B701000880
:10008000B7010008B7010008B7010008B701000870
:10009000B7010008B7010008B7010008B701000860
:1000A000B7010008B7010008B7010008B701000850
:1000B000B7010008B7010008B7010008B701000840
:1000C000B7010008B7010008B7010008B701000830
:1000D000B7010008B7010008B7010008B701000820
:1000E000B7010008B7010008B7010008B701000810
:1000F000B7010008B7010008B7010008B701000800
:10010000B7010008A5190008B7010008B7010008E9
:10011000B7010008B7010008B7010008B7010008DF
:10012000B7010008B7010008B70100085103000833
:10013000B7010008B7010008B7010008B7010008BF
:10014000B7010008B7010008B7010008B7010008AF
:10015000B70100085D030008B7010008B7010008F7
:10016000B7010008B7010008B7010008B70100088F
:10017000B7010008B7010008B7010008000000003F
:10018000B7010008B7010008DFF80CD000F07EF8D6
:10019000004800474D3F0008E01600200648804711
:1001A00006480047FEE7FEE7FEE7FEE7FEE7FEE75C
:1001B000FEE7FEE7FEE7FEE751240008890100089C
:1001C0002DE9F05F0546002092469B46884606468C
:1001D000814640241BE0284641464746224600F01F
:1001E00045F853465A46C01A914110D31146184655
:1001F000224600F02CF82D1A67EB01084F462246E4
:100200000120002100F023F817EB00094E41201EC9
:10021000A4F10104DFDC484631462A464346BDE8E6
:10022000F09F30B50B46014600202022012409E052
:1002300021FA02F59D4205D303FA02F5491B04FA9F
:1002400002F52844151EA2F10102F1DC30BD202A7E
:1002500004DB203A00FA02F1002070479140C2F11D
:10026000200320FA03F3194390407047202A04DB4F
:10027000203A21FA02F00021704721FA02F3D0401F
:10028000C2F120029140084319467047064C074DC1
:1002900006E0E06840F0010394E807009847103456
:1002A000AC42F6D3FFF774FF9CEE0108BCEE0108E8
:1002B000704700000146014800F076BF680000204A
:1002C00010B5044800F082FF042801D0012010BDC1
:1002D000002010BD6800002082B001208DF80000D1
:1002E0009DF80000012802D0012002B070470248AA
:1002F00002B001F061B8000068000020134610B59C
:100300000A4601460024034801F038F900B10124EF
:10031000204610BD68000020014901208860704718
:1003200038000020134610B50A4601460024034851
:1003300001F0A6F900B10124204610BD680000209C
:10034000014901204860704738000020FEE70000A6
:10035000014800F091B80000F4050020014800F0C9
:100360008BB800005406002001681823CAB2103A66
:10037000B2FBF3F2054B6FF30901032A9B5CC365E3
:1003800000D9091D8165084670470000A445000892
:1003900010B5014600208B698A6A4FF0C07453B1D2
:1003A000B3F5005F15D072B1012A0CD0022A0AD031
:1003B000032A09D104E01AB1012A06D0022A03D186
:1003C000C96AC90100D5012010BDC96AA142FAD08D
:1003D00010BD002AF7D0012AF2D0022AF3D0032A56
:1003E000F3D010BD30B50468256825F4802525605C
:1003F000046863608368402B036803D099600068D9
:10040000C26030BD9A600068C16030BD7047002294
:10041000AFF3008030B50E4B054601205C7A002C0E
:1004200014D1587A1C54587A03EB800045605D7AE9
:1004300003F108002A54587A421C5A72303008706E
:100440003A2048702F208870CC70002030BD00000A
:10045000D406002090F83510022903D08021416590
:1004600001207047052180F835100068016821F0EF
:1004700001010160002070472DE9F84304464FF068
:100480000009CDF8009063484FF41651A56D00683F
:10049000B0FBF1F72E6894F85C10082000FA01F127
:1004A00031420FD021680A6852070BD50A6822F042
:1004B00004020A6094F85C108840A860606D40F007
:1004C0000100606594F85C104FF0010808FA01F033
:1004D000304208D021684969090604D5A860606DDA
:1004E00040F00200606594F85C10042088403042BF
:1004F00008D021680968890704D5A860606D40F0BC
:100500000400606594F85C1010208840304218D0D8
:1005100021680968090714D5A860206801684903A3
:1005200004D50068000308D5A16C07E00168C9057F
:1005300003D4016821F008010160216C09B1204653
:10054000884794F85C1020208840304231D02168E0
:100550000968C9062DD5A86094F8350005282068DB
:10056000016806D0490347D5006800031DD4616CBB
:100570001CE021F0160101602068416921F0800132
:100580004161206C08B9A06C20B12068016821F09D
:100590000801016094F85C103F208840A86084F84E
:1005A000349084F83580216D1FE0E16B09B120465D
:1005B0008847606D00282BD0606DC00714D00520DF
:1005C00084F835002068016821F00101016000987D
:1005D000401C0090B84203D820680068C007F6D1DC
:1005E00084F8349084F83580E16C002910D001B093
:1005F0002046BDE8F04308470168C905D5D4016825
:1006000021F01001016084F8349084F83580CCE743
:10061000BDE8F883580000202DE9F041044600F0C1
:100620008BF906465CB1002584F83450022084F82A
:1006300035002068016821F0010101600DE0012012
:10064000BDE8F08100F078F9801B052805D920204D
:100650006065032084F83500F2E720680068C00771
:10066000F0D12268116820480140D4E90103184301
:10067000D4E903363343184363691843A369184325
:10068000E3691843236A18430843616A042903D1C4
:10069000D4E90B1319430843106020684069666A67
:1006A00020F0070130460E43012704280CD1A06A30
:1006B0000643E06A40B12046FFF76AFE20B14020C1
:1006C000606584F83570BAE7206846612046FFF718
:1006D0004BFE94F85C203F2191408160656584F871
:1006E00035700020ACE700003F8010F02DE9F041AC
:1006F0000446866D90F83400002501280DD00120B5
:1007000084F8340094F835700020012F07D084F865
:10071000340002252846BDE8F0810220FBE70227CD
:1007200084F8357060652046FFF75CFE94F85C1035
:100730003F208840B0602068016841F016010160E8
:100740002068416941F080014161206C20B120683E
:10075000016841F0080101602068016841F0010171
:100760000160D7E770B5044600F0E6F80546601C66
:1007700002D004480078044400F0DEF8401BA04298
:10078000FAD370BD4C0000202DE9F84FDFF87CB1A2
:1007900000224FF001084FF0030A4FF00F090BF150
:1007A000040E00BF0B6808FA02F42340A3426ED186
:1007B0004D68022D01D0122D0ED1D50800EB850C0D
:1007C000DCF820505607F70E09FA07F6B5430E6914
:1007D000BE402E43CCF82060066855000F790AFA17
:1007E00005FC07F0030726EA0C06AF403743076015
:1007F0004E68012E05D0022E03D0112E01D0122EEC
:100800000ED18668CF6826EA0C06AF403743876072
:100810004668A6430C79C4F3001494403443446002
:10082000C6688C6826EA0C06AC403443C4604C6849
:10083000E40065D5364C256845F48045256024687C
:1008400022F0030504F480440094324C2E19D6F8AB
:10085000084895072F0F09FA07F5AC432E4DA8421B
:1008600001D1002524E02D4DA84201D101251FE032
:100870002B4DA84201D102251AE02A4DA84201D1F0
:10088000032515E0284DA84202D1042510E037E0E9
:10089000264DA84201D105250AE0254DA84201D1E7
:1008A000062505E0234DA84201D1072500E00825D3
:1008B000BD402543C6F80858DBF800405D464E6849
:1008C0009C43F60300D51C432C60DEF800407546BF
:1008D0004E689C43B60300D51C432C600B4D083575
:1008E0002C684E689C43F60200D51C432C60074DD3
:1008F0000C352C684E689C43B60200D51C432C6016
:10090000521C102AFFF44EAFBDE8F88F003C0140A6
:100910004438024000300140000002400004024020
:1009200000080240000C0240001002400014024087
:1009300000180240001C0240014880687047000017
:100940004C000020024881680278114481607047A1
:100950004C0000200B4810B5016841F400710160A3
:10096000016841F480610160016841F480710160B7
:10097000032000F097F8002000F006F800F024F8BB
:10098000002010BD003C024070B50D4D04464FF4F0
:100990007A712878B1FBF0F00A490968B1FBF0F0F0
:1009A00000F0F5FE48B9102C07D200222146501E57
:1009B00000F058F800206C6070BD012070BD000090
:1009C0004C000020580000201F4808B5016841F481
:1009D00080410160006800F4804000901A48001FC8
:1009E000016841F080510160006800F08050009083
:1009F000032000F057F8002211466FF00B0000F0C2
:100A000031F8002211466FF00A0000F02BF80022A6
:100A100011466FF0090000F025F800221146501F22
:100A200000F020F800221146101F00F01BF80022F1
:100A30001146901E00F016F80022BDE8084011464D
:100A4000501E00F00FB800004438024000F01F02B2
:100A5000012191404009800000F1E020C0F8001120
:100A600070470000F0B40E4B1B680C46C3F3022322
:100A7000C3F10705042D00D90425191D072901D24A
:100A8000002300E0DB1E012606FA05F1491E214085
:100A900099409E40761E16403143F0BC00F054BF92
:100AA0000CED00E0064900F0070208684FF6FF036E
:100AB000184040EA0220034A1043086070470000D3
:100AC0000CED00E00000FA052DE9F0470E460500A8
:100AD00065D0DFF81481D8F80000F7B200F00F00FD
:100AE000B04207D288F80070D8F8000000F00F007C
:100AF000B04254D128683D4C810712D5400703D538
:100B0000206840F4E05020602878000703D5206872
:100B100040F4604020602068A96820F0F00008439D
:100B200020602878C0072DD030496868083901282E
:100B300012D0022813D0032811D009688907002990
:100B40002DDA216821F0030101432160FFF7F4FE53
:100B5000814641F2883A0EE009688903EFE70968A7
:100B60008901ECE7FFF7E8FEA0EB0901514502D946
:100B70000320BDE8F0872068696800F00C00B0EB46
:100B8000810FEFD1D8F80010404601F00F01B142BB
:100B900007D90770006800F00F00B04201D00120B3
:100BA000E7E72878400705D52068E96820F4E05099
:100BB000084320602878000706D52068296920F4BA
:100BC000604040EAC100206000F03CF82168084A1B
:100BD000C1F30311515CC840064908600020FFF7CB
:100BE000D3FE0020C5E70000003C02400838024068
:100BF000AC4500085800002001480068704700001C
:100C0000580000200448054900680968044AC1F3F7
:100C10008221515CC84070475800002008380240CB
:100C2000BC4500080448054900680968044AC1F346
:100C30004231515CC84070475800002008380240DB
:100C4000BC450008154810B5006810F00C021448A7
:100C500013D01449042A0FD0082A0ED10F4C241F98
:100C60002268236802F03F025B0207D52068C0F3C8
:100C70008810A0FB010106E0084610BD2168C1F301
:100C80008811A1FB00010023FFF79AFA2168C1F344
:100C90000141491C4900B0FBF1F010BD0838024089
:100CA0000024F40040787D012DE9F84F050076D04E
:100CB0002878DFF8F8B2BE4CC00749D0DBF8001046
:100CC0005846C1F38101012908D00068C0F38100B2
:100CD00002280AD1201D0068400206D52068800342
:100CE00036D568680028E2D032E06868B0F5803F09
:100CF00010D0B0F5A02F206810D020F480302060F4
:100D0000206820F4802020606868A0B1FFF714FEFE
:100D100006460CE0206840F48030F4E740F4802080
:100D20002060F7E7FFF708FE801B642873D820686F
:100D30008003F7D50CE0FFF7FFFD064605E000BF96
:100D4000FFF7FAFD801B6428F0D820688003F7D4F1
:100D50002878DFF8608280074FF000093ED5DBF885
:100D60000010584611F00C0F09D00068C0F3810044
:100D700002280BD18D48001F0068400206D420686D
:100D8000800715D5E868012809D111E0E868B8B1F5
:100D90000120C8F80000FFF7CFFD064605E002E19C
:100DA000FFF7CAFD801B0228C0D820688007F7D54E
:100DB0002068296920F0F80040EAC10020600DE0B9
:100DC000C8F80090FFF7B8FD064604E0FFF7B4FD51
:100DD000801B02281FD820688007F7D428780007D6
:100DE00022D5724E744869696C3671B10121016077
:100DF000FFF7A2FD074604E0FFF79EFDC01B022897
:100E000009D830688007F7D50EE0C0F80090FFF7EA
:100E100093FD074605E083E0FFF78EFDC01B022827
:100E20007ED830688007F7D42878400768D5DFF887
:100E30007CA100270AF1380ADAF80000C0000BD4C0
:100E4000DAF8001041F08051CAF80010DAF800001A
:100E5000012700F080500090584E3068C00510D433
:100E6000306840F480703060FFF766FD009005E068
:100E7000FFF762FD0099401A022851D83068C0057A
:100E8000F6D54A4EA868683601280FD00528306884
:100E900010D020F001003060306820F00400306095
:100EA000A868B8B1FFF748FD00900FE0306840F047
:100EB0000100F4E740F004003060F7E7FFF73CFD85
:100EC0000099411A41F28830814264D83068800725
:100ED000F4D50EE0FFF730FD009007E0FFF72CFDA2
:100EE0000099411A41F28830814254D83068800715
:100EF000F4D42FB1DAF8001021F08051CAF80010B4
:100F0000A869C0B3DBF80010C1F3810102294AD0FF
:100F10000228484607D0C8F86000FFF70DFD00E042
:100F200039E005463AE04746C8F86000FFF704FD9F
:100F3000064604E0FFF700FD801B02282BD820683E
:100F40008001F7D4D5E907010843A96A1C4A49087A
:100F500002EB01416A6A41EA8211084395F82C10BC
:100F600040EA01611148001F016001203866FFF767
:100F7000E3FC054605E014E0FFF7DEFC401B022819
:100F800009D820688001F7D50BE000BFFFF7D4FC3B
:100F9000401B022802D90320BDE8F88F2068800199
:100FA000F4D40020F8E70120F6E7000008380240FA
:100FB0000038024000004742800E47420070004067
:100FC0000000FFFF10B5FFF773F910BD7047F0B5D3
:100FD000426E120E93090B70C2F383034B7002F042
:100FE00003028A70426E120CCA70B0F86420120AB2
:100FF0000A7190F864204A71826E4FF6FF73120EE8
:1010000003EA0212CA80826ECB88C2F3074243EA27
:101010001213CB8002F00F020A72B0F86820C2F3FC
:101020000722D3094B72C2F380138B72C2F34013B1
:10103000CB72C2F300130B7300264E73446C4FF453
:10104000007701236CB1012C43D0026840F2FF51BC
:101050009163816B41F08051816380F834300120CD
:10106000F0BD9207120D0A6190F868200C6944EAFD
:1010700082020A61C26E0C69120E44EA92140C617B
:10108000C2F3C2040C7502F007024A75C26EC2F3C5
:10109000074254098C75C2F38204CC759207520F33
:1010A0000A76B0F86C20C2F307240A7E42EAD41212
:1010B0000A760A69521C42650D7EAD1CAA40426543
:1010C0000D7A03FA05F585656D0A6A43C0E91727AD
:1010D0001CE090F868209206920A0A61C26E0C69C0
:1010E000120E44EA02220A61C26E0C69C2F3074280
:1010F00014430C61B0F86C20C2F307240A69521C37
:101100004FEA82224265C0E916720766C4F3801274
:1011100001F8192F4FEA84624FEA52624A7010F8C0
:101120006C2F4C7844EAD2144C7002F07F028A7023
:1011300042684FEA12624FEAD214CC70C2F34114F3
:101140000C71C2F382044C714FEA82724FEA127240
:101150008A7142688C79C2F3074244EA92148C7116
:10116000C2F34014CC710E7202F001024A728288FE
:10117000C2F307224FEAD2148C72C2F38014CC72ED
:10118000C2F340140C73C2F300144C73C2F3810415
:101190008C7302F00302CA7300794FEA500008749E
:1011A0004B744FF00000F0BD426C0A60826C4A60E4
:1011B000C26C8A60026DCA60426D0A61826D4A61CA
:1011C000C26D8A61006EC8610020704770B5044628
:1011D000B0F8500000250104206800F038FD18B177
:1011E000A16B0143A16304E00021206800F0D3FB60
:1011F0000546C5F3432070BD70B504460068416BD9
:101200004FF00105CA0540F23A3149D52A028263FE
:101210002068C26B8A43C263206B0007206B22D513
:10122000800702D4206B800609D5206800F040FDBD
:1012300028B1A16B0143A1632046FFF7C7FE2168D7
:1012400040F2FF50886384F83450206BC00702D10D
:10125000206B800703D5204600F00AFA70BD2046B7
:1012600000F00AFA70BD0006FCD5206B800609D597
:10127000206800F01DFD28B1A16B0143A163204649
:10128000FFF7A4FE206BC007ECD1206B8007E9D4E8
:101290002068C16A21F00801C16284F83450DEE799
:1012A000426B520410D54FF480418163266A0025B9
:1012B00006EB8501206800F0A4FB6D1C082DF7D318
:1012C000206A2030206270BD426B120410D54FF4AA
:1012D00000418163A66A0025206800F07FFB46F884
:1012E00025006D1C082DF7D3A06A2030A06270BDC8
:1012F000426B40F23A231A42F9D0426B920703D56F
:10130000A26B42F00202A263426B120703D5A26BEA
:1013100042F00802A263426B920603D5A26B42F030
:101320002002A263426BD20603D5A26B42F01002E8
:10133000A263426B920503D5A26B42F00802A2633E
:1013400040F2FF7282632068C26B8A43C263206BE3
:10135000000623D5206C58B115490165206CFFF7B4
:1013600079F80028C3D0206CBDE8704000F089BE39
:10137000E06B58B10F490165E06BFFF76BF800288F
:10138000B5D0E06BBDE8704000F050BE0020A06317
:1013900084F834502046FFF715FE70BD206B00071F
:1013A000FBD584F834502046FFF710FE70BD0000D6
:1013B000832000082D20000870B5040004D094F8A4
:1013C0003400002510B105E0012070BD25772046CE
:1013D00000F038F8032084F83400204600F008F8C4
:1013E000A5632563012084F83400002070BD00004F
:1013F000FEB50025044676200095CDE901502B4628
:101400002A462946206800F0D3FA0D4E46F8A05F20
:10141000206800F0DFFA012535600220FFF7A2F90D
:10142000204600F0C5FE20B9204600F04EFE002800
:1014300005D084F83450A16B0143A1630120FEBDA7
:10144000008025422DE9F04F054600683D4987B0F0
:10145000884273D13C4800683B4940F40060086012
:101460000868022400F4006005904FF48850CDE92C
:10147000000402AA002003264FF00C0882E8410174
:1014800069463248FFF780F902AA002082E841014C
:101490000427CDE9007469462D48FFF775F92E4CF5
:1014A0002C484FF00068C4E9000800204FF4806920
:1014B000A060C4E90309B8024FF4804BC4E9050BEE
:1014C000C4E909764FF0200A0020C4E907A07E0590
:1014D000B7102046C4E90B67FFF79EF818B18F21BB
:1014E0001EA001F068F9EC63A563234C194804F1D0
:1014F00028024830C4E900084020A0600020C4E968
:101500000309C4E907A004206062032082E8C10047
:101510004FF48051C4E9051B2046FFF77DF818B150
:10152000A4210EA001F047F92C64002205213120EE
:10153000A563FFF797FA3120FFF788FA07B0BDE8F7
:10154000F08F0000002C01404438024000080240A7
:10155000000C024058640240F40500202E2E2F5348
:1015600072632F73746D3332663478785F68616CA0
:101570005F6D73702E630000540600202DE9F04368
:10158000154687B01F460A00044607D094F8340079
:10159000012807D0022007B0BDE8F083A06B40F01F
:1015A000006008E00020A063E36DE919994204D9C6
:1015B000A06B40F00070A06351E0032184F8341068
:1015C00021688146C8622168CB6B43F49573CB6375
:1015D000E36B24494FEA4728D963E36B2249D96476
:1015E000E16B4FEA980308652168E06B8031FFF7F3
:1015F0007DF81E4801260660606C012800D06D024F
:101600004FF0FF30CDE900089020029002200596AF
:10161000CDE903096946206800F0A7F94FF400718D
:10162000206800F027FA40F2FF5880B9012F06D950
:10163000822020632946206800F092FA05E081208C
:1016400020632946206800F0A4FA0028A3D022686D
:10165000C2F83880A16B0143A16384F83460012093
:1016600099E70000EF1F0008991F00088C852542AC
:1016700010B5FEF751FE10BD10B5FEF761FE10BDAE
:101680002DE9F04F87B01F4615465FEA010B04466F
:1016900007D094F83400012807D0022007B0BDE835
:1016A000F08FA06B40F0006008E00020A063E26DC6
:1016B000E919914204D9A06B40F00070A06339E0B1
:1016C000032184F8341021688046C8622168CA6BFF
:1016D00042F01A02CA63226C2349D163226C234967
:1016E000D164216C0865606C012800D06D024FF454
:1016F0000071206800F0BEF9012640F2FF5988B958
:101700004FF0900A012F06D9A020206329462068B7
:1017100000F0E8FA05E0C4F830A02946206800F09F
:10172000FAFA48B12268C2F83890A16B0143A1636C
:1017300084F834600120B1E70D48066022687D021C
:10174000AB0859468032206CFEF7D0FF4FF0FF30D7
:101750008DE82104CDE90486CDF80C806946206827
:1017600000F003F9002099E775200008991F000890
:101770008C8525424FF0E0210428086903D020F031
:1017800004000861704740F00400FAE7704710B5A4
:10179000401EB0F1807F01D3012010BD4FF0E02446
:1017A00060610F21601700F0CFF80020A0610720D2
:1017B0002061002010BD10B5FFF7E8FF10BD70B527
:1017C000040004D094F83900002510B106E001208F
:1017D00070BD84F83850204600F022F8242084F8A8
:1017E00039002068C16821F40051C160204600F032
:1017F00059FE2068016921F4904101612068416926
:1018000021F02A0141612068C16841F40051C160A2
:10181000E563202084F8390084F83A00002070BD88
:1018200000B500680E4987B0884217D10D4801689D
:1018300041F0100101600068694600F01000059059
:101840004FF4C0600090022001900120029003201C
:101850000390072004900448FEF796FF07B000BDF0
:101860000010014044380240000002402DE9F843D6
:10187000044690F839001F4616460D46202850D1E0
:10188000A5B19EB194F8380001284AD0012084F80F
:1018900038004FF00008C4F83C80212084F839005B
:1018A000FFF74AF8A6848146E68426E00120BDE8D9
:1018B000F883E08C401EE084A0684B46B0F5805F62
:1018C0004FF000024FF080012046009703D000F057
:1018D0003FFFE8B90DE000F03BFFC8B92888216858
:1018E000C0F308004860206908B16D1C05E0AD1C1C
:1018F00003E0216815F8010B4860E08C0028D8D17E
:101900004B46002240212046009700F021FF08B1FD
:101910000320CCE7202084F8390084F838800020A8
:10192000C5E70220C3E7FEE710B504490448FEF707
:101930006EFD0249491E087010BD000045000020E0
:1019400090450008FEE770470907090E002806DAEF
:1019500000F00F0000F1E02080F8141D704700F146
:10196000E02080F80014704770470A6842624A68B5
:101970008262D1E902231A43D1E904310B43C16ADF
:101980001A4321F0F7011143C1620020704700683B
:1019900000F00300704708B5084414300090006858
:1019A00008BD00000148FFF727BC000068000020C8
:1019B00070B50DF1100C11439CE8700023431943DE
:1019C00029434268314347F6FF639A430A43426022
:1019D000002070BD0321016000207047D0F8800016
:1019E00070470A688260D1E901231A43D1E90331C3
:1019F0000B43C1681A436FF30B011143C160002010
:101A000070470968C0F880100020704710B586B094
:101A100004463720CDE900104020029000200390BA
:101A20004FF48060049069462046FFF7DAFF41F2E8
:101A300088323721204600F087F906B010BD00003B
:101A400010B504460A4886B001432920CDE90010AC
:101A500040200290002003904FF48060049069467B
:101A60002046FFF7BEFF204600F024FA06B010BD66
:101A70000000108010B586B004461020CDE900109B
:101A800040200290002003904FF48060049069464B
:101A90002046FFF7A6FF41F288321021204600F0D1
:101AA00053F906B010BD000030B585B000240546DE
:101AB000009401944FF480600294CDE9034069469C
:101AC0002846FFF78EFF0B484FF4FA510068B0FB31
:101AD000F1F041F288314843401E03D24FF00040FC
:101AE00005B030BD696B0906F6D540F2FF50A8631A
:101AF0002046F5E75800002070B585B004464FF445
:101B0000D570009008204026CDE901060025C001CF
:101B1000CDE9035069462046FFF763FF0F484FF4B5
:101B2000FA510068B0FBF1F041F288314843401EA1
:101B300002D24FF000450DE0616B11F0450FF6D079
:101B4000606B400702D5A663042503E0606B400686
:101B500000D5A66305B0284670BD000058000020DF
:101B600010B586B004461220CDE900104020029046
:101B7000002003904FF48060049069462046FFF7F0
:101B800030FF41F288321221204600F0DDF806B025
:101B900010BD10B586B004461120CDE900104020DC
:101BA0000290002003904FF4806004906946204624
:101BB000FFF717FF41F288321121204600F0C4F8E8
:101BC00006B010BD10B586B004460720CDE9002050
:101BD00040200290002003904FF4806004906946FA
:101BE0002046FFF7FEFE41F288320721204600F032
:101BF000ABF806B010BD10B586B004460021022037
:101C0000CDE90010C020CDE902014FF480600490BE
:101C100069462046FFF7E5FE204600F023F906B0AE
:101C200010BD10B586B004460920CDE90010C020D3
:101C30000290002003904FF4806004906946204693
:101C4000FFF7CFFE204600F00DF906B010BD10B52D
:101C500086B004460D20CDE90010402002900020FF
:101C600003904FF48060049069462046FFF7B9FE68
:101C700041F288320D21204600F066F806B010BD12
:101C800030B585B00C46054600210320CDE9001093
:101C90004020CDE902010001049069462846FFF783
:101CA000A0FE22460321284600F024F905B030BDED
:101CB00010B586B0044600210C20CDE9001040206C
:101CC000CDE902010001049069462046FFF789FE34
:101CD000034A0C21204600F037F806B010BD000082
:101CE00000E1F50510B586B004461920CDE90010D5
:101CF00040200290002003904FF4806004906946D9
:101D00002046FFF76EFE41F288321921204600F08E
:101D10001BF806B010BD10B586B004461820CDE9FA
:101D2000001040200290002003904FF48060049047
:101D300069462046FFF755FE41F2883218212046B9
:101D400000F002F806B010BD444B10B51B684FF40C
:101D5000FA54B3FBF4F353435B1E02D24FF000403E
:101D600010BD426B12F0450FF6D0426B520703D5FF
:101D700004218163084610BD426BD20702D00121C5
:101D8000816303E00269D2B28A4201D0012010BD12
:101D900040F2FF5181630021FFF7FDFD3049084209
:101DA00001D1002010BD002802DA4FF0007010BDF4
:101DB000410001D5402010BD810001D5802010BD1B
:101DC000C10002D54FF4807010BD010102D54FF45F
:101DD000007010BD410102D54FF4806010BDC101FB
:101DE00002D54FF4006010BD010202D54FF48050BF
:101DF00010BD410202D54FF4005010BD810202D542
:101E00004FF4804010BDC10202D54FF4004010BD18
:101E1000410302D54FF4003010BD810302D54FF4C9
:101E2000802010BDC10302D54FF4002010BD010475
:101E300002D54FF4801010BD410402D54FF40010BC
:101E400010BD810402D54FF4800010BD000702D5FB
:101E50004FF4000010BD4FF4803010BD580000203A
:101E600008E0FFFD12494FF4FA520968B1FBF2F1A4
:101E700041F288325143491E02D24FF00040704770
:101E8000426B12F0450FF6D0416B490703D5042190
:101E9000816308467047416BC90703D00121816304
:101EA0000846704740F2FF518163002070470000F0
:101EB000580000200E494FF4FA520968B1FBF2F1C4
:101EC00041F288325143491E02D24FF00040704720
:101ED000426B12F0450FF6D0416B490703D5042140
:101EE00081630846704740F2FF51816300207047CC
:101EF000580000201F4B10B51B684FF4FA54B3FB79
:101F0000F4F341F2883463435B1E02D24FF0004089
:101F100010BD446B14F0450FF6D0436B5B0703D53F
:101F200004218163084610BD436BDB0702D0012109
:101F3000816303E00369DBB28B4201D0012010BD55
:101F400040F2FF5181630021FFF725FD10F4604F3F
:101F500004D0410406D54FF4005010BD000C108091
:101F6000002010BD000402D54FF4805010BD4FF486
:101F7000803010BD5800002010B5064C01202070A4
:101F8000FEF79EF918B9207820F001002070207823
:101F900010BD00003800002010B5846BE06B406D70
:101FA000012803D0206C406D01281CD1216840F22B
:101FB000FF5088632068C16B21F49D71C163A06BE1
:101FC00040F08040A0632046FFF700F9062801D0CA
:101FD000052805D12068FFF76BFEA16B0843A063BD
:101FE000012084F834002046FEF7F0FF10BD10B544
:101FF000846B206B822809D12068FFF759FE28B135
:10200000A16B0143A1632046FEF7E0FF2068C16A8F
:1020100021F00801C162216840F2FF50886301206D
:1020200084F834002046FFF723FB10BD70B5846BA5
:102030000025E06B00B1E563206C002816D1204636
:10204000FFF7C4F8A563012184F83410062801D0F5
:1020500005280BD12068FFF72BFEA16B0843A06376
:10206000A06B0028204602D0FEF7ACFF70BDFEF743
:10207000ADFF70BD806B0068C16B41F48071C163BE
:10208000704770B5846B0025206C00B12564E06B4F
:10209000002816D12046FFF799F8A563012184F89E
:1020A0003410062801D005280BD12068FFF700FE68
:1020B000A16B0843A063A06B0028204602D0FEF766
:1020C00081FF70BDFEF782FF70BD10B590B0044671
:1020D0000120ADF838002068FFF759FC002864D0D3
:1020E000606C032842D02068FFF785FD00285AD194
:1020F00000212068FFF74FFC606704212068FFF78C
:102100004AFCA06708212068FFF745FCE0670C2126
:102110002068FFF740FCC4F88000606C032825D0DD
:102120000EA92068FFF7ACFD00283CD1606C0328A5
:102130001CD0BDF83800206501042068FFF771FD50
:10214000002830D100212068FFF725FC60660421BB
:102150002068FFF720FCA06608212068FFF71BFC21
:10216000E0660C212068FFF716FC20670421206838
:10217000FFF711FC000DE06403A92046FEF727FFDE
:10218000B4F85000002302042068FFF71BFD00286C
:1021900009D104F1100007C88DE8070094E80F008A
:1021A000FFF706FC002010B010BD4FF08060FAE78A
:1021B0002DE9F8430025044600950068FFF774FCFC
:1021C00000281AD12068FFF797FC4FF080784FF66F
:1021D000FF76D8B14FF08057A5640098411C00915C
:1021E000B0421AD000212068FFF710FC20B900216E
:1021F0002068FFF725FC10B13846BDE8F8830021C0
:102200002068FFF7C8FBC00FE7D01FE00127A764D5
:102210000098411C0091B04201D14046EDE70021F9
:102220002068FFF7F3FB0028E7D14FF080412068DA
:10223000FFF706FC0028E0D100212068FFF7ABFB88
:10224000C10FE5D0400001D5676400E0656400205F
:10225000D3E7000070B5064C054601202070FEF75C
:102260003BF818B92846FFF787FE2070207870BD2C
:102270003800002010B5124888B014460078C00716
:1022800002D0032008B010BDC1B1012905D0022938
:1022900008D003290CD00420F4E76846FEF70AF8BA
:1022A00006980AE06846FEF705F80798208005E0E2
:1022B0006846FDF7FFFF0798400A20600020E1E72D
:1022C000380000202DE9F041184C4FF00008164668
:1022D00008460125C4F808801A463146FEF70EF874
:1022E000F0B9FEF729FB064647F23057A06820B93F
:1022F000FEF722FB801BB842F8D3A06828B1C4F8CF
:102300000880FEF719FB044605E0012508E000BF40
:10231000FDF7D6FF38B1FEF70FFB001BB842F7D32D
:102320002846BDE8F0810025FAE7000038000020CB
:10233000FFF722BE2DE9F041184C4FF00008164679
:1023400008460125C4F804801A463146FDF7EAFF25
:10235000F0B9FEF7F1FA064647F23057606820B947
:10236000FEF7EAFA801BB842F8D3606828B1C4F8D7
:102370000480FEF7E1FA044605E0012508E000BF0D
:10238000FDF79EFF38B1FEF7D7FA001BB842F7D32E
:102390002846BDE8F0810025FAE70000380000205B
:1023A000704710B5FEF7CEFABDE81040FFF703BA4C
:1023B00030B5254893B00025016841F08051016097
:1023C000006800F0805011902048016841F480417D
:1023D00001600068022400F4804011900120039005
:1023E00010200490009406940820CDE90750A820FE
:1023F000CDE9090407200B906846FEF755FC00B1B3
:10240000FEE70CA90F2081E831004FF4A0500F9097
:102410004FF48050109005210CA8FEF755FB00B139
:10242000FEE7FEF7E9FB4FF47A71B0FBF1F0FFF73E
:10243000AEF90420FFF79EF900221146501EFEF768
:1024400011FB13B030BD0000403802400070004066
:102450001048016841F4700101600F48016841F0C3
:10246000010101600C4A00210832116002680B4B27
:102470001A400260031D0A4A1A60026822F4802290
:10248000026005480C300160024958068039086036
:102490007047000088ED00E000380240FFFFF6FEC4
:1024A000103000242DE9F04104460068016921F450
:1024B0004052E168114301612168C86849F20C6229
:1024C00090432369A268E5691A4363692B431A4361
:1024D0000243CA602168486920F44072A069104331
:1024E0004861E1696425B1F5004F9748974A216832
:1024F0004FF032083FD0914201D081427CD1FEF7AB
:1025000091FB00EBC00101EB001061688900B0FB9A
:10251000F1F6FEF787FB00EBC00101EB00106168EC
:102520008900B0FBF1F0B0FBF5F06FF01801484303
:1025300006EB800108EB0110B0FBF5F000F0F006AF
:10254000FEF770FB00EBC00101EB00106168890031
:10255000B0FBF1F0B0FBF5F006EB0016FEF762FB06
:1025600000EBC00101EB001061688900B0FBF1F7DE
:10257000FEF758FBD2E0914201D081423DD1FEF7F7
:1025800051FB00EBC00101EB001061684900B0FB9A
:10259000F1F0B0FBF5F00601FEF744FB00EBC001E3
:1025A00001EB001061684900B0FBF1F7FEF73AFB60
:1025B00000EBC00101EB001061684900B0FBF1F0D5
:1025C000B0FBF5F06FF01801484307EB800108EB12
:1025D000C100B0FBF5F000F0F80006EB4006FEF796
:1025E00021FB00EBC00101EB001061684900B0FB6A
:1025F000F1F7FEF717FB3CE055E0FEF703FB00EBBD
:10260000C00101EB001061684900B0FBF1F0B0FBC4
:10261000F5F00601FEF7F6FA00EBC00101EB001041
:1026200061684900B0FBF1F7FEF7ECFA00EBC0017E
:1026300001EB001061684900B0FBF1F0B0FBF5F070
:102640006FF01801484307EB800108EBC100B0FBB5
:10265000F5F000F0F80006EB4006FEF7D3FA00EBC9
:10266000C00101EB001061684900B0FBF1F7FEF713
:10267000C9FA00EBC00101EB001061684900B0FB32
:10268000F1F0B0FBF5F06FF01801484307EB800163
:1026900008EBC100B0FBF5F000F007002168304402
:1026A0008860BDE8F081FEF7ADFA00EBC00101EBF8
:1026B000001061688900B0FBF1F6FEF7A3FA00EBA9
:1026C000C00101EB001061688900B0FBF1F0B0FBC4
:1026D000F5F06FF01801484306EB800108EB01109C
:1026E000B0FBF5F000F0F006FEF78CFA00EBC0014D
:1026F00001EB001061688900B0FBF1F0B0FBF5F070
:1027000006EB0016FEF77EFA00EBC00101EB0010AD
:1027100061688900B0FBF1F7FEF774FA00EBC001C5
:1027200001EB001061688900B0FBF1F0B0FBF5F03F
:102730006FF01801484307EB800108EB0110B0FB74
:10274000F5F000F00F00A9E700140140001001406F
:102750002DE9F041984617460E460446069D1DE0B9
:10276000681C1BD02DB1FEF7E7F8A0EB0800A842CB
:1027700014D92068C16821F4D071C1602068416912
:1027800021F001014161202084F8390084F83A00E9
:10279000002084F838000320BDE8F081206800683C
:1027A00036EA000004D00020B842D9D00020F3E778
:1027B0000120F9E7FEE7FEE70FB4054B10B503A9CA
:1027C000044A029800F018F810BC5DF814FB0000F1
:1027D000DD3C00086400002002E008C8121F08C1A8
:1027E000002AFAD170477047002001E001C1121F92
:1027F000002AFBD1704700002DE9FF4F8BB09A46AD
:102800000F460546002606E025280BD052460D99B6
:1028100090476D1C761C28780028F5D10FB0304603
:10282000BDE8F08F0024A0460122604900E0044387
:1028300015F8013F203B02FA03F00842F7D128784F
:102840002E2817D115F8010F44F004042A280ED0C1
:102850006FF02F022878A0F1300109290AD808EB7F
:10286000880102EB410100EB01086D1CF2E757F80B
:10287000048B6D1C287869283ED006DC0028CDD05A
:1028800063280BD0642804D136E0732810D0752853
:102890004BD052460D999047761C85E017F8040BF3
:1028A0008DF8000000208DF80100E946012003E0CA
:1028B00057F8049B4FF0FF3061074FF0000401D43C
:1028C0000AE0641C44450DDA8442FADB19F804106E
:1028D0000029F6D106E0641C8442FCDB19F80410E0
:1028E0000029F8D1264404E019F8010B52460D994D
:1028F0009047641EF8D257E001CF4FF00A0B002832
:1029000002DA40422D2102E0210504D52B218DF869
:102910002410012103E0E10705D02021F7E70DF1A4
:10292000200908910CE00021F9E701CF4FF00A0BD4
:10293000F9E75946FDF775FC01F1300209F8012D60
:102940000028F6D1ADEB090000F1200B600701D49F
:102950004FF00108D84502DDA8EB0B0000E0002095
:102960008046002406E009A85246005D0D99904774
:10297000641C761C08988442F5DB04E03020524643
:102980000D999047761CB8F10001A8F10108F5DC1B
:1029900005E019F8010B52460D999047761CBBF1E2
:1029A0000001ABF1010BF4DC6D1C34E709280100D8
:1029B00010B504460020E070401E2063204601F060
:1029C0006CFC08B1042010BD04F2322001F0B8FA0A
:1029D000A0F52A41553901D0032010BD94F83400E8
:1029E000E92805D0EB2814D194F83600902810D1AE
:1029F00004F16A0001F099FA0749B1EB002F06D003
:102A000004F1860001F091FA0449884201D10020C6
:102A100010BD022010BD0000004641544641543311
:102A200000E0401C02780AB18A42FAD1D0B2704765
:102A3000F0B50022144D134605EB021426685EB172
:102A40000768BE4209D166688768BE4205D1A4689E
:102A50004669B44204D000E00123521C022AEBD3A1
:102A6000022A01D069B904E04BB9022907D012202B
:102A7000F0BD05EB02108089B0F5807F01D0002009
:102A8000F0BD1020F0BD0000B406002030B50021DC
:102A9000054B0C4603EB01121568854200D114600A
:102AA000491C0229F6D330BDB40600200268490A49
:102AB000C06A5289B1FBF2F1001D04C81AB19142FB
:102AC00003D3891AF8E7002070470068084470476C
:102AD0008269891E921E8A4201D800207047C26A0C
:102AE000408901FB002070472DE9F05F82460C46CB
:102AF00001F11A0001F024FA78BB2078012700F0D8
:102B00003F00401E00EB8001DFF8589001EBC0054C
:102B100000264FF6FF7B00BF19F80600204401F0A5
:102B20000FFA80466FB1FF2D17D200F033FF074632
:102B30003AF815006D1C00F02DFF87420DD1474675
:102B400001E0D84509D1761C0D2EE5D3207840064A
:102B500006D52FB13AF8150010B10020BDE8F09F5E
:102B60000120FBE772EE01082DE9F04105680F0036
:102B7000804606D001F006F9022809D20120BDE8FE
:102B8000F0812E6916B1A869B04207D8012605E088
:102B9000411CF4D0A9698142F1D83E463446A86967
:102BA000641CA04202D80224022E0AD321464046C9
:102BB00001F0E8F838B10128E1D0411CDFD0B4427F
:102BC000EDD10020DBE74FF0FF36324621462846A4
:102BD00001F07CFB30B957B122463946284601F056
:102BE00075FB20B101280FD001242046C7E72C61D6
:102BF000D5E90501891E884201D8401E68612879FF
:102C000040F001002871F0E73446EEE72DE9F84F77
:102C1000824600680F680024C66888462546785DAD
:102C20006D1C20282AD32F2823D05C2821D0FF2CEC
:102C300049D2A0F181017D290BD8795D6D1C01EB92
:102C40000020A1F1400280B23F2A02D3A1395E29BF
:102C500039D2012100F078FE5FEA000933D0B9F1E2
:102C6000800F12D2014675A0FFF7DAFE58BB0CE0C8
:102C70006D1C795D2F29FBD05C29F9D07A19C8F831
:102C80000020202805D204250FE026F81490641CAB
:102C9000C5E7002509E000BF06EB440030F8020C50
:102CA000202801D02E2802D1641E002CF4D100204F
:102CB00026F814003CB10B2220210AF1240001F077
:102CC000E5FA002703E00620BDE8F88F7F1C36F800
:102CD00017002028FAD02E28F8D01FB145F00305A0
:102CE00000E0641E2CB106EB440030F8020C2E28E4
:102CF000F7D14FF000094FF0080BCDF8009000BF5E
:102D000036F8170007F101075FEA000824D0B8F190
:102D1000200F04D0B8F12E0F04D1A74202D045F005
:102D20000305EDE70098584501D2A74219D1BBF140
:102D30000B0F0FD0A74201D045F003050CD84FF080
:102D4000080000904FEA896027464FF00B0B4FEACE
:102D50001069D5E745F003059AF82400E52849D025
:102D60004BE04046B8F1800F07D300F013FE00217E
:102D700000F0EAFD804645F00205B8F1FF0F13D9D7
:102D80000099ABF10100814204D345F00305CDF871
:102D900000B0B5E70AEB01004FEA182280F82420C2
:102DA0000098401C00901CE0B8F1000F04D00146D0
:102DB00025A0FFF735FE20B14FF05F0845F0030571
:102DC0000FE0A8F14100192802D849F0020908E0F3
:102DD000A8F16100192804D8413049F001091FFA0F
:102DE00080F8009A0AEB020181F824800098401CC8
:102DF000009085E705218AF82410BBF1080F03D164
:102E00004FEA89604FEA1069C9F38100032803D0B3
:102E10006FEA0901890701D145F00205A90709D424
:102E200009F00301012901D145F01005012801D164
:102E300045F008058AF82F50002045E7222A3A3C41
:102E40003E3F7C7F000000002B2C3B3D5B5D000083
:102E5000401E022812D20A4901EB00118889B0F500
:102E6000807F05D008B1401E80B2888110B103E098
:102E70000020FAE700200860002070470220704719
:102E8000B40600202DE9F04704460021D0F8009058
:102E900000F0CCF900285BD1FF25471EA846276328
:102EA0004846E16901F0F9F9060050D1216A087835
:102EB00050B1CA7AE52802F03F02A2713FD0130751
:102EC00004D50F2A3BD105E0042640E00F2A01D0AB
:102ED000E5B120E094F82F20520632D4420606D500
:102EE00091F80D8000F0BF00626905462263A84298
:102EF00009D14A7B424506D1D9F80C00FFF7F4FD11
:102F000008B16D1E00E0FF25EDB21AE0084601F0A1
:102F1000ACFA40451BD094F82F00C0070FD1D4F86D
:102F2000201004F124000B2211F8013B10F8015B82
:102F30005B1B521E02D0002BF6D000E03BB1FF25F8
:102F400027630021204600F005F80600A8D030468F
:102F5000BDE8F0872DE9F047054647690468C06978
:102F60008946203710B1B7F5001F02D30420BDE811
:102F7000F087F90560D1401CE861A9694FF00008AD
:102F800029B16089401E10EA572F05D054E02089EE
:102F9000B0EB571F1DD94FE0284600F0F3FE064660
:102FA00001281BD9701C33D0A069B0423ED8B9F1BA
:102FB000000F0ED02846A969FFF7D6FD06000BD0FA
:102FC000012E0BD0701C23D0204601F09FFAF8B9D7
:102FD00006E0C5F81C80C9E70720C8E70220C6E75D
:102FE0004FF40072002104F1340001F04FF94FF06A
:102FF000000831462046FFF76BFD4FF001092063C2
:103000000DE000BF84F80390204601F07FFA08B17C
:103010000120ACE7206B08F10108401C20636189A6
:103020004145EFD8216BA1EB0800206331462046D3
:10303000AE61FFF74DFDE861C7F30800204434306E
:103040006F612862002092E72DE9F04F0446D0F826
:10305000009090F82F0089B010F0A00F03D0062048
:1030600009B0BDE8F08F0025D9F80C0000E06D1C18
:1030700030F815100029FAD104F124010C22684619
:10308000039101F0F9F89DF80B00C00719D040201A
:1030900084F82F00012633466946D9F80C2003989E
:1030A00000F02AFE2046FFF7EDFE10B9761C642ED4
:1030B000F1D3642E0FD00428D2D19DF80B0084F8F0
:1030C0002F009DF80B00800707D50D200C35B5FBB0
:1030D000F0F56D1C02E00720C2E701250021204623
:1030E000276800F0A3F888B900263846E16901F0A6
:1030F000D4F858B9206A0078E5280AD048B10026EB
:1031000001212046FFF726FF0028EED0042812D028
:1031100012E0761C2846AE42F2D1451E059567D0D6
:103120006169684201EB4011204600F07FF85FEAD8
:10313000000803D076E00720804673E0039801F092
:1031400094F94FF6FF7B07904846E16901F0A5F836
:103150005FEA000866D1D9F80C0006900598D4F80B
:103160002080C0B20490079988F80D100F2188F8CC
:103170000B10002188F80C1008F11A0001F071F909
:103180000498DFF8A4A0401E00EB800101EBC0060C
:10319000002701E05D4503D0069830F81650761CF4
:1031A0001AF8071001EB0800294601F05AF905B991
:1031B0005D467F1C0D2FEDD35D4505D0069830F898
:1031C000160008B1049803E0049840F04000049011
:1031D00088F80000012189F8031000212046FFF73C
:1031E000B9FE5FEA00081DD10598401E0590ABD1DD
:1031F0004846E16901F051F85FEA000812D1202247
:103200000021206A01F042F80B22206A039901F0A4
:1032100033F894F82F00216A00F018000873012099
:1032200089F8030040461BE772EE01082DE9F041E2
:1032300007680E460546B1F5001F36D2F00634D1B8
:103240006E61AC6824B93878032805D3BC6A1CB118
:1032500078894FEA402812E03889B0EB561F24D90C
:10326000B86A12E0284600F08DFD0446401C1AD0D2
:10327000022C1AD3B869A04217D9A6EB0806464516
:103280002146EFD23846FFF723FCC5E9064060B17E
:1032900000EB5620E861C6F3080038443430286259
:1032A0000020BDE8F0810120FBE70220F9E70000E3
:1032B000084910B50B5C002253B901220A540A18C0
:1032C00001EB8000127A4068016810468847024688
:1032D000104610BDD406002030B4054C231804EB72
:1032E00080001B7A406804691846A44630BC6047D9
:1032F000D406002030B4054D2C1805EB8000247A4C
:10330000406885682046AC4630BC6047D406002043
:10331000044A111802EB8000097A406842680846A6
:1033200010470000D406002030B4054D2C1805EBE2
:103330008000247A4068C5682046AC4630BC6047AF
:10334000D406002038B5044600F0EFF900280CD16F
:103350006946204601F003F9002806D12069FFF7ED
:1033600077FD002801D10021216038BD2DE9F7410A
:1033700081B0904602980090684600F064FD040019
:1033800003D50B2004B0BDE8F0810D4E002756F8A0
:1033900024501DB12846FFF779FB2F7001980028B3
:1033A00000D0077046F8240002D0B8F1010F01D018
:1033B0000020E7E7002201A902A800F02BFBE1E7CB
:1033C000600000202DE9F743ADF5147D05000BD01A
:1033D00002F03F063246694695A800F01BFB040048
:1033E0004FF0000805D0EFE009200DF5177DBDE88E
:1033F000F083009810A90190C16001A8959900F090
:1034000033FC04000ED19DF83300000601D50624DC
:1034100008E0700801D0012100E0002101A8FFF7B9
:1034200007FB044616F01C0F5DD04FF00109C4B134
:10343000042C10D10020674902E0401C022804D26D
:1034400001EB00121268002AF7D1022807D001A868
:10345000FFF7FAFD044646F008065CB1B4E012241A
:10346000B2E09DF80A0010F0110F47D1700701D5A6
:103470000824A9E0300747D500F0E3FC0746099887
:1034800039460E3000F0E5FF09983946163000F055
:10349000E0FF09992020C8720999009800F032FDD8
:1034A000074600220999009800F0BFFF0998002103
:1034B0001C3000F0CEFF009981F8039017B3D1F8CB
:1034C00030900022394601A800F075FF04007BD13E
:1034D0004946009800F0E1FE04000098A7F10107BA
:1034E00007610DD070E0ECBB9DF80A00C10601D564
:1034F000042469E0B10703D5C00701D0072463E0C5
:10350000300701D546F040060098006B68620998C4
:10351000A862700801D0012100E0002101A800F09C
:10352000B1FC2861B8B30999009800F0EBFCA860E1
:1035300009981C3000F0F9FCC5F82C80E86000996F
:103540002960009905F130004FF40072C988A98004
:103550002E7585F81580C5F8208000218146C5F8B4
:10356000188000E030E000F091FEB0062ED5EE6845
:1035700066B3AE610098A968408947020FE028460B
:1035800000F000FC0146012800D80224481C03D0AA
:10359000F61B24B105E01BE00124F61B01E0BE424E
:1035A000EDD8E96184B9F00510D00098FFF790FAE2
:1035B00070B100EB56222A620098012349464078F8
:1035C000FFF798FE10B10124C5F8008020460CE7F3
:1035D0000224F9E7B40600202DE9FE4F88460021B9
:1035E000196099461546044602A900F0B8FF002864
:1035F00012D1607D00280FD1207DC0070BD0E1687B
:10360000A0690127081A4FF0020A04F1300B854225
:1036100000D9054684E00720BDE8FE8FA169C805F2
:1036200066D102984089401E10EA512611D129B175
:10363000E06A28B12046FFF739FA05E0A06803E008
:103640002046E16900F09EFB02281BD3411C4AD0B2
:10365000E061E1690298FFF73BFA98B130440190CC
:10366000680A009025D0029932184889824201D90F
:10367000801B0090DDE9003248784146FFF73AFEB2
:1036800088BB03E084F815A00220C5E7207D000672
:103690000CD5216A0198081A0099884206D208EBD5
:1036A00040204FF40072594600F0E6FD00984602B3
:1036B0002CE0226A0198824218D0207D00060AD5AB
:1036C0000298012359464078FFF72EFE58B9207D15
:1036D00000F07F0020750298012359464078019A36
:1036E000FFF708FE10B16775012095E70198206289
:1036F000208BC0F30800C0F50076AE4200D92E46FC
:10370000011932464046303100F0B6FDA069B044A0
:103710003044A061D9F800008119AD1BC9F8001030
:10372000002D7FF47BAF002076E7F8B504466946AC
:1037300000F015FF00280ED1217D4A060BD50806A2
:103740000ED50098226A0123407804F13001FFF77A
:10375000EBFD08B10120F8BD207D00F07F00207551
:1037600000F06FFB0646616A009800F096FD0028A5
:10377000F1D1A56A2946E87A40F02000E872A268F3
:10378000206800F052FE05F11C00E16800F061FEC7
:10379000314605F1160000F05CFE002105F1120033
:1037A00000F05FFE00980121C17000F06BFE217DEA
:1037B00001F0BF012175F8BD2DE9FE4F0446002040
:1037C000884618609946154602A9204600F0C7FEB3
:1037D000002806D1607D002803D1207D800702D417
:1037E0000720BDE8FE8FA069012742194FF0020AA9
:1037F00004F1300B824200D2C5439BE0A169C805A9
:1038000075D102984089401E10EA512618D129B17D
:10381000E06A38B12046FFF749F907E0A06838B9F7
:10382000002100E0E1692046FFF79EF900287DD0E5
:1038300001282DD0411C54D0E061A16801B9A060DD
:10384000207D00060BD50298226A01234078594654
:10385000FFF76AFDA0BB207D00F07F002075E169C5
:103860000298FFF735F998B130440190680A00904A
:1038700027D03218029841898A4201D9891B0091C8
:10388000DDE9003240784146FFF74EFDC0B903E064
:1038900084F815A00220A4E7216A0198081A00996B
:1038A00088420AD208EB40214FF40072584600F0DB
:1038B000E3FC207D00F07F0020750098460228E0A0
:1038C0000FE0216A019881420FD0E168A069884227
:1038D0000BD20298012359464078019AFFF70AFD5E
:1038E00018B1677501207CE701E001982062208B08
:1038F000C0F30800C0F50076AE4200D92E46204441
:1039000032464146303000F0B7FC207D40F0800068
:103910002075A069B0443044A061E168884200D8B5
:103920000846E060D9F80000811900E005E0AD1B11
:10393000C9F80010002D7FF461AF207D40F04000F9
:10394000207500204DE7000070B580281BD343F29E
:10395000BF4309B10D4D00E00D4D002110245A1A4E
:1039600002EBD27201EB620235F82260864206D089
:1039700001D2114600E01346641EF0D104E01CB1F0
:1039800005EB8200408870BD002070BDC41801089E
:10399000C445000830B5B0F5805F01D21B4900E096
:1039A0001B4931F8022B002A15D0904213D331F86D
:1039B000024B230AE5B252FA84F4844221D9092B3E
:1039C00009D2DFE803F005090E11131517191B00C2
:1039D000801A31F8100030BD811A01F00101401A3F
:1039E00000E0103880B230BD2038FBE73038F9E70E
:1039F0001A38F7E70830F5E75038F3E7A0F5E35059
:103A0000F0E7002BCDD101EB4501CAE7C4EB01087B
:103A1000B6ED01082DE9FF41002790460E460F60E4
:103A200000F011FA050003D50B2004B0BDE8F081C9
:103A30008A4850F825409CB13460207808F0FE0692
:103A400020B16078FFF764FCC1070BD02770E8B2A3
:103A5000B8466070FFF72CFCC10708D00320E4E7EC
:103A60000C20E2E70EB1400704D40020DDE71EB1D0
:103A7000400701D50A20D8E7002631462046FEF748
:103A800097FF022822D100254FEA0D0704EB05100D
:103A900090F8F61100F5F97019B1083000F045FA08
:103AA00000E0002047F825006D1C042DEED3002512
:103AB00057F8256036B131462046FEF779FF0228D7
:103AC00001D203E003206D1C042DF1D3042809D09A
:103AD00002286DD204F13F0000F032FAB0F5007F09
:103AE00066D101E00120A0E704F14A0000F028FAC5
:103AF00018B904F1580000F018FAE06194F8445045
:103B0000A570012D01D0022D52D1454394F84100FA
:103B10006081E8B3411E08424AD104F1450000F03B
:103B20000FFA2081000743D104F1470000F008FAA2
:103B3000070004D104F1540000F0F7F9074604F13E
:103B4000420000F0FDF9010032D02389481900EB52
:103B5000131297422CD3B81A6789B0FBF7F0B8B1AB
:103B600003274FF6F57C604500D8022740F6F57C28
:103B7000604500D80127801C3244E2623144A061D4
:103B8000C4E90861032F15D013B12944A16200E0F4
:103B90000EE0022F1FD000F0010100EB400001EB0E
:103BA000500000BFE16900F2FF10B1EB502F14D2BA
:103BB0000D203AE704F15E0000F0C2F90028F7D1C9
:103BC00020890028F4D104F1600000F0AEF9A06271
:103BD000A0698000E6E74000E4E74FF0FF30606155
:103BE000206180202071032F2CD104F1640000F0AB
:103BF000A7F9012826D1711C204600F04EFB08BB16
:103C000084F8048004F2322000F09AF9A0F52A41E9
:103C1000553917D104F1340000F087F91049884272
:103C200010D104F5067000F080F90E49884209D1E0
:103C300004F5077000F079F9606104F5087000F090
:103C400074F9206105492770091F0888401C088005
:103C5000E0802046FEF71AFF07E700006000002022
:103C6000525261417272416173B504460568019810
:103C700001E0401C019001782F29FAD05C29F8D08E
:103C80000021A16001980078202806D2802084F8C5
:103C90002F002046FFF7CAFA7CBD01A92046FEF797
:103CA000B5FF0028F8D12046FFF7ECF894F82F1064
:103CB00028B10428F0D14907EED405207CBD49077E
:103CC000FCD4A079C006F8D5A08AC0F30800411939
:103CD0002846343100F016F9A060DEE738B5044616
:103CE0008DF800000223012269460248FDF7BEFD5F
:103CF000204638BDEC0000207CB516461C46054623
:103D00000B2200F0B9FA052C11D91D4A0CE0002154
:103D1000B61C2346044663F35F044008E30300D562
:103D20005440491C1029F4D330880028EFD10721D2
:103D30004FEA0D0304F00F003030392800D9C01DC0
:103D40005854491E2409F5D17E20002258544C1E97
:103D500006E081387D2802D8A24206D0521C521CAF
:103D60008A4202D2A85C2028F3D1082902D2585CEA
:103D7000491C00E02020A854521C082AF5D37CBD21
:103D8000211001002DE9F04104680D4602290BD3F2
:103D9000A069A84208D920784FF0FF36012807D043
:103DA00002282BD0032839D001263046BDE8F08107
:103DB000606A05EB550700EB5721204600F06DFACD
:103DC0000028F2D1C7F3080020447F1C90F834800B
:103DD000606A00EB5721204600F05FFA0028E4D12A
:103DE000C7F30800204490F8341048EA0120E9079E
:103DF00001D00609D9E7C0F30B06D6E7606A00EBED
:103E00001521204600F049FA0028CED1E8B204EB93
:103E10004000343000F094F80646C6E7606A00EBD4
:103E2000D511204600F039FA0028BED140F2FF102B
:103E300000EA85002044343000F077F820F0704626
:103E4000B3E70020704710B504464FF0FF302268FA
:103E5000002A13D0114600E0491C0B78202B0ED30A
:103E60003A2BF9D112F8013B303B0A2B06D28A4299
:103E700004D1002B02D1491C1846216010BD00203E
:103E800010BD0000F0B502461D4BD2F800500020D6
:103E900003EB00142668AE4207D166689768BE42FD
:103EA00003D1A4685669B44202D0401C0228EFD363
:103EB000022814D1002002E0401C022804D203EBA7
:103EC00000142468002CF7D102280ED003EB001454
:103ED0002560956865605269A2600022A281002970
:103EE00003EB0011898902D019B10020F0BD491CF3
:103EF00001E04FF4807103EB0012401C9181F0BD92
:103F0000B406002070B506460D4601F11A0000F017
:103F100017F804463078032805D105F1140000F0A5
:103F20000FF844EA0044204670BDC178827842EA26
:103F300001214278007842EA012140EA01207047DD
:103F40004178007840EA01207047000008B5FCF78E
:103F500001FDFEF72DFA66480024016841F00401D6
:103F60000160016801F004010091016841F0010164
:103F70000160016801F001010091016841F0080150
:103F80000160016801F008010091016841F48001BD
:103F900001600068002200F48000009006213B20B0
:103FA000FCF760FD3B20FCF751FD00220621452077
:103FB000FCF758FD4520FCF749FD4F484D49C0E945
:103FC00000148460C460046144618461FDF7ACFC4A
:103FD00049484A49843001604FF4E131C0E9011495
:103FE0000C21C460C0E904418461C461FDF7E7FBB2
:103FF00000B1FEE742A0FEF7DFFB3F48002249A1E7
:10400000C430FFF7B3F9484C011E207003D047A01D
:10401000FEF7D2FBFEE74BA0FEF7CEFB0A224E498D
:104020004E48FFF7CFF92070011E03D04CA0FEF7D9
:10403000C3FB02E050A0FEF7BFFB474B2122293B08
:1040400003F108014548FFF7B7FB2070011E01D0BE
:104050004FA005E055A0FEF7AFFB3F495AA021391C
:10406000FEF7AAFB3D48FFF76DF92070011E03D053
:104070005AA0FEF7A1FB02E05DA0FEF79DFB012226
:1040800035493648FFF79EF92070011E03D034A051
:10409000FEF792FB02E038A0FEF78EFB2E4B642267
:1040A000253B58492D48FFF797FA2070011E01D093
:1040B00055A004E059A0FEF77FFB52495CA0FEF733
:1040C0007BFB2648FFF73EF92070011E03D05DA060
:1040D000FEF772FB02E046A0FEF76EFB1E48293891
:1040E00003C8814202D15DA0FEF766FBFEE7000037
:1040F00030380240002C01406800002000100140D0
:104100000D0A202A2A2A2A2A2A2046617446732068
:104110004578616D706C65202A2A2A2A2A2A0D0AA0
:104120000D0A00000000000044000020206D6F75A3
:104130006E74206572726F72203A202564200D0A19
:1041400000000000206D6F756E74207375636573D9
:1041500073212121200D0A00290000206003002086
:10416000206F70656E2066696C65206572726F7273
:10417000203A2025640D0A00206F70656E20666964
:104180006C6520737563657373212121200D0A000E
:104190002077726974652066696C65206572726F3C
:1041A00072203A2025640D0A000000002077726911
:1041B00074652066696C652073756365737321216E
:1041C00021200D0A000000002077726974652044E8
:1041D000617461203A2025730D0A000020636C6F22
:1041E0007365206572726F72203A2025640D0A0093
:1041F00020636C6F73652073756365737321212170
:10420000200D0A009005002020726561642065720F
:10421000726F722121212025640D0A0020726561D0
:104220006420737563657373212121200D0A0000DA
:1042300020726561642044617461203A2025730D09
:104240000A00000020636C6F7365206572726F72E4
:104250002121212025640D0A000000002046617400
:10426000467320697320776F726B696E672077657C
:104270006C6C2121210D0A00002A05D011F8013BA8
:1042800000F8013B521EF9D1704700005FFA81F13E
:1042900000F8011B521EFBD1704770B50446006B3D
:1042A0000D460026A8420FD0204600F02FF9060048
:1042B0000AD1607801232A4604F13401FFF71AF885
:1042C00008B1751E01262563304670BD2DE9F04703
:1042D000022617460D460446022969D3A069A84262
:1042E00066D920784FF00109012804D0022836D081
:1042F00003285DD143E0616A05EB550801EB5821C5
:104300002046FFF7CAFF060052D1C8F30800204438
:10431000343008F10108E90704D00178FAB262F3F9
:104320001F1100E03946017084F80390616A20464D
:1043300001EB5821FFF7B1FF060039D1C8F308009F
:1043400020443430E90702D0C7F3071105E00178B3
:10435000C7F3032201F0F0011143017026E0606A07
:1043600000EB15212046FFF798FF060020D1E8B2A8
:1043700004EB4000B9B2343000F073F816E0606A24
:1043800000EBD5112046FFF788FF060010D140F260
:10439000FF1000EA8500204434300546FFF7C5FDD4
:1043A00067F31B000146284600F053F884F8039099
:1043B0003046BDE8F0872DE9F041056813460E460A
:1043C000074602292DD3A869B0422AD93BB14FF044
:1043D000FF3219462846FFF779FF00281FD13146E2
:1043E0003846FFF7CFFC040018D0012C19D0601C10
:1043F00019D0002231462846FFF768FF00280ED169
:10440000D5E90510821E914205D2491C69612979BE
:1044100041F0010129712646B042E0D80020BDE8F4
:10442000F0810220FBE70120F9E770B50C46064653
:10443000154691B204F11A0000F013F83078032801
:1044400006D1290C04F11400BDE8704000F009B851
:1044500070BD0170090A4170090A8170090AC170B2
:1044600070470170090A41707047014600200B2215
:10447000430803EBC01011F8013B521E1844C0B2B0
:10448000F6D1704770B5044600F040F8050036D10B
:10449000207803282CD12079012829D1420204F167
:1044A000340000210646FFF7F1FE4AF6552104F2DA
:1044B0003220FFF7D6FF13493046FFF7CAFF1249F3
:1044C00004F50670FFF7C5FF04F507706169FFF793
:1044D000C0FF04F508702169FFF7BBFF226A0123C2
:1044E000521C226360783146FEF71EFF00202071C7
:1044F000002260781146FEF7EFFE00B10125284644
:1045000070BD000052526141727241612DE9F0416B
:104510000446C0780027F8B1256B04F134016078B7
:1045200001232A468846FEF7FFFE08B1012713E063
:104530000020E070606AE169281A88420CD2A678EF
:1045400008E0E0690123054460782A464146FEF709
:10455000EBFE761E022EF4D23846BDE8F08170B52F
:104560000D4604000CD0206850B1017841B1C188DB
:10457000A288914204D14078FEF7CAFEC00703D05A
:1045800000202860092070BD20682860002070BDD0
:104590005522000831230008C522000835230008F1
:1045A0007522000800061016000610160000000014
:1045B00000000000010203040607080900000000D3
:1045C00001020304A700B1A1AF00C2A1B00058A22C
:1045D000B100D3A1B70050A1D700D1A1F700D2A15B
:1045E000C702BEA3C902BCA3CA02BDA3CB02BFA31C
:1045F000CD02C5A1D902BBA3910344A3920345A355
:10460000930346A3940347A3950348A3960349A3A2
:1046100097034AA398034BA399034CA39A034DA372
:104620009B034EA39C034FA39D0350A39E0351A342
:104630009F0352A3A00353A3A10354A3A30355A311
:10464000A40356A3A50357A3A60358A3A70359A3DE
:10465000A8035AA3A9035BA3B1035CA3B2035DA3A0
:10466000B3035EA3B4035FA3B50360A3B60361A362
:10467000B70362A3B80363A3B90364A3BA0365A332
:10468000BB0366A3BC0367A3BD0368A3BE0369A302
:10469000BF036AA3C0036BA3C1036CA3C3036DA3D1
:1046A000C4036EA3C5036FA3C60370A3C70371A39E
:1046B000C80372A3C90373A3132056A1142058A1E1
:1046C0001820A5A11920A6A11C20A7A11D20A8A1E2
:1046D00025204CA126204BA1272045A13220ACA1AA
:1046E0003520ABA13B20B0A1AC20E1A303214AA21D
:1046F0000521C1A109214BA26021B9A26121BAA261
:104700006221BBA26321BCA26421BDA26521BEA21D
:104710006621BFA26721C0A26821C1A26921C2A2ED
:104720009021F6A19121F4A19221F7A19321F5A165
:104730009621F8A19721F9A19821FBA19921FAA12D
:10474000152241A21A22D4A11E22DBA11F22E8A118
:104750002022E7A12322FDA12522FCA12922E4A1F8
:104760002A22E5A12B22ECA12E22EDA13422EFA1D9
:104770003522EEA15222DCA16022DAA16122DDA164
:104780006622D8A16722D9A19522F2A19922F3A18C
:10479000A522E6A1BF22E9A1002577A2022578A2E1
:1047A0000C257AA210257BA214257CA218257DA2B7
:1047B0001C2575A2242574A22C2573A2342572A26F
:1047C0003C2571A25025A4A25025F9F95125F8F9EC
:1047D0005225E6F95325EFF95425DDF95525E8F979
:1047E0005625F1F95725DFF95825ECF95925F5F942
:1047F0005A25E3F95B25EEF95C25F7F95D25E5F926
:104800005E25A5A25E25E9F95F25F2F96025E0F9AC
:104810006125A7A26125EBF96225F4F96325E2F988
:104820006425E7F96525F0F96625DEF96725EDF9D8
:104830006825F6F96925E4F96A25A6A26A25EAF948
:104840006B25F3F96C25E1F96D257EA26D25FAF94A
:104850006E25A1A26E25FBF96F25A3A26F25FDF998
:104860007025A2A27025FCF97125ACA27225ADA21B
:104870007325AEA274255AA1812562A2822563A266
:10488000832564A2842565A2852566A2862567A264
:10489000872568A2882569A2892570A28A256FA22A
:1048A0008B256EA28C256DA28D256CA28E256BA208
:1048B0008F256AA29325FEF9942576A2952579A2E3
:1048C000A025BDA1A125BCA1B225B6A1B325B5A146
:1048D000BC25BFA1BD25BEA1C625BBA1C725BAA1C8
:1048E000CB25B3A1CE25B7A1CF25B4A1E225A8A29F
:1048F000E325A9A2E425ABA2E525AAA20526B9A134
:104900000626B8A14026F0A14226F1A1003040A120
:10491000013042A1023043A10330B2A1083071A19D
:10492000093072A10A306DA10B306EA10C3075A157
:104930000D3076A10E3079A10F307AA1103069A127
:1049400011306AA1123045A2143065A1153066A15C
:104950001D30A9A11E30AAA12130C3A22230C4A2B9
:104960002330C5A22430C6A22530C7A22630C8A253
:104970002730C9A22830CAA22930CBA2053174A39E
:10498000063175A3073176A3083177A3093178A3DF
:104990000A3179A30B317AA30C317BA30D317CA3AF
:1049A0000E317DA30F317EA31031A1A31131A2A33B
:1049B0001231A3A31331A4A31431A5A31531A6A3C7
:1049C0001631A7A31731A8A31831A9A31931AAA397
:1049D0001A31ABA31B31ACA31C31ADA31D31AEA367
:1049E0001E31AFA31F31B0A32031B1A32131B2A337
:1049F0002231B3A32331B4A32431B5A32531B6A307
:104A00002631B7A32731B8A32831B9A32931BAA3D6
:104A1000A332C0A18E3355A28F3356A29C3350A22D
:104A20009D3351A29E3352A2A13354A2C43357A244
:104A3000CE3353A2D133EBA1D233EAA1D5334FA267
:104A4000004E40A4014E42A4034E43A4074E45C964
:104A5000084E56A4094E54A40A4E57A40B4E55A412
:104A60000C4E46C90D4EA3A40E4E4FC90F4E4DC954
:104A7000104EA2A4114EA1A4144E42A5154E41A55C
:104A8000164E40A5184E43A5194EFEA41E4EE0A595
:104A90001F4EE1A5264EC3A82B4E58A42D4EA4A40C
:104AA0002E4E50C9304EA5A4314E63C9324EEAA6EF
:104AB000334EB1CB384E59A4394EA6A43B4E44A533
:104AC0003C4E64C9424E40C9434E44A4454E5BA48B
:104AD000474E47C9484E5CA44B4EA7A44D4E45A532
:104AE0004E4E47A54F4E46A5524EE2A5534EE3A566
:104AF000564EC4A8584EBCAD594E41A45C4E41C957
:104B00005D4E45A45E4E5EA45F4E5DA4694EE4A575
:104B1000734EC5A87E4EAEB07F4E4BD4824EC3B608
:104B2000834EB1DC844EB2DC864E46A4884EA9A4E6
:104B30008B4EC6A88C4E47A48D4E48C98E4E5FA49E
:104B4000914EAAA4924EACA4934E51C9944EADA4DA
:104B5000954EABA4994EE5A59B4EC7A89E4EC8A8FE
:104B60009F4E45ABA14E60A4A24EAEA4A44EE6A5B6
:104B7000A54EE8A5A64EE7A5A84EEBA6AB4EC9A844
:104B8000AC4ECAA8AD4E46ABAE4E47ABB34EBDAD74
:104B9000B64EB3DCB94ED6F6BA4E48A4C04EB0A459
:104BA000C14EAFA4C24E52C9C34EB1A4C44EB7A4A5
:104BB000C64EB2A4C74EB3A4C84E54C9C94E53C9B9
:104BC000CA4EB5A4CB4EB6A4CD4EB4A4D44E4AA57D
:104BD000D54E4BA5D64E4CA5D74E4DA5D84E49A582
:104BE000D94E50A5DA4E6AC9DC4E66C9DD4E69C998
:104BF000DE4E51A5DF4E61A5E14E68C9E34E4EA5DC
:104C0000E44E4FA5E54E48A5E84E65C9E94E67C993
:104C1000F04EF5A5F14EB0C9F24EF2A5F34EF6A551
:104C2000F44EBAC9F54EAEC9F64EF3A5F74EB2C969
:104C3000FB4EF4A5FD4EF7A5FF4EE9A5004FB1C907
:104C4000014FF8A5024FB5C9044FB9C9054FB6C900
:104C5000084FB3C9094FEAA50A4FECA50B4FF9A5B8
:104C60000D4FEEA50E4FABC90F4FF1A5104FEFA59D
:104C7000114FF0A5124FBBC9134FB8C9144FAFC99C
:104C8000154FEDA5184FACC9194FEBA51D4FB4C971
:104C9000224FB7C92C4FADC92D4F66CA2F4F42A71F
:104CA000304FF4A6334F67CA344FF1A6364F44A7AE
:104CB000384FF9A63A4FF8A63B4F5BCA3C4FFCA6CB
:104CC0003D4FF7A63E4F60CA3F4F68CA414F64CA86
:104CD000434FFAA6464FFDA6474FEEA6484F47A7BB
:104CE000494F5DCA4C4FBDCB4D4FECA64E4F43A72D
:104CF0004F4FEDA6504FF5A6514FF6A6524F62CA40
:104D0000534F5ECA544FFBA6554FF3A6564F5ACA8F
:104D1000574FEFA6584F65CA594F45A75A4F48A756
:104D20005B4FF2A65C4F40A75D4F46A75E4FF0A6D3
:104D30005F4F63CA604F41A7614F69CA624F5CCA47
:104D4000634FFEA6644F5FCA674F61CA694FD8A818
:104D50006A4FBFCB6B4FCBCB6C4FD0A86E4FCCCB39
:104D60006F4FCBA8704FD5A8734FCEA8744FB9CB57
:104D7000754FD6A8764FB8CB774FBCCB784FC3CB07
:104D8000794FC1CB7A4FDEA87B4FD9A87C4FB3CBEC
:104D90007D4FB5CB7E4FDBA87F4FCFA8804FB6CBE2
:104DA000814FC2CB824FC9CB834FD4A8844FBBCB9A
:104DB000854FB4CB864FD3A8874FB7CB884FD7A8A2
:104DC000894FBACB8B4FD2A88D4FCDA88F4FDCA87F
:104DD000904FC4CB914FDDA8924FC8CB944FC6CB18
:104DE000954FCACB964FDAA8974FBECB984FB2CB10
:104DF0009A4FC0CB9B4FD1A89C4FC5CB9D4FCCA801
:104E00009E4FC7CBAE4F56ABAF4F4AABB24FE0CD84
:104E1000B34FE8CDB54F49ABB64F51ABB74F5DABD4
:104E2000B94FEECDBA4FECCDBB4FE7CDBF4F4BAB3B
:104E3000C04FEDCDC14FE3CDC24F59ABC34F50ABC7
:104E4000C44F58ABC54FDECDC74FEACDC94FE1CDFA
:104E5000CA4F54ABCB4FE2CDCD4FDDCDCE4F5BAB88
:104E6000CF4F4EABD04F57ABD14F4DABD34FDFCD24
:104E7000D44FE4CDD64FEBCDD74F55ABD84F52AB37
:104E8000D94FE6CDDA4F5AABDB4FE9CDDC4FE5CD5C
:104E9000DD4F4FABDE4F5CABDF4F53ABE04F4CAB66
:104EA000E14F48ABEC4FEFCDEE4FD7ADEF4FC1AD7B
:104EB000F14FD1ADF34FD6ADF44FD0D0F54FCFD0A9
:104EC000F64FD4D0F74FD5D0F84FC4ADFA4FCDAD93
:104ED000FE4FDAAD0050CEAD0550C9D00650C7AD7B
:104EE0000750CAD00950DCAD0B50D3AD0C50BEAD4D
:104EF0000D50BFAD0E50DDD00F50BFB01150CCAD36
:104F00001250CBAD1350CBD01450CFAD15505BD455
:104F10001650C6AD1750D6D01850D5AD1950D4ADD7
:104F20001A50CAAD1B50CED01C50D7D01E50C8D07E
:104F30001F50C9AD2050D8D02150D2AD2250CCD076
:104F40002350C0AD2550C3AD2650C2AD2750D9D097
:104F50002850D0AD2950C5AD2A50D9AD2B50DBAD6E
:104F60002C50D3D02D50D8AD2F50DBD03050CDD0D9
:104F70003150DCD03350D1D03550DAD03750D2D088
:104F80003C50C8AD405063D4415057D44350B3B0A7
:104F900045505CD4465062D44750B2B0485055D4C6
:104FA0004950B6B04A5059D44B5052D44C50B4B07A
:104FB0004D5056D44E50B9B04F50BEB0515067D43A
:104FC000535051D45550BAB0575066D45A50B5B01A
:104FD0005B5058D45C50B1B05D5053D45E504FD448
:104FE0005F505DD4605050D461504ED462505AD45A
:104FF000635060D4645061D46550B7B068505BD8DA
:1050000069505ED46A504DD46B505FD46D50C1B0BE
:105010006E5064D46F50C0B070504CD4725054D4A1
:10502000735065D47450BCB07550BBB07650B8B0F6
:105030007750BDB07A50AFB07D50B0B08050C8B39B
:1050400082505ED8835057D88550C5B387505FD8FB
:105050008B5055D88C5058D88D50C4B38E5059D8D9
:105060009150C7B392505DD8945053D8955052D8B0
:105070009650C9B39850CAB39950C6B39A50CBB39F
:105080009B5051D89C505CD89D505AD89E5054D8B3
:10509000A250C3B3A35056D8AC50CAB6AD50C4B694
:1050A000AE50B7DCAF50CDB6B050BDDCB150C0DCB7
:1050B000B250C6B6B350C7B6B450BADCB550C5B6D8
:1050C000B650C3DCB750CBB6B850C4DCBA50BFDC66
:1050D000BB50CCB6BD50B4DCBE50C9B6BF50B5DC79
:1050E000C150BEDCC250BCDCC450B8DCC550C8B630
:1050F000C650B6DCC750CEB6C850BBDCC950C2DC07
:10510000CA50B9DCCB50C1DCCE50B6B9CF50B3B920
:10511000D150B4B9D350F9E0D450F1E0D550B2B980
:10512000D650AFB9D750F2E0DA50B1B9DB50F5E064
:10513000DD50F7E0E050FEE0E350FDE0E450F8E041
:10514000E550AEB9E650F0E0E750ACB9E850F3E016
:10515000E950B7B9EA50F6E0EC50FAE0ED50B0B9DA
:10516000EE50ADB9EF50FCE0F050FBE0F150B5B9B6
:10517000F350F4E0F550F8BBF650ECE4F850E9E4F5
:10518000F950F9BBFB50F7BBFD50F0E4FE50EDE4E5
:10519000FF50E6E40051F6BB0251FABB0351E7E4CD
:1051A0000451F5BB0551FDBB0651EAE40751EBE4A0
:1051B0000851FBBB0951FCBB0A51F1E40B51EEE471
:1051C0000C51EFE41051AABE1151F8E81251A7BEDC
:1051D0001351F5E81451A9BE1551ABBE1751F6E8AD
:1051E0001851A8BE1A51F7E81C51F4E81F5176C0B7
:1051F0002051BDEC215177C02251BBEC2451BCECB5
:105200002551BAEC2651B9EC2951BEEC2A5175C092
:105210002D51B8EF2E51B9EF3051E8E43151B7EFCD
:10522000325178C033515FC33451EBF13551ECF159
:105230003751D7C43851D8C43951C1F53A51C0F5A6
:105240003B516CC53C516BC53D51D0F73F5149A412
:10525000405161A44151B9A44351B8A4445153A54C
:10526000455152A54651FCA54751FBA54851FDA506
:105270004951FAA54B514AA74C5149A74D514BA74B
:105280005251E0A85451DFA85551E1A857515EABE7
:10529000595159A25A51DED05B515AA25C51C2B049
:1052A0005D515CA25E515BA25F5160D861515DA20D
:1052B0006251B8B963515EA265514AA46751BAA45C
:1052C0006851FEA56951E2A86B514BA46C51BDA475
:1052D0006D51BBA46E51BCA4715140A675514CA731
:1052E0007651E4A87751E3A87851E5A87C51DDAD6B
:1052F0008051ACBE87514EC9895154A58A5155A5DC
:105300008D5141A68F516ACA915160AB92515FABEA
:105310009351E0D09451DFD09551C3B09751BEA4C2
:10532000985155C99E51CDCBA05161ABA251E0AD72
:10533000A451DEADA551DFADAA51ADBEAC5156A50D
:10534000B05142A6B151BCC9B6514DA7B7514EA7F5
:10535000B9516BCABC51CECBBD51E6A8BE51CFCB23
:10536000C451E2D0C551E3D0C651E3ADC851E4D039
:10537000CA51E1D0CB51E4ADCC51E2ADCD51E1AD5C
:10538000CE51E5D0D05168D4D45161D8D751C5DCC5
:10539000D85140E1DC51FEBBDD51AEBEDE51F9E833
:1053A000E0514CA4E1515AA4F051C4B0F151CDB335
:1053B000F351B9B9F55142C9F651BFA4F85159A5F5
:1053C000F95157A5FA5158A5FD51E7A800524DA42F
:1053D00001524EA4035262A40652C0A40752C1A4B3
:1053E0000852C2A40952BEC90A525AA50C526BC92E
:1053F0000E5246A61052BFC9115244A6125245A6DB
:105400001352BDC9165247A6175243A61C526CCA66
:105410001D52ECAA1E526DCA21526ECA245250A7C8
:1054200025524FA7285253A7295251A72A5252A7B3
:105430002E52EDA83052ECA83152D4CB3252D1CBFF
:105440003352D2CB3552D0CB3652EEA83752EAA8DF
:105450003852E9A83A52EBA83B52E8A84152EFA8CB
:10546000435263AB4452F0CD4652D3CB475268AB64
:105470004952F1CD4A5264AB4B5267AB4C5266ABCA
:105480004D5265AB4E5262AB5252E8D05452E7AD2A
:105490005552EBD05652E5AD5A52E7D05B52E8ADCB
:1054A0005C52E6AD5D52E9AD5E52E9D05F52EAD0A2
:1054B0006152E6D06252ECD06952D1B36A52C5B0A3
:1054C0006B5269D46C526BD46D526AD46E526CD4E8
:1054D0006F52C6B07252CEB37452CFB37552D0B3BE
:1054E0007752D0B67852C7DC7A52C6DC7B52C8DC21
:1054F0007C52C9DC7D52D1B67F52CFB6805241E199
:10550000815242E18252BBB98352BAB984525AE302
:10551000875240BC885241BC895242BC8A5244BC2A
:105520008B52F2E48C52F3E48D5243BC9152AFBEE5
:105530009352B0BE9652EDF19752C3F59852C2F510
:105540009952D1F79B524FA49F525CA5A0525BA5E4
:10555000A35248A6A652C0C9A95255A7AA5256A7F7
:10556000AB5254A7AC5257A7AD526FCAAE5270CAD5
:10557000BB52F1A8BC52D5CBBE52F0A8C052F2CD5E
:10558000C1526CABC252F3CDC3526BABC75269ABC5
:10559000C9526AABCD52EDD0D252C7B0D3526ED4FD
:1055A000D552CAB0D6526DD4D752E5B1D852C9B08F
:1055B000D952C8B0DB52D4B3DD52D3B3DE52D2B32A
:1055C000DF52D2B6E252D5B6E352D6B6E452D4B6E2
:1055D000E652D3B6E95243E1EB5244E1EF52F5E42F
:1055E000F05245BCF152F4E4F352B1BEF452BFECB8
:1055F000F55279C0F752EEF1F85255C4FA5263A44D
:10560000FB52C3A4FC5256C9FE52C4A4FF52C5A407
:1056100005535DA506535EA5085349A6095371CAF3
:105620000A53D6CB0B53D7CB0D536DAB0E53EED0E5
:105630000F53CCB01053CBB0115363D8125362D870
:10564000155350A41653C6A417535FA51953CDB0D4
:105650001A5343C91C536CC91D5360A51F53C2C9BB
:1056600020534BA621534AA62253C1C9235358A7FE
:105670002A53EAAD2D536FD42F53D7B6305345E19B
:105680003153BCB93453FAE83753FDF33953C7A447
:105690003C53D8CB3D53F4CD3E53D0B03F53CEB066
:1056A0004053CFB04153CCA2415351A4435364A4BF
:1056B0004453CDA24553CEA24553CAA44753C9A4CF
:1056C0004853C8A4495363A54A5362A54C536DC9B6
:1056D0004D53C3C95153F5A85253F2A85353F4A8DC
:1056E0005453F3A857536EAB5A53D5B35C5352A4DB
:1056F0005E53CBA4605365A5615364A5635372CA1E
:105700006653F6A86C5357C96E5367A56F5366A5C9
:1057100070534CA671534DA6725373CA735359A755
:1057200075535AA77753F7A87853F8A87953F9A86F
:105730007B536FAB7C53F5CD7F53EBAD825344C9A4
:105740008453CCA48A53C4C98E5374CA8F5375CA68
:105750009253D9CB9453DACB9653F7CD9753F6CDDA
:105760009853F9CD9953F8CD9A5370AB9C5370D49C
:105770009D53EDAD9E53EFD09F53ECADA45364D831
:10578000A553D6B3A75365D8AC5346E1AD53BDB9C5
:10579000B25346BCB453EFF1B95358C9BB5368A5D3
:1057A000C353D1B0C85353A4C95365A4CA53CEA49C
:1057B000CB53CDA4CD53CFA4D453FBA8D653FAA832
:1057C000D753FCA8DB5371ABDF53EEADE153FBE8DD
:1057D000E2534FC2E35366A4E4536AA5E55379A5A7
:1057E000E65374A5E8536FA5E9536EA5EA5375A572
:1057F000EB5373A5EC536CA5ED537AA5EE536DA551
:10580000EF5369A5F05378A5F15377A5F25376A528
:10581000F3536BA5F55372A5F85371A5FB537BA504
:10582000FC5370A5015453A6035459A6045455A61D
:1058300006545BA60754C5C9085458A609544EA679
:105840000A5451A60B5454A60C5450A60D5457A6F6
:105850000E545AA60F544FA6105452A6115456A6D1
:1058600012545CA618547ECA19547BCA1B5467A7ED
:105870001C547CCA1D545BA71E545DA71F5475A7FA
:10588000205470A72454A5CA25547DCA26545FA766
:10589000275461A72854A4CA295468A72A5478CA4F
:1058A0002B5474A72C5476A72D545CA72E546DA7A7
:1058B000305476CA315473A7335464A735546EA755
:1058C00036546FA7375477CA38546CA739546AA72F
:1058D0003B546BA73C5471A73D54A1CA3E545EA7EC
:1058E000405472A74154A3CA425466A7435463A7C5
:1058F00045547ACA465462A74754A6CA485465A775
:105900004A5469A74E5460A74F54A2CA545479CA46
:105910006054EBCB6154EACB62544FA96354EDCB96
:105920006454EFCB6554E4CB6654E7CB6754EECBBD
:10593000685450A96B54E1CB6C54E5CB6F54E9CB60
:10594000705449CE71544BA972544DCE7354FDA876
:105950007454E6CB7554FEA876544CA9775445A9E7
:10596000785441A97A54E2CB7B5444A97C5449A988
:105970007D5452A97E54E3CB7F54DCCB805443A9A1
:105980008154DDCB8254DFCB845446A9865448A988
:105990008754DBCB8854E0CB8B5451A98C544DA950
:1059A0008D54E8CB8E5453A990544AA99154DECB20
:1059B000925447A9955442A9965440A99854ECCBC7
:1059C0009A544EA9A05448CEA154FBCDA2544BCE1C
:1059D000A554FDCDA65478ABA754A8ABA85474AB7E
:1059E000A954A7ABAA547DABAB54A4ABAC5472ABD7
:1059F000AD54FCCDAE5443CEAF54A3ABB0544FCE58
:105A0000B154A5ABB35479ABB65445CEB75442CEDE
:105A1000B85477ABBA54FACDBB54A6ABBC544ACEFB
:105A2000BD547CABBE544CCEBF54A9ABC05473AB79
:105A3000C1547EABC2547BABC35440CEC454A1AB63
:105A4000C55446CEC65447CEC7547AABC854A2AB51
:105A5000C95476ABCE5475ABCF54FECDD65444CE9C
:105A6000DE544ECEE05444D1E154FBADE254F1D0CB
:105A7000E454F6D0E554F4ADE65440AEE754F4D027
:105A8000E854EFADE954F9ADEA54FEADEB54FBD068
:105A9000ED54FAADEE54FDADF154FED0F254F5AD37
:105AA000F354F5D0F75442D1F85443D1FA54F7AD3A
:105AB000FB5441D1FC54F3ADFD5443AEFF54F8D038
:105AC0000155F1AD035546D10455F9D00555FDD02A
:105AD0000655F6AD075542AE0855FAD00955FCAD4E
