:020000040800F2
:10000000984E00209D010008D7200008C71E000858
:10001000D520000871050008C52E0008000000006A
:10002000000000000000000000000000012D00089A
:100030009506000800000000F9200008032D0008C4
:10004000B7010008B7010008B7010008B7010008B0
:10005000B7010008B7010008B7010008B7010008A0
:10006000B7010008B7010008B7010008B701000890
:10007000B7010008B7010008B7010008B701000880
:10008000D9050008B7010008B7010008B70100084A
:10009000B7010008B7010008B7010008B701000860
:1000A000B7010008B7010008B7010008B701000850
:1000B000B7010008B7010008B7010008B701000840
:1000C000B7010008B7010008B7010008B701000830
:1000D000B7010008B7010008B7010008B701000820
:1000E000B7010008B7010008B7010008B701000810
:1000F000B7010008B7010008B7010008B701000800
:10010000B701000835210008B7010008B701000851
:10011000B7010008B7010008B7010008B7010008DF
:10012000B7010008B7010008B7010008E50500089D
:10013000B7010008B7010008B7010008B7010008BF
:10014000B7010008B7010008B7010008B7010008AF
:10015000B7010008B7010008B7010008B70100089F
:10016000B7010008B7010008B7010008B70100088F
:10017000B7010008B7010008B7010008000000003F
:10018000B7010008B7010008DFF80CD000F088F9CB
:10019000004800479D460008984E002006488047CA
:1001A00006480047FEE7FEE7FEE7FEE7FEE7FEE75C
:1001B000FEE7FEE7FEE7FEE7B12D00088901000833
:1001C0002DE9F05F0546002092469B46884606468C
:1001D000814640241BE0284641464746224600F01F
:1001E000F1F853465A46C01A914110D311461846A9
:1001F000224600F0D8F82D1A67EB01084F46224638
:100200000120002100F0CFF817EB00094E41201E1D
:10021000A4F10104DFDC484631462A464346BDE8E6
:10022000F09F40EA01039B0703D009E008C9121FB1
:1002300008C0042AFAD203E011F8013B00F8013BA0
:10024000521EF9D2704710B5002200E0521C835CA8
:100250008C5CA34201D1002BF8D1D8B2E1B2401A94
:1002600010BD2DE9FE4F81EA030404F0004421F0A3
:10027000004100944FF0000B23F0004350EA0104CA
:100280005ED052EA03045BD0C3F30A54C1F30A55AB
:100290002C44A4F2F3340194A0FB0254C1F31301E3
:1002A00041F48011C3F3130343F4801301FB0244B0
:1002B00000FB034E840A970A44EA815447EA8357B5
:1002C000A4FB076802958D0A05FB07854FEA932C6E
:1002D00004FB0C542705029D4FEA065847EA1637DF
:1002E000B5EB08056EEB070C870E920E47EA8117F7
:1002F00042EA8312A7FB0201B6EB0B0164EB000498
:100300002B0D43EA0C335E1844EB1C50DA46514681
:10031000E7FB0201C5F313044FEA0B3343EA14531E
:100320004FEA0432019C43EA0603A4F10C04029450
:10033000009CCDE900B400F064F803B0BDE8F08F94
:1003400000200146F9E70EB5C10F80EAE0700844CD
:10035000CA07002140F233438DE80E000A460B46DF
:1003600000F04FF803B000BD70B5C1F30A5201F0C0
:1003700000450024C1F3130140F2FF3341F4801122
:100380009A4201DA002070BD40F233439A42A2F251
:10039000334203DC524200F015F800E090402C4359
:1003A000F1D0404270BD202A04DB203A00FA02F16D
:1003B000002070479140C2F1200320FA03F3194353
:1003C00090407047202A04DB203A21FA02F00021F5
:1003D000704721FA02F3D040C2F120029140084355
:1003E0001946704710B5141E73F1000408DA401C5A
:1003F00041F1000192185B411A4301D120F0010044
:1004000010BD2DE9F04D92469B4611B1B1FA81F233
:1004100002E0B0FA80F220329046FFF7C4FF0446B3
:100420000F4640EA0A0041EA0B0153465A46084388
:1004300013D0114653EA010019D0C8F140025046CA
:10044000FFF7C0FF05460E46504659464246FFF7A5
:10045000AAFF084305D0012004E020463946BDE844
:10046000F08D0020054346EAE0762C4337430A9896
:100470006305E40AA0EB08000022FD0A44EA4754A1
:100480000A3002D500200146E9E70105101969414B
:10049000DDE9084500196941BDE8F04DA2E700001B
:1004A000064C074D06E0E06840F0010394E80700C1
:1004B00098471034AC42F6D3FFF76AFEE4510008C7
:1004C00004520008704700000146014801F0BEB91F
:1004D0004C41002010B5044801F0CAF9042801D0AD
:1004E000012010BD002010BD4C41002038B5012076
:1004F0008DF800009DF80000012801D0012038BDD2
:10050000064801F0ABFA040006D14FF4006103483D
:1005100001F072F800B10124204638BD4C410020A2
:10052000134610B50A4601460024034801F046FB75
:1005300000B10124204610BD4C410020014901209A
:10054000886070470C000020134610B50A4601462B
:100550000024034801F0B4FB00B10124204610BD83
:100560004C41002001490120486070470C000020E8
:10057000FEE710B5846B204600F0D4F8012020710E
:1005800010BD10B5846B204600F0A8F80120207142
:1005900010BD10B5846B206940F004002061204636
:1005A00000F017F90120207110BD10B5846B20698F
:1005B00040F004002061204600F092F801202071F4
:1005C00010BD10B5806B00F003F910BD10B5806B45
:1005D00000F085F810BD0000014800F085BA000069
:1005E00084200020014800F07FBA0000D0410020A4
:1005F00001681823CAB2103AB2FBF3F2054B6FF34D
:100600000901032A9B5CC36500D9091D8165084661
:1006100070470000744D000810B5014600208B693A
:100620008A6A4FF0C07453B1B3F5005F15D072B150
:10063000012A0CD0022A0AD0032A09D104E01AB1F7
:10064000012A06D0022A03D1C96AC90100D50120B6
:1006500010BDC96AA142FAD010BD002AF7D0012A04
:10066000F2D0022AF3D0032AF3D010BD30B50468CB
:10067000256825F480252560046863608368402B25
:10068000036803D099600068C26030BD9A6000685A
:10069000C16030BD70470022AFF3008030B50E4B13
:1006A000054601205C7A002C14D1587A1C54587AE3
:1006B00003EB800045605D7A03F108002A54587A04
:1006C000421C5A72303008703A2048702F208870CF
:1006D000CC70002030BD00008C4200207047704775
:1006E000704770B54379012B1AD001264671022359
:1006F000037105682C6840F6FE7393409C43D1E972
:1007000000310B43934023432B6001680B68C024E6
:100710009440A3430B60067100214171084670BDEF
:10072000022070BD2DE9F8438046006822498842C6
:1007300010D1224E0021306850B1214C214F224D62
:10074000207880F001002070BA6A102A04D00EE0F0
:100750001E480170BDE8F883C0EBC02005EB4002E5
:100760000091B2F8FC3F0021404600F0C7F8B86A9B
:1007700008280BD1009020780021C0EBC02005EBA9
:1007800040024046B2F8FC3F00F0B8F820783268EA
:10079000C0EBC02105EB4101B1F8FC1F511A3160DB
:1007A000D8D080F00100C0EBC02005EB4000BDE8D0
:1007B000F84304F095B900000074004008000020E0
:1007C00000000020400000207400002001000020F4
:1007D0007047704770B5040003D02079002510B130
:1007E00005E0012070BD6571204600F007F8022089
:1007F0002071256101202071002070BD70B5064672
:1008000000681A4986B088422ED11948002501682F
:1008100041F0005101600068694600F00050059009
:10082000102000900320CDE90105124800F0E4FA01
:10083000124C114820604FF0606060604020C4E9B5
:10084000020500012061400060618000C4E90605E6
:1008500025622046656200F017FA18B1792108A0D8
:1008600002F031FBB460A66306B070BD00740040B6
:10087000403802400000024088600240842000208E
:100880002E2E2F5372632F6461632E6300000000CD
:1008900030B54279012A16D0012242710223037138
:1008A00003681D6802FA01F425431D6000290168F0
:1008B0000B680AD00C6803F4802304F46014B3F5C9
:1008C000802F0FD015E0022030BD0C6803F0040328
:1008D00004F03804042B0CD1382C0AD14B6843F0B7
:1008E000010305E0B4F5601F03D14B6843F0020338
:1008F0004B60027100214171084630BD2DE9F04185
:1009000004460D461746617900220698012920D039
:100910000126667102212171F5B1D4F80CC031496C
:10092000CCF83C10D4F80CC02F49CCF84010D4F8C7
:100930000CC02E49CCF84C102168D1F800C04CF006
:10094000805CC1F800C090B3042834D0082837D1A7
:1009500034E00220BDE8F081D4F808C02449CCF886
:100960003C10D4F808C02349CCF84010D4F808C093
:100970002149CCF84C102168D1F800C04CF4805CBF
:10098000C1F800C020B1042805D0082808D105E02E
:100990002268083204E022680C3201E0226810323A
:1009A0002068016841F400510160A0680EE0FFE793
:1009B0002268143204E02268183201E022681C32F6
:1009C0002068016841F000510160E068394600F09C
:1009D000C5F920680168AE403143016000206071B4
:1009E000B8E7000083050008CD050008AB05000846
:1009F00073050008C30500089305000870B5044698
:100A0000006802684FF480538B409A43026020686C
:100A10000268012505FA01F39A43026031B1E068EA
:100A200000F008F820B10421217170BDA068F7E73B
:100A3000257170BD2DE9F0410446876D00F0B4FAD0
:100A4000064694F835000025022806D0802060650F
:100A500084F834500120BDE8F0812068016821F05D
:100A6000160101602068416921F080014161206C1C
:100A700008B9A06C20B12068016821F0080101606C
:100A80002068016821F0010101600BE000F08CFAA0
:100A9000801B052806D92020606504F8345F0320F8
:100AA0006070D8E720680068C007EFD194F85C1048
:100AB0003F208840B86004F8345F01206070002057
:100AC000C9E790F83510022903D080214165012043
:100AD0007047052180F835100068016821F0010198
:100AE00001600020704700002DE9F84304464FF0F4
:100AF0000009CDF8009063484FF41651A56D0068C9
:100B0000B0FBF1F72E6894F85C10082000FA01F1B0
:100B100031420FD021680A6852070BD50A6822F0CB
:100B200004020A6094F85C108840A860606D40F090
:100B30000100606594F85C104FF0010808FA01F0BC
:100B4000304208D021684969090604D5A860606D63
:100B500040F00200606594F85C1004208840304248
:100B600008D021680968890704D5A860606D40F045
:100B70000400606594F85C1010208840304218D062
:100B800021680968090714D5A8602068016849032D
:100B900004D50068000308D5A16C07E00168C90509
:100BA00003D4016821F008010160216C09B12046DD
:100BB000884794F85C1020208840304231D021686A
:100BC0000968C9062DD5A86094F835000528206865
:100BD000016806D0490347D5006800031DD4616C45
:100BE0001CE021F0160101602068416921F08001BC
:100BF0004161206C08B9A06C20B12068016821F027
:100C00000801016094F85C103F208840A86084F8D7
:100C1000349084F83580216D1FE0E16B09B12046E6
:100C20008847606D00282BD0606DC00714D0052068
:100C300084F835002068016821F001010160009806
:100C4000401C0090B84203D820680068C007F6D165
:100C500084F8349084F83580E16C002910D001B01C
:100C60002046BDE8F04308470168C905D5D40168AE
:100C700021F01001016084F8349084F83580CCE7CD
:100C8000BDE8F8832C0000202DE9F041044600F077
:100C90008BF906465CB1002584F83450022084F8B4
:100CA00035002068016821F0010101600DE001209C
:100CB000BDE8F08100F078F9801B052805D92020D7
:100CC0006065032084F83500F2E720680068C007FB
:100CD000F0D12268116820480140D4E9010318438B
:100CE000D4E903363343184363691843A3691843AF
:100CF000E3691843236A18430843616A042903D14E
:100D0000D4E90B1319430843106020684069666AF0
:100D100020F0070130460E43012704280CD1A06AB9
:100D20000643E06A40B12046FFF776FC20B1402040
:100D3000606584F83570BAE7206846612046FFF7A1
:100D400057FC94F85C203F2191408160656584F8F0
:100D500035700020ACE700003F8010F02DE9F04135
:100D60000446866D90F83400002501280DD001203E
:100D700084F8340094F835700020012F07D084F8EF
:100D8000340002252846BDE8F0810220FBE7022757
:100D900084F8357060652046FFF768FC94F85C10B5
:100DA0003F208840B0602068016841F01601016072
:100DB0002068416941F080014161206C20B12068C8
:100DC000016841F0080101602068016841F00101FB
:100DD0000160D7E770B5044600F0E6F80546601CF0
:100DE00002D004480078044400F0DEF8401BA04222
:100DF000FAD370BD200000202DE9F84FDFF87CB158
:100E000000224FF001084FF0030A4FF00F090BF1D9
:100E1000040E00BF0B6808FA02F42340A3426ED10F
:100E20004D68022D01D0122D0ED1D50800EB850C96
:100E3000DCF820505607F70E09FA07F6B5430E699D
:100E4000BE402E43CCF82060066855000F790AFAA0
:100E500005FC07F0030726EA0C06AF40374307609E
:100E60004E68012E05D0022E03D0112E01D0122E75
:100E70000ED18668CF6826EA0C06AF4037438760FC
:100E80004668A6430C79C4F300149440344344608C
:100E9000C6688C6826EA0C06AC403443C4604C68D3
:100EA000E40065D5364C256845F480452560246806
:100EB00022F0030504F480440094324C2E19D6F835
:100EC000084895072F0F09FA07F5AC432E4DA842A5
:100ED00001D1002524E02D4DA84201D101251FE0BC
:100EE0002B4DA84201D102251AE02A4DA84201D17A
:100EF000032515E0284DA84202D1042510E037E073
:100F0000264DA84201D105250AE0254DA84201D170
:100F1000062505E0234DA84201D1072500E008255C
:100F2000BD402543C6F80858DBF800405D464E68D2
:100F30009C43F60300D51C432C60DEF80040754648
:100F40004E689C43B60300D51C432C600B4D0835FE
:100F50002C684E689C43F60200D51C432C60074D5C
:100F60000C352C684E689C43B60200D51C432C609F
:100F7000521C102AFFF44EAFBDE8F88F003C014030
:100F800044380240003001400000024000040240AA
:100F900000080240000C0240001002400014024011
:100FA00000180240001C02400148806870470000A1
:100FB0002000002002488168027811448160704757
:100FC000200000200B4810B5016841F40071016059
:100FD000016841F480610160016841F48071016041
:100FE000032000F097F8002000F006F800F024F845
:100FF000002010BD003C024070B50D4D04464FF47A
:101000007A712878B1FBF0F00A490968B1FBF0F079
:1010100000F0DDFE48B9102C07D200222146501EF8
:1010200000F058F800206C6070BD012070BD000019
:10103000200000202C0000201F4808B5016841F462
:1010400080410160006800F4804000901A48001F51
:10105000016841F080510160006800F0805000900C
:10106000032000F057F8002211466FF00B0000F04B
:1010700031F8002211466FF00A0000F02BF8002230
:1010800011466FF0090000F025F800221146501FAC
:1010900000F020F800221146101F00F01BF800227B
:1010A0001146901E00F016F80022BDE808401146D7
:1010B000501E00F00FB800004438024000F01F023C
:1010C000012191404009800000F1E020C0F80011AA
:1010D00070470000F0B40E4B1B680C46C3F30223AC
:1010E000C3F10705042D00D90425191D072901D2D4
:1010F000002300E0DB1E012606FA05F1491E21400F
:1011000099409E40761E16403143F0BC00F0E4BF8B
:101110000CED00E0064900F0070208684FF6FF03F7
:10112000184040EA0220034A10430860704700005C
:101130000CED00E00000FA052DE9F0470E46050031
:1011400065D0DFF81481D8F80000F7B200F00F0086
:10115000B04207D288F80070D8F8000000F00F0005
:10116000B04254D128683D4C810712D5400703D5C1
:10117000206840F4E05020602878000703D52068FC
:1011800040F4604020602068A96820F0F000084327
:1011900020602878C0072DD03049686808390128B8
:1011A00012D0022813D0032811D00968890700291A
:1011B0002DDA216821F0030101432160FFF7F4FEDD
:1011C000814641F2883A0EE009688903EFE7096831
:1011D0008901ECE7FFF7E8FEA0EB0901514502D9D0
:1011E0000320BDE8F0872068696800F00C00B0EBD0
:1011F000810FEFD1D8F80010404601F00F01B14245
:1012000007D90770006800F00F00B04201D001203C
:10121000E7E72878400705D52068E96820F4E05022
:10122000084320602878000706D52068296920F443
:10123000604040EAC100206000F01CF82168084AC4
:10124000C1F30311515CC840064908600020FFF754
:10125000D3FE0020C5E70000003C024008380240F1
:101260007C4D00082C0000200148006870470000F9
:101270002C000020154810B5006810F00C0214482E
:1012800013D04110042A0FD0082A0ED10F4C241F6E
:101290002268236802F03F025B0207D52068C0F392
:1012A0008810A0FB010106E0084610BD2168C1F3CB
:1012B0008811A1FB00010023FEF782FF2168C1F322
:1012C0000141491C4900B0FBF1F010BD0838024053
:1012D0000024F4002DE9F84F050076D02878DFF8D7
:1012E000F8B2BE4CC00749D0DBF800105846C1F335
:1012F0008101012908D00068C0F3810002280AD1C9
:10130000201D0068400206D52068800336D5686835
:101310000028E2D032E06868B0F5803F10D0B0F528
:10132000A02F206810D020F480302060206820F4A6
:10133000802020606868A0B1FFF736FE06460CE00A
:10134000206840F48030F4E740F480202060F7E724
:10135000FFF72AFE801B642873D820688003F7D526
:101360000CE0FFF721FE064605E000BFFFF71CFE7C
:10137000801B6428F0D820688003F7D42878DFF831
:10138000608280074FF000093ED5DBF80010584618
:1013900011F00C0F09D00068C0F3810002280BD1B6
:1013A0008D48001F0068400206D42068800715D5CC
:1013B000E868012809D111E0E868B8B10120C8F84F
:1013C0000000FFF7F1FD064605E002E1FFF7ECFD46
:1013D000801B0228C0D820688007F7D520682969BB
:1013E00020F0F80040EAC10020600DE0C8F800904D
:1013F000FFF7DAFD064604E0FFF7D6FD801B022862
:101400001FD820688007F7D42878000722D5724EAD
:10141000744869696C3671B101210160FFF7C4FD40
:10142000074604E0FFF7C0FDC01B022809D830685A
:101430008007F7D50EE0C0F80090FFF7B5FD07462E
:1014400005E083E0FFF7B0FDC01B02287ED83068BE
:101450008007F7D42878400768D5DFF87CA10027FB
:101460000AF1380ADAF80000C0000BD4DAF80010EC
:1014700041F08051CAF80010DAF80000012700F0AE
:1014800080500090584E3068C00510D4306840F449
:1014900080703060FFF788FD009005E0FFF784FD65
:1014A0000099401A022851D83068C005F6D54A4E36
:1014B000A868683601280FD00528306810D020F0C1
:1014C00001003060306820F004003060A868B8B1D6
:1014D000FFF76AFD00900FE0306840F00100F4E78C
:1014E00040F004003060F7E7FFF75EFD0099411A15
:1014F00041F28830814264D830688007F4D50EE02C
:10150000FFF752FD009007E0FFF74EFD0099411AEA
:1015100041F28830814254D830688007F4D42FB12A
:10152000DAF8001021F08051CAF80010A869C0B3A1
:10153000DBF80010C1F3810102294AD00228484695
:1015400007D0C8F86000FFF72FFD00E039E005463E
:101550003AE04746C8F86000FFF726FD064604E07B
:10156000FFF722FD801B02282BD820688001F7D4CA
:10157000D5E907010843A96A1C4A490802EB014161
:101580006A6A41EA8211084395F82C1040EA016129
:101590001148001F016001203866FFF705FD054670
:1015A00005E014E0FFF700FD401B022809D8206881
:1015B0008001F7D50BE000BFFFF7F6FC401B0228C7
:1015C00002D90320BDE8F88F20688001F4D4002000
:1015D000F8E70120F6E70000083802400038024032
:1015E00000004742800E4742007000400000FFFFAD
:1015F00010B5FEF767FF10BDFEB5044603200D468B
:1016000084F83400606C032820D0B5F5805F1DD0CD
:10161000B5F5006F05D045B1A06B40F00060A06348
:1016200009E0204601F09EFA02E0204601F073FA3C
:10163000A16B0143A163A06B012658B1216840F260
:10164000FF50886384F834600120FEBDA06B40F039
:101650008050E4E7211DD4E905700EC90095CDE95D
:101660000170206800F06CFD84F834600020FEBD3D
:101670007047F0B5426E120E93090B70C2F38303EC
:101680004B7002F003028A70426E120CCA70B0F8FE
:101690006420120A0A7190F864204A71826E4FF633
:1016A000FF73120E03EA0212CA80826ECB88C2F365
:1016B000074243EA1213CB8002F00F020A72B0F81D
:1016C0006820C2F30722D3094B72C2F380138B72D6
:1016D000C2F34013CB72C2F300130B7300264E7398
:1016E000446C4FF4007701236CB1012C43D00268A5
:1016F00040F2FF519163816B41F08051816380F82A
:1017000034300120F0BD9207120D0A6190F8682074
:101710000C6944EA82020A61C26E0C69120E44EA44
:1017200092140C61C2F3C2040C7502F007024A75F0
:10173000C26EC2F3074254098C75C2F38204CC75A1
:101740009207520F0A76B0F86C20C2F307240A7E83
:1017500042EAD4120A760A69521C42650D7EAD1C1B
:10176000AA4042650D7A03FA05F585656D0A6A435C
:10177000C0E917271CE090F868209206920A0A61D7
:10178000C26E0C69120E44EA02220A61C26E0C6932
:10179000C2F3074214430C61B0F86C20C2F3072473
:1017A0000A69521C4FEA82224265C0E91672076636
:1017B000C4F3801201F8192F4FEA84624FEA526293
:1017C0004A7010F86C2F4C7844EAD2144C7002F036
:1017D0007F028A7042684FEA12624FEAD214CC70DC
:1017E000C2F341140C71C2F382044C714FEA82724D
:1017F0004FEA12728A7142688C79C2F3074244EA56
:1018000092148C71C2F34014CC710E7202F001027A
:101810004A728288C2F307224FEAD2148C72C2F352
:101820008014CC72C2F340140C73C2F300144C73D6
:10183000C2F381048C7302F00302CA7300794FEA89
:10184000500008744B744FF00000F0BD426C0A6009
:10185000826C4A60C26C8A60026DCA60426D0A6125
:10186000826D4A61C26D8A61006EC8610020704756
:1018700070B50446B0F8500000250104206800F05F
:10188000DEFD18B1A16B0143A16304E000212068D3
:1018900000F049FC0546C5F3432070BD70B5044611
:1018A0000068416B4FF00105CA0540F23A3149D555
:1018B0002A0282632068C26B8A43C263206B0007DE
:1018C000206B22D5800702D4206B800609D52068C2
:1018D00000F0E6FD28B1A16B0143A1632046FFF7AC
:1018E000C7FE216840F2FF50886384F83450206BB3
:1018F000C00702D1206B800703D5204600F0D8F93D
:1019000070BD204600F0D8F970BD0006FCD5206BF4
:10191000800609D5206800F0C3FD28B1A16B014302
:10192000A1632046FFF7A4FE206BC007ECD1206B1B
:101930008007E9D42068C16A21F00801C16284F8F7
:101940003450DEE7426B520410D54FF4804181637E
:10195000266A002506EB8501206800F01AFC6D1C44
:10196000082DF7D3206A2030206270BD426B12042C
:1019700010D54FF400418163A66A0025206800F06D
:10198000F5FB46F825006D1C082DF7D3A06A203022
:10199000A06270BD426B40F23A231A42F9D0426B0A
:1019A000920703D5A26B42F00202A263426B1207B8
:1019B00003D5A26B42F00802A263426B920603D5E4
:1019C000A26B42F02002A263426BD20603D5A26B47
:1019D00042F01002A263426B920503D5A26B42F063
:1019E0000802A26340F2FF7282632068C26B8A43DE
:1019F000C263206B000623D5206C58B115490165E0
:101A0000206CFFF75EF80028C3D0206CBDE8704062
:101A100000F02FBFE06B58B10F490165E06BFFF795
:101A200050F80028B5D0E06BBDE8704000F0F6BE7D
:101A30000020A06384F834502046FFF7D9FD70BD24
:101A4000206B0007FBD584F834502046FFF710FECA
:101A500070BD0000732800081D28000870B5040040
:101A600004D094F83400002510B105E0012070BDC9
:101A70002577204600F038F8032084F8340020460B
:101A800000F008F8A5632563012084F834000020E5
:101A900070BD0000FEB50025044676200095CDE916
:101AA00001502B462A462946206800F049FB0D4E7E
:101AB00046F8A05F206800F055FB01253560022044
:101AC000FFF788F9204600F0D5FF20B9204600F046
:101AD0005EFF002805D084F83450A16B0143A16358
:101AE0000120FEBD008025422DE9F0430646006836
:101AF000284987B088424AD127480025016841F427
:101B0000006101600068022400F4006005904FF459
:101B1000F85003274FF00C088DE8B10169461F48C3
:101B2000FFF76AF94FF0040901AACDF8009082E8A6
:101B3000B00169461A48FFF75FF91B4C194804F1D8
:101B40001C0120604FF00060C4E901054014C4E9A5
:101B50000350800060618000A061202081E82102A4
:101B60008004C4E90A70801020632046FFF78CF8D7
:101B700018B182210DA001F0A6F9F46300221146EC
:101B80003120A663FFF7A6FA3120FFF797FA07B0D6
:101B9000BDE8F083002C01404438024000080240B8
:101BA000000C024058640240D04100202E2E2F53DA
:101BB00072632F7364696F2E630000002DE9F04398
:101BC000154687B01F460A00044607D094F8340033
:101BD000012807D0022007B0BDE8F083A06B40F0D9
:101BE000006008E00020A063E36DE919994204D980
:101BF000A06B40F00070A06351E0032184F8341022
:101C000021688146C8622168CB6B43F49573CB632E
:101C1000E36B24494FEA4728D963E36B2249D9642F
:101C2000E16B4FEA980308652168E06B8031FFF7AC
:101C300095F81E4801260660606C012800D06D02F0
:101C40004FF0FF30CDE90008902002900220059669
:101C5000CDE903096946206800F04FFA4FF400719E
:101C6000206800F0CFFA40F2FF5880B9012F06D962
:101C7000822020632946206800F052FB05E0812085
:101C800020632946206800F064FB0028A3D0226866
:101C9000C2F83880A16B0143A16384F8346001204D
:101CA00099E70000DF270008892700088C85254276
:101CB00010B5FEF743FC10BD10B5FEF753FC10BD88
:101CC0002DE9F04F87B01F4615465FEA010B044629
:101CD00007D094F83400012807D0022007B0BDE8EF
:101CE000F08FA06B40F0006008E00020A063E26D80
:101CF000E919914204D9A06B40F00070A06339E06B
:101D0000032184F8341021688046C8622168CA6BB8
:101D100042F01A02CA63226C2349D163226C234920
:101D2000D164216C0865606C012800D06D024FF40D
:101D30000071206800F066FA012640F2FF5988B968
:101D40004FF0900A012F06D9A02020632946206871
:101D500000F0C0FB05E0C4F830A02946206800F080
:101D6000D2FB48B12268C2F83890A16B0143A1634D
:101D700084F834600120B1E70D48066022687D02D6
:101D8000AB0859468032206CFEF7E8FF4FF0FF3079
:101D90008DE82104CDE90486CDF80C8069462068E1
:101DA00000F0ABF9002099E76528000889270008B2
:101DB0008C8525424FF0E0210428086903D020F0EB
:101DC00004000861704740F00400FAE7704710B55E
:101DD000401EB0F1807F01D3012010BD4FF0E02400
:101DE00060610F21601700F077F90020A0610720E3
:101DF0002061002010BD10B5FFF7E8FF10BD30B521
:101E000090F83820012A20D0012280F838200223BF
:101E100080F8393003685C6824F070045C60036803
:101E20005C680D682C435C6003689C6824F0800447
:101E30009C6003689C6849680C439C6080F839206A
:101E4000002180F83810084630BD022030BD10B5A2
:101E5000040003D094F8390010B107E0012010BD50
:101E6000002084F83800204600F00CF8022084F8A6
:101E70003900211D206800F0C5FF012084F83900D9
:101E8000002010BD08B500680649884208D1064800
:101E9000016841F010010160006800F0100000903E
:101EA00008BD00000010004040380240022180F8C8
:101EB000391001680A6842F001020A60012180F8C5
:101EC000391000207047FEE71CB50E490C48086029
:101ED0000846FEF77FFC18B149210BA000F0F3FF84
:101EE0000420009000200246019069460548FEF754
:101EF000F8FB002803D0522103A000F0E4FF1CBD32
:101F000000740040702000202E2E2F5372632F6427
:101F100061632E6300000000114808B5016841F4B8
:101F200000110160016801F400110091016841F4A1
:101F3000800101600068002200F48000009001210F
:101F40001020FFF7C7F81020FFF7B8F8002211465D
:101F50003B20FFF7BFF8BDE808403B20FFF7AEB8D5
:101F60003038024010B504490448FEF794FB02499A
:101F7000491E087010BD000019000020604D0008C7
:101F800070B5304886B00024016841F0100101604E
:101F9000016801F010010591016841F00401016040
:101FA000016801F004010591016841F080010160C0
:101FB000016801F080010591016841F001010160B3
:101FC000016801F001010591016841F00201016021
:101FD000016801F002010591016841F0080101600A
:101FE00000684FF6FF7600F0080000960590032584
:101FF000CDE9015469461448FEF7FEFE4EF2FF009B
:10200000CDE90005694602941048FEF7F5FE49F651
:10201000EF70CDE90005694602940D48FEF7ECFE2D
:102020000096CDE9015469460A48FEF7E5FE301FE7
:10203000CDE90005694602940748FEF7DDFE06B0CB
:1020400070BD00003038024000100240000802401D
:102050000000024000040240000C0240064805490E
:102060000160002141608160C16001614161816165
:1020700070470000002C01404C4100201CB5104866
:102080000E49002401600421C0E901144FF40371DA
:10209000C160FFF7DCFE18B146210AA000F013FF73
:1020A0002020CDE9000469460548FFF7A8FE002876
:1020B00003D04D2103A000F006FF1CBD001000401E
:1020C000304200202E2E2F5372632F74696D2E63C1
:1020D00000000000FEE770470907090E002806DA35
:1020E00000F00F0000F1E02080F8141D704700F1AF
:1020F000E02080F80014704770470A6842624A681E
:102100008262D1E902231A43D1E904310B43C16A47
:102110001A4321F0F7011143C162002070470068A3
:1021200000F00300704708B50844143000900068C0
:1021300008BD00000148FFF7B1BB00004C41002082
:1021400070B50DF1100C11439CE870002343194346
:1021500029434268314347F6FF639A430A4342608A
:10216000002070BD0321016000207047D0F880007E
:1021700070470A688260D1E901231A43D1E903312B
:102180000B43C1681A436FF30B011143C160002078
:1021900070470968C0F880100020704710B586B0FD
:1021A00004463720CDE90010402002900020039023
:1021B0004FF48060049069462046FFF7DAFF41F251
:1021C00088323721204600F0B7F906B010BD000074
:1021D00010B504460A4886B001432920CDE9001015
:1021E00040200290002003904FF4806004906946E4
:1021F0002046FFF7BEFF204600F054FA06B010BD9F
:102200000000108010B586B004461020CDE9001003
:1022100040200290002003904FF4806004906946B3
:102220002046FFF7A6FF41F288321021204600F039
:1022300083F906B010BD10B586B004460620CDE97E
:10224000001040200290002003904FF48060049022
:1022500069462046FFF78DFF41F28832062120466D
:1022600000F06AF906B010BD30B585B0002405460F
:10227000009401944FF480600294CDE903406946D4
:102280002846FFF776FF0B484FF4FA510068B0FB81
:10229000F1F041F288314843401E03D24FF0004034
:1022A00005B030BD696B0906F6D540F2FF50A86352
:1022B0002046F5E72C00002070B585B004464FF4A9
:1022C000D570009008204026CDE901060025C00108
:1022D000CDE9035069462046FFF74BFF0F484FF406
:1022E000FA510068B0FBF1F041F288314843401EDA
:1022F00002D24FF000450DE0616B11F0450FF6D0B2
:10230000606B400702D5A663042503E0606B4006BE
:1023100000D5A66305B0284670BD00002C00002043
:1023200010B586B004461220CDE90010402002907E
:10233000002003904FF48060049069462046FFF728
:1023400018FF41F288321221204600F0F5F806B05D
:1023500010BD10B586B004461120CDE90010402014
:102360000290002003904FF480600490694620465C
:10237000FFF7FFFE41F288321121204600F0DCF821
:1023800006B010BD10B586B004460720CDE9002088
:1023900040200290002003904FF480600490694632
:1023A0002046FFF7E6FE41F288320721204600F082
:1023B000C3F806B010BD10B586B004460021022057
:1023C000CDE90010C020CDE902014FF480600490F7
:1023D00069462046FFF7CDFE204600F03BF906B0E7
:1023E00010BD10B586B004460920CDE90010C0200C
:1023F0000290002003904FF48060049069462046CC
:10240000FFF7B7FE204600F025F906B010BD10B565
:1024100086B0044600213320CDE900104020CDE9EC
:1024200002010001049069462046FFF7A2FE41F236
:1024300088323321204600F07FF806B010BD10B579
:1024400086B004460D20CDE9001040200290002007
:1024500003904FF48060049069462046FFF789FEA0
:1024600041F288320D21204600F066F806B010BD1A
:1024700030B585B00C46054600210320CDE900109B
:102480004020CDE902010001049069462846FFF78B
:1024900070FE22460321284600F024F905B030BD25
:1024A00010B586B0044600210C20CDE90010402074
:1024B000CDE902010001049069462046FFF759FE6C
:1024C000034A0C21204600F037F806B010BD00008A
:1024D00000E1F50510B586B004461920CDE90010DD
:1024E00040200290002003904FF4806004906946E1
:1024F0002046FFF73EFE41F288321921204600F0C7
:102500001BF806B010BD10B586B004461820CDE902
:10251000001040200290002003904FF4806004904F
:1025200069462046FFF725FE41F2883218212046F1
:1025300000F002F806B010BD444B10B51B684FF414
:10254000FA54B3FBF4F353435B1E02D24FF0004046
:1025500010BD426B12F0450FF6D0426B520703D507
:1025600004218163084610BD426BD20702D00121CD
:10257000816303E00269D2B28A4201D0012010BD1A
:1025800040F2FF5181630021FFF7CDFD3049084241
:1025900001D1002010BD002802DA4FF0007010BDFC
:1025A000410001D5402010BD810001D5802010BD23
:1025B000C10002D54FF4807010BD010102D54FF467
:1025C000007010BD410102D54FF4806010BDC10103
:1025D00002D54FF4006010BD010202D54FF48050C7
:1025E00010BD410202D54FF4005010BD810202D54A
:1025F0004FF4804010BDC10202D54FF4004010BD21
:10260000410302D54FF4003010BD810302D54FF4D1
:10261000802010BDC10302D54FF4002010BD01047D
:1026200002D54FF4801010BD410402D54FF40010C4
:1026300010BD810402D54FF4800010BD000702D503
:102640004FF4000010BD4FF4803010BD2C0000206E
:1026500008E0FFFD12494FF4FA520968B1FBF2F1AC
:1026600041F288325143491E02D24FF00040704778
:10267000426B12F0450FF6D0416B490703D5042198
:10268000816308467047416BC90703D0012181630C
:102690000846704740F2FF518163002070470000F8
:1026A0002C0000200E494FF4FA520968B1FBF2F1F8
:1026B00041F288325143491E02D24FF00040704728
:1026C000426B12F0450FF6D0416B490703D5042148
:1026D00081630846704740F2FF51816300207047D4
:1026E0002C0000201F4B10B51B684FF4FA54B3FBAD
:1026F000F4F341F2883463435B1E02D24FF0004092
:1027000010BD446B14F0450FF6D0436B5B0703D547
:1027100004218163084610BD436BDB0702D0012111
:10272000816303E00369DBB28B4201D0012010BD5D
:1027300040F2FF5181630021FFF7F5FC10F4604F78
:1027400004D0410406D54FF4005010BD000C108099
:10275000002010BD000402D54FF4805010BD4FF48E
:10276000803010BD2C00002010B5064C01202070D8
:10277000FDF7B0FE18B9207820F001002070207815
:1027800010BD00000C00002010B5846BE06B406DA4
:10279000012803D0206C406D01281CD1216840F233
:1027A000FF5088632068C16B21F49D71C163A06BE9
:1027B00040F08040A0632046FFF75AF8062801D079
:1027C000052805D12068FFF76BFEA16B0843A063C5
:1027D000012084F834002046FEF74AFF10BD10B5F2
:1027E000846B206B822809D12068FFF759FE28B13D
:1027F000A16B0143A1632046FEF73AFF2068C16A3E
:1028000021F00801C162216840F2FF508863012075
:1028100084F834002046FFF74BFA10BD70B5846B86
:102820000025E06B00B1E563206C002816D120463E
:10283000FFF71EF8A563012184F83410062801D0A3
:1028400005280BD12068FFF72BFEA16B0843A0637E
:10285000A06B0028204602D0FEF7CAFE70BDFEF72E
:1028600007FF70BD806B0068C16B41F48071C1636C
:10287000704770B5846B0025206C00B12564E06B57
:10288000002816D12046FEF7F3FFA563012184F846
:102890003410062801D005280BD12068FFF700FE70
:1028A000A16B0843A063A06B0028204602D0FEF76E
:1028B0009FFE70BDFEF7DCFE70BD2DE9F04F89B0C4
:1028C0000E460446FEF770FB0025834600950195F1
:1028D0002F4608212068FFF795FC002834D1B4F872
:1028E000500001042068FFF759FC00282CD1401E3D
:1028F0004FF00808CDE9020830204FF00209CDE979
:1029000004090120CDE9067002A92068FFF7F5FB54
:102910002068FFF77CFD002816D1EA4640F22A47DE
:102920002068416B394212D1416B890204D5FFF70F
:102930001DFC4AF825006D1CFEF736FBA0EB0B00D2
:10294000401CEDD14FF0004009B0BDE8F08F416B65
:10295000090703D5C0F838800820F5E7416B8907DF
:1029600003D5C0F838900220EEE7416B890603D505
:10297000202181630846E7E740F2FF518163009818
:1029800000BA7060019800BA30600020DCE710B532
:1029900090B004460120ADF838002068FFF7BFFB77
:1029A000002864D0606C032842D02068FFF703FD44
:1029B00000285AD100212068FFF7B5FB6067042189
:1029C0002068FFF7B0FBA06708212068FFF7ABFB8A
:1029D000E0670C212068FFF7A6FBC4F88000606C5C
:1029E000032825D00EA92068FFF742FD00283CD11E
:1029F000606C03281CD0BDF83800206501042068F5
:102A0000FFF7EFFC002830D100212068FFF78BFB97
:102A1000606604212068FFF786FBA0660821206815
:102A2000FFF781FBE0660C212068FFF77CFB206745
:102A300004212068FFF777FB000DE06403A920461E
:102A4000FEF717FEB4F85000002302042068FFF7D9
:102A500099FC002809D104F1100007C88DE807008F
:102A600094E80F00FFF76CFB002010B010BD4FF092
:102A70008060FAE72DE9F8430025044600950068D8
:102A8000FFF7F2FB00281AD12068FFF715FC4FF082
:102A900080784FF6FF76D8B14FF08057A564009844
:102AA000411C0091B0421AD000212068FFF776FB4C
:102AB00020B900212068FFF78BFB10B13846BDE834
:102AC000F88300212068FFF72EFBC00FE7D01FE03E
:102AD0000127A7640098411C0091B04201D14046F3
:102AE000EDE700212068FFF759FB0028E7D14FF000
:102AF00080412068FFF76CFB0028E0D100212068AE
:102B0000FFF711FBC10FE5D0400001D5676400E07D
:102B100065640020D3E71CB50446002000900190B6
:102B200000212068FFF7FFFA800102D54FF4006012
:102B30001CBD69462046FFF7C0FE0028F8D1019869
:102B4000C0030CD5B4F8500001042068FFF726FB41
:102B50000028EDD100212068FFF76DFB1CBD4FF070
:102B600080601CBD1CB5044600200090019000212F
:102B70002068FFF7D8FA800102D54FF400601CBD31
:102B800069462046FFF799FE0028F8D101984003D6
:102B90000CD5B4F8500001042068FFF7FFFA0028B4
:102BA000EDD102212068FFF746FB1CBD4FF080608D
:102BB0001CBD000070B5064C054601202070FDF7D5
:102BC00095FC18B92846FFF7CFFD2070207870BD1E
:102BD0000C00002010B5124888B014460078C007D9
:102BE00002D0032008B010BDC1B1012905D00229CF
:102BF00008D003290CD00420F4E76846FDF764FCF4
:102C000006980AE06846FDF75FFC0798208005E01B
:102C10006846FDF759FC0798400A20600020E1E76C
:102C20000C0000202DE9F041184C4FF0000816462A
:102C300008460125C4F808801A463146FDF770FCA5
:102C4000F0B9FEF7B1F9064647F23057A06820B94F
:102C5000FEF7AAF9801BB842F8D3A06828B1C4F8DF
:102C60000880FEF7A1F9044605E0012508E000BF51
:102C7000FDF730FC38B1FEF797F9001BB842F7D3E7
:102C80002846BDE8F0810025FAE700000C0000208E
:102C9000FFF76ABD2DE9F041184C4FF000081646C9
:102CA00008460125C4F804801A463146FDF74CFC5D
:102CB000F0B9FEF779F9064647F23057606820B957
:102CC000FEF772F9801BB842F8D3606828B1C4F8E7
:102CD0000480FEF769F9044605E0012508E000BF1D
:102CE000FDF7F8FB38B1FEF75FF9001BB842F7D3E8
:102CF0002846BDE8F0810025FAE700000C0000201E
:102D0000704710B5FEF756F9BDE81040FFF773B8ED
:102D100030B5254893B00025016841F0805101602D
:102D2000006800F0805011902048016841F4804113
:102D300001600068022400F480401190012000909E
:102D4000000401908001CDE9064004200890A820ED
:102D5000CDE9090407200B906846FEF7BBFA00B1E5
:102D6000FEE70CA90F2081E831004FF4A0500F902E
:102D70004FF48050109005210CA8FEF7DDF900B14A
:102D8000FEE7FEF771FA4FF47A71B0FBF1F0FFF74E
:102D90001EF80420FFF70EF800221146501EFEF721
:102DA00099F913B030BD0000403802400070004077
:102DB0001048016841F4700101600F48016841F05A
:102DC000010101600C4A00210832116002680B4BBE
:102DD0001A400260031D0A4A1A60026822F4802227
:102DE000026005480C3001600249580680390860CD
:102DF0007047000088ED00E000380240FFFFF6FE5B
:102E000010300024F0B50268234B244D244E254F8A
:102E1000254C4FF0804C984209D0604507D0A8421D
:102E200005D0B04203D0B84201D0A04204D122F074
:102E3000700E4A6842EA0E0298421BD0604519D0D3
:102E4000A84217D0B04215D0B84213D0A04211D03A
:102E5000164DA8420ED0164DA8420BD0154DA842D3
:102E600008D0154DA84205D0144DA84202D0144DEB
:102E7000A84203D122F44075CA682A4302608A68D6
:102E8000C2620A688262984201D0A04201D10969F7
:102E9000016301214161F0BD0000014000040040D8
:102EA00000080040000C00400004014000400140C8
:102EB000004401400048014000180040001C004050
:102EC00000200040FEE7FEE702E008C8121F08C12C
:102ED000002AFAD170477047002001E001C1121F9B
:102EE000002AFBD17047000010B504460020E070B6
:102EF000401E6063204601F034FC08B1042010BD80
:102F000004F2362001F0C4FBA0F52A41553901D066
:102F1000032010BD94F83800E92805D0EB2814D11F
:102F200094F83A00902810D104F16E0001F0A5FB4E
:102F30000749B1EB002F06D004F18A0001F09DFB98
:102F40000449884201D1002010BD022010BD0000BC
:102F5000004641544641543300E0401C02780AB117
:102F60008A42FAD1D0B27047F0B50022144D134610
:102F700005EB021426685EB10768BE4209D1666897
:102F80008768BE4205D1A4684669B44204D000E017
:102F90000123521C022AEBD3022A01D069B904E0B2
:102FA0004BB9022907D01220F0BD05EB0210808931
:102FB000B0F5807F01D00020F0BD1020F0BD0000F2
:102FC0006C42002030B50021054B0C4603EB01128A
:102FD0001568854200D11460491C0229F6D330BD22
:102FE0006C4200200268C06A938952895343B1FB46
:102FF000F3F1001D04C81AB1914203D3891AF8E70E
:1030000000207047006808447047C269891E921EFC
:103010008A4201D800207047026B408901FB0020E2
:10302000704700002DE9F05F82460C4601F11A005E
:1030300001F02EFB78BB2078012700F03F00401EF6
:1030400000EB8001DFF8589001EBC00500264FF639
:10305000FF7B00BF19F80600204401F019FB8046F1
:103060006FB1FF2D17D200F0F7FF07463AF81500B1
:103070006D1C00F0F1FF87420DD1474601E0D845B5
:1030800009D1761C0D2EE5D32078400606D52FB148
:103090003AF8150010B10020BDE8F09F0120FBE7D1
:1030A000BA5100082DE9F04105680F00804606D0AE
:1030B00001F0FCF9022809D20120BDE8F0816E6917
:1030C00016B1E869B04207D8012605E0411CF4D0EA
:1030D000E9698142F1D83E463446E869641CA04261
:1030E00002D80224022E0AD32146404601F0DEF91E
:1030F00038B10128E1D0411CDFD0B442EDD100202D
:10310000DBE74FF0FF3632462146284601F056FCF9
:1031100030B957B122463946284601F04FFC20B15C
:1031200001280FD001242046C7E76C61D5E90601CC
:10313000891E884201D8401EA861287940F001000C
:103140002871F0E73446EEE72DE9F84F8246006833
:103150000E680024076988462546705D6D1C20288E
:103160001AD32F2813D05C2811D0FF2C39D201217B
:1031700000F052FF5FEA000933D0B9F1800F12D29C
:1031800001466DA0FFF7E8FE58BB0CE06D1C715DB9
:103190002F29FBD05C29F9D07219C8F8002020280B
:1031A00005D204250FE027F81490641CD5E700250C
:1031B00009E000BF07EB440030F8020C202801D0E2
:1031C0002E2802D1641E002CF4D1002027F8140010
:1031D0003CB10B2220210AF1240001F0BBFA0026A9
:1031E00003E00620BDE8F88F761C37F8160020288B
:1031F000FAD02E28F8D01EB145F0030500E0641E79
:103200002CB107EB440030F8020C2E28F7D14FF018
:1032100000094FF0080BCDF8009000BF37F81600FA
:1032200006F101065FEA000824D0B8F1200F04D0AF
:10323000B8F12E0F04D1A64202D045F00305EDE708
:103240000098584501D2A64219D1BBF10B0F0FD0FF
:10325000A64201D045F003050CD84FF008000090BD
:103260004FEA896026464FF00B0B4FEA1069D5E70D
:1032700045F003059AF82400E52838D03AE04046A6
:10328000B8F1800F10D3002100F0C6FE5FEA0008FD
:1032900005D02C4901EB080010F8800C804645F061
:1032A0000205B8F1000F04D0014627A0FFF754FE35
:1032B00020B14FF05F0845F003050FE0A8F1410091
:1032C000192802D849F0020908E0A8F1610019287C
:1032D00004D8413049F001091FFA80F8009A0AEB3E
:1032E000020181F824800098401C009096E7052197
:1032F0008AF82410BBF1080F03D14FEA89604FEA26
:103300001069C9F38100032803D06FEA0901890716
:1033100001D145F00205A90709D409F003010129EB
:1033200001D145F01005012801D145F008058AF8C2
:103330002F50002056E70000222A3A3C3E3F7C7F77
:10334000000000003A5100082B2C3B3D5B5D000063
:10335000401E022812D20A4901EB00118889B0F5FB
:10336000807F05D008B1401E80B2888110B103E093
:103370000020FAE700200860002070470220704714
:103380006C4200202DE9F04104462448806A082858
:1033900029D0102825D100254FF6FF771DE034F9FC
:1033A0001500012668B17840B61E401CFCF7CBFF23
:1033B0009FED1B1B53EC112BFCF753FFFCF7D4FFC5
:1033C00000B247F6FF7116FB0010C0EB003090FB17
:1033D000F7F024F815006D1CADB2B4F8FC0FA8424C
:1033E000DDD8BDE8F081B4F8FC0F01F073F90546B3
:1033F000B4F8FC2F2146FCF714FF002004E0295C00
:1034000024F81010401C80B2B4F8FC1F8142F6D89A
:103410002846BDE8F04100F0E1BF00004000002078
:10342000000000000000F83F2DE9F04704460021AD
:10343000D0F8009000F0D4F900285BD1FF25471E9A
:10344000A84627634846E16901F08BF9060050D190
:10345000216A087850B1CA7AE52802F03F02A271C9
:103460003FD0130704D50F2A3BD105E0042640E0E6
:103470000F2A01D0E5B120E094F82F20520632D473
:10348000420606D591F80D8000F0BF00626905463E
:103490002263A84209D14A7B424506D1D9F81000DF
:1034A000FFF7C0FD08B16D1E00E0FF25EDB21AE088
:1034B000084601F0C1FB40451BD094F82F00C0071F
:1034C0000FD1D4F8201004F124000B2211F8013B95
:1034D00010F8015B5B1B521E02D0002BF6D000E0FF
:1034E0003BB1FF2527630021204600F005F80600C8
:1034F000A8D03046BDE8F0872DE9F047054647697A
:103500000468C0698946203710B1B7F5001F02D39F
:103510000420BDE8F087A189B7FBF1F201FB12712D
:1035200000295FD1401CE861A9694FF0000819B378
:10353000A0896289B7FBF0F0521E104252D1284692
:1035400000F0B4FF064601281FD9701C36D0E06990
:10355000B04241D8B9F1000F12D02846A969FFF74F
:10356000A1FD06000FD0012E0FD0701C26D02046E2
:1035700001F0B4FB10BB0AE02089B0EB571F31D833
:10358000C5F81C80C4E70720C3E70220C1E7A28971
:10359000002104F1380001F0DDF84FF00008314659
:1035A0002046FFF732FD4FF0010960630DE000BFD8
:1035B00084F80390204601F091FB08B10120A8E7B0
:1035C000606B08F10108401C606361894145EFD8D8
:1035D000616BA1EB0800606331462046AE61FFF7E6
:1035E00014FDE8616F61A089B7FBF0F100FB117079
:1035F00020443830286200208BE700002DE9F04F8E
:103600000446D0F8009090F82F0089B010F0A00F79
:1036100003D0062009B0BDE8F08F0025D9F81000CE
:1036200000E06D1C30F815100029FAD104F12401D6
:103630000C226846039101F083F89DF80B00C00747
:1036400019D0402084F82F00012633466946D9F866
:103650001020039800F0EAFE2046FFF7E5FE10B9BF
:10366000761C642EF1D3642E0FD00428D2D19DF89D
:103670000B0084F82F009DF80B00800707D50D2064
:103680000C35B5FBF0F56D1C02E00720C2E7012503
:1036900000212046276800F0A3F888B900263846A4
:1036A000E16901F05EF858B9206A0078E5280AD08F
:1036B00048B1002601212046FFF71EFF0028EED06A
:1036C000042812D012E0761C2846AE42F2D1451EE4
:1036D000059567D06169684201EB4011204600F012
:1036E0007FF85FEA000803D076E00720804673E0A9
:1036F000039801F0A1FA4FF6FF7B07904846E16975
:1037000001F02FF85FEA000866D1D9F810000690A2
:103710000598D4F82080C0B20490079988F80D105D
:103720000F2188F80B10002188F80C1008F11A00FE
:1037300001F07EFA0498DFF8A4A0401E00EB80019F
:1037400001EBC006002701E05D4503D0069830F884
:103750001650761C1AF8071001EB0800294601F0F4
:1037600067FA05B95D467F1C0D2FEDD35D4505D089
:10377000069830F8160008B1049803E0049840F069
:103780004000049088F80000012189F8031000210E
:103790002046FFF7B1FE5FEA00081DD10598401EE4
:1037A0000590ABD14846E16900F0DBFF5FEA000815
:1037B00012D120220021206A00F0CCFF0B22206AC7
:1037C000039900F0BDFF94F82F00216A00F0180063
:1037D0000873012089F8030040461BE7BA5100082E
:1037E0002DE9F04104680F460646B1F5001F3CD2B2
:1037F000F8063AD17761B56825B92078032806D351
:10380000E56A25B16089A18900FB01F812E02089F1
:10381000B0EB571F29D9E06A12E0304600F046FEAF
:103820000546401C1FD0022D1FD3E069A8421CD9B9
:10383000A7EB080747452946EFD22046FFF7E5FBEF
:10384000C6E9065088B1A189B7FBF1F10844F061DF
:10385000A089B7FBF0F100FB1170204438303062D2
:103860000020BDE8F0810120FBE70220F9E700001D
:10387000084910B50B5C002253B901220A540A18FA
:1038800001EB8000127A40680168104688470246C2
:10389000104610BD8C42002030B4054C231804EBB8
:1038A00080001B7A406804691846A44630BC604713
:1038B0008C42002030B4054D2C1805EB8000247A92
:1038C000406885682046AC4630BC60478C4200208A
:1038D000044A111802EB8000097A406842680846E1
:1038E000104700008C42002030B4054D2C1805EB29
:1038F0008000247A4068C5682046AC4630BC6047EA
:103900008C42002038B5044600F03FFB00280CD163
:103910006946204601F00BFA002806D12069FFF71E
:1039200017FD002801D10021216038BD2DE9FE4F8F
:103930000D460446694601F0FAF907006AD1677D31
:10394000002FFBD1E06A4FF0020A4FF0010804F1AA
:10395000300B002871D0691C2FD0E068A84200D23B
:103960000546A561002D55D02046691EFFF73AFB9C
:103970000146E0610098FFF748FB00287DD00099E0
:103980006D1E8A89B5FBF2F34D896D1E2B401D1803
:10399000A069B0FBF2F302FB13000028E3D0226A17
:1039A000AA42E0D0207D00063BD548780123594645
:1039B000FFF79AFF002870D12FE002C80191A1689B
:1039C00083460225F1B10026AD1C029189462046AE
:1039D000761C00F06BFD014601284ED9481C5CD0D6
:1039E00009F101008142F1D00198854206D8CBF857
:1039F00000600BF10400029A04C083460098C0697D
:103A00008842E0D8E06A05600198854203D8002129
:103A1000CBF80010A5E01127A3E0207D00F07F0087
:103A20002075009801232A4640785946FFF742FF47
:103A3000002832D1256294E0FFE7E068A84203D273
:103A4000217D890700D405464FF00009A069C4F81C
:103A500018900DB300994E8989894E4370B1691E43
:103A6000401EB1FBF6F1B0FBF6F2914206D3711E97
:103A70008843A0612D1AE1690DE05BE0A16849B9B6
:103A800000212046FFF70EFB0146012852D0481CBA
:103A900061D0A160E161D9B92FE05CE0A069AD1B04
:103AA0003044A061207D8007204605D5FFF7FAFA53
:103AB000010004D100250DE000F0F8FC0146481C8F
:103AC00049D0012936D90098C069884232D9E161CC
:103AD000B542E3D8A0692844A06100988289B5FB6B
:103AE000F2F302FB135242B1FFF78FFA10B30099C1
:103AF0008989B5FBF1F101EB0009E168A069884211
:103B000004D9E060217D41F04001217500998A8946
:103B1000B0FBF2F302FB130018B3226A4A4520D02F
:103B2000207D00060FD5487801235946FFF7DCFEBB
:103B300088B904E084F815A00220BDE8FE8F207D3E
:103B400000F07F002075009801234A4640785946CE
:103B5000FFF7B0FE18B184F815800120EDE7C4F836
:103B600020903846E9E700002DE9F74181B0904602
:103B700002980090684600F00FFD040003D50B206A
:103B800004B0BDE8F0810D4E002756F824501DB159
:103B90002846FFF717FA2F700198002800D0077009
:103BA00046F8240002D0B8F1010F01D00020E7E769
:103BB000002201A902A800F08FFAE1E734000020FA
:103BC0002DE9F74795B005000BD002F03F063246CD
:103BD000694616A800F080FA04004FF0000904D0EE
:103BE0000AE1092018B0BDE8F087009806904FF46C
:103BF000007000F02DFA5FEA000809D0009906A8CD
:103C0000C1F81080169900F0ABFB040002D010E060
:103C10001120E7E79DF84700000601D5062408E0DB
:103C2000700801D0012100E0002106A8FFF79CF9EF
:103C3000044616F01C0F5FD04FF0010AC4B1042CEB
:103C400010D10020724902E0401C022804D201EB8E
:103C500000121268002AF7D1022807D006A8FFF741
:103C6000CDFC044646F008066CB1A5E01224A3E0A2
:103C70009DF81E0010F0110F01D007249CE0700782
:103C800001D50824B5E0300745D500F083FC074690
:103C90000E9839460E3000F0C3FF0E9839461630A4
:103CA00000F0BEFF0E992020C8720E99009800F017
:103CB000D1FC074600220E99009800F09DFF0E9857
:103CC00000211C3000F0ACFF009981F803A007B37D
:103CD000D1F834A00022394606A800F053FF0400B2
:103CE0006AD15146009800F03CFD04000098A7F10D
:103CF000010747610BD05FE0F4BB9DF81E00C106D1
:103D000001D5042458E0B10701D5C007B5D130076B
:103D100001D546F040060098406B68620E98A86294
:103D2000700801D0012100E0002106A800F052FC3B
:103D3000286160B30E99009800F08CFCA8600E9882
:103D40001C3000F09AFCC5F82C90E86000992960BE
:103D5000009905F130004FF48052C988A9802E7572
:103D600085F81590C5F8209000218246C5F8189076
:103D700000F0F0FCB00600E01EE045D5EE68E6B3CA
:103D8000AE610098A96847898089474310E0022402
:103D900012E0284600F08AFB0146012800D80224E0
:103DA000481C02D0F61B1CB104E00124F61B01E004
:103DB000BE42EED8E96124B1404600F04BF9DCB9CF
:103DC0001EE000988289B6FBF2F302FB1362A2B1F7
:103DD000FFF71BF9010015D0009801238289B6FB7B
:103DE000F2F20A442A6240785146FFF763FD20B19F
:103DF0000124404600F02EF900E005E0C5F80090EF
:103E00002046EFE60224F4E7404600F023F9F7E706
:103E10006C4200202DE9F04F884689B000211960DE
:103E200099461546044604A900F081FF002812D1E6
:103E3000607D00280FD1207DC0070BD0A169E0680C
:103E40000127401A4FF0020A04F1300B854200D9D5
:103E5000054695E0072009B0BDE8F08F049BA169F5
:103E60009889B1FBF0F200FB1212002A69D1B1FB74
:103E7000F0F65889401E064011D129B1E06A28B1F8
:103E80002046FFF7AFF805E0A06803E02046E169AF
:103E900000F00CFB02281DD3411C4DD0E061E1690C
:103EA0000498FFF7B2F8A8B13044009004988189D3
:103EB000B5FBF1F1059131B3721841898A4201D9FC
:103EC000891B059140784146059B009AFFF7F2FC5B
:103ED00090BB03E084F815A00220BCE7207D00061B
:103EE0000CD5216A0098081A0599884206D20499CF
:103EF0008A89594600FB028000F022FC04988689DA
:103F00000598464332E0226A00998A4217D0217D03
:103F1000090609D5407801235946FFF7E5FC58B951
:103F2000207D00F07F0020750498012359464078D9
:103F3000009AFFF7BFFC10B1677501208BE700986E
:103F400020620498A1698089B1FBF0F200FB121293
:103F5000861AAE4200D92E46B1FBF0F200FB1210D9
:103F6000011932464046303100F0EAFBA069B04406
:103F70003044A061D9F800008119AD1BC9F80010C8
:103F8000002D7FF46BAF002065E7F8B50446694665
:103F900000F0CDFE00280ED1217D4A060BD5080683
:103FA0000ED50098226A0123407804F13001FFF712
:103FB0009BFC08B10120F8BD207D00F07F0020753A
:103FC00000F0E8FA0646616A009800F0CAFB002893
:103FD000F1D1A56A2946E87A40F02000E872A2688B
:103FE000206800F009FE05F11C00E16800F018FEF1
:103FF000314605F1160000F013FE002105F1120014
:1040000000F016FE00980121C17000F023FE217D12
:1040100001F0BF012175F8BD802804D30B4A51B1CE
:10402000FF2801D90020704702EB4000A0F5805026
:10403000B0F8000F704732F81130834203D0491CAA
:1040400089B28029F7D38031C8B270478C4D0008FF
:1040500000F040BB00F0C2B930B5B0F5805F01D2CE
:104060001B4900E01B4931F8022B002A15D0904271
:1040700013D331F8024B230AE5B252FA84F4844296
:1040800021D9092B09D2DFE803F005090E11131518
:1040900017191B00801A31F8100030BD811A01F089
:1040A0000101401A00E0103880B230BD2038FBE733
:1040B0003038F9E71A38F7E70830F5E75038F3E712
:1040C000A0F5E350F0E7002BCDD101EB4501CAE7A5
:1040D0008C4E00087E5000082DE9FF4100279046D5
:1040E0000E460F6000F058FA050003D50B2004B00F
:1040F000BDE8F081974850F825409CB134602078A5
:1041000008F0FE0620B16078FFF7E2FBC1070BD094
:104110002770E8B2B8466070FFF7AAFBC10708D065
:104120000320E4E70C20E2E70EB1400704D40020AE
:10413000DDE71EB1400701D50A20D8E7607804F119
:104140000C020221FFF7A8FBF0BBA089A0F50071CB
:10415000B1F5606F3FD8411E08423CD10026314680
:104160002046FEF7C1FE022822D100254FEA0D07A6
:1041700004EB051090F8FA1100F5FB7019B1083046
:1041800000F07BFA00E0002047F825006D1C042DAC
:10419000EED3002557F8256036B131462046FEF7AC
:1041A000A3FE022801D203E003206D1C042DF1D3ED
:1041B000042810D0022878D204F1430000F068FAF5
:1041C000A189884271D100E005E004F14E0000F0C1
:1041D0005FFA10B105E0012089E704F15C0000F00E
:1041E0004CFA206294F84850A570012D01D0022DA0
:1041F0005BD1454394F845006081E8B3411E084215
:1042000053D104F1490000F043FA2081A189490902
:10421000B0FBF1F201FB120070BB04F14B0000F0A7
:1042200037FA070004D104F1580000F026FA0746D7
:1042300004F1460000F02CFA010036D0A089238951
:104240004009B3FBF0F04A19024497422DD3B81A43
:104250006789B0FBF7F078B103274FF6F57C60452E
:1042600000D8022740F6F57C604500D8012732448B
:10427000801C3144226300E017E0E061C4E9096179
:10428000032F14D08BB12944E162022F20D000F01B
:10429000010100EB400001EB5000A189401E0844E1
:1042A000B0FBF1F0216A884214D90D201FE704F118
:1042B000620000F0EDF90028F7D120890028F4D140
:1042C00004F1640000F0D9F9E062E0698000E4E7FD
:1042D0004000E2E74FF0FF30A06160618020207174
:1042E000032F2CD104F1680000F0D2F9012826D167
:1042F000711C204600F035FA08BB84F8048004F2F3
:10430000362000F0C5F9A0F52A41553917D104F13E
:10431000380000F0B2F91049884210D104F5077056
:1043200000F0ABF90D49884209D104F5087000F09E
:10433000A4F9A06104F5097000F09FF960610548D7
:104340002770001F0188491C0180E1802046FEF78C
:1043500039FEECE634000020525261417272416134
:1043600073B504460568019801E0401C019001788E
:104370002F29FAD05C29F8D00021A160019800789B
:10438000202806D2802084F82F002046FFF728FA44
:104390007CBD01A92046FEF7D7FE0028F8D12046B3
:1043A000FFF742F894F82F1028B10428F0D14907FC
:1043B000EED405207CBD4907FCD4A079C006F8D511
:1043C000A9896069B0FBF1F201FB1200411928468E
:1043D000383100F03FF9A060DBE7000010B500289D
:1043E00021D0114B0022001F196803E0814203D83D
:1043F0000A4649680029F9D152B11368841A9C42CF
:1044000004D1006818441060104602E0506000E0DB
:10441000186039B102680B1A934203D10B681A4431
:1044200002604968416010BD380000207CB5164626
:104430001C4605460B2200F083F9052C11D91A4AB7
:104440000CE00021B61C2346044663F35F044008D9
:10445000E30300D55440491C1029F4D330880028C8
:10446000EFD107214FEA0D0204F00F003030392858
:1044700000D9C01D5054491E2409F5D17E20505446
:10448000002000E0401C884202D22B5C202BF9D196
:10449000082902D2535C491C00E020232B54401C05
:1044A0000828F5D37CBD0000211001002DE9F04162
:1044B00004680D4602290BD3E069A84208D9207888
:1044C0004FF0FF36012807D0022834D0032849D006
:1044D00001263046BDE8F081A08905EB5507B7FB02
:1044E000F0F0A16A0144204600F03BF90028F0D129
:1044F000A089B7FBF0F100FB11717F1CB7FBF0F056
:10450000214491F83880A16A0144204600F029F93D
:104510000028DED1A089B7FBF0F100FB1170204428
:1045200090F8381048EA0120E90701D00609D0E7E1
:10453000C0F30B06CDE7A089A16A4008B5FBF0F0F7
:104540000144204600F00DF90028C2D1A18968007D
:10455000B0FBF1F201FB12002044383000F098F873
:104560000646B6E7A089A16A8008B5FBF0F00144D1
:10457000204600F0F6F80028ABD1A189A800B0FBD6
:10458000F1F201FB12002044383000F076F820F000
:1045900070469EE70020704710B504464FF0FF308C
:1045A0002268002A13D0114600E0491C0B78202B0A
:1045B0000ED33A2BF9D112F8013B303B0A2B06D22D
:1045C0008A4204D1002B02D1491C1846216010BD3B
:1045D000002010BDF0B502461D4BD2F8005000205F
:1045E00003EB00142668AE4207D166689768BE42A6
:1045F00003D1A4685669B44202D0401C0228EFD30C
:10460000022814D1002002E0401C022804D203EB4F
:1046100000142468002CF7D102280ED003EB0014FC
:104620002560956865605269A2600022A281002918
:1046300003EB0011898902D019B10020F0BD491C9B
:1046400001E04FF4807103EB0012401C9181F0BD3A
:104650006C42002070B506460D4601F11A0000F0CC
:1046600017F804463078032805D105F1140000F04E
:104670000FF844EA0044204670BDC178827842EACF
:1046800001214278007842EA012140EA0120704786
:104690004178007840EA012070470000FCF792FC66
:1046A000FEF736FBFDF76CFCFDF736FCFDF7E6FC8C
:1046B000FDF70AFCFDF7D2FCFDF754FC01A000F069
:1046C00069F8FEE76E6963652D776F726B2E77610F
:1046D00076000000F0B50B30154D20F007010024E6
:1046E000144A0FE003688B420BD38B4205D95E1A44
:1046F00043184768C3E9006700E04368136002C0DD
:1047000004E0021D10680028ECD12046002802D1E8
:10471000286808B10020F0BD064A07481060074A23
:10472000121A22F00702C0E9002401202860D7E70E
:104730003C000020380000209C42002098460020C9
:10474000002A05D011F8013B00F8013B521EF9D1B7
:10475000704700005FFA81F100F8011B521EFBD187
:10476000704770B50446406B0D460026A8420FD036
:10477000204600F0B3FA06000AD1607801232A46E9
:1047800004F13801FFF796F808B1751E012665633C
:10479000304670BDFEB5044601227E497E48FFF7D3
:1047A000E3F900B1FEE7012221467C48FFF708FA51
:1047B00000287CD17A4B04227A497848FFF72AFBFB
:1047C0000028F6D1764B042201A97448FFF722FB9A
:1047D00000286CD19DF807100198724C61F31F609E
:1047E0006F4B6060042204F108016C48FFF712FB74
:1047F00000285CD16A4B042204F10C016748FFF7E2
:1048000009FB002878D1664B042201A96348FFF711
:1048100001FB002870D19DF807100198604B61F3EF
:104820001F602061022202A95C48FFF7F3FA00280A
:1048300062D1BDF808006061594B022202A95748B5
:10484000FFF7E8FA002857D1BDF80800A061544BE3
:10485000042201A95148FFF7DDFA40BB9DF807107B
:1048600001984F4B61F31F60E061042201A94B489E
:10487000FFF7D0FAD8B99DF807100198484B61F3BB
:104880001F602062022202A94448FFF7C3FA70B9F0
:10489000BDF808006062424B022202A93F48FFF7C0
:1048A000B9FA20B9BDF808003D4B042200E023E02E
:1048B00004F12C01A0620E463848FFF7ABFAD8B9D4
:1048C0000CE0A9693548C91EFFF730F8344B0422C3
:1048D00031463248FFF79EFA08B10DE02F4D32A164
:1048E0003046FBF7B0FC0028EBD12D4B042201A988
:1048F0002A48FFF78FFA08B10020FEBD9DF8071087
:104900000198274D61F31F602063A26AA169C0006E
:104910005143B0FBF1F02D1FA8602248343000F065
:10492000DFF870B12248FDF7C1FA00212148FBF7FA
:10493000AFFF002028701B4EA16A3436102901D029
:104940000BE0FEE7B6F8FC3FA9683246C91AA96039
:10495000009000211748FBF7D1FFA06A08280FD16B
:1049600028780021C0EBC02006EB4002A868B2F80E
:10497000FC3FC01AA860082000900E48FBF7BEFF5D
:10498000012068700C4800F0ABF808B10120FEBDB2
:10499000FEE7000019000020E42000201C31002068
:1049A00004000020400000206461746100000000E9
:1049B0003042002070200020721000202DE9F047C6
:1049C000022617460D46044602297DD3E069A84217
:1049D0007AD920784FF00109012804D0022840D06C
:1049E00003287AD154E0A18905EB5508B8FBF1F012
:1049F000A16A01442046FFF7B4FE06006DD1A189EB
:104A0000B8FBF1F201FB12802044383008F10108B4
:104A1000E90704D00178FAB262F31F1100E03946C9
:104A2000017084F80390A189B8FBF1F0A16A0144F8
:104A30002046FFF796FE06004FD1A189B8FBF1F2A0
:104A400001FB128020443830E90702D0C7F3071178
:104A500005E00178C7F3032201F0F0011143017072
:104A600039E0A089A16A4008B5FBF0F00144204676
:104A7000FFF777FE060030D1A1896800B0FBF1F2A4
:104A800001FB12002044B9B2383000F0D1F822E026
:104A9000A089A16A8008B5FBF0F001442046FFF729
:104AA00060FE060019D1A089AD00B5FBF0F100FB56
:104AB000115020443830FFF7E0FD67F31B0001463A
:104AC000A089B5FBF0F200E007E000FB12502044A3
:104AD000383000F0A5F884F803903046BDE8F08740
:104AE00070B504462348244D806AAA68082802D07D
:104AF00010281CD11DE0A2F54070FF380CD41E4BCD
:104B000040F2FF351B1D2A4621461C48FFF782F95B
:104B1000E0B9A4F8FC5F07E0174B21461B1D1748BE
:104B2000FFF778F990B91EE02046FEF72BFC012034
:104B300070BDA2F5E060FE3813D40F4B40F6FC7256
:104B40001B1D21460D48FFF765F928B100210C48CF
:104B5000FBF754FF002070BD40F2FE70A4F8FC0F7C
:104B6000E2E75200D8E72889A4F8FC0F0348FEF7D3
:104B7000C9FED9E740000020000000201C310020C1
:104B8000702000202DE9F041056813460E460746C7
:104B900002292DD3E869B0422AD93BB14FF0FF3248
:104BA00019462846FFF70AFF00281FD1314638462C
:104BB000FFF77CFC040018D0012C19D0601C19D020
:104BC000002231462846FFF7F9FE00280ED1D5E92C
:104BD0000610821E914205D2491CA961297941F033
:104BE000010129712646B042E0D80020BDE8F081DD
:104BF0000220FBE70120F9E770B50C460646154692
:104C000091B204F11A0000F013F83078032806D1AD
:104C1000290C04F11400BDE8704000F009B870BD23
:104C20000170090A4170090A8170090AC170704750
:104C30000170090A41707047014600200B224308A9
:104C400003EBC01011F8013B521E1844C0B2F6D15C
:104C50007047000070B5044600F040F8050036D1FA
:104C6000207803282CD12079012829D104F138009B
:104C7000A28900210646FFF76DFD4AF6552104F290
:104C80003620FFF7D5FF13493046FFF7C9FF124919
:104C900004F50770FFF7C4FF04F50870A169FFF77A
:104CA000BFFF04F509706169FFF7BAFF626A01236B
:104CB000521C626360783146FEF716FE00202071B8
:104CC000002260781146FEF7E7FD00B10125284675
:104CD00070BD000052526141727241612DE9F04194
:104CE0000446C0780027F8B1656B04F1380160789C
:104CF00001232A468846FEF7F7FD08B1012713E095
:104D00000020E070A06A216A281A88420CD2A67896
:104D100008E0206A0123054460782A464146FEF7F0
:104D2000E3FD761E022EF4D23846BDE8F08170B560
:104D30000D4604000CD0206850B1017841B1C18803
:104D4000A288914204D14078FEF7C2FDC00703D08B
:104D500000202860092070BD20682860002070BDF8
:104D6000B52B0008912C0008252C0008952C000874
:104D7000D52B0008000610160006101600000000D3
:104D8000000000000102030406070809C700FC0038
:104D9000E900E200E400E000E500E700EA00EB00E3
:104DA000E800EF00EE00EC00C400C500C900E6001A
:104DB000C600F400F600F200FB00F900FF00D60088
:104DC000DC00F800A300D800D7009201E100ED005C
:104DD000F300FA00F100D100AA00BA00BF00AE0053
:104DE000AC00BD00BC00A100AB00BB00912592252A
:104DF000932502252425C100C200C000A900632517
:104E0000512557255D25A200A50010251425342520
:104E10002C251C2500253C25E300C3005A255425DC
:104E200069256625602550256C25A400F000D0007A
:104E3000CA00CB00C8003101CD00CE00CF0018253C
:104E40000C2588258425A600CC008025D300DF0012
:104E5000D400D200F500D500B500FE00DE00DA0077
:104E6000DB00D900FD00DD00AF00B400AD00B100F3
:104E70001720BE00B600A700F700B800B000A800D9
:104E8000B700B900B300B200A025A00061001A036A
:104E9000E0001703F8000703FF000100780100019C
:104EA000300132010601390110014A012E01790158
:104EB000060180014D0043028101820182018401CB
:104EC000840186018701870189018A018B018B0199
:104ED0008D018E018F019001910191019301940147
:104EE000F60196019701980198013D029B019C01F2
:104EF0009D0120029F01A001A001A201A201A40125
:104F0000A401A601A701A701A901AA01AB01AC0157
:104F1000AC01AE01AF01AF01B101B201B301B30108
:104F2000B501B501B701B801B801BA01BB01BC01B7
:104F3000BC01BE01F701C001C101C201C301C4012E
:104F4000C501C401C701C801C701CA01CB01CA011B
:104F5000CD011001DD0101008E01DE011201F3011E
:104F60000300F101F401F401F80128012202120109
:104F70003A020900652C3B023B023D02662C3F02CF
:104F800040024102410246020A01530240008101EF
:104F90008601550289018A0158028F015A02900147
:104FA0005C025D025E025F02930161026202940193
:104FB0006402650266026702970196016A02622C2A
:104FC0006C026D026E029C01700271029D017302FF
:104FD00074029F0176027702780279027A027B02DC
:104FE0007C02642C7E027F02A60181028202A9015A
:104FF0008402850286028702AE014402B101B20139
:1050000045028D028E028F0290029102B7017B034E
:105010000300FD03FE03FF03AC03040086038803C3
:1050200089038A03B1031103C2030200A303A3038C
:10503000C4030803CC0303008C038E038F03D8033F
:105040001801F2030A00F903F303F403F503F6036E
:10505000F703F703F903FA03FA03300420035004BB
:105060001007600422018A043601C1040E01CF0436
:105070000100C004D00444016105260400007D1D28
:105080000100632C001E9601A01E5A01001F080695
:10509000101F0606201F0806301F0806401F0606C0
:1050A000511F0700591F521F5B1F541F5D1F561FC2
:1050B0005F1F601F0806701F0E00BA1FBB1FC81FAE
:1050C000C91FCA1FCB1FDA1FDB1FF81FF91FEA1FFA
:1050D000EB1FFA1FFB1F801F0806901F0806A01F6A
:1050E0000806B01F0400B81FB91FB21FBC1FCC1F99
:1050F0000100C31FD01F0206E01F0206E51F0100CA
:10510000EC1FF21F0100FC1F4E2101003221702113
:105110001002842101008321D0241A05302C2F0491
:10512000602C0201672C0601752C0201802C6401A1
:10513000002D260841FF1A03000043554541414117
:10514000414345454549494941414592924F4F4F59
:105150005555594F554F9C4F9E9F41494F55A5A5B9
:10516000A6A7A8A9AAABACADAEAFB0B1B2B3B441DB
:105170004141B8B9BABBBCBDBEBFC0C1C2C3C4C542
:105180004141C8C9CACBCCCDCECFD1D14545454987
:10519000494949D9DADBDCDD49DF4FE14F4F4F4F59
:1051A000E6E8E85555555959EEEFF0F1F2F3F4F50C
:1051B000F6F7F8F9FAFBFCFDFEFF01030507090EFF
:1051C00010121416181C1E000100040010004000EC
:1051D00000010002000001000200040008001000AD
:1051E00020000000045200080000002040000000E1
:1051F000C82E00084452000840000020584E00000D
:10520000D82E000800000000000000000000000090
:10521000010000000000000000000000000000008D
:10522000000000000100000010000000000000006D
:105230000024F40000000000000000000000000056
:04524000000000006A
:040000050800018965
:00000001FF
