:020000040800F2
:10000000A80A00209D010008F70F0008850F0008CE
:10001000F50F0008A90200085D15000800000000A7
:100020000000000000000000000000001F10000899
:10003000AB020008000000001B100008211000089F
:10004000B7010008B7010008B7010008B7010008B0
:10005000B70100081D100008B7010008B70100082B
:10006000B7010008B7010008AD020008B701000899
:10007000B7010008B7010008B7010008B701000880
:10008000B7010008B7010008B7010008B701000870
:10009000B7010008B7010008B7010008B701000860
:1000A000B7010008B7010008B7010008B701000850
:1000B000B7010008B7010008B7010008B701000840
:1000C000B7010008B7010008B7010008B701000830
:1000D000B701000851150008B7010008B701000872
:1000E000B7010008B7010008B7010008B701000810
:1000F000B7010008B7010008B7010008B701000800
:10010000B7010008B7010008B7010008B7010008EF
:10011000B7010008B7010008B7010008B7010008DF
:10012000B7010008B7010008B7010008B7010008CF
:10013000B7010008B7010008B7010008B7010008BF
:10014000B7010008B7010008B7010008B7010008AF
:10015000B7010008B7010008B7010008B70100089F
:10016000B7010008B7010008B7010008B70100088F
:10017000B7010008B7010008B7010008000000003F
:10018000B7010008B7010008DFF80CD000F07AF8DA
:1001900000480047E9190008A80A002006488047DF
:1001A00006480047FEE7FEE7FEE7FEE7FEE7FEE75C
:1001B000FEE7FEE7FEE7FEE7D11000088901000830
:1001C0002DE9F05F0546002092469B46884606468C
:1001D000814640241BE0284641464746224600F01F
:1001E00041F853465A46C01A914110D31146184659
:1001F000224600F028F82D1A67EB01084F462246E8
:100200000120002100F01FF817EB00094E41201ECD
:10021000A4F10104DFDC484631462A464346BDE8E6
:10022000F09F40EA01039B0703D009E008C9121FB1
:1002300008C0042AFAD203E011F8013B00F8013BA0
:10024000521EF9D27047202A04DB203A00FA02F14C
:10025000002070479140C2F1200320FA03F31943B4
:1002600090407047202A04DB203A21FA02F0002156
:10027000704721FA02F3D040C2F1200291400843B6
:1002800019467047064C074D06E0E06840F0010350
:1002900094E8070098471034AC42F6D3FFF778FF94
:1002A0006822000888220008FEE77047134810B54E
:1002B00000210170124A08461154401C0728FBDB3C
:1002C0000E4A0F49002001F02DFC10B9102000F05B
:1002D00049F80C210BA001F0BFFE10B9102000F06E
:1002E00041F80C4C1021204600F020F90028F9D0EC
:1002F000BDE81040102000F035B8000001000020DB
:10030000040000203939393838383737373636362F
:10031000000000000010024090F83510022903D0C0
:100320008021416501207047052180F83510006863
:10033000016821F0010101600020704770B504469A
:1003400000F0FAF80546601C02D004480078044426
:1003500000F0F2F8401BA042FAD370BD0C00002060
:1003600070470000044910B50A68024202D00860D4
:10037000FFF7F6FF10BD0000143C01402DE9F84FD7
:10038000DFF87CB100224FF001084FF0030A4FF074
:100390000F090BF1040E00BF0B6808FA02F42340AA
:1003A000A3426ED14D68022D01D0122D0ED1D50879
:1003B00000EB850CDCF820505607F70E09FA07F61B
:1003C000B5430E69BE402E43CCF820600668550048
:1003D0000F790AFA05FC07F0030726EA0C06AF407E
:1003E000374307604E68012E05D0022E03D0112E30
:1003F00001D0122E0ED18668CF6826EA0C06AF40D7
:10040000374387604668A6430C79C4F300149440D0
:1004100034434460C6688C6826EA0C06AC4034431A
:10042000C4604C68E40065D5364C256845F48045C9
:100430002560246822F0030504F480440094324CC3
:100440002E19D6F8084895072F0F09FA07F5AC437F
:100450002E4DA84201D1002524E02D4DA84201D106
:1004600001251FE02B4DA84201D102251AE02A4D9B
:10047000A84201D1032515E0284DA84202D1042548
:1004800010E037E0264DA84201D105250AE0254DB0
:10049000A84201D1062505E0234DA84201D1072538
:1004A00000E00825BD402543C6F80858DBF80040A9
:1004B0005D464E689C43F60300D51C432C60DEF875
:1004C000004075464E689C43B60300D51C432C6023
:1004D0000B4D08352C684E689C43F60200D51C4332
:1004E0002C60074D0C352C684E689C43B60200D535
:1004F0001C432C60521C102AFFF44EAFBDE8F88F4D
:10050000003C0140443802400030014000000240FD
:100510000004024000080240000C024000100240AB
:100520000014024000180240001C0240006908400C
:1005300000D001207047000001488068704700002B
:100540000C000020024881680278114481607047E5
:100550000C0000200B4810B5016841F400710160E7
:10056000016841F480610160016841F480710160BB
:10057000032000F0A9F8002000F006F800F024F8AD
:10058000002010BD003C024070B50D4D04464FF4F4
:100590007A712878B1FBF0F00A490968B1FBF0F0F4
:1005A00000F043FB48B9102C07D200222146501E10
:1005B00000F06AF800206C6070BD012070BD000082
:1005C0000C00002018000020234808B5016841F401
:1005D00080410160006800F4804000901E48001FC8
:1005E000016841F080510160006800F08050009087
:1005F000032000F069F8002211466FF00B0000F0B4
:1006000043F8002211466FF00A0000F03DF8002286
:1006100011466FF0090000F037F800221146501F14
:1006200000F032F800221146101F00F02DF80022D1
:100630001146901E00F028F800221146501E00F0CE
:1006400023F800221146052000F01EF8BDE80840FE
:10065000052000F00EB800004438024000F01F02F0
:10066000012191404009800000F1E020C0F8801194
:10067000704700F01F02012191404009800000F105
:10068000E020C0F800117047F0B40E4B1B680C4618
:10069000C3F30223C3F10705042D00D90425191D56
:1006A000072901D2002300E0DB1E012606FA05F12E
:1006B000491E214099409E40761E16403143F0BCB1
:1006C00000F09BBC0CED00E0064900F00702086852
:1006D0004FF6FF03184040EA0220034A1043086027
:1006E000704700000CED00E00000FA0570470000C4
:1006F0002DE9F0470E46050065D0DFF81481D8F8E3
:100700000000F7B200F00F00B04207D288F8007086
:10071000D8F8000000F00F00B04254D128683D4CDA
:10072000810712D5400703D5206840F4E0502060CF
:100730002878000703D5206840F4604020602068D6
:10074000A96820F0F000084320602878C0072DD069
:10075000304968680839012812D0022813D00328CC
:1007600011D00968890700292DDA216821F00301D9
:1007700001432160FFF7E0FE814641F2883A0EE036
:1007800009688903EFE709688901ECE7FFF7D4FE00
:10079000A0EB0901514502D90320BDE8F08720688C
:1007A000696800F00C00B0EB810FEFD1D8F80010B1
:1007B000404601F00F01B14207D90770006800F010
:1007C0000F00B04201D00120E7E72878400705D5A7
:1007D0002068E96820F4E05008432060287800078A
:1007E00006D52068296920F4604040EAC1002060F5
:1007F00000F042F82168084AC1F30311515CC84077
:10080000064908600020FFF7BFFE0020C5E7000092
:10081000003C024008380240502200081800002026
:1008200001490120C8647047000047420148006840
:100830007047000018000020044805490068096856
:10084000044AC1F38221515CC8407047180000205F
:100850000838024060220008044805490068096819
:10086000044AC1F34231515CC8407047180000206F
:100870000838024060220008154810B5006810F0E2
:100880000C02144813D04110042A0FD0082A0ED1AC
:100890000F4C241F2268236802F03F025B0207D539
:1008A0002068C0F38810A0FB010106E0084610BDD7
:1008B0002168C1F38811A1FB00010023FFF780FC30
:1008C0002168C1F30141491C4900B0FBF1F010BDA2
:1008D000083802400024F400054810B500680006FE
:1008E00005D5FFF703FF02498020891C087010BD61
:1008F0000C3802402DE9F84F050076D02878DFF853
:10090000F8B2BE4CC00749D0DBF800105846C1F31E
:100910008101012908D00068C0F3810002280AD1B2
:10092000201D0068400206D52068800336D568681F
:100930000028E2D032E06868B0F5803F10D0B0F512
:10094000A02F206810D020F480302060206820F490
:10095000802020606868A0B1FFF7EEFD06460CE03D
:10096000206840F48030F4E740F480202060F7E70E
:10097000FFF7E2FD801B642873D820688003F7D559
:100980000CE0FFF7D9FD064605E000BFFFF7D4FDF8
:10099000801B6428F0D820688003F7D42878DFF81B
:1009A000608280074FF000093ED5DBF80010584602
:1009B00011F00C0F09D00068C0F3810002280BD1A0
:1009C0008D48001F0068400206D42068800715D5B6
:1009D000E868012809D111E0E868B8B10120C8F839
:1009E0000000FFF7A9FD064605E002E1FFF7A4FDC0
:1009F000801B0228C0D820688007F7D520682969A5
:100A000020F0F80040EAC10020600DE0C8F8009036
:100A1000FFF792FD064604E0FFF78EFD801B0228DB
:100A20001FD820688007F7D42878000722D5724E97
:100A3000744869696C3671B101210160FFF77CFD72
:100A4000074604E0FFF778FDC01B022809D830688C
:100A50008007F7D50EE0C0F80090FFF76DFD074660
:100A600005E083E0FFF768FDC01B02287ED83068F0
:100A70008007F7D42878400768D5DFF87CA10027E5
:100A80000AF1380ADAF80000C0000BD4DAF80010D6
:100A900041F08051CAF80010DAF80000012700F098
:100AA00080500090584E3068C00510D4306840F433
:100AB00080703060FFF740FD009005E0FFF73CFDDF
:100AC0000099401A022851D83068C005F6D54A4E20
:100AD000A868683601280FD00528306810D020F0AB
:100AE00001003060306820F004003060A868B8B1C0
:100AF000FFF722FD00900FE0306840F00100F4E7BE
:100B000040F004003060F7E7FFF716FD0099411A46
:100B100041F28830814264D830688007F4D50EE015
:100B2000FFF70AFD009007E0FFF706FD0099411A64
:100B300041F28830814254D830688007F4D42FB114
:100B4000DAF8001021F08051CAF80010A869C0B38B
:100B5000DBF80010C1F3810102294AD0022848467F
:100B600007D0C8F86000FFF7E7FC00E039E0054671
:100B70003AE04746C8F86000FFF7DEFC064604E0AE
:100B8000FFF7DAFC801B02282BD820688001F7D4FD
:100B9000D5E907010843A96A1C4A490802EB01414B
:100BA0006A6A41EA8211084395F82C1040EA016113
:100BB0001148001F016001203866FFF7BDFC0546A3
:100BC00005E014E0FFF7B8FC401B022809D82068B4
:100BD0008001F7D50BE000BFFFF7AEFC401B0228F9
:100BE00002D90320BDE8F88F20688001F4D40020EA
:100BF000F8E70120F6E7000008380240003802401C
:100C000000004742800E4742007000400000FFFF96
:100C10004FF0E0210428086903D020F004000861A7
:100C2000704740F00400FAE7704710B5401EB0F17D
:100C3000807F01D3012010BD4FF0E02460610F21BF
:100C4000601700F0DAF90020A06107202061002081
:100C500010BD10B5FFF7E8FF10BD704770B5026812
:100C600004461068D168536910F00F0F50D003F09C
:100C7000010501F4907635435DD0C20705D0CA0561
:100C800003D5E26B42F00102E263420705D5DA07C1
:100C900003D0E26B42F00202E263820705D5DA0775
:100CA00003D0E26B42F00402E263020705D5DA07E3
:100CB00003D0E26B42F00802E263E26B002A33D019
:100CC000800604D5880602D5204600F041FA206847
:100CD0004069E16BC0F38010090700D428B32046B7
:100CE00000F028FA2068416949061AD5416921F0C7
:100CF00040014161606BA0B11B490165606BFFF76A
:100D00000BFB002810D0606B016DBDE870400847F8
:100D1000830610D58B060ED52046BDE8704000F046
:100D200017BA2046FFF799FF70BD2046FFF795FFE1
:100D30000020E06370BD030606D50B0604D52046EF
:100D4000BDE8704000F0A0BB4006F3D54806F1D5E1
:100D5000D168204621F04001D160202184F839106B
:100D600000F00FF970BD00002511000870B50400F7
:100D700004D094F83900002510B106E0012070BDC0
:100D800084F83850204600F023F8242084F83900F5
:100D90002068C16821F40051C160204600F01EFAAD
:100DA0002068016921F4904101612068416921F0C6
:100DB0002A0141612068C16841F40051C160E563C6
:100DC000202084F8390084F83A00002070BD00002B
:100DD00070B51B4E01680222012303240725194820
:100DE00086B0B14218D118490E6846F010060E6060
:100DF000096801F01001059161028DE83E00694625
:100E0000FFF7BCFA002201212520FFF73DFC252039
:100E1000FFF72FFC06B070BD0C4EB142FAD10A4963
:100E2000091F0E6846F400360E60096801F40031AF
:100E300005910C218DE83E006946FFF79FFAE9E72E
:100E400000100140000002404438024000440040CD
:100E500090F83A30202B1DD1D1B1CAB190F838307A
:100E6000012B17D081628285C2850021C1632222B5
:100E700080F83A2080F8381001684A6942F001028F
:100E80004A610068C16841F49071C16000207047F8
:100E9000012070470220704709484188B1F5806FF2
:100EA0000CD202784188074B0B44491C4180014613
:100EB0001A70044801228038FFF7CABF704700004B
:100EC00000000020A80000202DE9F843044690F817
:100ED00039001F4616460D46202850D1A5B19EB1B7
:100EE00094F8380001284AD0012084F838004FF0E7
:100EF0000008C4F83C80212084F83900FFF71CFB6F
:100F0000A6848146E68426E00120BDE8F883E08CD3
:100F1000401EE084A0684B46B0F5805F4FF00002B1
:100F20004FF080012046009703D000F0DEFAE8B9C8
:100F30000DE000F0DAFAC8B928882168C0F308008B
:100F40004860206908B16D1C05E0AD1C03E0216814
:100F500015F8010B4860E08C0028D8D14B460022E0
:100F600040212046009700F0C0FA08B10320CCE7EA
:100F7000202084F8390084F838800020C5E702205A
:100F8000C3E77047FEE70000174800B5016887B067
:100F900041F010010160016801F010010591016844
:100FA00041F080010160016801F080010591016854
:100FB00041F0010101600068694600F00100059000
:100FC0001020009009480190012002900848FFF786
:100FD000D5F9002202210A20FFF756FB0A20FFF76D
:100FE00048FB07B000BD000030380240000021106F
:100FF00000100240FEE7FFF76FBC0907090E00284A
:1010000006DA00F00F0000F1E02080F8141D7047B0
:1010100000F1E02080F80014704770477047704777
:1010200010B5FFF78FFABDE81040FFF712BE0000C1
:1010300030B5254893B00025016841F0805101602A
:10104000006800F0805011902048016841F4804110
:1010500001600068022400F480401190012000909B
:10106000000401908001CDE9064008AA0420A821CF
:1010700082E813000B906846FFF73CFC00B1FEE7E6
:101080000CA90F2081E831004FF4A0500F904FF4CD
:101090008050109005210CA8FFF72AFB00B1FEE755
:1010A000FFF7BEFBFFF7C2FB4FF47A71B0FBF1F024
:1010B000FFF7BBFD0420FFF7ABFD00221146501ED9
:1010C000FFF7E2FA13B030BD403802400070004034
:1010D0001048016841F4700101600F48016841F057
:1010E000010101600C4A00210832116002680B4BBB
:1010F0001A400260031D0A4A1A60026822F4802224
:10110000026005480C3001600249580680390860C9
:101110007047000088ED00E000380240FFFFF6FE57
:101120001030002410B5806B0021C185C184FFF709
:1011300094FD10BD0168CA6822F49072CA6001680B
:101140004A6922F001024A61202180F83A10704772
:1011500010B590F83A10222901D0022010BD816804
:10116000B1F5805F11D00169002901681FD049687D
:1011700001F07F03816A4A1C82620B70C18D491E97
:101180000904090CC18518D026E00269816A002A89
:101190000268526805D0D2B20A80816A491C816215
:1011A000ECE7C2F308020A80816A891CF7E74A6803
:1011B000816A4B1C83620A70E0E70168CA6822F406
:1011C0009072CA6001684A6922F001024A612021D6
:1011D00080F83A10FFF760FE002010BD2DE9F041C5
:1011E00004460068016921F44052E168114301613D
:1011F0002168C86849F20C6290432369A268E569D6
:101200001A4363692B431A430243CA602168486941
:1012100020F44072A06910434861E1696425B1F58A
:10122000004F9748974A21684FF032083FD09142CB
:1012300001D081427CD1FFF70FFB00EBC00101EB35
:10124000001061688900B0FBF1F6FFF705FB00EBC9
:10125000C00101EB001061688900B0FBF1F0B0FB48
:10126000F5F06FF01801484306EB800108EB011020
:10127000B0FBF5F000F0F006FFF7EEFA00EBC0016E
:1012800001EB001061688900B0FBF1F0B0FBF5F0F4
:1012900006EB0016FFF7E0FA00EBC00101EB0010CF
:1012A00061688900B0FBF1F7FFF7D6FAD2E091420E
:1012B00001D081423DD1FFF7CFFA00EBC00101EB35
:1012C000001061684900B0FBF1F0B0FBF5F00601D9
:1012D000FFF7C2FA00EBC00101EB001061684900A2
:1012E000B0FBF1F7FFF7B8FA00EBC00101EB00101B
:1012F00061684900B0FBF1F0B0FBF5F06FF0180148
:10130000484307EB800108EBC100B0FBF5F000F0AB
:10131000F80006EB4006FFF79FFA00EBC00101EB77
:10132000001061684900B0FBF1F7FFF795FA3CE067
:1013300055E0FFF781FA00EBC00101EB0010616896
:101340004900B0FBF1F0B0FBF5F00601FFF774FACD
:1013500000EBC00101EB001061684900B0FBF1F740
:10136000FFF76AFA00EBC00101EB00106168490069
:10137000B0FBF1F0B0FBF5F06FF01801484307EB5C
:10138000800108EBC100B0FBF5F000F0F80006EBBF
:101390004006FFF751FA00EBC00101EB0010616855
:1013A0004900B0FBF1F7FFF747FA00EBC00101EB92
:1013B000001061684900B0FBF1F0B0FBF5F06FF090
:1013C0001801484307EB800108EBC100B0FBF5F0C2
:1013D00000F00700216830448860BDE8F081FFF725
:1013E0002BFA00EBC00101EB001061688900B0FB33
:1013F000F1F6FFF721FA00EBC00101EB0010616884
:101400008900B0FBF1F0B0FBF5F06FF01801484334
:1014100006EB800108EB0110B0FBF5F000F0F006E0
:10142000FFF70AFA00EBC00101EB001061688900C8
:10143000B0FBF1F0B0FBF5F006EB0016FFF7FCF99E
:1014400000EBC00101EB001061688900B0FBF1F70F
:10145000FFF7F2F900EBC00101EB001061688900B1
:10146000B0FBF1F0B0FBF5F06FF01801484307EB6B
:10147000800108EB0110B0FBF5F000F00F00A9E7C8
:10148000001401400010014090F83910212901D0CA
:10149000022070478168B1F5805F016A0BD04A1C59
:1014A0000262026809785160C18C491E0904090C66
:1014B000C1840ED017E009880268C1F308015160A9
:1014C00001690029016A02D0491C0162ECE7891C0C
:1014D000FBE70168CA6822F08002CA600068C16840
:1014E00041F04001C160002070472DE9F04198466D
:1014F00017460E460446069D1DE0681C1BD02DB104
:10150000FFF71AF8A0EB0800A84214D92068C168B8
:1015100021F4D071C1602068416921F0010141616D
:10152000202084F8390084F83A00002084F838003C
:101530000320BDE8F0812068006836EA000004D08E
:101540000020B842D9D00020F3E70120F9E70000DD
:101550000148FFF783BB000028000020FEE70000E1
:101560000FB4054B10B503A9044A029800F018F80F
:1015700010BC5DF814FB0000191900081C000020C5
:1015800002E008C8121F08C1002AFAD1704770474C
:10159000002001E001C1121F002AFBD170470000AA
:1015A0002DE9FF4F8DB09B460F460446002606E00E
:1015B00025280BD05A460F999047641C761C20783A
:1015C0000028F5D111B03046BDE8F08F0025A846BF
:1015D0000122984900E0054314F8013F203B02FA3C
:1015E00003F00842F7D120782E2817D114F8010F04
:1015F00045F004052A280ED06FF02F022078A0F1C4
:10160000300109290AD808EB880102EB410100EBFF
:101610000108641CF2E757F8048B641C20786C28DE
:101620000DD004DC4C2812D06A2811D104E07428B3
:101630000DD07A280CD10AE045F4001507E0617856
:1016400045F48015814202D1641C05F58015641CA7
:101650002278692A45D008DC002AB3D0582A69D0FC
:10166000632A10D0642A08D13BE0702A67D0732A1D
:1016700013D0752A5CD0782A5CD010465A460F9950
:101680009047761CD3E017F8040B8DF8000000207B
:101690008DF80100E946012003E057F8049B4FF064
:1016A000FF3069074FF0000501D40AE06D1C454585
:1016B0000DDA8542FADB19F805100029F6D106E0AB
:1016C0006D1C8542FCDB19F805100029F8D12E4469
:1016D00004E019F8010B5A460F9990476D1EF8D295
:1016E000A5E00A200021CDE90801C5F30250022837
:1016F0000DD001CFC117031E71F100030DDA4FF0B9
:10170000000CD0EB0C006CEB01012D2308E0FF1D59
:1017100027F00707F7E80201EDE72B0504D52B2397
:101720008DF8283001233BE0EB0739D02023F7E781
:101730000A2000E010200021CDE9080107E0102078
:10174000002145F00405CDE908014FF00808C5F374
:10175000025002280FD001CF00214FF0000A2B07C2
:101760001FD5702A0DD0DDE908C38CF0100C5CEA9F
:10177000030C0CD015E0FF1D27F00707F7E8020166
:10178000EBE740228DF828204FF0010A0BE050EAE9
:10179000010306D030238DF828308DF8292002234C
:1017A0009A46582A04D024A20DF120090B9209E090
:1017B00026A2F9E7DDE90823FEF702FD0B9B9B5CFF
:1017C00009F8013D50EA0102F4D1ADEB09002030E7
:1017D0000890680701D44FF001080899884502DD98
:1017E000A8EB010000E000208046002506E00AA8E2
:1017F0005A46405D0F9990476D1C761C5545F6DBA7
:1018000004E030205A460F999047761CB8F1000149
:10181000A8F10108F5DC05E019F8010B5A460F990B
:101820009047761C0899481E08900029F4DC641C37
:10183000C5E600000928010030313233343536372F
:10184000383961626364656600000000303132330C
:1018500034353637383941424344454600000000AC
:10186000054A002140F201405180044A401E000414
:10187000000C1154FAD1704700000020A80000208D
:101880001CB50BA16A46D1E90001CDE900010A4966
:101890000020135C0C5CA34204D008A0FFF760FE9C
:1018A00000201CBD401C0528F3DB01201CBD0000EE
:1018B0000000FF00FF000000A80000204572726FCA
:1018C00072204672616D652121210A0070B50022E7
:1018D0000B210B4B841E03E05D5C491C2A44D2B2F1
:1018E000A142F9DB1844514210F8020CC9B28842F7
:1018F00004D004A0FFF734FE002070BD012070BDAD
:10190000A80000204572726F7220436865636B53B4
:10191000756D2121210A000038B504468DF80000BC
:101920000223012269460248FFF7CEFA204638BD5D
:101930006800002010B5002821D0114B0022001FA4
:10194000196803E0814203D80A4649680029F9D1A1
:1019500052B11368841A9C4204D100681844106084
:10196000104602E0506000E0186039B102680B1ABE
:10197000934203D10B681A4402604968416010BD6C
:1019800020000020FF2801DAC01C00E0401D0107F4
:1019900005D0C11700EB1170001100011030704725
:1019A00070B516460546002403E0285D641C032834
:1019B00001D08C42F9DBFFF753FF2919C878C01E0C
:1019C000C2B23270BDE8704001480831FEF729BC50
:1019D000A8000020024949880180024870470000A1
:1019E00000000020A8000020FEF7B4FDFFF720FB58
:1019F000FFF7CAFA274826494FF4E1350024016071
:101A0000C0E901540C26C460C0E904468461C46185
:101A1000FFF7ACF900B1FEE71E481F4940300160F6
:101A2000C0E90154C460C0E904468461C461FFF7A1
:101A30009DF900B1FEE7012218491648FFF708FAA0
:101A400017A0FFF78DFD00F01BF900F0EBF8134C29
:101A50004FF4FA750A20FEF701FE104A0020521CCE
:101A6000D11C00F05FF80028F4D06078042801D180
:101A700000F0A0F96078072802D10EA0FFF770FDF2
:101A80000A20FEF7F6FD2846FEF758FCE2E70000C4
:101A90000010014028000020004400400000002009
:101AA00070726F6772616D2073747261742121218D
:101AB0000A0000006F6B0000F0B50B30154D20F0F0
:101AC00007010024144A0FE003688B420BD38B42BA
:101AD00005D95E1A43184768C3E9006700E0436808
:101AE000136002C004E0021D10680028ECD12046FB
:101AF000002802D1286808B10020F0BD064A074836
:101B00001060074A121A22F00702C0E900240120DF
:101B10002860D7E72400002020000020AC0400202B
:101B2000A8060020F0B50C461646002185B00A46EE
:101B300001E06254491C33788B42FADC32704A214E
:101B40008DF8101001218DF811108DF8120003216D
:101B500004A800F029FB00283BD0214D687A0C280E
:101B600011D104203070E97C21702A7D62706B7D78
:101B7000A370A87DE07011B90AB903B918B100903B
:101B800018A0FFF7EDFC687A0F281DD107203070F0
:101B9000E97C21702A7D62706B7DA370AF7DE77058
:101BA000EE7D2671287E60716D7EA57129B922B9FE
:101BB0001BB917B90EB900B935B1CDE90205CDE9A8
:101BC00000760DA0FFF7CCFCFFF74AFE012005B020
:101BD000F0BDFFF745FE0FA0FFF7C2FC0020F6E7BF
:101BE000A80000205549443A2578202578202578FA
:101BF0002025780A000000005549443A2578202520
:101C000078202578202578202578202578202578AB
:101C10000A0000005363616E204572726F722121C9
:101C2000210A000008B514208DF8000001218DF86C
:101C300001108DF802008DF803100421684600F0B1
:101C4000B3FA28B1FFF70CFE03A0FFF789FC08BD2B
:101C500006A0FFF785FCF0E753414D20436F6E6609
:101C6000696720446F6E652121210A0053414D2090
:101C7000436F6E666967204661696C2121210A0005
:101C800030B587B0182217A16846FEF7CAFA1B4C78
:101C90004FF6FF752B46182269461848FFF714F9CE
:101CA00020680168C9430906FBD4B420FEF746FB4F
:101CB00006A8FFF78FFEBDF818000028EAD0FFF74E
:101CC000DFFD48B1BDF81800FFF700FE0028E1D0A5
:101CD000FFF7C6FD07B030BD09A0FFF741FCFFF7D5
:101CE000BFFDD7E7555500000000000000000000D0
:101CF00000000000FF03FDD414011700280000209D
:101D000057616B657570204661696C2121210A005D
:101D10007FB540258DF80050089C01258DF80150B5
:101D20000BB1612300E060238DF802308DF80320B1
:101D300022680192A288ADF808200A4601460DF1FA
:101D40000A00FEF76EFA0E21684600F02DFA10B177
:101D50000648407B10B1002004B070BD04A0FFF71E
:101D6000FFFBFFF77DFD0120F6E70000A800002043
:101D700041757468656E74696361746564212121BD
:101D80000A000000802801D2800700E0000708B1A7
:101D90000020704701207047802803D2800700F19F
:101DA000804002E0000700F1805008B10020704739
:101DB000012070472DE9F0433BA18FB0D1E900012C
:101DC0000424CDE90701FFF74BFDDFF8E4900DF1A6
:101DD0001C08CDF800800023224699F800103548F1
:101DE000FFF796FF002857D009A9204600F0A4F875
:101DF000002851D00DAA06A909A800F0EFF8002884
:101E00004DD000260698FFF7BDFD0546FFF754FEAE
:101E1000074628E02046FFF7B5FF48B1CDF800801F
:101E20000023224699F800102248FFF771FF28B1DD
:101E3000B919204600F080F828B107E021461EA01D
:101E4000FFF78EFB25E028A0FFF78AFB641CE4B2B5
:101E500020461036FFF7A0FF28B1214626A0FFF745
:101E60007FFB641CE4B2AE42D4DB29A0FFF778FB11
:101E700005AA29463846FFF793FD0024284D04E0C3
:101E8000295D28A0FFF76CFB641C9DF814008442B8
:101E9000F6DB3846FFF74EFD0FB0BDE8F08322A019
:101EA000FFF75EFBF8E70000D3F7D3F7D3F70000A6
:101EB00001000020040000204572726F722E204243
:101EC0006C6F636B2041757468656E7469636174CF
:101ED000696F6E206661696C656420666F7220258B
:101EE000642121210A000000526561642066616955
:101EF0006C65642121210A00536B697070696E67FB
:101F000020626C6F636B2025642121210A00000090
:101F10006D657373616765206973203A0000000086
:101F2000A80000202563000052656164204572729C
:101F30006F722121210A000038B502460D460020AB
:101F4000134C01462154401C1028FBDB40208DF827
:101F5000000001208DF8010030208DF802008DF87E
:101F600003200421684600F01FF9002804D0607B9C
:101F700018B1FFF775FC002038BD054910220E315D
:101F80002846FEF74EF9FFF76BFC012038BD000034
:101F9000A800002000B585B040228DF80020012265
:101FA0008DF80120A0228DF802208DF80300102268
:101FB00001A8FEF736F91421684600F0F5F838B1AB
:101FC0000548407B20B1FFF74BFC002005B000BD69
:101FD000FFF746FC0120F9E7A800002010B5002318
:101FE000C45C24B1E4B2032C0CD00DA006E05B1C51
:101FF000102BF5DBC45C032C04D00DA0FFF7B0FA66
:10200000002010BDC4186078FF2804D09B1C086015
:102010000120136010BD60881B1D40BA0860F7E7FF
:10202000556E6B6E6F776E20544C562121210A003D
:102030004572726F722E2043616E2774206465634F
:102040006F6465206D657373616765206C656E678D
:1020500074682121210A00002DE9FE43884681464B
:10206000FFF7FEFB08F10305281DC7B2F81DFFF7B7
:1020700089FC0646FFF720FD0021017041700446EF
:102080000320A070E770D120207101206071A5713C
:102090005420E07102202072652060726E20A072D0
:1020A0004246494604F10B00FEF7BBF8FE2104EB63
:1020B00008000027C1721EA10425D1E90001CDE965
:1020C00001011DE02846FFF75DFE48B101A8009020
:1020D000194800232A4601781848FFF719FEC8B1AD
:1020E000E119E8B2FFF756FFB8B16D1C284610376A
:1020F000FFF752FE20B1294611A0FFF731FA6D1CFF
:10210000B742DFDBFFF7ACFB2046FFF713FC0120F3
:10211000BDE8FE83294610A001E029461AA0FFF77A
:102120001FFAFFF79DFB2046FFF704FC0020EFE7B6
:10213000D3F7D3F7D3F700000100002004000020FC
:10214000536B697070696E6720626C6F636B2025DA
:10215000642121210A0000004572726F722E204214
:102160006C6F636B2041757468656E74696361742C
:10217000696F6E206661696C656420666F722025E8
:10218000642121210A00000057726974652066618C
:10219000696C656420666F7220426C6F636B2025EA
:1021A000642121210A0000002DE9F0419AB00026A7
:1021B0000C46ADF864608DF800608DF80160FF2179
:1021C0008DF80210671CF9B28DF8031049428DF8A2
:1021D0000410D4218DF8051001466D46B046224604
:1021E000A81DFEF71EF8A41DE1B2002004E02A1885
:1021F000401C52793244D6B2B842F8DB704268547F
:10220000491CC8B24FF6FF7305F80080401CC2B2EB
:1022100069460E48FEF758FE9620FEF78FF819A87B
:10222000FFF7D8FBBDF86400002808D0FFF728FBB3
:1022300040B1BDF86400FFF749FB18B101201AB0A6
:10224000BDE8F081FFF70CFB0020F8E72800002034
:102250000000000000000000010203040607080956
:102260000000000001020304882200080000002092
:102270002800000080150008B02200082800002077
:10228000800A000090150008000000000000000017
:10229000000000000100000010000000000000002D
:1022A0000024F40000000000000000000000000016
:040000050800018965
:00000001FF
