:020000040800F2
:100000006043002059020008171E0008651C000804
:10001000151E000809040008F52F00080000000064
:100020000000000000000000000000009D0100082A
:10003000BD04000800000000F1010008652A000866
:1000400073020008730200087302000873020008BC
:1000500073020008730200087302000873020008AC
:100060007302000873020008BF040008730200084E
:10007000730200087302000873020008730200088C
:10008000730200087302000873020008730200087C
:10009000730200087302000873020008730200086C
:1000A00073020008592B000873020008730200084D
:1000B000730200087302000873020008730200084C
:1000C000730200087302000873020008730200083C
:1000D000730200087302000873020008730200082C
:1000E000730200087302000873020008730200081C
:1000F000730200087302000873020008730200080C
:1001000073020008730200087302000873020008FB
:1001100073020008730200087302000873020008EB
:1001200073020008730200080D040008730200083F
:1001300073020008730200087302000873020008CB
:1001400073020008730200087302000873020008BB
:1001500073020008730200087302000873020008AB
:10016000730200087302000873020008730200089B
:100170007302000873020008730200080000000008
:100180007302000873020008DFF80CD000F0D8F802
:100190000048004735310008604300202B4B1968A8
:1001A0000868B0E8F04F80F30988BFF36F8F4FF015
:1001B000000080F3118870470000000006480068C6
:1001C000006880F3088862B661B6BFF34F8FBFF353
:1001D0006F8F00DF00BF00BF08ED00E0DFF80C000C
:1001E000016841F470010160704700BF88ED00E0D4
:1001F000EFF30980BFF36F8F144B1A681EF0100FD6
:1002000008BF20ED108A20E9F04F106008B44FF0CD
:10021000500080F31188BFF34F8FBFF36F8F03F04F
:1002200059FD4FF0000080F3118808BC1968086878
:10023000B0E8F04F1EF0100F08BFB0EC108A80F34A
:100240000988BFF36F8F704700BF00BF5C000020BC
:10025000EFF30580704700000648804706480047D6
:10026000FEE7FEE7FEE7FEE7FEE7FEE7FEE7FEE766
:10027000FEE7FEE7052B0008890100082DE9F05F85
:100280000546002092469B46884606468146402405
:100290001BE0284641464746224600F041F85346B7
:1002A0005A46C01A914110D311461846224600F012
:1002B00028F82D1A67EB01084F462246012000213D
:1002C00000F01FF817EB00094E41201EA4F10104B5
:1002D000DFDC484631462A464346BDE8F09F40EA07
:1002E00001039B0703D009E008C9121F08C0042AB4
:1002F000FAD203E011F8013B00F8013B521EF9D29B
:100300007047202A04DB203A00FA02F100207047EF
:100310009140C2F1200320FA03F319439040704743
:10032000202A04DB203A21FA02F00021704721FA4A
:1003300002F3D040C2F120029140084319467047B1
:10034000064C074D06E0E06840F0010394E8070022
:1003500098471034AC42F6D3FFF71AFF0C48000858
:100360002C4800080146014801F044B89C000020D8
:1003700010B5044801F050F8042801D0012010BD48
:10038000002010BD9C00002038B501208DF8000031
:100390009DF80000012801D0012038BD064801F079
:1003A00051F8040006D14FF40061034800F0F8FE54
:1003B00000B10124204638BD9C000020134610B532
:1003C0000A4601460024034801F0B4F800B10124B4
:1003D000204610BD9C00002003484FF0FF32012151
:1003E000406802F031BF000000000020134610B545
:1003F0000A4601460024034801F01AF900B101241D
:10040000204610BD9C000020FEE70000014800F0DF
:10041000C5B80000C401002001681823CAB2103A10
:10042000B2FBF3F2054B6FF30901032A9B5CC36532
:1004300000D9091D8165084670470000C8470008BB
:1004400010B5014600208B698A6A4FF0C07453B121
:10045000B3F5005F15D072B1012A0CD0022A0AD080
:10046000032A09D104E01AB1012A06D0022A03D1D5
:10047000C96AC90100D5012010BDC96AA142FAD0DC
:1004800010BD002AF7D0012AF2D0022AF3D0032AA5
:10049000F3D010BD30B50468256825F480252560AB
:1004A000046863608368402B036803D09960006828
:1004B000C26030BD9A600068C16030BD70471020D6
:1004C00000F00ABA002200F001B8000030B50E4B6F
:1004D000054601205C7A002C14D1587A1C54587AB5
:1004E00003EB800045605D7A03F108002A54587AD6
:1004F000421C5A72303008703A2048702F208870A1
:10050000CC70002030BD0000503F00202DE9F041AC
:100510000446876D00F0C4FA064694F835000025BD
:10052000022806D08020606584F834500120BDE8A0
:10053000F0812068016821F016010160206841699E
:1005400021F080014161206C08B9A06C20B12068C5
:10055000016821F0080101602068016821F00101B3
:1005600001600BE000F09CFA801B052806D92020D2
:10057000606504F8345F03206070D8E72068006885
:10058000C007EFD194F85C103F208840B86004F8B1
:10059000345F012060700020C9E700002DE9F843B6
:1005A00004464FF00009CDF8009063484FF416510F
:1005B000A56D0068B0FBF1F72E6894F85C10082078
:1005C00000FA01F131420FD021680A6852070BD5B9
:1005D0000A6822F004020A6094F85C108840A8605F
:1005E000606D40F00100606594F85C104FF0010808
:1005F00008FA01F0304208D021684969090604D59B
:10060000A860606D40F00200606594F85C10042002
:100610008840304208D021680968890704D5A8605D
:10062000606D40F00400606594F85C101020884014
:10063000304218D021680968090714D5A8602068DD
:100640000168490304D50068000308D5A16C07E0E0
:100650000168C90503D4016821F008010160216C1B
:1006600009B12046884794F85C1020208840304229
:1006700031D021680968C9062DD5A86094F83500E5
:1006800005282068016806D0490347D500680003A3
:100690001DD4616C1CE021F01601016020684169E5
:1006A00021F080014161206C08B9A06C20B1206864
:1006B000016821F00801016094F85C103F20884037
:1006C000A86084F8349084F83580216D1FE0E16BD8
:1006D00009B120468847606D00282BD0606DC007A7
:1006E00014D0052084F835002068016821F001014C
:1006F00001600098401C0090B84203D82068006850
:10070000C007F6D184F8349084F83580E16C002974
:1007100010D001B02046BDE8F04308470168C90584
:10072000D5D4016821F01001016084F8349084F878
:100730003580CCE7BDE8F883340000202DE9F04196
:10074000044600F0ADF906465CB1002584F834504B
:10075000022084F835002068016821F00101016061
:100760000DE00120BDE8F08100F09AF9801B05281A
:1007700005D920206065032084F83500F2E7206861
:100780000068C007F0D12268116820480140D4E910
:1007900001031843D4E9033633431843636918430C
:1007A000A3691843E3691843236A18430843616A3D
:1007B000042903D1D4E90B131943084310602068BE
:1007C0004069666A20F0070130460E43012704287D
:1007D0000CD1A06A0643E06A40B12046FFF730FE24
:1007E00020B14020606584F83570BAE72068466122
:1007F0002046FFF711FE94F85C203F219140816074
:10080000656584F835700020ACE700003F8010F08B
:100810002DE9F0410446866D90F83400002501284A
:100820000DD0012084F8340094F835700020012F99
:1008300007D084F8340002252846BDE8F081022064
:10084000FBE7022784F8357060652046FFF722FE3B
:1008500094F85C103F208840B0602068016841F047
:10086000160101602068416941F080014161206CFE
:1008700020B12068016841F008010160206801682A
:1008800041F001010160D7E770B5044600F008F9B6
:100890000546601C02D004480078044400F000F9CA
:1008A000401BA042FAD370BD2800002010B51028CC
:1008B0000DD10748006803F017FF002807D005494D
:1008C0004FF080500860BFF34F8FBFF36F8F10BDA4
:1008D0001800002004ED00E0044910B50A68024247
:1008E00002D00860FFF7E2FF10BD0000143C014099
:1008F0002DE9F84FDFF87CB100224FF001084FF0EE
:10090000030A4FF00F090BF1040E00BF0B6808FA41
:1009100002F42340A3426ED14D68022D01D0122D66
:100920000ED1D50800EB850CDCF820505607F70EE9
:1009300009FA07F6B5430E69BE402E43CCF8206095
:10094000066855000F790AFA05FC07F0030726EA46
:100950000C06AF40374307604E68012E05D0022ECB
:1009600003D0112E01D0122E0ED18668CF6826EA50
:100970000C06AF40374387604668A6430C79C4F342
:100980000014944034434460C6688C6826EA0C0620
:10099000AC403443C4604C68E40065D5364C2568EF
:1009A00045F480452560246822F0030504F4804462
:1009B0000094324C2E19D6F8084895072F0F09FAE3
:1009C00007F5AC432E4DA84201D1002524E02D4D62
:1009D000A84201D101251FE02B4DA84201D10225DB
:1009E0001AE02A4DA84201D1032515E0284DA8425E
:1009F00002D1042510E037E0264DA84201D105259B
:100A00000AE0254DA84201D1062505E0234DA84264
:100A100001D1072500E00825BD402543C6F8085848
:100A2000DBF800405D464E689C43F60300D51C434E
:100A30002C60DEF8004075464E689C43B60300D536
:100A40001C432C600B4D08352C684E689C43F60205
:100A500000D51C432C60074D0C352C684E689C4318
:100A6000B60200D51C432C60521C102AFFF44EAF76
:100A7000BDE8F88F003C014044380240003001409E
:100A8000000002400004024000080240000C024046
:100A9000001002400014024000180240001C0240F6
:100AA00001488068704700002800002002488168E3
:100AB0000278114481607047280000200B4810B56F
:100AC000016841F400710160016841F480610160D6
:100AD000016841F480710160032000F0B1F800204A
:100AE00000F006F800F03EF8002010BD003C024087
:100AF00010B5014688B00022192000F081F81920B5
:100B000000F072F813480024016841F0010101600F
:100B1000006805A900F001000690684600F03AF967
:100B200000F06EF90C490D4AB0FBF1F10C48491E7A
:100B3000026040F2E732C0E90324C0E9011400F08A
:100B400013FE10B1012008B010BD054800F028FECA
:100B5000F9E700004438024040420F000000014025
:100B6000240200201F4808B5016841F4804101605B
:100B7000006800F4804000901A48001F016841F0AE
:100B800080510160006800F080500090032000F068
:100B900057F8002211466FF00B0000F031F80022E8
:100BA00011466FF00A0000F02BF8002211466FF09A
:100BB000090000F025F800221146501F00F020F82F
:100BC00000221146101F00F01BF800220F21901E7A
:100BD00000F016F800220F21BDE80840501E00F07A
:100BE0000FB800004438024000F01F02012191407C
:100BF0004009800000F1E020C0F8001170470000BB
:100C0000F0B40E4B1B680C46C3F30223C3F1070577
:100C1000042D00D90425191D072901D2002300E065
:100C2000DB1E012606FA05F1491E214099409E402F
:100C3000761E16403143F0BC01F0EEB80CED00E03A
:100C4000064900F0070208684FF6FF03184040EA23
:100C50000220034A10430860704700000CED00E0DA
:100C60000000FA052DE9F0470E46050065D0DFF8D3
:100C70001481D8F80000F7B200F00F00B04207D29C
:100C800088F80070D8F8000000F00F00B04254D18E
:100C900028683D4C810712D5400703D5206840F4F1
:100CA000E05020602878000703D5206840F46040B9
:100CB00020602068A96820F0F000084320602878B0
:100CC000C0072DD0304968680839012812D00228A1
:100CD00013D0032811D00968890700292DDA21686B
:100CE00021F0030101432160FFF7DAFE814641F262
:100CF000883A0EE009688903EFE709688901ECE7A3
:100D0000FFF7CEFEA0EB0901514502D90320BDE853
:100D1000F0872068696800F00C00B0EB810FEFD11C
:100D2000D8F80010404601F00F01B14207D9077012
:100D3000006800F00F00B04201D00120E7E72878FA
:100D4000400705D52068E96820F4E050084320609A
:100D50002878000706D52068296920F4604040EA19
:100D6000C100206000F05CF82168084AC1F303115B
:100D7000515CC840064908600020FFF7B9FE00201A
:100D8000C5E70000003C024008380240D047000898
:100D9000340000200F2202600C4A136803F00303A2
:100DA0004360136803F0F0038360136803F4E053B7
:100DB000C36012684FF4E05303EAD20202610448B0
:100DC000006800F00F00086070470000083802401B
:100DD000003C0240014800687047000034000020D9
:100DE0000448054900680968044AC1F38221515C3E
:100DF000C84070473400002008380240E04700082F
:100E00000448054900680968044AC1F34231515C4D
:100E1000C84070473400002008380240E04700080E
:100E2000154810B5006810F00C02144813D014498E
:100E3000042A0FD0082A0ED10F4C241F22682368E1
:100E400002F03F025B0207D52068C0F38810A0FBC8
:100E5000010106E0084610BD2168C1F38811A1FB1D
:100E600000010023FFF70AFA2168C1F30141491C80
:100E70004900B0FBF1F010BD083802400024F40036
:100E800040787D012DE9F84F050076D02878DFF80D
:100E9000F8B2BE4CC00749D0DBF800105846C1F389
:100EA0008101012908D00068C0F3810002280AD11D
:100EB000201D0068400206D52068800336D568688A
:100EC0000028E2D032E06868B0F5803F10D0B0F57D
:100ED000A02F206810D020F480302060206820F4FB
:100EE000802020606868A0B1FFF7DAFD06460CE0BC
:100EF000206840F48030F4E740F480202060F7E779
:100F0000FFF7CEFD801B642873D820688003F7D5D7
:100F10000CE0FFF7C5FD064605E000BFFFF7C0FD8A
:100F2000801B6428F0D820688003F7D42878DFF885
:100F3000608280074FF000093ED5DBF8001058466C
:100F400011F00C0F09D00068C0F3810002280BD10A
:100F50008D48001F0068400206D42068800715D520
:100F6000E868012809D111E0E868B8B10120C8F8A3
:100F70000000FFF795FD064605E002E1FFF790FD52
:100F8000801B0228C0D820688007F7D5206829690F
:100F900020F0F80040EAC10020600DE0C8F80090A1
:100FA000FFF77EFD064604E0FFF77AFD801B02286E
:100FB0001FD820688007F7D42878000722D5724E02
:100FC000744869696C3671B101210160FFF768FDF1
:100FD000074604E0FFF764FDC01B022809D830680B
:100FE0008007F7D50EE0C0F80090FFF759FD0746DF
:100FF00005E083E0FFF754FDC01B02287ED830686F
:101000008007F7D42878400768D5DFF87CA100274F
:101010000AF1380ADAF80000C0000BD4DAF8001040
:1010200041F08051CAF80010DAF80000012700F002
:1010300080500090584E3068C00510D4306840F49D
:1010400080703060FFF72CFD009005E0FFF728FD71
:101050000099401A022851D83068C005F6D54A4E8A
:10106000A868683601280FD00528306810D020F015
:1010700001003060306820F004003060A868B8B12A
:10108000FFF70EFD00900FE0306840F00100F4E73C
:1010900040F004003060F7E7FFF702FD0099411AC5
:1010A00041F28830814264D830688007F4D50EE080
:1010B000FFF7F6FC009007E0FFF7F2FC0099411AF9
:1010C00041F28830814254D830688007F4D42FB17F
:1010D000DAF8001021F08051CAF80010A869C0B3F6
:1010E000DBF80010C1F3810102294AD002284846EA
:1010F00007D0C8F86000FFF7D3FC00E039E00546F0
:101100003AE04746C8F86000FFF7CAFC064604E02C
:10111000FFF7C6FC801B02282BD820688001F7D47B
:10112000D5E907010843A96A1C4A490802EB0141B5
:101130006A6A41EA8211084395F82C1040EA01617D
:101140001148001F016001203866FFF7A9FC054621
:1011500005E014E0FFF7A4FC401B022809D8206832
:101160008001F7D50BE000BFFFF79AFC401B022877
:1011700002D90320BDE8F88F20688001F4D4002054
:10118000F8E70120F6E70000083802400038024086
:1011900000004742800E4742007000400000FFFF01
:1011A000FEB5044603200D4684F83400606C032825
:1011B00020D0B5F5805F1DD0B5F5006F05D045B1E5
:1011C000A06B40F00060A06309E0204601F014FB32
:1011D00002E0204601F0E9FAA16B0143A163A06B94
:1011E000012658B1216840F2FF50886384F83460CA
:1011F0000120FEBDA06B40F08050E4E7211DD4E942
:1012000005700EC90095CDE90170206800F030FE30
:1012100084F834600020FEBD7047F0B5426E120EB7
:1012200093090B70C2F383034B7002F003028A70C0
:10123000426E120CCA70B0F86420120A0A7190F85B
:1012400064204A71826E4FF6FF73120E03EA021297
:10125000CA80826ECB88C2F3074243EA1213CB8066
:1012600002F00F020A72B0F86820C2F30722D30915
:101270004B72C2F380138B72C2F34013CB72C2F372
:1012800000130B7300264E73446C4FF40077012358
:101290006CB1012C43D0026840F2FF519163816B25
:1012A00041F08051816380F834300120F0BD920715
:1012B000120D0A6190F868200C6944EA82020A6102
:1012C000C26E0C69120E44EA92140C61C2F3C2049D
:1012D0000C7502F007024A75C26EC2F30742540948
:1012E0008C75C2F38204CC759207520F0A76B0F85F
:1012F0006C20C2F307240A7E42EAD4120A760A69F5
:10130000521C42650D7EAD1CAA4042650D7A03FA5F
:1013100005F585656D0A6A43C0E917271CE090F85A
:1013200068209206920A0A61C26E0C69120E44EAA3
:1013300002220A61C26E0C69C2F3074214430C61B7
:10134000B0F86C20C2F307240A69521C4FEA8222CB
:101350004265C0E916720766C4F3801201F8192FBE
:101360004FEA84624FEA52624A7010F86C2F4C7850
:1013700044EAD2144C7002F07F028A7042684FEA4D
:1013800012624FEAD214CC70C2F341140C71C2F352
:1013900082044C714FEA82724FEA12728A7142687B
:1013A0008C79C2F3074244EA92148C71C2F3401460
:1013B000CC710E7202F001024A728288C2F30722D7
:1013C0004FEAD2148C72C2F38014CC72C2F3401470
:1013D0000C73C2F300144C73C2F381048C7302F0DB
:1013E0000302CA7300794FEA500008744B744FF03F
:1013F0000000F0BD426C0A60826C4A60C26C8A6078
:10140000026DCA60426D0A61826D4A61C26D8A6175
:10141000006EC8610020704770B50446B0F85000F7
:1014200000250104206800F09CFE18B1A16B014367
:10143000A16304E00021206800F014FD0546C5F317
:10144000432070BD70B5040004D094F8340000252A
:1014500010B105E0012070BD2577204600F038F876
:10146000032084F83400204600F008F8A5632563C3
:10147000012084F83400002070BD0000FEB5002576
:10148000044676200095CDE901502B462A46294690
:10149000206800F0EDFC0D4E46F8A05F206800F0DB
:1014A000F9FC012535600220FFF7EEF9204601F036
:1014B0002BF920B9204601F0B4F8002805D084F8B3
:1014C0003450A16B0143A1630120FEBD0080254281
:1014D000F0B50068134987B0884221D11248002432
:1014E000016841F4006101600068022500F40060B9
:1014F00005904FF4F850CDE9000502AA03260C2709
:1015000082E8D00069460948FFF7F2F90420CDE9E6
:10151000000502AA694682E8D0000548FFF7E8F90D
:1015200007B0F0BD002C01404438024000080240E2
:10153000000C02402DE9F043154687B01F460A0013
:10154000044607D094F83400012807D0022007B0E1
:10155000BDE8F083A06B40F0006008E00020A063CD
:10156000E36DE919994204D9A06B40F00070A063C3
:1015700051E0032184F8341021688146C862216853
:10158000CB6B43F49573CB63E36B24494FEA472855
:10159000D963E36B2249D964E16B4FEA980308658C
:1015A0002168E06B8031FFF733F91E4801260660A1
:1015B000606C012800D06D024FF0FF30CDE90008CB
:1015C0009020029002200596CDE903096946206823
:1015D00000F032FC4FF40071206800F0A5FC40F2EE
:1015E000FF5880B9012F06D9822020632946206840
:1015F00000F028FD05E0812020632946206800F0E6
:101600003AFD0028A3D02268C2F83880A16B0143BC
:10161000A16384F83460012099E7000003250008E5
:10162000AD2400088C85254210B5FEF7D5FE10BD0F
:101630002DE9F04F87B01F4615465FEA010B0446BF
:1016400007D094F83400012807D0022007B0BDE885
:10165000F08FA06B40F0006008E00020A063E26D16
:10166000E919914204D9A06B40F00070A06339E001
:10167000032184F8341021688046C8622168CA6B4F
:1016800042F01A02CA63226C2349D163226C2349B7
:10169000D164216C0865606C012800D06D024FF4A4
:1016A0000071206800F040FC012640F2FF5988B923
:1016B0004FF0900A012F06D9A02020632946206808
:1016C00000F09AFD05E0C4F830A02946206800F03B
:1016D000ACFD48B12268C2F83890A16B0143A16308
:1016E00084F834600120B1E70D48066022687D026D
:1016F000AB0859468032206CFFF78AF84FF0FF3074
:101700008DE82104CDE90486CDF80C806946206877
:1017100000F092FB002099E741250008AD24000865
:101720008C8525424FF0E0210428086903D020F081
:1017300004000861704740F00400FAE710B5401E4D
:10174000B0F1807F01D3012010BD4FF0E024606133
:101750000F21601700F060FB0020A06107202061CE
:10176000002010BD7047704710B5040003D094F8F6
:10177000390010B107E0012010BD002084F83800C6
:10178000204600F00CF8022084F83900211D206862
:1017900001F0E8F9012084F83900002010BD7047FD
:1017A0000168CA6842F00102CA600068016841F03D
:1017B0000101016000207047704770B50446006861
:1017C00001694FF00005C943890715D4C168C943B1
:1017D000890711D4E91E0161012020762068806903
:1017E0008007204602D0FFF7E7FF04E000F098F8FA
:1017F000204600F096F8257620680169C94349071C
:1018000017D4C168C943490713D46FF004010161BB
:10181000022020762068806910F4407F204602D0A4
:10182000FFF7CAFF04E000F07BF8204600F079F8EB
:10183000257620680169C943090716D4C168C943E0
:10184000090712D46FF00801016104202076206896
:10185000C0698007204602D0FFF7AEFF04E000F029
:101860005FF8204600F05DF8257620680169C943DD
:10187000C90617D4C168C943C90613D46FF0100153
:101880000161082020762068C06910F4407F20465E
:1018900002D0FFF791FF04E000F042F8204600F08C
:1018A00040F8257620680169C943C90708D1C16895
:1018B000C943C90704D1891E0161204600F032F8EE
:1018C00020680169C943090609D4C168C9430906EA
:1018D00005D46FF0800101612046FFF743FF2068C7
:1018E0000169C943490609D4C168C943490605D4F9
:1018F0006FF040010161204600F01EF82068016988
:10190000C94389060BD4C168C943890607D46FF05F
:10191000200101612046BDE87040FFF724BF70BD83
:101920007047704700680349884201D1FFF7BEB88D
:101930007047000000000140704710B50446006881
:10194000416994F83920C1F3C011212A0BD151B15A
:10195000416921F080014161206B08B1FEF7D6FD9D
:10196000204601F0B5F92068416994F83A20C1F3A6
:101970008011222A0BD151B1416921F0400141610E
:10198000606B08B1FEF7C2FD204601F093F900201C
:1019900010BD704770B5040004D094F839000025DC
:1019A00010B106E0012070BD84F83850204600F0E8
:1019B00023F8242084F839002068C16821F40051FC
:1019C000C160204601F08EF92068016921F4904140
:1019D00001612068416921F02A0141612068C168E4
:1019E00041F40051C160E563202084F8390084F897
:1019F0003A00002070BD000070B5064600681C4922
:101A000086B0884231D11B480025016841F01001A1
:101A100001600068694600F0100005904FF4C06056
:101A200000900220019001200290032003900720E3
:101A300004901148FEF75CFF114C104820604FF0F5
:101A40000060C4E901054014C4E903506561A56163
:101A5000E561256220466562FEF770FE18B17E21C1
:101A600008A001F0C8FA7463A66306B070BD000058
:101A7000001001404438024000000240406402402F
:101A8000C40100202E2E2F5372632F757361727460
:101A90002E630000F8B5044690F83A0020283CD1A7
:101AA000C1B3BAB394F83800012836D0012084F8C5
:101AB0003800A162A2850025E563222084F83A005F
:101AC000636B1748D863636B16481864636B1648DA
:101AD000D864606B134605650846666B216802464C
:101AE0003046091DFEF794FE2068016841680091A8
:101AF00084F83850C16841F48071C1602068416940
:101B000041F0010141612068416941F040014161BA
:101B10000020F8BDFFE70120FBE70220F9E7000005
:101B20006F2C0008AB2C0008252C000870B504466B
:101B30001848FFF702FF18492068884228D1174C3F
:101B4000144A00252178643A29B900201554401C14
:101B5000C0B26428FAD360780A2803D05054491CD4
:101B600021700DE00E48006802F0BEFD38B10D494D
:101B70004FF080500860BFF34F8FBFF36F8F257019
:101B8000BDE8704005490122491C0248FFF782BFA9
:101B900070BD0000840100200010014024000020DE
:101BA0001400002004ED00E070472DE9F8430446DE
:101BB00090F839001F4616460D46202850D1A5B191
:101BC0009EB194F8380001284AD0012084F83800EA
:101BD0004FF00008C4F83C80212084F83900FEF75B
:101BE0005FFFA6848146E68426E00120BDE8F883F5
:101BF000E08C401EE084A0684B46B0F5805F4FF05B
:101C000000024FF080012046009703D001F0C0F998
:101C1000E8B90DE001F0BCF9C8B928882168C0F323
:101C200008004860206908B16D1C05E0AD1C03E0A8
:101C3000216815F8010B4860E08C0028D8D14B468C
:101C4000002240212046009701F0A2F908B10320AC
:101C5000CCE7202084F8390084F838800020C5E7DC
:101C60000220C3E7FEE70000094808B5016841F417
:101C7000800101600068002200F4800000900521CE
:101C80003A20FEF7BDFFBDE808403A20FEF7ACBFA2
:101C90003038024010B504490448FEF713FC0249ED
:101CA000491E087010BD00000900002070470008A0
:101CB00030B591B000250FA80F9501F0F3FA154C3F
:101CC0000121E06010A8109501F0EFFA20611422C4
:101CD00011496846FEF703FB0021684601F002FB4C
:101CE0000D4920601422143105A8FEF7F8FA0021EE
:101CF00005A801F0F7FA08496060142228310AA803
:101D0000FEF7EDFA00210AA801F0ECFAA06011B08C
:101D100030BD0000100000208C4700081F4800B5AF
:101D2000016887B041F010010160016801F0100105
:101D30000591016841F080010160016801F08001B6
:101D40000591016841F004010160016801F004019E
:101D50000591016841F001010160016801F0010194
:101D60000591016841F0080101600068694600F0D2
:101D70000800059010200090094801900120029071
:101D80000848FEF7B5FD002205210A20FEF738FFBE
:101D90000A20FEF729FF07B000BD000030380240DE
:101DA0000000211000100240064805490160002192
:101DB00041608160C16001614161816170470000E3
:101DC000002C01409C0000200D4810B50B4901601B
:101DD0004FF4E1314160002181600C22C160C0E913
:101DE00004128161C161FFF7D5FD002805D0BDE86F
:101DF0001040542103A001F0FEB810BD00100140B6
:101E0000840100202E2E2F5372632F75736172741C
:101E10002E630000FEE770470907090E002806DA66
:101E200000F00F0000F1E02080F8141D704700F171
:101E3000E02080F8001470470A6842624A688262B3
:101E4000D1E902231A43D1E904310B43C16A1A4391
:101E500021F0F7011143C16200207047006800F0D3
:101E60000300704708B5084414300090006808BDAE
:101E700070B50DF1100C11439CE870002343194319
:101E800029434268314347F6FF639A430A4342605D
:101E9000002070BD0321016000207047D0F8800051
:101EA00070470A688260D1E901231A43D1E90331FE
:101EB0000B43C1681A436FF30B011143C16000204B
:101EC000704710B586B004463720CDE90010402099
:101ED0000290002003904FF48060049069462046F1
:101EE000FFF7DFFF41F288323721204600F0B6F9D4
:101EF00006B010BD10B504460A4886B0014329203B
:101F0000CDE9001040200290002003904FF4806043
:101F1000049069462046FFF7C4FF204600F054FABB
:101F200006B010BD0000108010B586B00446102029
:101F3000CDE9001040200290002003904FF4806013
:101F4000049069462046FFF7ACFF41F28832102129
:101F5000204600F083F906B010BD10B586B00446E7
:101F60000620CDE9001040200290002003904FF49D
:101F70008060049069462046FFF793FF41F2883263
:101F80000621204600F06AF906B010BD30B585B0D4
:101F900000240546009401944FF480600294CDE93A
:101FA000034069462846FFF77CFF0B484FF4FA517F
:101FB0000068B0FBF1F041F288314843401E03D283
:101FC0004FF0004005B030BD696B0906F6D540F210
:101FD000FF50A8632046F5E73400002070B585B0B7
:101FE00004464FF4D570009008204026CDE9010644
:101FF0000025C001CDE9035069462046FFF751FF97
:102000000F484FF4FA510068B0FBF1F041F288310B
:102010004843401E02D24FF000450DE0616B11F0C5
:10202000450FF6D0606B400702D5A663042503E098
:10203000606B400600D5A66305B0284670BD000061
:102040003400002010B586B004461220CDE90010FF
:1020500040200290002003904FF480600490694675
:102060002046FFF71EFF41F288321221204600F081
:10207000F5F806B010BD10B586B004461120CDE9C4
:10208000001040200290002003904FF480600490E4
:1020900069462046FFF705FF41F2883211212046AC
:1020A00000F0DCF806B010BD10B586B0044607207D
:1020B000CDE9002040200290002003904FF4806082
:1020C000049069462046FFF7ECFE41F28832072172
:1020D000204600F0C3F806B010BD10B586B0044627
:1020E00000210220CDE90010C020CDE902014FF40B
:1020F0008060049069462046FFF7D3FE204600F03A
:102100003BF906B010BD10B586B004460920CDE9F4
:102110000010C0200290002003904FF480600490D3
:1021200069462046FFF7BDFE204600F025F906B0BF
:1021300010BD10B586B0044600213320CDE9001053
:102140004020CDE902010001049069462046FFF7D6
:10215000A8FE41F288323321204600F07FF806B015
:1021600010BD10B586B004460D20CDE9001040200A
:102170000290002003904FF480600490694620464E
:10218000FFF78FFE41F288320D21204600F066F8FD
:1021900006B010BD30B585B00C46054600210320C1
:1021A000CDE900104020CDE902010001049069460C
:1021B0002846FFF776FE22460321284600F024F940
:1021C00005B030BD10B586B0044600210C20CDE925
:1021D00000104020CDE9020100010490694620462C
:1021E000FFF75FFE034A0C21204600F037F806B0E7
:1021F00010BD000000E1F50510B586B004461920B9
:10220000CDE9001040200290002003904FF4806040
:10221000049069462046FFF744FE41F288321921B6
:10222000204600F01BF806B010BD10B586B004467D
:102230001820CDE9001040200290002003904FF4B8
:102240008060049069462046FFF72BFE41F28832F9
:102250001821204600F002F806B010BD444B10B51E
:102260001B684FF4FA54B3FBF4F353435B1E02D2E2
:102270004FF0004010BD426B12F0450FF6D0426B9C
:10228000520703D504218163084610BD426BD20773
:1022900002D00121816303E00269D2B28A4201D0F7
:1022A000012010BD40F2FF5181630021FFF7DAFDEC
:1022B0003049084201D1002010BD002802DA4FF059
:1022C000007010BD410001D5402010BD810001D536
:1022D000802010BDC10002D54FF4807010BD0101F7
:1022E00002D54FF4007010BD410102D54FF480605B
:1022F00010BDC10102D54FF4006010BD010202D52E
:102300004FF4805010BD410202D54FF4005010BD73
:10231000810202D54FF4804010BDC10202D54FF4B6
:10232000004010BD410302D54FF4003010BD8103C1
:1023300002D54FF4802010BDC10302D54FF4002018
:1023400010BD010402D54FF4801010BD410402D528
:102350004FF4001010BD810402D54FF4800010BD71
:10236000000702D54FF4000010BD4FF4803010BDBF
:102370003400002008E0FFFD12494FF4FA520968CA
:10238000B1FBF2F141F288325143491E02D24FF0C3
:1023900000407047426B12F0450FF6D0416B490781
:1023A00003D50421816308467047416BC90703D0F8
:1023B000012181630846704740F2FF51816300208C
:1023C00070470000340000200E494FF4FA520968AB
:1023D000B1FBF2F141F288325143491E02D24FF073
:1023E00000407047426B12F0450FF6D0416B490731
:1023F00003D5042181630846704740F2FF51816391
:1024000000207047340000201F4B10B51B684FF4AC
:10241000FA54B3FBF4F341F2883463435B1E02D2F7
:102420004FF0004010BD446B14F0450FF6D0436BE5
:102430005B0703D504218163084610BD436BDB07AE
:1024400002D00121816303E00369DBB28B4201D03A
:10245000012010BD40F2FF5181630021FFF702FD12
:1024600010F4604F04D0410406D54FF4005010BD65
:10247000000C1080002010BD000402D54FF48050E5
:1024800010BD4FF4803010BD3400002010B5064C54
:1024900001202070FDF76CFF18B9207820F00100B2
:1024A0002070207810BD00000000002010B5846B63
:1024B000E06B406D012803D0206C406D01281CD1D9
:1024C000216840F2FF5088632068C16B21F49D7140
:1024D000C163A06B40F08040A0632046FEF79CFFE4
:1024E000062801D0052805D12068FFF76BFEA16BF7
:1024F0000843A063012084F834002046FEF78CFED8
:1025000010BD10B5846B206B822809D12068FFF7BD
:1025100059FE28B1A16B0143A1632046FEF77CFE62
:102520002068C16A21F00801C162216840F2FF50B1
:102530008863012084F834002046FFF775F810BD49
:10254000806B0068C16B41F48071C16370472DE9F5
:10255000F04F89B00E460446FEF7A2FA00258346E6
:10256000009501952F4608212068FFF7DDFC002823
:1025700034D1B4F8500001042068FFF7A2FC002811
:102580002CD1401E4FF00808CDE9020830204FF052
:102590000209CDE904090120CDE9067002A92068ED
:1025A000FFF74AFC2068FFF7C4FD002816D1EA4671
:1025B00040F22A472068416B394212D1416B8902AF
:1025C00004D5FFF76BFC4AF825006D1CFEF768FA8E
:1025D000A0EB0B00401CEDD14FF0004009B0BDE86E
:1025E000F08F416B090703D5C0F838800820F5E764
:1025F000416B890703D5C0F838900220EEE7416BA4
:10260000890603D5202181630846E7E740F2FF51A0
:102610008163009800BA7060019800BA30600020B1
:10262000DCE710B590B004460120ADF83800206812
:10263000FFF714FC002864D0606C032842D02068A7
:10264000FFF74BFD00285AD100212068FFF70AFC54
:10265000606704212068FFF705FCA0670821206857
:10266000FFF700FCE0670C212068FFF7FBFBC4F8D4
:102670008000606C032825D00EA92068FFF78AFD32
:1026800000283CD1606C03281CD0BDF838002065C0
:1026900001042068FFF737FD002830D100212068B1
:1026A000FFF7E0FB606604212068FFF7DBFBA06614
:1026B00008212068FFF7D6FBE0660C212068FFF7B1
:1026C000D1FB206704212068FFF7CCFB000DE064FC
:1026D00003A92046FEF7A1FDB4F850000023020430
:1026E0002068FFF7E1FC002809D104F1100007C8B9
:1026F0008DE8070094E80F00FFF7BAFB002010B048
:1027000010BD4FF08060FAE72DE9F843002504463C
:1027100000950068FFF73AFC00281AD12068FFF7FF
:102720005DFC4FF080784FF6FF76D8B14FF08057C0
:10273000A5640098411C0091B0421AD00021206885
:10274000FFF7BFFB20B900212068FFF7D3FB10B1D2
:102750003846BDE8F88300212068FFF783FBC00FEF
:10276000E7D01FE00127A7640098411C0091B04208
:1027700001D14046EDE700212068FFF7A2FB0028C9
:10278000E7D14FF080412068FFF7B4FB0028E0D18B
:1027900000212068FFF766FBC10FE5D0400001D59E
:1027A000676400E065640020D3E71CB504460020A0
:1027B0000090019000212068FFF754FB800102D5B2
:1027C0004FF400601CBD69462046FFF7C0FE00289C
:1027D000F8D10198C0030CD5B4F85000010420686A
:1027E000FFF76FFB0028EDD100212068FFF7B5FB54
:1027F0001CBD4FF080601CBD1CB50446002000903D
:10280000019000212068FFF72DFB800102D54FF4D5
:1028100000601CBD69462046FFF799FE0028F8D1EC
:10282000019840030CD5B4F8500001042068FFF76C
:1028300048FB0028EDD102212068FFF78EFB1CBD6C
:102840004FF080601CBD00007CB50E4C0546012099
:10285000207000F08FFC98B1FDF796FD18B928465E
:10286000FFF714FE20702078012809D00649D1E92D
:102870000001CDE900010021684600F095FC606090
:1028800020787CBD000000208447000810B5124865
:1028900088B014460078C00702D0032008B010BDED
:1028A000C1B1012905D0022908D003290CD0042088
:1028B000F4E76846FDF756FD06980AE06846FDF71E
:1028C00051FD0798208005E06846FDF74BFD07980D
:1028D000400A20600020E1E7000000203EB51546D8
:1028E000084601241A462946FDF768FDC8B90F4875
:1028F00047F230552A464168684600F059FCDDE948
:10290000001010290DD101280BD100F041FC054425
:1029100003E000BFFDF72CFD28B100F039FCA84210
:10292000F8D320463EBD0024FBE700000000002055
:10293000FFF7ACBD3EB51546084601241A462946A8
:10294000FDF754FDC8B90F4847F230552A46416893
:10295000684600F02DFCDDE9001010290DD1022899
:102960000BD100F015FC054403E000BFFDF700FDAE
:1029700028B100F00DFCA842F8D320463EBD00244B
:10298000FBE7000000000020FFF784F90B4C4FF03C
:10299000FF354FF47A7600232A461946E06801F0A5
:1029A00083FA07A000F028FB00231A461946E068C6
:1029B00001F074FB304601F061F8ECE710000020F4
:1029C000537461727444656661756C745461736BA1
:1029D0000A0000004FF0FF350A4C002001F01AF900
:1029E00000232A461946E06801F05EFA064907A06E
:1029F00000F002FB00231A461946E06801F04EFB86
:102A0000EBE70000100000202001002052783A205F
:102A100025730A001FB50DA3104C0FCB8DE80F00D6
:102A20004FF0FF35002001F0F5F800232A46194643
:102A3000E06801F039FA694609A000F0DDFA0023E8
:102A40001A461946E06801F029FBEBE762757474D9
:102A50006F6E20707265737365640A001000002049
:102A60002573000000F034BC30B5244893B0002436
:102A7000016841F080510160006800F080501190C1
:102A80001F48016841F4804101600068022500F49C
:102A9000804011900120039010200490009506952D
:102AA0000820CDE907404820CDE9090503200B9017
:102AB0006846FEF7E7F900B1FEE70F20CDE90C0507
:102AC0004FF48050CDE90E4002210CA81094FEF77F
:102AD000C9F800B1FEE7FEF77DF94FF47A71B0FB5B
:102AE000F1F0FEF72BFE0420FEF71CFE00220F2162
:102AF000501EFEF785F813B030BD0000403802408C
:102B0000007000401048016841F4700101600F48F6
:102B1000016841F0010101600C4A00210832116096
:102B200002680B4B1A400260031D0A4A1A600268D1
:102B300022F48022026005480C30016002495806E8
:102B4000803908607047000088ED00E000380240DE
:102B5000FFFFF6FE103000240148FEF72EBE0000F5
:102B600024020020F0B50268234B244D244E254F4B
:102B7000254C4FF0804C984209D0604507D0A842C0
:102B800005D0B04203D0B84201D0A04204D122F017
:102B9000700E4A6842EA0E0298421BD0604519D076
:102BA000A84217D0B04215D0B84213D0A04211D0DD
:102BB000164DA8420ED0164DA8420BD0154DA84276
:102BC00008D0154DA84205D0144DA84202D0144D8E
:102BD000A84203D122F44075CA682A4302608A6879
:102BE000C2620A688262984201D0A04201D109699A
:102BF000016301214161F0BD00000140000400407B
:102C000000080040000C004000040140004001406A
:102C1000004401400048014000180040001C0040F2
:102C20000020004070B5846B2068406994F839102A
:102C3000C0F3C0100025212904D118B1E584204635
:102C400000F046F82068406994F83A10C0F380100C
:102C5000222904D118B1E585204600F02BF8E06B5D
:102C600040F01000E0632046FEF793FE70BD10B503
:102C70000146806B09680968C90513D40021C18524
:102C80000168CA6822F48072CA6001684A6922F049
:102C900001024A6101684A6922F040024A6120212A
:102CA00080F83A10FEF742FF10BD10B5806BFEF7BA
:102CB0007BFF10BD0168CA6822F49072CA60016887
:102CC0004A6922F001024A61202180F83A107047D7
:102CD0000168CA6822F0C002CA60202180F8391059
:102CE000704700002DE9F04104460068016921F4B5
:102CF0004052E168114301612168C86849F20C62E1
:102D000090432369A268E5691A4363692B431A4318
:102D10000243CA602168486920F44072A0691043E8
:102D20004861E1696425B1F5004F9748974A2168E9
:102D30004FF032083FD0914201D081427CD1FEF762
:102D40005FF800EBC00101EB001061688900B0FB87
:102D5000F1F6FEF755F800EBC00101EB00106168D9
:102D60008900B0FBF1F0B0FBF5F06FF018014843BB
:102D700006EB800108EB0110B0FBF5F000F0F00667
:102D8000FEF73EF800EBC00101EB0010616889001E
:102D9000B0FBF1F0B0FBF5F006EB0016FEF730F8F3
:102DA00000EBC00101EB001061688900B0FBF1F796
:102DB000FEF726F8D2E0914201D081423DD1FEF7E4
:102DC0001FF800EBC00101EB001061684900B0FB87
:102DD000F1F0B0FBF5F00601FEF712F800EBC001D0
:102DE00001EB001061684900B0FBF1F7FEF708F84D
:102DF00000EBC00101EB001061684900B0FBF1F08D
:102E0000B0FBF5F06FF01801484307EB800108EBC9
:102E1000C100B0FBF5F000F0F80006EB4006FDF74E
:102E2000EFFF00EBC00101EB001061684900B0FB4F
:102E3000F1F7FDF7E5FF3CE055E0FDF7D1FF00EBD2
:102E4000C00101EB001061684900B0FBF1F0B0FB7C
:102E5000F5F00601FDF7C4FF00EBC00101EB001027
:102E600061684900B0FBF1F7FDF7BAFF00EBC00164
:102E700001EB001061684900B0FBF1F0B0FBF5F028
:102E80006FF01801484307EB800108EBC100B0FB6D
:102E9000F5F000F0F80006EB4006FDF7A1FF00EBAF
:102EA000C00101EB001061684900B0FBF1F7FDF7CC
:102EB00097FF00EBC00101EB001061684900B0FB17
:102EC000F1F0B0FBF5F06FF01801484307EB80011B
:102ED00008EBC100B0FBF5F000F0070021683044BA
:102EE0008860BDE8F081FDF77BFF00EBC00101EBDE
:102EF000001061688900B0FBF1F6FDF771FF00EB8F
:102F0000C00101EB001061688900B0FBF1F0B0FB7B
:102F1000F5F06FF01801484306EB800108EB011053
:102F2000B0FBF5F000F0F006FDF75AFF00EBC00132
:102F300001EB001061688900B0FBF1F0B0FBF5F027
:102F400006EB0016FDF74CFF00EBC00101EB001093
:102F500061688900B0FBF1F7FDF742FF00EBC001AB
:102F600001EB001061688900B0FBF1F0B0FBF5F0F7
:102F70006FF01801484307EB800108EB0110B0FB2C
:102F8000F5F000F00F00A9E7001401400010014027
:102F90002DE9F041984617460E460446069D1DE071
:102FA000681C1BD02DB1FDF77BFDA0EB0800A842EB
:102FB00014D92068C16821F4D071C16020684169CA
:102FC00021F001014161202084F8390084F83A00A1
:102FD000002084F838000320BDE8F08120680068F4
:102FE00036EA000004D00020B842D9D00020F3E730
:102FF0000120F9E7FEE7FEE70FB4054B10B503A982
:10300000044A029800F017F810BC5DF814FB0000A9
:103010000D3100089800002002E008C8121F08C106
:10302000002AFAD170477047002001E001C1121F49
:10303000002AFBD170472DE9F84F99469246884601
:103040000546002706E025280AD051464A46904703
:103050006D1C7F1C28780028F5D13846BDE8F88F14
:10306000002315F8011F18462E2915D115F8011F48
:1030700004232A290DD06FF02F022978A1F1300402
:10308000092C09D800EB800002EB400008446D1CBD
:10309000F3E758F8040B6D1C2A78002ADDD0632A68
:1030A00007D0732A0FD0104651464A4690477F1CDE
:1030B0002AE018F8042B8DF8002000218DF801106B
:1030C0006E46012103E058F8046B4FF0FF315A07B8
:1030D0004FF0000401D409E0641C84420BDA8C42F6
:1030E000FADB325D002AF7D105E0641C8C42FCDB80
:1030F000305D0028F9D1274404E016F8010B514651
:103100004A469047641EF8D26D1CA3E738B50446C2
:103110008DF800000223012269460248FEF745FDB2
:10312000204638BD84010020EFF30580002800D040
:1031300001207047FDF7C2FCFFF796FCFEF7EEFD9D
:10314000FEF792FDFEF740FEFEF72EFE0122044937
:103150000448FEF79FFCFEF7ABFD00F014F8FEE715
:10316000250000208401002001460020842900D091
:10317000C81C704710B501F04FF9012801D001209B
:1031800010BD002010BD10B500F010FD002010BDD6
:1031900010B5FFF7C9FF18B1BDE8104001F050B9F4
:1031A000BDE8104001F046B903C8002200F058BE47
:1031B0002DE9FF410D004FF00006CDE901650746FE
:1031C0001ED000240396501C1FD002B11446FFF7F6
:1031D000ABFF69464FF01008E8B103AA2846091D65
:1031E00001F06AF8012813D000960398F0B1154950
:1031F0004FF080500860BFF34F8FBFF36F8F15E023
:10320000802031462A46009012E04FF0FF34DEE77E
:10321000CDF80080E9E7002322462846091D00F08A
:1032200043FE012808D054B1402000909DE80700DB
:1032300087E80700BDE8FF81CDF80080F6E70020B1
:10324000F3E7000004ED00E037B5054682B000204A
:103250000090140000D10124FFF766FF4FF0000337
:1032600088B16A4603A9284600F0C8FF012811D199
:10327000009890B10A494FF080500860BFF34F8F1B
:10328000BFF36F8F09E0224603A9284600F006FF2E
:10329000012802D0FF2005B030BD0020FBE7000070
:1032A00004ED00E0012000F0C9BD10B5012901D0F6
:1032B000002010BD03220021012000F0D1FD0400F8
:1032C00004D000231A46194600F0E8FE204610BD3F
:1032D00010B501F0A1F8012803D0BDE8104000F0BE
:1032E00097BD10BD3EB504460D46B0F90800FFF786
:1032F0003BFF02A9CDE90001208A2B4682B2D4E926
:10330000001001F05DF8012801D000203EBD0298B8
:103310003EBD00002DE9F041184C0F460546E66819
:103320002068001D00F0CAFA38B9206890F82C1007
:1033300001208840216981432161681C07D137B190
:103340002168BDE8F0410E48091D00F0EFBA206881
:103350003544B5424560216805D2A06BBDE8F04117
:10336000091D00F0CBBA606B091D00F0C7FAA06A16
:10337000854200D2A562BDE8F08100005C0000201B
:103380003C3F00202DE9F041054600F0DBFA2E4CD1
:10339000A068401CA06020682C4F10B1606940B349
:1033A0002DE02560A068012829D1002606EB8600C3
:1033B00007EB800000F094FA761C072EF6D3234822
:1033C0008C3000F08DFA2148A03000F089FA1F48B7
:1033D000B43000F085FA1D48C83000F081FA1B486F
:1033E000DC3000F07DFA19488C3060631430A06343
:1033F00005E02068E96AC06A884200D82560606AF2
:10340000401C6062E96A0120226988401043206103
:1034100001EB810007EB8000291D00F087FA00F026
:10342000B1FA606900280CD02068E96AC06A884255
:1034300007D207494FF080500860BFF34F8FBFF3AA
:103440006F8FBDE8F08100005C000020603E00202E
:1034500004ED00E070B5114E114C17E000F032FCA5
:103460003068B8B101F0DEF800F06CFAF068C568B9
:10347000281D00F023FAA068401EA0606068401E6E
:10348000606000F07FFA284600F055F86068002878
:10349000E4D170BD01F0C6F8F8E70000283F002035
:1034A0005C00002030B4026C0B46002A0BD0C168CF
:1034B0001144C1604468A14201D30168C16030BCBD
:1034C0001846FCF70CBF30BC70472DE9F041856B06
:1034D000174604460026026C82B1C7B1E068FCF7CB
:1034E000FEFEE168206C091AE1602268914202D276
:1034F0006168081AE060022F16D017E02068A8B9AA
:10350000606801F009F80646002060600EE0A068DF
:10351000FCF7E5FE216CA0680844A0606168884261
:1035200004D32068A06001E005B16D1E6D1CA56389
:103530003046BDE8F08110B50446006B00F036FA65
:103540002046BDE8104000F031BA000010484FF4AA
:103550007051420706D0C01D0D4920F00700411AE6
:10356000C1F570510B4A00230144C2E90003083938
:10357000103A21F0070111604B600B600B1AC0E993
:10358000001393604FF000405360D060704700001C
:103590006002002048000020074C4FF08056074D85
:1035A000FFF758FF20680128FAD92E60BFF34F8F2C
:1035B000BFF36F8FF4E70000603E002004ED00E0F1
:1035C0002DE9F0479A46DDE9098481466FF003034F
:1035D000206B03EB82021044089D20F00706700761
:1035E00007D0502080F31188BFF34F8FBFF36F8F48
:1035F000FEE723180A5C83F834200A5C12B1401CF1
:103600001028F6D3002784F84370072D00D3062531
:10361000E562C4E91157201D00F06DF904F11800AE
:1036200000F069F92461C5F107006462A061E764F4
:1036300084F8507052464946304600F029F920601F
:10364000B8F1000F01D0C8F80040BDE8F0870000D5
:1036500030B5114900E011460A688242FBD34B683D
:103660005C18844203D140681844486008464368A7
:103670001C18944209D1084C103C2468A24209D07D
:1036800052681A4442600A6812680260814200D09F
:10369000086030BD0460F9E74800002010B504461A
:1036A00000F050F9A06B28B15FF0000400F06AF957
:1036B000204610BD0124F9E70648416B096829B18D
:1036C000416BC968C9684968816270474FF0FF3132
:1036D000FAE700005C00002008484068401C4FF0FA
:1036E000500080F3118804D0BFF34F8FBFF36F8F6A
:1036F000FEE7BFF34F8FBFF36F8FFEE75000002050
:10370000002150B10A4B42699A420FD1806AA3F15D
:10371000280290420AD040B108E0502080F311887E
:10372000BFF34F8FBFF36F8FFEE70121084670474D
:103730003C3F00202DE9F041044600F003F994F9E4
:10374000455004F1240609E0606A48B1304600F0B3
:103750002FFF08B100F0B8F96D1E6DB2002DF3DC3B
:103760004FF0FF3684F8456000F00CF900F0EAF8FD
:1037700094F9445004F1100709E0206948B1384633
:1037800000F016FF08B100F09FF96D1E6DB2002D1C
:10379000F3DC84F84460BDE8F04100F0F3B80000C9
:1037A0002DE9F0410546002700F08CFA314E3068D3
:1037B00008B9FFF7CBFEF06805424BD1C5B3083519
:1037C00068070ED005F00700C0F10800054468073F
:1037D00007D0502080F31188BFF34F8FBFF36F8F56
:1037E000FEE72DB37068854234D822481030014678
:1037F0000C6801E020460C466168A94202D22168AB
:103800000029F7D131688C4224D007682168016013
:1038100060680837411B10290FD96019420708D08A
:10382000502080F31188BFF34F8FBFF36F8FFEE7F7
:1038300010E041606560FFF70BFF61687068401A37
:103840007060B268904200D2B060F068014300201E
:10385000C4E9000100F0E6FE780707D0502080F3AD
:103860001188BFF34F8FBFF36F8FFEE73846BDE877
:10387000F0810000380000200449086818B1086889
:10388000826C521C82640868704700005C00002053
:1038900010B5031F4FF080741C601B1F21F0010145
:1038A0001960191F044B0B6014390A60091F6FF06F
:1038B000020244380A6010BDD9360008D0E901324E
:1038C00001699A60D0E901235A604A68824201D1B5
:1038D00082684A60002202610868401E08607047E2
:1038E00000F108014FF0FF32C0E90112C16001612F
:1038F00000210160704700210161704730B50B68FD
:103900005A1C02D000F1080202E0026904E02246DB
:10391000546825689D42FAD953684B6099608A6063
:10392000516008610168491C016030BD42684A600D
:1039300093688B6093685960916008610168491CC5
:1039400001607047502080F31188BFF34F8FBFF3A1
:103950006F8F0A494868401C486001280CD108480C
:10396000006810F0FF0F07D0502080F31188BFF3DC
:103970004F8FBFF36F8FFEE77047000050000020AD
:1039800004ED00E00849486828B1401E486001D1B4
:1039900080F311887047502080F31188BFF34F8F58
:1039A000BFF36F8FFEE700005000002070B50028C5
:1039B00027D0144DA0F108046168E868014207D1DE
:1039C000502080F31188BFF34F8FBFF36F8FFEE756
:1039D00022683AB1502080F31188BFF34F8FBFF3B4
:1039E0006F8FFEE78143616000F06CF96068696881
:1039F000084468602046FFF72BFEBDE8704000F0E9
:103A000011BE70BD3800002006484FF47A7100687E
:103A1000B0FBF1F14FF0E020491E41610721016147
:103A2000704700003400002010B5FCF711FC11496C
:103A300010280ED300F1E02090F8F0030A789042AD
:103A400007D2502080F31188BFF34F8FBFF36F8FE1
:103A5000FEE709480068896800F4E060884207D9F9
:103A6000502080F31188BFF34F8FBFF36F8FFEE7B5
:103A700010BD0000500000200CED00E010B5020069
:103A800014D00F48006B38B1502080F31188BFF379
:103A90004F8FBFF36F8FFEE700F014F9002110463F
:103AA000FFF738FC00F0BEFD002807D105494FF0B4
:103AB00080500860BFF34F8FBFF36F8F10BD0000C1
:103AC0005C00002004ED00E001490120C86170475E
:103AD0005C00002010B50C4650B109490968183146
:103AE000FFF70CFF2046BDE810400121FFF712BC94
:103AF000502080F31188BFF34F8FBFF36F8FFEE725
:103B00005C00002070B5040039D01D4DE06A2968C2
:103B1000C96A884233D2A069002804DB2868C06AD9
:103B2000C0F10700A061E16A164E01EB81016069F6
:103B300006EB810188421FD1201DFFF7BFFE012146
:103B400050B9E06A00EB800256F8222022B92A69B7
:103B500001FA00F082432A612868C06AE0622A699B
:103B600081401143296100EB800006EB8000211D9C
:103B7000BDE87040FFF7DABE2868C06AE06270BD39
:103B80005C000020603E002028B107490A6A0260FC
:103B9000C96841607047502080F31188BFF34F8F90
:103BA000BFF36F8FFEE700005C0000201CB51548D6
:103BB0000024CDE900402346802213A1144800F0E0
:103BC000FFFB012809D0401C1AD1502080F3118836
:103BD000BFF34F8FBFF36F8FFEE7502080F3118844
:103BE000BFF34F8FBFF36F8F06484FF0FF312C3874
:103BF000816201214161C460BDE81C4000F098B8B9
:103C00001CBD00008800002049444C450000000015
:103C10009935000870B50446FFF794FE264D04B9A7
:103C20002C68201DFFF74AFE58B9E06A234A00EBD2
:103C3000800152F8211021B901218140286988436F
:103C40002861A06A18B104F11800FFF737FE1B487D
:103C5000211DDC30FFF76AFEFFF794FE686928B18A
:103C6000FFF770FEFFF728FDFFF78CFE28688442FF
:103C700013D1686990B1286B38B1502080F3118856
:103C8000BFF34F8FBFF36F8FFEE70D494FF08050AA
:103C90000860BFF34F8FBFF36F8F70BD0748A968EF
:103CA000DC300068884202D10020286070BDBDE889
:103CB000704000F00FB800005C000020603E002063
:103CC00004ED00E00248016B491C016370470000ED
:103CD0005C0000201448016B11B10121C1617047E3
:103CE0000021C1610169B1FA81F1C1F11F0101EB4C
:103CF00081020E4951F822306BB101EB820101F1D2
:103D000008034A6852684A609A4201D152684A6080
:103D1000D16801607047502080F31188BFF34F8F46
:103D2000BFF36F8FFEE700005C000020603E0020C4
:103D30001CB532480168324A914207D1502080F3C5
:103D40001188BFF34F8FBFF36F8FFEE700682C49D8
:103D5000491E884207D1502080F31188BFF34F8F4E
:103D6000BFF36F8FFEE7274908780190FF200870A6
:103D700008788DF800009DF800009DF8002000F004
:103D8000F000904207D0502080F31188BFF34F8F8E
:103D9000BFF36F8FFEE79DF800001B4A00F0500054
:103DA00010700720906005E09DF800305B008DF8F2
:103DB0000030401E9DF800301B06F5D4000200F4D0
:103DC000E0609060019808700C482030016841F470
:103DD00070010160016841F070410160FFF714FE5D
:103DE00000205060FCF7FAF90848016841F04041B2
:103DF0000160FCF7E3F900201CBD000000ED00E0CD
:103E000071C20F4100E400E05000002034EF00E0F8
:103E100010B5502080F31188BFF34F8FBFF36F8F21
:103E200000F016FB18B104494FF0805008600020E4
:103E300080F3118810BD000004ED00E010B50246CB
:103E40000021012000F00CF8041E07D00021416081
:103E500001600B460A46C16000F020F9204610BD03
:103E600070B50E46050013D0D6B105FB06F04830FC
:103E7000FFF796FC040009D004F1480120468EB1FA
:103E80000160C0E90F56012100F0C4F8204670BD62
:103E9000502080F31188BFF34F8FBFF36F8FFEE781
:103EA0000020E4E70060ECE72DE9FF4F002683B037
:103EB0009B468A46040003D0BAF1000F08D011E0F7
:103EC000502080F31188BFF34F8FBFF36F8FFEE751
:103ED000206C38B1502080F31188BFF34F8FBFF3AF
:103EE0006F8FFEE700F098FADFF824814FF00009A9
:103EF0004FF0805748B9059838B1502080F31188A9
:103F0000BFF34F8FBFF36F8FFEE7FFF71BFDA56B6E
:103F100045B351462046E668FFF7C4FABBF1000FEF
:103F200013D0E660606A50B104F1240000F040FB59
:103F300028B1C8F80070BFF34F8FBFF36F8FFFF742
:103F400021FD012007B0BDE8F08F6D1EA56320683C
:103F500010B9FFF791FC606020690028EFD004F1F0
:103F60001000E3E7059808B11EB106E0FFF70AFD6F
:103F700027E06846FFF708FE0126FFF703FDFFF77D
:103F8000A1FEFFF7DFFC94F94400401C01D184F846
:103F9000449094F94500401C01D184F84590FFF706
:103FA000F1FC05A9684600F0D5F9002820460AD0A2
:103FB000FFF7C0FB00F036FB2046FFF76FFB002841
:103FC000A3D00020BEE7FFF769FBD8B1206830B965
:103FD000FFF7B8FC6068FFF795FDFFF7D3FC04F12D
:103FE00024000599FFF776FD2046FFF7A3FB00F0BC
:103FF00019FB002889D1C8F80070BFF34F8FBFF3B9
:104000006F8F82E72046FFF795FB00F00BFB7CE704
:1040100004ED00E070B50D46040025D0FFF792FCDA
:10402000D4E90F20216802FB001161600021A16327
:104030002168A1600A46D4E90F01401E00FB01215E
:10404000E16021464FF0FF3001F8440F487004F161
:1040500010008DB1FFF744FC04F12400FFF740FC91
:10406000FFF790FC012070BD502080F31188BFF352
:104070004F8FBFF36F8FFEE721690029F0D000F06A
:1040800097FA0028ECD004494FF080500860BFF345
:104090004F8FBFF36F8FE3E704ED00E02DE9FF479B
:1040A00082B01D468A464FF00008040003D0BAF1E2
:1040B000000F08D011E0502080F31188BFF34F8F1C
:1040C000BFF36F8FFEE7206C38B1502080F311886A
:1040D000BFF34F8FBFF36F8FFEE7022D0AD1E06B66
:1040E000012807D0502080F31188BFF34F8FBFF312
:1040F0006F8FFEE700F090F93F4F4FF000094FF04F
:10410000805648B9049838B1502080F31188BFF325
:104110004F8FBFF36F8FFEE7FFF714FCA06BE16BCF
:10412000884207D3022D05D00498D0B1B8F1000F12
:104130001AD01EE02A4651462046FFF7C6F9616AAA
:1041400019B104F1240000F033FA20B13E60BFF34E
:104150004F8FBFF36F8FFFF715FC012006B0BDE84E
:10416000F087FFF70FFC22E06846FFF70DFD4FF0E8
:104170000108FFF707FCFFF7A5FDFFF7E3FB94F944
:104180004400401C01D184F8449094F94500401C3F
:1041900001D184F84590FFF7F5FB04A9684600F0CB
:1041A000D9F830B12046FFF7C5FA00F03BFA0020FD
:1041B000D4E7FFF7C7FBA06BE16B884213D1FFF791
:1041C000E1FB04F110000499FFF784FC2046FFF79F
:1041D000B1FA00F027FA00289ED13E60BFF34F8F5E
:1041E000BFF36F8F98E7FFF7CDFB2046FFF7A2FAEA
:1041F00000F018FA90E7000004ED00E02DE9F04728
:104200001F4690468946040003D0B9F1000F08D03C
:1042100011E0502080F31188BFF34F8FBFF36F8FF1
:10422000FEE7206C38B1502080F31188BFF34F8F28
:10423000BFF36F8FFEE7022F0AD1E06B012807D092
:10424000502080F31188BFF34F8FBFF36F8FFEE7CD
:10425000FFF7EAFB5020EFF3118680F31188BFF3DC
:104260004F8FBFF36F8FA06BE16B884206D3022F95
:1042700004D0002086F31188BDE8F08794F94550FA
:104280003A4649462046FFF720F9681C04D06D1CC9
:1042900084F845500120EDE7606A0028FAD004F167
:1042A000240000F085F90028F4D0B8F1000FF1D017
:1042B0000121C8F80010EDE72DE9F0479046894646
:1042C000040003D0B9F1000F08D011E0502080F3B2
:1042D0001188BFF34F8FBFF36F8FFEE7206C38B1AB
:1042E000502080F31188BFF34F8FBFF36F8FFEE72D
:1042F000FFF79AFB5020EFF3118680F31188BFF38C
:104300004F8FBFF36F8FA76BF7B194F944504946B5
:104310002046FFF7C7F87F1EA763681C04D06D1CFA
:1043200084F84450012010E020690028FAD004F1FC
:10433000100000F03DF90028F4D0B8F1000FF1D0E2
:104340000121C8F80010EDE7002086F31188BDE8D0
:10435000F087000070B50D46040019D005B3FFF7D3
:10436000F1FA164AD1682868431C0FD02368126AF4
:10437000934202D062688A421AD96268891A8142DD
:1043800016D2401A28602046FFF7FEFB002410E0FA
:10439000502080F31188BFF34F8FBFF36F8FFEE77C
:1043A000502080F31188BFF34F8FBFF36F8FFEE76C
:1043B0000124FFF7E7FA204670BD00005C000020F2
:1043C0002DE9FF5F8346DDE90E87994616468A464A
:1043D0009000FFF7E5F905001AD05420FFF7E0F947
:1043E000040012D025630021CDE90241CDE9008708
:1043F0004B46324651465846FFF7E2F82046FEF754
:10440000C1FF012004B0BDE8F09F2846FFF7CEFAB7
:104410004FF0FF30F6E700000548416919B1006B25
:1044200018B100207047012070470220704700003B
:104430005C0000200148C068704700005C0000205C
:1044400010B5FFF7F1FA0148C06810BD5C0000200C
:104450002DE9F0412E4C0027206B40B1A069401C93
:10446000A061E06900B101273846BDE8F081E66847
:10447000761CE66013D1606B006838B1502080F381
:104480001188BFF34F8FBFF36F8FFEE7606BA16B97
:104490006163A063206A401C2062FFF70DF9A06AE7
:1044A000DFF87080864209D3606B006880B1606B72
:1044B000C068C568686886420DD2A0622068C06A7C
:1044C00000EB800158F821000128CAD90127C8E76C
:1044D0004FF0FF30F1E7281DFFF7F0F9A86A18B197
:1044E00005F11800FFF7EAF9E86A01212269814025
:1044F0001143216100EB800108EB8100291DFFF7CA
:1045000015FAE86A2168C96A8842CDD30127CBE74A
:104510005C000020603E002070B504004FF00001F8
:1045200040D0214D2868844207D0502080F3118864
:10453000BFF34F8FBFF36F8FFEE7A06C38B1401E03
:10454000A064636CE26A9A422CD040B12AE0502009
:1045500080F31188BFF34F8FBFF36F8FFEE7201DED
:10456000FFF7ACF9114A012150B9E06A00EB800372
:1045700052F8233023B92B6901FA00F083432B61F1
:10458000606CE062C0F10700A061E06A2B698140C5
:104590001943296100EB800002EB8000211DFFF729
:1045A000C5F90121084670BD5C000020603E002076
:1045B0002DE9F041C068C468ACB104F118000746A9
:1045C000FFF77CF9154D286B0126A0B13946144838
:1045D000FFF7ACF9E06A2968C96A88421CD9012052
:1045E000EE61BDE8F081502080F31188BFF34F8F5A
:1045F000BFF36F8FFEE7201DFFF760F9E16A2A69BC
:1046000006FA01F01043286101EB81000449B43936
:1046100001EB8000211DDBE70020E2E75C000020C9
:10462000143F00202DE9F0472C4D00242746286B2D
:1046300038B1FFF787F9286B401E2863286B40B11B
:1046400046E0502080F31188BFF34F8FBFF36F8F88
:10465000FEE7A968224E0120D1B3A6F1B409804635
:104660003068E8B1F068C46804F11800FFF726F973
:10467000201DFFF723F9E06A2A6908FA00F11143C7
:10468000296100EB800109EB8100211DFFF74EF944
:10469000E06A2968C96A8842E2D3C5F81C80DFE76E
:1046A0000CB1FFF709F8AC6944B14646FFF7D0FEFC
:1046B00000B1EE61641EF9D10020A861E86938B14B
:1046C0000849012738070860BFF34F8FBFF36F8F8A
:1046D000FFF758F93846BDE8F08700005C0000207D
:1046E000143F002004ED00E02DE9F0410027040014
:1046F00015D0FFF799F95020EFF3118580F3118859
:10470000BFF34F8FBFF36F8F2046FEF7F9FF30B333
:10471000154E306B58B104F1180114481DE05020BB
:1047200080F31188BFF34F8FBFF36F8FFEE7E06A0E
:104730003168C96A884200D30127201DFFF7BEF8FF
:10474000E16A0120326988401043306101EB810049
:104750000649B43901EB8000211DFFF7E7F885F326
:1047600011883846BDE8F0815C000020143F00202D
:104770004928000831290008DD28000835290008EB
:104780008D2800080A000000020000000048000810
:1047900089290008000000000000000080000000DF
:1047A000E8470008D52900080000000000000000CC
:1047B00080000000F4470008152A0008FDFF0000F3
:1047C0000000000080000000000610160006101611
:1047D00000000000000000000102030406070809B1
:1047E00000000000010203046D795461736B3032E4
:1047F000000000006D795461736B303300000000DD
:1048000064656661756C745461736B002C480008B4
:10481000000000209C00000018300008C848000874
:104820009C000020C4420000283000080100000065
:104830000000000000000000000000000000000078
:104840000000000000000000000000000000000068
:104850000000000001000000100000000000000047
:104860000024F40000000000000000000000000030
:104870000000000000000000000000000000000038
:10488000AAAAAAAA00000000000000000000000080
:104890000000000000000000000000000000000018
:1048A0000000000000000000000000000000000008
:1048B00000000000000000000000000000000000F8
:0848C0000000000000000000F0
:040000050800018965
:00000001FF
