:020000040800F2
:10000000580400209D0100083F0D0008CF0C000897
:100010003D0D00088502000879110008000000006D
:10002000000000000000000000000000630D000858
:100030008702000800000000610D0008650D00083F
:10004000B7010008B7010008B7010008B7010008B0
:10005000B7010008B7010008B7010008B7010008A0
:10006000B7010008B701000889020008B7010008BD
:10007000B7010008B7010008B7010008B701000880
:10008000B7010008B7010008B7010008B701000870
:10009000B7010008B7010008B7010008B701000860
:1000A000B7010008B7010008B7010008B701000850
:1000B000B7010008B7010008B7010008B701000840
:1000C000B7010008B7010008B7010008B701000830
:1000D000B7010008B7010008B7010008B701000820
:1000E000B7010008B7010008B7010008B701000810
:1000F000B7010008B7010008B7010008B701000800
:10010000B7010008B7010008B7010008B7010008EF
:10011000B7010008B7010008B7010008B7010008DF
:10012000B7010008B7010008B7010008B7010008CF
:10013000B7010008B7010008B7010008B7010008BF
:10014000B7010008B7010008B7010008B7010008AF
:10015000B7010008B7010008B7010008B70100089F
:10016000B7010008B7010008B7010008B70100088F
:10017000B7010008B7010008B7010008000000003F
:10018000B7010008B7010008DFF80CD000F068F8EC
:10019000004800479911000858040020064880478D
:1001A00006480047FEE7FEE7FEE7FEE7FEE7FEE75C
:1001B000FEE7FEE7FEE7FEE7150E000889010008EE
:1001C0002DE9F05F0546002092469B46884606468C
:1001D000814640241BE0284641464746224600F01F
:1001E0002FF853465A46C01A914110D3114618466B
:1001F000224600F016F82D1A67EB01084F462246FA
:100200000120002100F00DF817EB00094E41201EDF
:10021000A4F10104DFDC484631462A464346BDE8E6
:10022000F09F202A04DB203A00FA02F100207047F8
:100230009140C2F1200320FA03F319439040704724
:10024000202A04DB203A21FA02F00021704721FA2B
:1002500002F3D040C2F12002914008431946704792
:10026000064C074D06E0E06840F0010394E8070003
:1002700098471034AC42F6D3FFF78AFF001200080B
:1002800020120008FEE77047094910B56420087085
:10029000032108A000F09EFF074C1021204600F02B
:1002A000F3F80028F9D0BDE81040102000F008B89D
:1002B00000000020696E0A00001002407047000034
:1002C000044910B50A68024202D00860FFF7F6FF41
:1002D00010BD0000143C01402DE9F84FDFF87CB15F
:1002E00000224FF001084FF0030A4FF00F090BF105
:1002F000040E00BF0B6808FA02F42340A3426ED13B
:100300004D68022D01D0122D0ED1D50800EB850CC1
:10031000DCF820505607F70E09FA07F6B5430E69C8
:10032000BE402E43CCF82060066855000F790AFACB
:1003300005FC07F0030726EA0C06AF4037430760C9
:100340004E68012E05D0022E03D0112E01D0122EA0
:100350000ED18668CF6826EA0C06AF403743876027
:100360004668A6430C79C4F30014944034434460B7
:10037000C6688C6826EA0C06AC403443C4604C68FE
:10038000E40065D5364C256845F480452560246831
:1003900022F0030504F480440094324C2E19D6F860
:1003A000084895072F0F09FA07F5AC432E4DA842D0
:1003B00001D1002524E02D4DA84201D101251FE0E7
:1003C0002B4DA84201D102251AE02A4DA84201D1A5
:1003D000032515E0284DA84202D1042510E037E09E
:1003E000264DA84201D105250AE0254DA84201D19C
:1003F000062505E0234DA84201D1072500E0082588
:10040000BD402543C6F80858DBF800405D464E68FD
:100410009C43F60300D51C432C60DEF80040754673
:100420004E689C43B60300D51C432C600B4D083529
:100430002C684E689C43F60200D51C432C60074D87
:100440000C352C684E689C43B60200D51C432C60CA
:10045000521C102AFFF44EAFBDE8F88F003C01405B
:1004600044380240003001400000024000040240D5
:1004700000080240000C024000100240001402403C
:1004800000180240001C02400069084000D0012012
:100490007047000001488068704700000400002099
:1004A000024881680278114481607047040000208E
:1004B0000B4810B5016841F400710160016841F416
:1004C00080610160016841F480710160032000F0E7
:1004D00097F8002000F006F800F024F8002010BD86
:1004E000003C024070B50D4D04464FF47A712878F7
:1004F000B1FBF0F00A490968B1FBF0F000F01BFB1A
:1005000048B9102C07D200222146501E00F058F89E
:1005100000206C6070BD012070BD00000400002050
:10052000100000201F4808B5016841F480410160B7
:10053000006800F4804000901A48001F016841F0F4
:1005400080510160006800F080500090032000F0AE
:1005500057F8002211466FF00B0000F031F800222E
:1005600011466FF00A0000F02BF8002211466FF0E0
:10057000090000F025F800221146501F00F020F875
:1005800000221146101F00F01BF800221146901E99
:1005900000F016F80022BDE808401146501E00F099
:1005A0000FB800004438024000F01F0201219140C2
:1005B0004009800000F1E020C0F800117047000001
:1005C000F0B40E4B1B680C46C3F30223C3F10705BE
:1005D000042D00D90425191D072901D2002300E0AC
:1005E000DB1E012606FA05F1491E214099409E4076
:1005F000761E16403143F0BC00F0A2BB0CED00E0CB
:10060000064900F0070208684FF6FF03184040EA69
:100610000220034A10430860704700000CED00E020
:100620000000FA052DE9F0470E46050065D0DFF819
:100630001481D8F80000F7B200F00F00B04207D2E2
:1006400088F80070D8F8000000F00F00B04254D1D4
:1006500028683D4C810712D5400703D5206840F437
:10066000E05020602878000703D5206840F46040FF
:1006700020602068A96820F0F000084320602878F6
:10068000C0072DD0304968680839012812D00228E7
:1006900013D0032811D00968890700292DDA2168B1
:1006A00021F0030101432160FFF7F4FE814641F28E
:1006B000883A0EE009688903EFE709688901ECE7E9
:1006C000FFF7E8FEA0EB0901514502D90320BDE880
:1006D000F0872068696800F00C00B0EB810FEFD163
:1006E000D8F80010404601F00F01B14207D9077059
:1006F000006800F00F00B04201D00120E7E7287841
:10070000400705D52068E96820F4E05008432060E0
:100710002878000706D52068296920F4604040EA5F
:10072000C100206000F03CF82168084AC1F30311C1
:10073000515CC840064908600020FFF7D3FE002046
:10074000C5E70000003C024008380240E8110008FC
:1007500010000020014800687047000010000020D1
:100760000448054900680968044AC1F38221515CC4
:10077000C84070471000002008380240F8110008F7
:100780000448054900680968044AC1F34231515CD4
:10079000C84070471000002008380240F8110008D7
:1007A000154810B5006810F00C02144813D0411021
:1007B000042A0FD0082A0ED10F4C241F2268236868
:1007C00002F03F025B0207D52068C0F38810A0FB4F
:1007D000010106E0084610BD2168C1F38811A1FBA4
:1007E00000010023FFF7ECFC2168C1F30141491C23
:1007F0004900B0FBF1F010BD083802400024F400BD
:100800002DE9F84F050076D02878DFF8F8B2BE4C15
:10081000C00749D0DBF800105846C1F38101012917
:1008200008D00068C0F3810002280AD1201D0068AA
:10083000400206D52068800336D568680028E2D0DB
:1008400032E06868B0F5803F10D0B0F5A02F206886
:1008500010D020F480302060206820F480202060B8
:100860006868A0B1FFF716FE06460CE0206840F469
:100870008030F4E740F480202060F7E7FFF70AFEBD
:10088000801B642873D820688003F7D50CE0FFF73D
:1008900001FE064605E000BFFFF7FCFD801B642853
:1008A000F0D820688003F7D42878DFF860828007CA
:1008B0004FF000093ED5DBF80010584611F00C0F40
:1008C00009D00068C0F3810002280BD18D48001FB9
:1008D0000068400206D42068800715D5E868012822
:1008E00009D111E0E868B8B10120C8F80000FFF7AD
:1008F000D1FD064605E002E1FFF7CCFD801B022892
:10090000C0D820688007F7D52068296920F0F80052
:1009100040EAC10020600DE0C8F80090FFF7BAFD82
:10092000064604E0FFF7B6FD801B02281FD82068AA
:100930008007F7D42878000722D5724E7448696979
:100940006C3671B101210160FFF7A4FD074604E098
:10095000FFF7A0FDC01B022809D830688007F7D533
:100960000EE0C0F80090FFF795FD074605E083E034
:10097000FFF790FDC01B02287ED830688007F7D4AF
:100980002878400768D5DFF87CA100270AF1380AEB
:10099000DAF80000C0000BD4DAF8001041F0805102
:1009A000CAF80010DAF80000012700F0805000902B
:1009B000584E3068C00510D4306840F48070306004
:1009C000FFF768FD009005E0FFF764FD0099401A0D
:1009D000022851D83068C005F6D54A4EA868683656
:1009E00001280FD00528306810D020F001003060B9
:1009F000306820F004003060A868B8B1FFF74AFD05
:100A000000900FE0306840F00100F4E740F004008F
:100A10003060F7E7FFF73EFD0099411A41F2883058
:100A2000814264D830688007F4D50EE0FFF732FDCC
:100A3000009007E0FFF72EFD0099411A41F288303F
:100A4000814254D830688007F4D42FB1DAF800100E
:100A500021F08051CAF80010A869C0B3DBF800107B
:100A6000C1F3810102294AD00228484607D0C8F8BC
:100A70006000FFF70FFD00E039E005463AE0474629
:100A8000C8F86000FFF706FD064604E0FFF702FD28
:100A9000801B02282BD820688001F7D4D5E90701F4
:100AA0000843A96A1C4A490802EB01416A6A41EA03
:100AB0008211084395F82C1040EA01611148001F8B
:100AC000016001203866FFF7E5FC054605E014E00B
:100AD000FFF7E0FC401B022809D820688001F7D509
:100AE0000BE000BFFFF7D6FC401B022802D9032011
:100AF000BDE8F88F20688001F4D40020F8E70120D9
:100B0000F6E7000008380240003802400000474283
:100B1000800E4742007000400000FFFF4FF0E021D0
:100B20000428086903D020F004000861704740F0F1
:100B30000400FAE7704710B5401EB0F1807F01D382
:100B4000012010BD4FF0E02460610F21601700F01C
:100B5000F7F80020A06107202061002010BD10B52B
:100B6000FFF7E8FF10BD70B5040004D094F8390019
:100B7000002510B106E0012070BD84F838502046F1
:100B800000F022F8242084F839002068C16821F49C
:100B90000051C160204600F067F92068016921F426
:100BA000904101612068416921F02A01416120687A
:100BB000C16841F40051C160E563202084F8390028
:100BC00084F83A00002070BD00B500680E4987B077
:100BD000884216D10D48016841F400310160006877
:100BE000694600F4003005900C200090022001902E
:100BF0000120029003200390072004900448FFF78F
:100C00006BFB07B000BD00000044004040380240CC
:100C1000000002402DE9F843044690F839001F46D1
:100C200016460D46202850D1A5B19EB194F8380043
:100C300001284AD0012084F838004FF00008C4F899
:100C40003C80212084F83900FFF724FCA6848146EB
:100C5000E68426E00120BDE8F883E08C401EE084B5
:100C6000A0684B46B0F5805F4FF000024FF0800166
:100C70002046009703D000F04DFAE8B90DE000F0EF
:100C800049FAC8B928882168C0F30800486020697B
:100C900008B16D1C05E0AD1C03E0216815F8010BDF
:100CA0004860E08C0028D8D14B46002240212046E5
:100CB000009700F02FFA08B10320CCE7202084F839
:100CC000390084F838800020C5E70220C3E7FEE73A
:100CD000174800B5016887B041F010010160016854
:100CE00001F010010591016841F080010160016887
:100CF00001F080010591016841F001010160006887
:100D0000694600F00100059010200090094801900C
:100D1000012002900848FFF7DFFA002211460A205E
:100D2000FFF74EFC0A20FFF73FFC07B000BD0000B4
:100D3000303802400000211000100240FEE77047EA
:100D40000907090E002806DA00F00F0000F1E02084
:100D500080F8141D704700F1E02080F800147047FF
:100D60007047704710B5FFF79BFBBDE81040FFF7D9
:100D7000F6BE000030B5254893B00025016841F06B
:100D800080510160006800F0805011902048016897
:100D900041F4804101600068022400F48040119019
:100DA0000120039010200490009406940820CDE9BF
:100DB0000750A820CDE9090404200B906846FFF7EE
:100DC0001FFD00B1FEE70CA90F2081E831004FF4B0
:100DD000A0500F904FF48050109005210CA8FFF701
:100DE00021FC00B1FEE7FFF7B5FC4FF47A71B0FBD0
:100DF000F1F0FFF7A0FE0420FFF790FE002211465D
:100E0000501EFFF7DDFB13B030BD0000403802403C
:100E1000007000401048016841F4700101600F4803
:100E2000016841F0010101600C4A002108321160A3
:100E300002680B4B1A400260031D0A4A1A600268DE
:100E400022F48022026005480C30016002495806F5
:100E5000803908607047000088ED00E000380240EB
:100E6000FFFFF6FE103000242DE9F0410446006833
:100E7000016921F44052E168114301612168C868A9
:100E800049F20C6290432369A268E5691A436369D9
:100E90002B431A430243CA602168486920F4407218
:100EA000A06910434861E1696425B1F5004F974896
:100EB000974A21684FF032083FD0914201D08142D9
:100EC0007CD1FFF75DFC00EBC00101EB0010616815
:100ED0008900B0FBF1F6FFF753FC00EBC00101EB1A
:100EE000001061688900B0FBF1F0B0FBF5F06FF025
:100EF0001801484306EB800108EB0110B0FBF5F048
:100F000000F0F006FFF73CFC00EBC00101EB001025
:100F100061688900B0FBF1F0B0FBF5F006EB00165C
:100F2000FFF72EFC00EBC00101EB001061688900A7
:100F3000B0FBF1F7FFF724FCD2E0914201D08142EF
:100F40003DD1FFF71DFC00EBC00101EB0010616813
:100F50004900B0FBF1F0B0FBF5F00601FFF710FC23
:100F600000EBC00101EB001061684900B0FBF1F734
:100F7000FFF706FC00EBC00101EB001061684900BF
:100F8000B0FBF1F0B0FBF5F06FF01801484307EB50
:100F9000800108EBC100B0FBF5F000F0F80006EBB3
:100FA0004006FFF7EDFB00EBC00101EB00106168AC
:100FB0004900B0FBF1F7FFF7E3FB3CE055E0FFF73A
:100FC000CFFB00EBC00101EB001061684900B0FBF2
:100FD000F1F0B0FBF5F00601FFF7C2FB00EBC0013A
:100FE00001EB001061684900B0FBF1F7FFF7B8FBB7
:100FF00000EBC00101EB001061684900B0FBF1F0AB
:10100000B0FBF5F06FF01801484307EB800108EBE7
:10101000C100B0FBF5F000F0F80006EB4006FFF76A
:101020009FFB00EBC00101EB001061684900B0FBC1
:10103000F1F7FFF795FB00EBC00101EB00106168D1
:101040004900B0FBF1F0B0FBF5F06FF01801484338
:1010500007EB800108EBC100B0FBF5F000F00700E2
:10106000216830448860BDE8F081FFF779FB00EB30
:10107000C00101EB001061688900B0FBF1F6FFF7D9
:101080006FFB00EBC00101EB001061688900B0FB51
:10109000F1F0B0FBF5F06FF01801484306EB80016A
:1010A00008EB0110B0FBF5F000F0F006FFF758FB7D
:1010B00000EBC00101EB001061688900B0FBF1F0AA
:1010C000B0FBF5F006EB0016FFF74AFB00EBC001A2
:1010D00001EB001061688900B0FBF1F7FFF740FBFE
:1010E00000EBC00101EB001061688900B0FBF1F07A
:1010F000B0FBF5F06FF01801484307EB800108EBF7
:101100000110B0FBF5F000F00F00A9E7001401405A
:10111000001001402DE9F041984617460E4604465E
:10112000069D1DE0681C1BD02DB1FFF7B3F9A0EBA5
:101130000800A84214D92068C16821F4D071C160A8
:101140002068416921F001014161202084F83900C3
:1011500084F83A00002084F838000320BDE8F081CC
:101160002068006836EA000004D00020B842D9D0D8
:101170000020F3E70120F9E7FEE702E008C8121FAC
:1011800008C1002AFAD170477047002001E001C170
:10119000121F002AFBD17047FFF78AF9FFF7EAFD1B
:1011A000FFF796FD0A4809490C2201604FF4E1312E
:1011B000416000218160C160C0E904128161C161A8
:1011C000FFF7D1FC00B1FEE7FEE70000004400405D
:1011D000140000200A4601464FF47A730148FFF7D5
:1011E00019BD0000140000200000000000000000F5
:1011F00001020304060708090000000001020304BD
:101200002012000800000020140000007A110008DD
:101210003412000814000020440400008A11000861
:101220000A000000010000001000000000000000A3
:041230000024F400A2
:040000050800018965
:00000001FF
