:020000040800F2
:1000000008050020C50000085D0C0008CD0B0008A5
:1000100000000000000000000000000000000000E0
:10002000000000000000000000000000A70C000815
:100030000000000000000000A50C0008A90C00084A
:10004000D700000800000000D7000008D700000813
:10005000D7000008D7000008D7000008D700000824
:1000600000000000D7000008D7000008D7000008F3
:10007000D7000008D7000008D700000800000000E3
:10008000D70000080000000000000000D7000008B2
:1000900000000000D7000008D7000008D7000008C3
:1000A00000000000D700000800000000D700000892
:1000B0000348854600F02AF8004800479D0F0008D5
:1000C000080500200448804704480047FEE7FEE793
:1000D000FEE7FEE7FEE7FEE7310D0008B10000088D
:1000E00030B50B46014600202022012409E00D46D0
:1000F000D5409D4205D31D469540491B2546954058
:1001000040191546521E002DF1DC30BD064C01256C
:10011000064E05E0E36807CC2B430C3C98471034AF
:10012000B442F7D3FFF7C8FFEC0F00080C1000082B
:10013000F8B500238DE001249C40A44622407DD0E8
:100140004C68022C01D0122C0CD1DC08A40027181A
:100150003C6A5D07ED0E0F26AE40B4430E69AE401B
:1001600026433E6205685E000324B4400F79A54330
:10017000BF07BF0FB7402F4307604D68012D05D063
:10018000022D03D0112D01D0122D0ED18568CF681C
:10019000A543B7402F43876047686546AF430D7955
:1001A000ED06ED0F9D403D434560C568A5438C6855
:1001B000B4402C43C4604C68E40049D5284CA56980
:1001C00001263543A561A4699D0834400094254C5F
:1001D000AD002F19BC689D072E0F0F25B540AC430D
:1001E0000925ED06A84201D100250FE01E4DA842C9
:1001F00001D101250AE01D4DA84201D1022505E0EB
:100200001B4DA84201D1032500E00525B54025433B
:10021000BD60184C25684E689543F60300D515431C
:10022000256065684E689543B60300D51543656043
:10023000A5684E689543F60202D500E008E0154334
:10024000A560E5684E689543B60200D51543E560A4
:100250005B1C0A681446DC4000D06CE7F8BD000067
:10026000001002400000014000040048000800485F
:10027000000C00480004014001480068704700007D
:100280000000002070B5024640325378202B1CD16C
:100290001378012B19D0012313702424547004689F
:1002A00025689D432560046825681E03B5432560C5
:1002B000046825680D4325600068016819430160E2
:1002C000202050700020107070BD022070BD70B5ED
:1002D000024640325378202B1BD11378012B18D0C3
:1002E000012414702423537003681D68A5431D6006
:1002F00005682B680F263602B343090219432960AB
:1003000000680168214301602020507000201070B7
:1003100070BD022070BD000070B5040006D02546F7
:10032000403568780026002802D005E0012070BD25
:100330002E70204600F04AF824206870206801687A
:100340004908490001600F21606809068843216857
:10035000086121688A680120C00382438A60E168DD
:100360000129A16808D021229202114322689160DC
:10037000E168022902D005E00143F7E70121226884
:10038000C902516021684A680F4B1A434A602168CC
:10039000CA688243CA60616920690843A169090289
:1003A00008432168C860216AE06908432168086041
:1003B0002068016801221143016066642020687092
:1003C0002663AE70002070BD0080000200B500689A
:1003D0000F4987B0884218D10320400200901220B4
:1003E0000190012002900320039004200490092032
:1003F0006946C006FFF79CFE0648C269012149050F
:100400000A43C261C0690840059007B000BD000002
:10041000005400400010024002480168491C01607D
:10042000704700000000002010B506480168102247
:1004300011430160002000F007F800F017F80020D9
:1004400010BD00000020024010B5044600F03EF947
:100450007D21C900FFF744FE00F042FB0022214647
:10046000501E00F025F8002010BD000008B50F4810
:100470008169012211438161816911400091C26942
:1004800001040A43C261C06900220840009011467D
:10049000501F00F00DF800221146901E00F008F8E1
:1004A00000221146501E00F003F808BD0010024063
:1004B00010B500F0D5FB10BDF8B505460068354C09
:1004C000C00352D5E0690026C00007D4E1692004CA
:1004D0000143E161E1690140012600912E48016874
:1004E000C90510D40168821511430160FFF7C4FEED
:1004F000074604E0FFF7C0FEC01B642824D8264846
:100500000068C005F6D5206A03273F02384020D096
:100510006968394081421CD0206A226AB8430121AF
:1005200009040A432262226A8A4322622062C007C7
:100530000FD0FFF7A1FE009008E0FFF79DFE0099A5
:10054000411A1648814201D90320F8BD206A80076C
:10055000F3D5206A6968B84308432062002E04D0AE
:10056000E169012000078143E1612878C00705D0D7
:10057000206BA968800880000843206328788006E3
:1005800005D5206B10218843E968084320630020CB
:10059000F8BD000000100240007000408813000009
:1005A000F8B5054644480E460068C007C00FB04283
:1005B0000AD2414801684908490031430160006896
:1005C000C007C00FB0425CD128783C4C800705D5ED
:1005D0006068F0218843A968084360602878C007F4
:1005E0003FD06868012813D02168022813D08907FA
:1005F000002946DA61688908890001436160FFF7D4
:100600003BFE6968074601290DD0022917D024E076
:1006100021688903ECE78901EAE7FFF72DFEC11B9A
:100620002748814217D860680007800F0128F4D15D
:1006300017E0FFF721FEC11B214881420BD86068FB
:100640000007800F0228F4D10BE0FFF715FEC11B55
:100650001B48814201D90320F8BD60680007800F64
:10066000F3D115480168C907C90FB1420BD9016818
:1006700049084900314301600068C007C00FB0421B
:1006800001D00120F8BD2878400706D56068072111
:1006900009028843E9680843606000F02DF861684A
:1006A000084A0906090F515CC84007490860002044
:1006B000FFF7CAFE0020F8BD0020024000100240F3
:1006C00088130000D40F00080400002001480068CF
:1006D000704700000400002004480549006849688C
:1006E000044A4905490F515CC84070470400002086
:1006F00000100240E40F000810B512A30FCB88B021
:100700006C460FC413A30FCB0FC416494A680C20C4
:10071000134603401448042B0FD0082B0DD193022D
:100720001B0F6C46E45CC96A04AB0907090F595CEE
:10073000D20304D5FFF7D4FC604308B010BD0B48CA
:100740006043FAE702030405060708090A0B0C0DCB
:100750000E0F10100102030405060708090A0B0C0E
:100760000D0E0F100010024000127A0000093D002B
:10077000FEB504460078D04DC00747D06868000732
:10078000800F012807D068680007800F022809D170
:100790006868C00306D52868800337D560680028DC
:1007A0007ED033E0012062680004012A11D081006C
:1007B000002A01D0052A10D02A6882432A602868BE
:1007C000884328606068002814D0FFF755FD06466E
:1007D0000CE0296801432960F4E72A680A432A608B
:1007E000F7E7FFF749FD801B64286FD8286880036E
:1007F000F7D50BE0FFF740FD064604E0FFF73CFDB0
:10080000801B6428F1D828688003F7D4207801265B
:10081000800700283BDA68680007800F07D0686807
:100820000007800F022809D16868C00306D4286831
:10083000800715D5E068012832D111E0E068002872
:10084000286815D030432860FFF716FD074604E0FE
:10085000FFF712FDC01B0228C7D828688007F7D50C
:100860002868F82188432169C900084328600EE000
:10087000400840002860FFF7FFFC074604E0FFF750
:10088000FBFCC01B0228B0D828688007F7D420786A
:10089000000724D5E0690028686A10D0304300E0E2
:1008A00008E16862FFF7E8FC074604E0FFF7E4FCB4
:1008B000C01B022899D8686A8007F7D50FE0400866
:1008C00040006862FFF7D8FC074605E09DE0FFF7AF
:1008D000D3FCC01B022888D8686A8007F7D4207828
:1008E00004274007002860DA00200190E869C00072
:1008F00008D4E969B8060143E961E96901400120CA
:10090000009101906D480168C90511D401688215F4
:1009100011430160FFF7B0FC009005E0FFF7ACFC6D
:100920000099401A642870D864480068C005F5D55D
:10093000A06801280AD0002801D0052810D0286A14
:10094000400840002862286AB84301E0286A304322
:100950002862A068002812D0FFF78EFC00900AE001
:10096000286A38432862F1E7FFF786FC0099411AAC
:100970005348814249D8286A8007F5D50DE0FFF732
:100980007BFC009006E0FFF777FC0099411A4C4889
:1009900081423AD8286A8007F5D40198002804D00B
:1009A000E969012000078143E9612078C00635D557
:1009B000606901280CD0401D686B23D03843686300
:1009C000686B400840006863FFF756FC064622E06B
:1009D000686B38436863686B30436863FFF74CFCAF
:1009E000064604E0FFF748FC801B02285BD8686BD2
:1009F0008007F7D5686BF8218843A169C9000843CF
:100A000068630BE0B8436863F4E74CE0FFF734FC3D
:100A1000801B022847D8686B8007F7D4206A00281B
:100A200046D069680907890F022943D00126360696
:100A30000228286805D0B0432860FFF71DFC044653
:100A400033E0B0432860FFF717FC074604E0FFF7E8
:100A500013FCC01B022826D828688001F7D4E86A56
:100A6000E16A000900010843E862616AA06A08437C
:100A700069683D2212049143084368602868304346
:100A80002860FFF7F9FB044604E0FFF7F5FB001BC5
:100A9000022808D828688001F7D509E0FFF7ECFBA9
:100AA000001B022801D90320FEBD28688001F5D46F
:100AB0000020FEBD0120FEBD00100240007000407D
:100AC00088130000042204490428086902D09043D6
:100AD000086170471043FBE700E000E0704700004A
:100AE000094910B5401E884201D9012010BD074CAC
:100AF00060610321081F00F0B3F80020A061072007
:100B00002061002010BD0000FFFFFF0000E000E0BA
:100B100010B5FFF7E3FF10BD70B5040005D0254602
:100B20006035687A002802D006E0012070BD002000
:100B30002872204600F026F8242068722068016898
:100B4000490849000160204600F08EF90128EDD0E7
:100B5000606A002802D0204600F018F92068416839
:100B60000122D202914341602068816808229143AA
:100B7000816020680168012211430160204600F075
:100B80006AF970BD00B500680E4987B0884217D178
:100B90000D488269012189030A4382618069084006
:100BA00005900C200090022001900020029003206C
:100BB00003900120049009206946C006FFF7B8FAA7
:100BC00007B000BD0038014000100240FEE7000001
:100BD00010B512481049016011494160002181603F
:100BE0000161416181610122C161C2600162FFF75F
:100BF00093FB002800D0FEE700210848FFF742FBE6
:100C0000002800D0FEE700210448FFF760FB002821
:100C100000D0FEE710BD0000005400400800002096
:100C20000E09002010B50C480A4901604B21490209
:100C3000416000218160C16001618161C1610C225C
:100C4000016242614162FFF767FF002800D0FEE7C2
:100C500010BD000000380140540000207047000023
:100C60008307FF22DB0E9A408907090E994000286E
:100C70000BDA0007000F0838830808489B00181893
:100C8000C36993430B43C3617047830804489B00C7
:100C90001B181868904308431860704700ED00E087
:100CA00000E400E07047704710B5FFF7B5FBFFF7B1
:100CB0002FFF10BD30B595B0012003900024102007
:100CC00009940225049005200095C0040A90089517
:100CD0000B946846FFF74CFD002800D0FEE7072084
:100CE0000C900E9401210D950F940CA8FFF758FC61
:100CF000002800D0FEE7212010901294139410A831
:100D0000FFF7DAFB002800D0FEE7FFF7DFFC7D21CC
:100D1000C900FFF7E5F9FFF7E3FE0420FFF7D2FE75
:100D200000221146501EFFF7C3FB15B030BD000076
:100D3000134801680122114301604168114A1140C2
:100D400041600168104A114001600168012292046B
:100D50009143016041683F22120491434160C16A9E
:100D600009090901C162016BFF2214329143016339
:100D7000416B4908490041630021816070470000D0
:100D8000001002400CB8FF08FFFFF6FE10B5818C82
:100D9000C90707D001684A6801235B049A43836A44
:100DA0001A434A60818C890707D501684A68012384
:100DB0001B049A43C36A1A434A60818C490707D5CA
:100DC00001684A6801239B049A43036B1A434A60F3
:100DD000818C090707D501684A680123DB039A4320
:100DE000436B1A434A60818CC90607D50268916833
:100DF00001231B039943836B19439160818C8906FE
:100E000007D501688A6801235B039A43C36B1A43C1
:100E10008A60818C490612D503685A680121090548
:100E2000046C8A4322435A60026C8A4207D10268EA
:100E3000516803235B059943436C19435160818CCE
:100E4000090607D501684A680123DB04806C9A43D0
:100E500002434A6010BD0021C16620226030427208
:100E60008272017208467047F8B504462369A26889
:100E7000E6691A43636910213343002026681A4348
:100E800033680546394F3B401343336023685A6843
:100E900003263603B243E66832435A60236AA269E6
:100EA00026681A43B3680B273F02BB431343B36062
:100EB0002F4A126B9207920F06D0012A08D0022AFD
:100EC00008D0032A07D101E0002104E0022102E05A
:100ED000042100E008210122E369D203934224D1D6
:100EE00000290CD002290DD0042913D0082917D0CD
:100EF0000125010909010007400F084332E0FFF70F
:100F0000EBFB09E061681B4A48088018FFF7E8F826
:100F100080B2EEE7FFF7F0FB616840004A08F4E7B3
:100F20006168012248081204EFE7002908D002296D
:100F300009D004290BD008290ED001252846F8BD78
:100F4000FFF7CAFB05E061680B4A480806E0FFF7B7
:100F5000D3FB61684A0801E0616848088018FFF720
:100F6000BFF880B22168C860E8E70000F369FFFFBE
:100F7000001002400024F40000127A0002E008C8C9
:100F8000121F08C1002AFAD170477047002001E003
:100F900001C1121F002AFBD17047000008B5FFF7FE
:100FA00043FAFFF787FE0A484269012189050A438F
:100FB000426142690A400092426949110A43426112
:100FC000406908400090FFF703FEFFF72BFEFEE7A5
:100FD00000100240000000000000000001020304B5
:100FE0000607080900000000010203040C100008B5
:100FF00000000020080000007C0F0008141000080A
:1010000008000020000500008C0F00080000000010
:0410100000127A0050
:04000005080000B13E
:00000001FF
