:020000040800F2
:10000000D80B00209D010008F51B000819130008FB
:10001000B9140008E9020008652300080000000088
:100020000000000000000000000000001B1E00088F
:10003000EB02000800000000171E00081D1E00084B
:10004000B7010008B7010008B7010008B7010008B0
:10005000B7010008191E0008B7010008B701000821
:10006000B7010008B7010008ED020008B701000859
:10007000B7010008B7010008B7010008B701000880
:10008000B7010008B7010008B7010008B701000870
:10009000B7010008B7010008B7010008B701000860
:1000A000B7010008B7010008B7010008B701000850
:1000B000B7010008B7010008B7010008B701000840
:1000C000B7010008B7010008B7010008B701000830
:1000D000B70100084D23000859230008B7010008A4
:1000E000B7010008B7010008B7010008B701000810
:1000F000B7010008B7010008B7010008B701000800
:10010000B7010008B7010008B7010008B7010008EF
:10011000B7010008B7010008B7010008B7010008DF
:10012000B7010008B7010008B7010008B7010008CF
:10013000B7010008B7010008B7010008B7010008BF
:10014000B7010008B7010008B7010008B7010008AF
:10015000B7010008B7010008B7010008B70100089F
:10016000B7010008B7010008B7010008B70100088F
:10017000B7010008B7010008B7010008000000003F
:10018000B7010008B7010008DFF80CD000F09AF8BA
:100190000048004799240008D80B002006488047F3
:1001A00006480047FEE7FEE7FEE7FEE7FEE7FEE75C
:1001B000FEE7FEE7FEE7FEE7CD1E00088901000826
:1001C0002DE9F05F0546002092469B46884606468C
:1001D000814640241BE0284641464746224600F01F
:1001E00060F853465A46C01A914110D3114618463A
:1001F000224600F047F82D1A67EB01084F462246C9
:100200000120002100F03EF817EB00094E41201EAE
:10021000A4F10104DFDC484631462A464346BDE8E6
:10022000F09F40EA01039B0703D009E008C9121FB1
:1002300008C0042AFAD203E011F8013B00F8013BA0
:10024000521EF9D27047D2B201E000F8012B491ECC
:10025000FBD270470022F6E710B513460A46044663
:100260001946FFF7F0FF204610BD30B504460020C8
:10027000034600E05B1C934203D2E05CCD5C401B74
:10028000F8D030BD202A04DB203A00FA02F1002029
:1002900070479140C2F1200320FA03F319439040C4
:1002A0007047202A04DB203A21FA02F0002170472F
:1002B00021FA02F3D040C2F12002914008431946CE
:1002C00070470000064C074D06E0E06840F001036F
:1002D00094E8070098471034AC42F6D3FFF758FF74
:1002E000E025000800260008FEE77047102000F017
:1002F000F7B94FF47A7290FBF2F210B542F0300287
:100300000A70642290FBF2F30A2293FBF2F402FBE0
:10031000143343F030034B7090FBF2F393FBF2F491
:1003200002FB143343F030038B7090FBF2F302FBBB
:10033000130040F03000C87010BD00003EB57E21B3
:100340008DF8001007228DF808108DF801209DF817
:100350000710A322AA318DF802208DF80710002182
:100360006A465418435CE370445C9DF80730491CAE
:1003700023448DF807300429F3DB02F025F84FF40D
:100380007A7309226946064800F068FF642000F08D
:1003900025F90448007808B100203EBD01203EBD8B
:1003A00094050020F00400203EB57E218DF8001059
:1003B00007228DF808108DF801209DF80710D6222D
:1003C000DD318DF802208DF8071000216A4654189F
:1003D000435CE370445C9DF80730491C23448DF86E
:1003E00007300429F3DB01F0EFFF4FF47A730922A1
:1003F0006946064800F032FF642000F0EFF8044838
:10040000007808B100203EBD01203EBD94050020CB
:10041000F00400203EB57E218DF8001007228DF8F3
:1004200008108DF801209DF80710DB22E2318DF8CD
:1004300002208DF8071000216A465418435CE370CF
:10044000445C9DF80730491C23448DF8073004298B
:10045000F3DB01F0B9FF4FF47A73092269460648CD
:1004600000F0FCFE642000F0B9F80448007808B100
:1004700000203EBD01203EBD94050020F004002078
:100480001CB57E208DF8000003218DF80110D921C4
:100490008DF80210DC218DF803108DF8040001F0B6
:1004A00093FF4FF47A7305226946064800F0D6FEA2
:1004B000642000F093F80448007808B100201CBDC7
:1004C00001201CBD94050020F00400202DE9F84F08
:1004D00004468B461546104601F0A0FA002067E05E
:1004E000215C401CC1F380120092C0B2C1F3001223
:1004F000265C00F10100C1F3C009C0B20AB1275C5B
:100500000FE0215C401CC0B2225C401CC0B241EA3A
:100510000267215C0904401CC0B2225C41EA02214E
:100520000F434FF0000AB9F1000F03D0401CC0B2D6
:1005300014F800A0401C00F0FF08287800EB8001B0
:1005400001EB801005EB8002314604EB0800521CE1
:1005500001F01DFB08EB0600C6B2B9F1000F0ED08A
:10056000287800EB800101EB801005EB80025146FA
:10057000A019521C01F0F5FA06EB0A00C6B2287861
:1005800000EB800101EB801005EB8002F9B2A019AD
:10059000521C01F0F1FAF0192978C0B2042904D2F2
:1005A000491C2970009919B104E00020BDE8F88FBA
:1005B000584595D90120F9E790F83510022903D064
:1005C0008021416501207047052180F835100068C1
:1005D000016821F0010101600020704770B50446F8
:1005E00000F068F90546601C02D004480078044415
:1005F00000F060F9401BA042FAD370BD1800002043
:1006000070B50A2000F0E8F910212C4800F04CF9F0
:100610002B4D2C4CD8B12068002849D0FFF730FF73
:100620002949002001F028FBA0B3274801F052FB24
:1006300048B12548042225492130FFF716FE50B362
:100640002248FFF7E7FE204801F0ACFA2EE01E49F1
:10065000002001F011FB58B31DA0FFF76FFE1B49EE
:100660002868FFF746FE184A04210A32174801F0AD
:10067000E9F91549487A401C4872084601F0BCFB6C
:1006800020B11248FFF790FE012020600E4801F0D3
:1006900089FA0DE007E0FFE70FA0FFF74FFE28689B
:1006A000401C2860CFE70948FFF7B4FE0020206017
:1006B000BDE870400A2000F09AB900000010024026
:1006C0001000002008000020300000200C00002056
:1006D0007265636F00000000646F6E6500000000CB
:1006E000044910B50A68024202D00860FFF788FF8B
:1006F00010BD0000143C01402DE9F84FDFF87CB13B
:1007000000224FF001084FF0030A4FF00F090BF1E0
:10071000040E00BF0B6808FA02F42340A3426ED116
:100720004D68022D01D0122D0ED1D50800EB850C9D
:10073000DCF820505607F70E09FA07F6B5430E69A4
:10074000BE402E43CCF82060066855000F790AFAA7
:1007500005FC07F0030726EA0C06AF4037430760A5
:100760004E68012E05D0022E03D0112E01D0122E7C
:100770000ED18668CF6826EA0C06AF403743876003
:100780004668A6430C79C4F3001494403443446093
:10079000C6688C6826EA0C06AC403443C4604C68DA
:1007A000E40065D5364C256845F48045256024680D
:1007B00022F0030504F480440094324C2E19D6F83C
:1007C000084895072F0F09FA07F5AC432E4DA842AC
:1007D00001D1002524E02D4DA84201D101251FE0C3
:1007E0002B4DA84201D102251AE02A4DA84201D181
:1007F000032515E0284DA84202D1042510E037E07A
:10080000264DA84201D105250AE0254DA84201D177
:10081000062505E0234DA84201D1072500E0082563
:10082000BD402543C6F80858DBF800405D464E68D9
:100830009C43F60300D51C432C60DEF8004075464F
:100840004E689C43B60300D51C432C600B4D083505
:100850002C684E689C43F60200D51C432C60074D63
:100860000C352C684E689C43B60200D51C432C60A6
:10087000521C102AFFF44EAFBDE8F88F003C014037
:1008800044380240003001400000024000040240B1
:1008900000080240000C0240001002400014024018
:1008A00000180240001C02400069084000D00120EE
:1008B0007047000001488068704700001800002061
:1008C0000248816802781144816070471800002056
:1008D0000B4810B5016841F400710160016841F4F2
:1008E00080610160016841F480710160032000F0C3
:1008F000A9F8002000F006F800F024F8002010BD50
:10090000003C024070B50D4D04464FF47A712878D2
:10091000B1FBF0F00A490968B1FBF0F000F02FFBE1
:1009200048B9102C07D200222146501E00F06AF868
:1009300000206C6070BD012070BD00001800002018
:1009400024000020234808B5016841F4804101607B
:10095000006800F4804000901E48001F016841F0CC
:1009600080510160006800F080500090032000F08A
:1009700069F8002211466FF00B0000F043F80022E6
:1009800011466FF00A0000F03DF8002211466FF0AA
:10099000090000F037F800221146501F00F032F82D
:1009A00000221146101F00F02DF800221146901E63
:1009B00000F028F800221146501E00F023F8002213
:1009C0001146052000F01EF8BDE80840052000F0A3
:1009D0000EB800004438024000F01F02012191408F
:1009E0004009800000F1E020C0F88011704700F05D
:1009F0001F02012191404009800000F1E020C0F871
:100A000000117047F0B40E4B1B680C46C3F3022371
:100A1000C3F10705042D00D90425191D072901D2AA
:100A2000002300E0DB1E012606FA05F1491E2140E5
:100A300099409E40761E16403143F0BC01F0DBB871
:100A40000CED00E0064900F0070208684FF6FF03CE
:100A5000184040EA0220034A104308607047000033
:100A60000CED00E00000FA052DE9F0470E46050008
:100A700065D0DFF81481D8F80000F7B200F00F005D
:100A8000B04207D288F80070D8F8000000F00F00DC
:100A9000B04254D128683D4C810712D5400703D598
:100AA000206840F4E05020602878000703D52068D3
:100AB00040F4604020602068A96820F0F0000843FE
:100AC00020602878C0072DD030496868083901288F
:100AD00012D0022813D0032811D0096889070029F1
:100AE0002DDA216821F0030101432160FFF7E2FEC6
:100AF000814641F2883A0EE009688903EFE7096808
:100B00008901ECE7FFF7D6FEA0EB0901514502D9B8
:100B10000320BDE8F0872068696800F00C00B0EBA6
:100B2000810FEFD1D8F80010404601F00F01B1421B
:100B300007D90770006800F00F00B04201D0012013
:100B4000E7E72878400705D52068E96820F4E050F9
:100B5000084320602878000706D52068296920F41A
:100B6000604040EAC100206000F03CF82168084A7B
:100B7000C1F30311515CC840064908600020FFF72B
:100B8000C1FE0020C5E70000003C024008380240DA
:100B9000C8250008240000200148006870470000B4
:100BA000240000200448054900680968044AC1F38C
:100BB0008221515CC8407047240000200838024060
:100BC000D82500080448054900680968044AC1F3AB
:100BD0004231515CC8407047240000200838024070
:100BE000D8250008154810B5006810F00C0214480C
:100BF00013D01449042A0FD0082A0ED10F4C241FF9
:100C00002268236802F03F025B0207D52068C0F328
:100C10008810A0FB010106E0084610BD2168C1F361
:100C20008811A1FB00010023FFF7CAFA2168C1F374
:100C30000141491C4900B0FBF1F010BD08380240E9
:100C40000024F40040787D012DE9F84F050076D0AE
:100C50002878DFF8F8B2BE4CC00749D0DBF80010A6
:100C60005846C1F38101012908D00068C0F3810012
:100C700002280AD1201D0068400206D520688003A2
:100C800036D568680028E2D032E06868B0F5803F69
:100C900010D0B0F5A02F206810D020F48030206054
:100CA000206820F4802020606868A0B1FFF702FE71
:100CB00006460CE0206840F48030F4E740F48020E1
:100CC0002060F7E7FFF7F6FD801B642873D82068E3
:100CD0008003F7D50CE0FFF7EDFD064605E000BF09
:100CE000FFF7E8FD801B6428F0D820688003F7D464
:100CF0002878DFF8608280074FF000093ED5DBF8E6
:100D00000010584611F00C0F09D00068C0F38100A4
:100D100002280BD18D48001F0068400206D42068CD
:100D2000800715D5E868012809D111E0E868B8B155
:100D30000120C8F80000FFF7BDFD064605E002E10E
:100D4000FFF7B8FD801B0228C0D820688007F7D5C0
:100D50002068296920F0F80040EAC10020600DE019
:100D6000C8F80090FFF7A6FD064604E0FFF7A2FDD5
:100D7000801B02281FD820688007F7D42878000736
:100D800022D5724E744869696C3671B101210160D7
:100D9000FFF790FD074604E0FFF78CFDC01B02281B
:100DA00009D830688007F7D50EE0C0F80090FFF74B
:100DB00081FD074605E083E0FFF77CFDC01B0228AC
:100DC0007ED830688007F7D42878400768D5DFF8E8
:100DD0007CA100270AF1380ADAF80000C0000BD421
:100DE000DAF8001041F08051CAF80010DAF800007B
:100DF000012700F080500090584E3068C00510D494
:100E0000306840F480703060FFF754FD009005E0DA
:100E1000FFF750FD0099401A022851D83068C005EC
:100E2000F6D54A4EA868683601280FD005283068E4
:100E300010D020F001003060306820F004003060F5
:100E4000A868B8B1FFF736FD00900FE0306840F0B9
:100E50000100F4E740F004003060F7E7FFF72AFDF7
:100E60000099411A41F28830814264D83068800785
:100E7000F4D50EE0FFF71EFD009007E0FFF71AFD26
:100E80000099411A41F28830814254D83068800775
:100E9000F4D42FB1DAF8001021F08051CAF8001014
:100EA000A869C0B3DBF80010C1F3810102294AD060
:100EB0000228484607D0C8F86000FFF7FBFC00E0B6
:100EC00039E005463AE04746C8F86000FFF7F2FC13
:100ED000064604E0FFF7EEFC801B02282BD82068B2
:100EE0008001F7D4D5E907010843A96A1C4A4908DB
:100EF00002EB01416A6A41EA8211084395F82C101D
:100F000040EA01611148001F016001203866FFF7C7
:100F1000D1FC054605E014E0FFF7CCFC401B02289D
:100F200009D820688001F7D50BE000BFFFF7C2FCAD
:100F3000401B022802D90320BDE8F88F20688001F9
:100F4000F4D40020F8E70120F6E70000083802405A
:100F50000038024000004742800E474200700040C7
:100F60000000FFFF4FF0E0210428086903D020F0C3
:100F700004000861704740F00400FAE7704710B5BC
:100F8000401EB0F1807F01D3012010BD4FF0E0245E
:100F900060610F21601700F02EFE0020A061072085
:100FA0002061002010BD10B5FFF7E8FF10BD7047AD
:100FB00070B5026804461068D168536910F00F0FCD
:100FC00050D003F0010501F4907635435DD0C2079F
:100FD00005D0CA0503D5E26B42F00102E263420785
:100FE00005D5DA0703D0E26B42F00202E263820722
:100FF00005D5DA0703D0E26B42F00402E263020790
:1010000005D5DA0703D0E26B42F00802E263E26B37
:10101000002A33D0800604D5880602D5204600F089
:1010200095FF20684069E16BC0F38010090700D488
:1010300028B3204600F07CFF2068416949061AD594
:10104000416921F040014161606BA0B11B4901651C
:10105000606BFFF7B1FA002810D0606B016DBDE83E
:1010600070400847830610D58B060ED52046BDE894
:10107000704000F06BBF2046FFF799FF70BD20461F
:10108000FFF795FF0020E06370BD030606D50B0651
:1010900004D52046BDE8704001F0F4B84006F3D511
:1010A0004806F1D5D168204621F04001D1602021C9
:1010B00084F8391000F02FF970BD0000211F0008DE
:1010C00070B5040004D094F83900002510B106E092
:1010D000012070BD84F83850204600F023F8242009
:1010E00084F839002068C16821F40051C1602046AD
:1010F00000F072FF2068016921F4904101612068CD
:10110000416921F02A0141612068C16841F4005120
:10111000C160E563202084F8390084F83A0000209B
:1011200070BD000070B51E4E016802220123032429
:1011300007251C4886B0B14215D11B490E6846F000
:1011400010060E60096801F01001059161028DE83A
:101150003E006946FFF7D0FA002201212520FFF763
:1011600051FC252018E0114EB14217D10E49091F3C
:101170000E6846F400360E60096801F400310591EE
:101180000C218DE83E006946FFF7B6FA00220321E4
:101190002620FFF737FC2620FFF729FC06B070BD9C
:1011A000001001400000024044380240004400406A
:1011B00090F83A30202B1DD1D1B1CAB190F8383017
:1011C000012B17D081628285C2850021C163222252
:1011D00080F83A2080F8381001684A6942F001022C
:1011E0004A610068C16841F49071C1600020704795
:1011F000012070470220704770B50546006812490B
:10120000124C88420BD1124A217860785054491C04
:101210000F4821700122611CC830FFF7C9FF0D493A
:10122000286888420ED10A4AA0786432E1781154C5
:10123000401CA070BDE8704004490122C91C06484A
:10124000FFF7B6BF70BD0000001001401400002081
:101250008C04002000440040940500202DE9F84350
:10126000044690F839001F4616460D46202850D1F6
:10127000A5B19EB194F8380001284AD0012084F825
:1012800038004FF00008C4F83C80212084F8390071
:10129000FFF710FBA6848146E68426E00120BDE826
:1012A000F883E08C401EE084A0684B46B0F5805F78
:1012B0004FF000024FF080012046009703D001F06C
:1012C00012F8E8B90DE001F00EF8C8B928882168D5
:1012D000C0F308004860206908B16D1C05E0AD1C32
:1012E00003E0216815F8010B4860E08C0028D8D194
:1012F0004B46002240212046009700F0F4FF08B141
:101300000320CCE7202084F8390084F838800020BE
:10131000C5E70220C3E77047FEE7000070B5394813
:1013200086B00024016841F010010160016801F0FD
:1013300010010591016841F004010160016801F0AC
:1013400004010591016841F080010160016801F02C
:1013500080010591016841F001010160016801F01F
:1013600001010591016841F002010160016801F08D
:1013700002010591016841F0080101600068032540
:1013800000F0080005904FF6EF70CDE900051E4E05
:10139000694602943046FFF7AFF9102000901B48D1
:1013A00001900120029069463046FFF7A5F94FF6FB
:1013B000FF760096CDE9015469461548FFF79CF980
:1013C00049F6F310CDE90005694602941148FFF78C
:1013D00093F90096CDE9015469460F48FFF78CF95F
:1013E0000096CDE9015469460C48FFF785F90022C3
:1013F00002210A20FFF706FB0A20FFF7F8FA06B0E1
:1014000070BD000030380240001002400000311072
:10141000000802400000024000040240000C0240AC
:101420000D4810B50B4901604FF4E13141600021D6
:1014300081600C22C160C0E904128161C161FFF7C3
:101440003FFE002805D0BDE81040492103A000F070
:101450008ABF10BD00100140540500202E2E2F53CE
:1014600072632F75736172742E6300000D4810B59E
:101470000B4901604FF416514160002181600C223C
:10148000C160C0E904128161C161FFF719FE002843
:1014900005D0BDE810405C2103A000F064BF10BD82
:1014A00000440040940500202E2E2F5372632F75A8
:1014B000736172742E630000FEE700001FB54024C4
:1014C0008DF8004001248DF801400AB1612200E04E
:1014D00060228DF802208DF8031019680191998817
:1014E000ADF80810027A411C0DF10A00FEF799FED2
:1014F0000E21684600F02CFC28B10648017B4129EA
:1015000001D1407B10B1002004B010BD00F04CFFB1
:101510000120F9E78C04002030B513460C4605463F
:1015200000F024F8002802DB295C032901D0002008
:1015300030BD2A185178FF2904D02170801C187002
:10154000012030BD5188001D49BA2170F7E7FF28FE
:1015500001D2C01C00E0401D010705D0C11700EBFF
:101560001170001100011030C0B270470146002018
:101570000A5C22B1032A01D06FF001007047401CC1
:101580001028F5DB4FF0FF307047802801D280072C
:1015900000E0000708B10020704701207047802854
:1015A00003D2800700F1804002E0000700F1805084
:1015B00008B1002070470120704700002DE9F0417C
:1015C00088B0804600F0AAFB2FA10424D1E90001D5
:1015D000CDE9020100208DF804008DF800000246DC
:1015E00002AB21464046FFF769FF002843D004A91B
:1015F000204600F04DF800283DD001AA694604A815
:10160000FFF78AFF002836D000259DF80000FFF77D
:101610009EFF064600F092FF07463146FEF71AFE8F
:1016200019E02046FFF7B1FF30B102AB002221469E
:101630004046FFF743FF08B37919204600F028F829
:10164000E0B1641C1035E4B2EDB22046FFF7A7FF0D
:1016500008B1641CE4B2B542E3D39DF8040008F17C
:10166000090238449DF80010FEF730FF0446384662
:1016700000F0E4FE204608B0BDE8F081384600F0F6
:10168000DDFE0020F7E70000D3F7D3F7D3F7000023
:1016900038B50C4640218DF8001001218DF801105D
:1016A00030218DF802108DF803000421684600F007
:1016B0004FFB002808D00A48017B412901D1407B1B
:1016C00018B100F071FE002038BD054910220E311E
:1016D0002046FEF7A6FD00F067FE012038BD0000A1
:1016E0008C0400202DE9FC47804600F017FB08F130
:1016F0000900054600F07CF9C4B2204600F01EFF48
:1017000081462146FEF7A6FD2946484600F04CF9E1
:101710002046FFF71CFF801CC6B2304600F00EFFCB
:1017200005463146FEF796FD0320FE27FF2CA870E4
:1017300008D2EC7022464946281DFEF772FD281992
:1017400047710BE0FF20E870200A28716C71224677
:101750004946A81DFEF765FD2819C7711AA1002783
:10176000D1E900010424CDE9000119E02046FFF78A
:101770000CFF30B16B46002221464046FFF79EFE2B
:10178000C8B1E919204600F023F8A0B1641C103755
:10179000E4B2FFB22046FFF702FF08B1641CE4B2D6
:1017A000B742E3D3284600F049FE484600F046FE23
:1017B0000120BDE8FC87284600F040FE484600F0C6
:1017C0003DFE0020F5E70000D3F7D3F7D3F7000084
:1017D00000B585B040228DF8002001228DF801204F
:1017E000A0228DF802208DF80300102201A8FEF738
:1017F00018FD1421684600F0ABFA38B10548407B6B
:1018000020B100F0D1FD002005B000BD00F0CCFDFE
:101810000120F9E78C0400202DE9F041804600F01A
:10182000C3FE00F0E1FD00F0AFFD164C0025A088DE
:1018300000F084FE074604267919304600F024F8AB
:10184000C8B16088E1880844A84205D92D1D761CDE
:10185000F6B2EDB23F2EEFD3E088A178384408F11C
:101860000902FEF733FE0028384607D000F0E6FDF7
:101870000120BDE8F08100206080EDE700F0DEFD92
:101880000020F6E70000002038B50C4640218DF816
:10189000001001218DF8011030218DF802108DF813
:1018A00003000421684600F053FA28B10848017B80
:1018B000412901D1417B19B100F076FD002038BDEE
:1018C000D0F80E00206000F06FFD012038BD000050
:1018D0008C0400202DE9F041044600F065FE04F17F
:1018E0000900804600F084F8234C80B2FF28608015
:1018F00001D2022000E00420E08000F045FDA08835
:101900002188884202D90020BDE8F08100F016FE4F
:10191000054603202870608800270426FF2801D28E
:10192000687005E0FF2068706088010AA970E8709F
:101930004146A81C00F038F8A088E288811A608827
:101940002A44091A1044FEF785FCE1886288FE20CB
:101950001144685407E03046761CE919F6B200F0ED
:101960000DF83F1DFFB2A0888742F4D3284600F04F
:1019700065FD0120C8E70000000000201CB54022E2
:101980008DF8002001228DF80120A2228DF802207E
:101990008DF80300086801900821684600F0D8F926
:1019A000002800D001201CBD2DE9F0410F4606465D
:1019B000002416E004EB840101EB841107EB8105A0
:1019C0006B1C611C884201D1012200E000226CB135
:1019D0000021304600F068F8681C00F094F80644D6
:1019E000641C3878A042E5DCBDE8F0810121F0E715
:1019F00070B5002506462C460BE000BF04EB8400C2
:101A000000EB841006EB8000401C00F07CF80544DD
:101A1000641C3078A042F1DC284670BD70B50546E4
:101A20005FF0000404EB840000EB841005EB800001
:101A3000401C00F082F8641C042CF3DB00202870AA
:101A400070BD00002DE9F84380460C46174610464D
:101A500000F073F80120387011A03A460068009039
:101A60000121684600F093F8E51C284600F066FD69
:101A7000064602220121FEF7E6FB0AA02246008864
:101A8000A6F801004146F01CFEF7CBFBE9B23A464E
:101A9000304600F071F8304600F0D0FCBDE8F88325
:101AA00054000000656E000070B51C4613460E46DB
:101AB000054622461946304600F030F805F8010B7D
:101AC000607805F8010BA07805F8010BE07808B103
:101AD00005F8010B6278211D2846FEF7A2FB60780D
:101AE000A278054404F114012846FEF79AFBA07879
:101AF000E2782844002A05D004F10C01BDE87040CA
:101B0000FEF78FBB70BDC278032102B10421437878
:101B10008078114418440844C0B27047137808B163
:101B200043F0800309B143F04003D17843F0100043
:101B3000002901D040F008007047002100F8011B87
:101B400000F8011B417000F8021B40F8041B40F82C
:101B5000081B40F8041C40F8041B4FF48071FEF78A
:101B600079BB70B515460C460A46014605F10C00D6
:101B7000FEF757FBEC7070BD70B515460C460A4673
:101B8000014605F11400FEF74CFBAC7070BD70B55A
:101B900015460C460A460146281DFEF742FB6C70AE
:101BA00070BD00002DE9F041002606700672C0F8F5
:101BB0000160A0F80560C6710446467235464FF4D0
:101BC000807700BF05EB850000EB851004EB8000FB
:101BD000394600F80A6F46708670C67046608660A7
:101BE000C66006611430FEF735FB6D1C042DE9DB81
:101BF000BDE8F08170470907090E002806DA00F0F9
:101C00000F0000F1E02080F8141D704700F1E02083
:101C100080F80014704700001CB507A10622D1E926
:101C20000001CDE9000106496846FEF71EFB08B138
:101C300000201CBD01201CBD0000FF00FF000000B3
:101C40008C04002030B500220B210A4B841E03E0D7
:101C50005D5C491C2A44D2B2A142F9DB18445142CE
:101C600010F8020CC9B2884201D0002030BD01201A
:101C700030BD00008C04002038B50C464A218DF898
:101C8000001001218DF801108DF802000321684633
:101C900000F05EF8C0B10E48417A0C2903D104214E
:101CA000217200212170407A0F2803D10720207271
:101CB000022020700649227A1331601CFEF7B1FA27
:101CC00000F072FB012038BD00F06EFB002038BD33
:101CD0008C04002010B5017811B1022907D102E06F
:101CE000FFF76CFC01E0FFF797FD012800D0002012
:101CF00010BD08B514208DF8000001218DF80110E9
:101D00008DF802008DF803100421684600F020F8D9
:101D10000028F9D000F048FB08BD00001CB509A15F
:101D20004FF6FF73D1E90001CDE9000106226946B3
:101D30000648FFF793FA054800680168C943090699
:101D4000FBD41CBD555500000000000054050020C8
:101D50002DE9F0419AB000260C468DF864608DF8AC
:101D600000608DF80160FF218DF80210671CF9B248
:101D70008DF8031049428DF80410D4218DF8051018
:101D800001466D46B0462246A81DFEF74AFAA41D3C
:101D9000E1B2002004E02A18401C52793244D6B245
:101DA000B842F8DB70426854491CC8B24FF6FF7362
:101DB00005F80080401CC2B269460E48FFF74EFA93
:101DC0006420FEF70BFC19A800F060FB9DF864008E
:101DD000002808D0FFF720FF40B19DF86400FFF70E
:101DE00031FF18B101201AB0BDE8F08100F0DCFA33
:101DF0000020F8E75405002010B5017811B1022940
:101E000007D102E0FFF76EFC01E0FFF763FD012858
:101E100000D0002010BD70477047704710B5FEF726
:101E20004FFDBDE81040FFF7BEB8000030B52548B3
:101E300093B00025016841F080510160006800F016
:101E4000805011902048016841F480410160006891
:101E5000022400F48040119001200390102004908F
:101E6000009406940820CDE90750A820CDE9090484
:101E700004200B906846FEF7E7FE00B1FEE70CA9D0
:101E80000F2081E831004FF4A0500F904FF48050A4
:101E9000109005210CA8FEF7E7FD00B1FEE7FEF764
:101EA0007BFE4FF47A71B0FBF1F0FFF768F8042085
:101EB000FFF758F800221146501EFEF7A3FD13B09D
:101EC00030BD0000403802400070004010480168FA
:101ED00041F4700101600F48016841F001010160A7
:101EE0000C4A00210832116002680B4B1A40026054
:101EF000031D0A4A1A60026822F480220260054823
:101F00000C300160024958068039086070470000B3
:101F100088ED00E000380240FFFFF6FE103000249C
:101F200010B5806B0021C185C184FFF740F810BD5A
:101F30000168CA6822F49072CA6001684A6922F096
:101F400001024A61202180F83A10704710B590F8DC
:101F50003A10222901D0022010BD8168B1F5805FBE
:101F600011D00169002901681FD0496801F07F0381
:101F7000816A4A1C82620B70C18D491E0904090CDA
:101F8000C18518D026E00269816A002A0268526879
:101F900005D0D2B20A80816A491C8162ECE7C2F3A3
:101FA00008020A80816A891CF7E74A68816A4B1C2B
:101FB00083620A70E0E70168CA6822F49072CA601E
:101FC00001684A6922F001024A61202180F83A1032
:101FD000FFF712F9002010BD2DE9F041044600681A
:101FE000016921F44052E168114301612168C86828
:101FF00049F20C6290432369A268E5691A43636958
:102000002B431A430243CA602168486920F4407296
:10201000A06910434861E1696425B1F5004F974814
:10202000974A21684FF032083FD0914201D0814257
:102030007CD1FEF7C7FD00EBC00101EB0010616829
:102040008900B0FBF1F6FEF7BDFD00EBC00101EB2E
:10205000001061688900B0FBF1F0B0FBF5F06FF0A3
:102060001801484306EB800108EB0110B0FBF5F0C6
:1020700000F0F006FEF7A6FD00EBC00101EB00103A
:1020800061688900B0FBF1F0B0FBF5F006EB0016DB
:10209000FEF798FD00EBC00101EB001061688900BC
:1020A000B0FBF1F7FEF78EFDD2E0914201D0814204
:1020B0003DD1FEF787FD00EBC00101EB0010616828
:1020C0004900B0FBF1F0B0FBF5F00601FEF77AFD38
:1020D00000EBC00101EB001061684900B0FBF1F7B3
:1020E000FEF770FD00EBC00101EB001061684900D4
:1020F000B0FBF1F0B0FBF5F06FF01801484307EBCF
:10210000800108EBC100B0FBF5F000F0F80006EB31
:102110004006FEF757FD00EBC00101EB00106168BF
:102120004900B0FBF1F7FEF74DFD3CE055E0FEF74E
:1021300039FD00EBC00101EB001061684900B0FB04
:10214000F1F0B0FBF5F00601FEF72CFD00EBC0014D
:1021500001EB001061684900B0FBF1F7FEF722FDCA
:1021600000EBC00101EB001061684900B0FBF1F029
:10217000B0FBF5F06FF01801484307EB800108EB66
:10218000C100B0FBF5F000F0F80006EB4006FEF7EA
:1021900009FD00EBC00101EB001061684900B0FBD4
:1021A000F1F7FEF7FFFC00EBC00101EB00106168E6
:1021B0004900B0FBF1F0B0FBF5F06FF018014843B7
:1021C00007EB800108EBC100B0FBF5F000F0070061
:1021D000216830448860BDE8F081FEF7E3FC00EB45
:1021E000C00101EB001061688900B0FBF1F6FEF759
:1021F000D9FC00EBC00101EB001061688900B0FB65
:10220000F1F0B0FBF5F06FF01801484306EB8001E8
:1022100008EB0110B0FBF5F000F0F006FEF7C2FC91
:1022200000EBC00101EB001061688900B0FBF1F028
:10223000B0FBF5F006EB0016FEF7B4FC00EBC001B6
:1022400001EB001061688900B0FBF1F7FEF7AAFC12
:1022500000EBC00101EB001061688900B0FBF1F0F8
:10226000B0FBF5F06FF01801484307EB800108EB75
:102270000110B0FBF5F000F00F00A9E700140140D9
:102280000010014090F83910212901D00220704738
:102290008168B1F5805F016A0BD04A1C0262026856
:1022A00009785160C18C491E0904090CC1840ED003
:1022B00017E009880268C1F308015160016900292B
:1022C000016A02D0491C0162ECE7891CFBE7016846
:1022D000CA6822F08002CA600068C16841F040010B
:1022E000C160002070472DE9F041984617460E4620
:1022F0000446069D1DE0681C1BD02DB1FEF7DAFADE
:10230000A0EB0800A84214D92068C16821F4D0715C
:10231000C1602068416921F001014161202084F8F9
:10232000390084F83A00002084F838000320BDE822
:10233000F0812068006836EA000004D00020B8422E
:10234000D9D00020F3E70120F9E700000148FEF7AB
:102350002FBE0000540500200148FEF729BE0000F2
:1023600094050020FEE7FEE702E008C8121F08C13E
:10237000002AFAD170477047002001E001C1121F06
:10238000002AFBD17047000006484188C2881144EA
:10239000491C89B281808A0703D089088900091DF8
:1023A00081807047000000200549002208780A70EB
:1023B000044902E0401EC0B20A540028FAD1704716
:1023C000140000208C0400200549002288788A70BF
:1023D000044902E0401EC0B20A540028FAD17047F6
:1023E00014000020F00400203EB56D46042400E0F7
:1023F00030B1E0B22946FFF747FA08B1012000E00A
:102400000020641C2D1D062CF2DB00280DD09DF849
:1024100000100948032909D09DF80510032904D1AB
:102420009DF8061041800721C1803EBD9DF8011036
:1024300041800221F8E700000000002010B50028CC
:1024400021D0114B0022001F196803E0814203D8FC
:102450000A4649680029F9D152B11368841A9C428E
:1024600004D1006818441060104602E0506000E09B
:10247000186039B102680B1A934203D10B681A44F1
:1024800002604968416010BD2800002001490978B8
:102490000170704714000020FEF71AFAFFF7C6FC1F
:1024A000FEF73CFFFEF7BCFFFEF7E0FF01221B49F1
:1024B0001B48FEF77DFE01221A491B48FEF778FEF5
:1024C000FFF72CFCFFF715FC18A0FDF737FF194E9E
:1024D000194C4FF4967700253846FEF77FF82068B0
:1024E0000028F9D10A20FEF777FA12490020FFF7F9
:1024F000C3FB70B10F48FFF7EDFB30B1D6F82100F8
:1025000060600D48001DFDF719FF0A486560FFF780
:1025100049FB0A20FEF76BFADEE7000015000020F9
:10252000540500201700002094050020706F776587
:10253000000000003000002008000020F0B50B3043
:10254000154D20F007010024144A0FE003688B4268
:102550000BD38B4205D95E1A43184768C3E900675D
:1025600000E04368136002C004E0021D1068002808
:10257000ECD12046002802D1286808B10020F0BD27
:10258000064A07481060074A121A22F00702C0E9FB
:10259000002401202860D7E72C000020280000201C
:1025A000DC050020D807002008B569460320FFF7A6
:1025B0006BF9012804D19DF802000249C00008808F
:1025C00008BD000000000020000000000000000026
:1025D00001020304060708090000000001020304C9
:1025E00000260008000000203000000068230008DA
:1025F0003026000830000020A80B000078230008D7
:1026000000000000000000000000000000000000CA
:1026100000000000000000000100000010000000A9
:10262000000000000024F400000000000000000092
:040000050800018965
:00000001FF
