:020000040800F2
:10000000980500209D01000833100008C10E00086B
:1000100031100008C5020008F916000800000000B1
:10002000000000000000000000000000BB110008FC
:10003000C702000800000000B9110008BD11000847
:10004000B7010008B7010008B7010008B7010008B0
:10005000B7010008B7010008B7010008B7010008A0
:10006000B7010008B7010008B7010008B701000890
:10007000B7010008B7010008B7010008B701000880
:10008000B7010008B7010008B7010008B701000870
:10009000B7010008B7010008B7010008B701000860
:1000A000B7010008B7010008B7010008B701000850
:1000B000B7010008B7010008B7010008B701000840
:1000C000B7010008B7010008B7010008B701000830
:1000D000B7010008ED160008B7010008B7010008D5
:1000E000B7010008B7010008B7010008B701000810
:1000F000B7010008B7010008B7010008B701000800
:10010000B7010008B7010008B7010008B7010008EF
:10011000B7010008B7010008B7010008B7010008DF
:10012000B7010008B7010008B7010008B7010008CF
:10013000B7010008B7010008B7010008B7010008BF
:10014000B7010008B7010008B7010008B7010008AF
:10015000B7010008B7010008B7010008B70100089F
:10016000B7010008B7010008B7010008B70100088F
:10017000B7010008B7010008B7010008000000003F
:10018000B7010008B7010008DFF80CD000F088F8CC
:100190000048004749170008980500200648804796
:1001A00006480047FEE7FEE7FEE7FEE7FEE7FEE75C
:1001B000FEE7FEE7FEE7FEE76D1200088901000892
:1001C0002DE9F05F0546002092469B46884606468C
:1001D000814640241BE0284641464746224600F01F
:1001E0004EF853465A46C01A914110D3114618464C
:1001F000224600F035F82D1A67EB01084F462246DB
:100200000120002100F02CF817EB00094E41201EC0
:10021000A4F10104DFDC484631462A464346BDE8E6
:10022000F09F40EA01039B0703D009E008C9121FB1
:1002300008C0042AFAD203E011F8013B00F8013BA0
:10024000521EF9D2704730B504460020034600E044
:100250005B1C934203D2E05CCD5C401BF8D030BD08
:10026000202A04DB203A00FA02F100207047914076
:10027000C2F1200320FA03F3194390407047202A6B
:1002800004DB203A21FA02F00021704721FA02F340
:10029000D040C2F120029140084319467047000047
:1002A000064C074D06E0E06840F0010394E80700C3
:1002B00098471034AC42F6D3FFF76AFFAC1700083A
:1002C000CC170008FEE7704790F83510022903D0DC
:1002D0008021416501207047052180F835100068B4
:1002E000016821F0010101600020704770B50446EB
:1002F00000F0E6F80546601C02D00448007804448B
:1003000000F0DEF8401BA042FAD370BD04000020CC
:100310002DE9F84FDFF87CB100224FF001084FF0D3
:10032000030A4FF00F090BF1040E00BF0B6808FA27
:1003300002F42340A3426ED14D68022D01D0122D4C
:100340000ED1D50800EB850CDCF820505607F70ECF
:1003500009FA07F6B5430E69BE402E43CCF820607B
:10036000066855000F790AFA05FC07F0030726EA2C
:100370000C06AF40374307604E68012E05D0022EB1
:1003800003D0112E01D0122E0ED18668CF6826EA36
:100390000C06AF40374387604668A6430C79C4F328
:1003A0000014944034434460C6688C6826EA0C0606
:1003B000AC403443C4604C68E40065D5364C2568D5
:1003C00045F480452560246822F0030504F4804448
:1003D0000094324C2E19D6F8084895072F0F09FAC9
:1003E00007F5AC432E4DA84201D1002524E02D4D48
:1003F000A84201D101251FE02B4DA84201D10225C1
:100400001AE02A4DA84201D1032515E0284DA84243
:1004100002D1042510E037E0264DA84201D1052580
:100420000AE0254DA84201D1062505E0234DA8424A
:1004300001D1072500E00825BD402543C6F808582E
:10044000DBF800405D464E689C43F60300D51C4334
:100450002C60DEF8004075464E689C43B60300D51C
:100460001C432C600B4D08352C684E689C43F602EB
:1004700000D51C432C60074D0C352C684E689C43FE
:10048000B60200D51C432C60521C102AFFF44EAF5C
:10049000BDE8F88F003C0140443802400030014084
:1004A000000002400004024000080240000C02402C
:1004B000001002400014024000180240001C0240DC
:1004C00001488068704700000400002002488168ED
:1004D0000278114481607047040000200B4810B579
:1004E000016841F400710160016841F480610160BC
:1004F000016841F480710160032000F097F800204A
:1005000000F006F800F024F8002010BD003C024086
:1005100070B50D4D04464FF47A712878B1FBF0F0B8
:100520000A490968B1FBF0F000F01DFB48B9102C36
:1005300007D200222146501E00F058F800206C60BF
:1005400070BD012070BD00000400002010000020DC
:100550001F4808B5016841F480410160006800F45B
:10056000804000901A48001F016841F080510160EE
:10057000006800F080500090032000F057F800223F
:1005800011466FF00B0000F031F8002211466FF0B9
:100590000A0000F02BF8002211466FF0090000F06D
:1005A00025F800221146501F00F020F800221146C5
:1005B000101F00F01BF800221146901E00F016F8E4
:1005C0000022BDE808401146501E00F00FB80000A0
:1005D0004438024000F01F02012191404009800090
:1005E00000F1E020C0F8001170470000F0B40E4B9D
:1005F0001B680C46C3F30223C3F10705042D00D981
:100600000425191D072901D2002300E0DB1E012665
:1006100006FA05F1491E214099409E40761E16407B
:100620003143F0BC00F006BD0CED00E0064900F0DF
:10063000070208684FF6FF03184040EA0220034A09
:1006400010430860704700000CED00E00000FA0560
:100650002DE9F0470E46050065D0DFF81481D8F883
:100660000000F7B200F00F00B04207D288F8007027
:10067000D8F8000000F00F00B04254D128683D4C7B
:10068000810712D5400703D5206840F4E050206070
:100690002878000703D5206840F460402060206877
:1006A000A96820F0F000084320602878C0072DD00A
:1006B000304968680839012812D0022813D003286D
:1006C00011D00968890700292DDA216821F003017A
:1006D00001432160FFF7F4FE814641F2883A0EE0C3
:1006E00009688903EFE709688901ECE7FFF7E8FE8D
:1006F000A0EB0901514502D90320BDE8F08720682D
:10070000696800F00C00B0EB810FEFD1D8F8001051
:10071000404601F00F01B14207D90770006800F0B0
:100720000F00B04201D00120E7E72878400705D547
:100730002068E96820F4E05008432060287800072A
:1007400006D52068296920F4604040EAC100206095
:1007500000F03CF82168084AC1F30311515CC8401D
:10076000064908600020FFF7D3FE0020C5E700001F
:10077000003C024008380240941700081000002096
:100780000148006870470000100000200448054937
:1007900000680968044AC1F38221515CC84070476F
:1007A0001000002008380240A4170008044805493A
:1007B00000680968044AC1F34231515CC84070477F
:1007C0001000002008380240A4170008154810B592
:1007D000006810F00C02144813D01449042A0FD0FA
:1007E000082A0ED10F4C241F2268236802F03F0212
:1007F0005B0207D52068C0F38810A0FB010106E06A
:10080000084610BD2168C1F38811A1FB0001002337
:10081000FFF7D6FC2168C1F30141491C4900B0FB38
:10082000F1F010BD083802400024F40040787D014A
:100830002DE9F84F050076D02878DFF8F8B2BE4CE5
:10084000C00749D0DBF800105846C1F381010129E7
:1008500008D00068C0F3810002280AD1201D00687A
:10086000400206D52068800336D568680028E2D0AB
:1008700032E06868B0F5803F10D0B0F5A02F206856
:1008800010D020F480302060206820F48020206088
:100890006868A0B1FFF714FE06460CE0206840F43B
:1008A0008030F4E740F480202060F7E7FFF708FE8F
:1008B000801B642873D820688003F7D50CE0FFF70D
:1008C000FFFD064605E000BFFFF7FAFD801B642828
:1008D000F0D820688003F7D42878DFF8608280079A
:1008E0004FF000093ED5DBF80010584611F00C0F10
:1008F00009D00068C0F3810002280BD18D48001F89
:100900000068400206D42068800715D5E8680128F1
:1009100009D111E0E868B8B10120C8F80000FFF77C
:10092000CFFD064605E002E1FFF7CAFD801B022865
:10093000C0D820688007F7D52068296920F0F80022
:1009400040EAC10020600DE0C8F80090FFF7B8FD54
:10095000064604E0FFF7B4FD801B02281FD820687C
:100960008007F7D42878000722D5724E7448696949
:100970006C3671B101210160FFF7A2FD074604E06A
:10098000FFF79EFDC01B022809D830688007F7D505
:100990000EE0C0F80090FFF793FD074605E083E006
:1009A000FFF78EFDC01B02287ED830688007F7D481
:1009B0002878400768D5DFF87CA100270AF1380ABB
:1009C000DAF80000C0000BD4DAF8001041F08051D2
:1009D000CAF80010DAF80000012700F080500090FB
:1009E000584E3068C00510D4306840F480703060D4
:1009F000FFF766FD009005E0FFF762FD0099401AE1
:100A0000022851D83068C005F6D54A4EA868683625
:100A100001280FD00528306810D020F00100306088
:100A2000306820F004003060A868B8B1FFF748FDD6
:100A300000900FE0306840F00100F4E740F004005F
:100A40003060F7E7FFF73CFD0099411A41F288302A
:100A5000814264D830688007F4D50EE0FFF730FD9E
:100A6000009007E0FFF72CFD0099411A41F2883011
:100A7000814254D830688007F4D42FB1DAF80010DE
:100A800021F08051CAF80010A869C0B3DBF800104B
:100A9000C1F3810102294AD00228484607D0C8F88C
:100AA0006000FFF70DFD00E039E005463AE04746FB
:100AB000C8F86000FFF704FD064604E0FFF700FDFC
:100AC000801B02282BD820688001F7D4D5E90701C4
:100AD0000843A96A1C4A490802EB01416A6A41EAD3
:100AE0008211084395F82C1040EA01611148001F5B
:100AF000016001203866FFF7E3FC054605E014E0DD
:100B0000FFF7DEFC401B022809D820688001F7D5DA
:100B10000BE000BFFFF7D4FC401B022802D90320E2
:100B2000BDE8F88F20688001F4D40020F8E70120A8
:100B3000F6E7000008380240003802400000474253
:100B4000800E4742007000400000FFFF4FF0E021A0
:100B50000428086903D020F004000861704740F0C1
:100B60000400FAE7704710B5401EB0F1807F01D352
:100B7000012010BD4FF0E02460610F21601700F0EC
:100B800059FA0020A06107202061002010BD10B597
:100B9000FFF7E8FF10BD704770B5026804461068A3
:100BA000D168536910F00F0F50D003F0010501F424
:100BB000907635435DD0C20705D0CA0503D5E26BF8
:100BC00042F00102E263420705D5DA0703D0E26B87
:100BD00042F00202E263820705D5DA0703D0E26B36
:100BE00042F00402E263020705D5DA0703D0E26BA4
:100BF00042F00802E263E26B002A33D0800604D59B
:100C0000880602D5204600F071FB20684069E16B40
:100C1000C0F38010090700D428B3204600F058FB29
:100C20002068416949061AD5416921F040014161B6
:100C3000606BA0B11B490165606BFFF745FB0028A5
:100C400010D0606B016DBDE870400847830610D579
:100C50008B060ED52046BDE8704000F047BB20460D
:100C6000FFF799FF70BD2046FFF795FF0020E06376
:100C700070BD030606D50B0604D52046BDE87040BE
:100C800000F0D0BC4006F3D54806F1D5D168204627
:100C900021F04001D160202184F8391000F00FF9D3
:100CA00070BD0000C112000870B5040004D094F8B3
:100CB0003900002510B106E0012070BD84F83850DD
:100CC000204600F023F8242084F839002068C16809
:100CD00021F40051C160204600F04EFB20680169FC
:100CE00021F4904101612068416921F02A014161AC
:100CF0002068C16841F40051C160E563202084F898
:100D0000390084F83A00002070BD000070B51B4E19
:100D100001680222012303240725194886B0B14245
:100D200018D118490E6846F010060E60096801F0E7
:100D30001001059161028DE83E006946FFF7E8FA6F
:100D4000002211462520FFF751FC2520FFF742FC29
:100D500006B070BD0C4EB142FAD10A49091F0E68A7
:100D600046F400360E60096801F4003105910C214B
:100D70008DE83E006946FFF7CBFAE9E70010014035
:100D800000000240443802400044004090F83A30ED
:100D9000202B1DD1D1B1CAB190F83830012B17D01A
:100DA00081628285C2850021C163222280F83A20B7
:100DB00080F8381001684A6942F001024A6100680F
:100DC000C16841F49071C1600020704701207047F4
:100DD000022070470068084988420CD10749084B37
:100DE00008784A781A54401C08700122491C03F5FF
:100DF0008070FFF7CBBF704700100140000000205B
:100E0000140000202DE9F843044690F839001F46ED
:100E100016460D46202850D1A5B19EB194F8380051
:100E200001284AD0012084F838004FF00008C4F8A7
:100E30003C80212084F83900FFF742FBA6848146DC
:100E4000E68426E00120BDE8F883E08C401EE084C3
:100E5000A0684B46B0F5805F4FF000024FF0800174
:100E60002046009703D000F00EFCE8B90DE000F03A
:100E70000AFCC8B928882168C0F3080048602069C6
:100E800008B16D1C05E0AD1C03E0216815F8010BED
:100E90004860E08C0028D8D14B46002240212046F3
:100EA000009700F0F0FB08B10320CCE7202084F885
:100EB000390084F838800020C5E70220C3E7704776
:100EC000FEE7000070B52E4886B00024016841F0AE
:100ED00010010160016801F010010591016841F005
:100EE00004010160016801F004010591016841F00D
:100EF00080010160016801F080010591016841F005
:100F000001010160016801F001010591016841F0F2
:100F100002010160016801F002010591016841F0E0
:100F20000801016000684FF6FF7600F008000096A7
:100F300005900325CDE9015469461248FFF7E8F909
:100F40000096CDE9015469460F48FFF7E1F949F6EB
:100F5000F310CDE90005694602940C48FFF7D8F973
:100F60000096CDE9015469460948FFF7D1F900968A
:100F7000CDE9015469460748FFF7CAF906B070BDCC
:100F800030380240001002400008024000000240D9
:100F900000040240000C02400D4810B50B490160EE
:100FA0004FF4E1314160002181600C22C160C0E951
:100FB00004128161C161FFF777FE002805D0BDE80A
:100FC0001040452103A000F098BB10BD0010014067
:100FD000140100202E2E2F5372632F7573617274CB
:100FE0002E6300000D4810B50B4901604FF4E1314C
:100FF0004160002181600C22C160C0E9041281615E
:10100000C161FFF751FE002805D0BDE8104058210E
:1010100003A000F072BB10BD00440040540100204A
:101020002E2E2F5372632F75736172742E6300001E
:10103000FEE770470907090E002806DA00F00F00E6
:1010400000F1E02080F8141D704700F1E02080F8E6
:10105000001470471CB507A10622D1E90001CDE9B3
:10106000000106496846FFF7EEF808B100201CBDF4
:1010700001201CBD0000FF00FF0000001400002044
:1010800030B500220B210A4B841E03E05D5C491C35
:101090002A44D2B2A142F9DB1844514210F8020CA2
:1010A000C9B2884201D0002030BD012030BD00000F
:1010B0001400002008B514208DF8000001218DF8DF
:1010C00001108DF802008DF803100421684600F02D
:1010D0001FF80028F9D000F021FB08BD1CB509A1BC
:1010E0004FF6FF73D1E90001CDE900010622694600
:1010F0000648FFF787FE054800680168C9430906EE
:10110000FBD41CBD55550000000000001401002058
:101110002DE9F0419AB000260C468DF864608DF8F8
:1011200000608DF80160FF218DF80210671CF9B294
:101130008DF8031049428DF80410D4218DF8051064
:1011400001466D46B0462246A81DFFF76AF8A41D69
:10115000E1B2002004E02A18401C52793244D6B291
:10116000B842F8DB70426854491CC8B24FF6FF73AE
:1011700005F80080401CC2B269460E48FFF742FEE7
:101180000F20FFF7B3F819A800F0D8FA9DF8640013
:10119000002808D0FFF75EFF40B19DF86400FFF71C
:1011A0006FFF18B101201AB0BDE8F08100F0B6FA67
:1011B0000020F8E7140100207047704710B5FFF7D2
:1011C00085F9BDE81040FFF7E2BC000030B52548C6
:1011D00093B00025016841F080510160006800F083
:1011E000805011902048016841F4804101600068FE
:1011F000022400F4804011900120039010200490FC
:10120000009406940820CDE90750A820CDE90904F0
:1012100004200B906846FFF70BFB00B1FEE70CA91A
:101220000F2081E831004FF4A0500F904FF4805010
:10123000109005210CA8FFF70BFA00B1FEE7FFF7AD
:101240009FFA4FF47A71B0FBF1F0FFF78CFC0420A9
:10125000FFF77CFC00221146501EFFF7C7F913B0C0
:1012600030BD000040380240007000401048016866
:1012700041F4700101600F48016841F00101016013
:101280000C4A00210832116002680B4B1A400260C0
:10129000031D0A4A1A60026822F48022026005488F
:1012A0000C30016002495806803908607047000020
:1012B00088ED00E000380240FFFFF6FE1030002409
:1012C00010B5806B0021C185C184FFF764FC10BD9F
:1012D0000168CA6822F49072CA6001684A6922F003
:1012E00001024A61202180F83A10704710B590F849
:1012F0003A10222901D0022010BD8168B1F5805F2B
:1013000011D00169002901681FD0496801F07F03ED
:10131000816A4A1C82620B70C18D491E0904090C46
:10132000C18518D026E00269816A002A02685268E5
:1013300005D0D2B20A80816A491C8162ECE7C2F30F
:1013400008020A80816A891CF7E74A68816A4B1C97
:1013500083620A70E0E70168CA6822F49072CA608A
:1013600001684A6922F001024A61202180F83A109E
:10137000FFF730FD002010BD2DE9F0410446006864
:10138000016921F44052E168114301612168C86894
:1013900049F20C6290432369A268E5691A436369C4
:1013A0002B431A430243CA602168486920F4407203
:1013B000A06910434861E1696425B1F5004F974881
:1013C000974A21684FF032083FD0914201D08142C4
:1013D0007CD1FFF7EBF900EBC00101EB0010616875
:1013E0008900B0FBF1F6FFF7E1F900EBC00101EB7A
:1013F000001061688900B0FBF1F0B0FBF5F06FF010
:101400001801484306EB800108EB0110B0FBF5F032
:1014100000F0F006FFF7CAF900EBC00101EB001085
:1014200061688900B0FBF1F0B0FBF5F006EB001647
:10143000FFF7BCF900EBC00101EB00106168890007
:10144000B0FBF1F7FFF7B2F9D2E0914201D081424F
:101450003DD1FFF7ABF900EBC00101EB0010616873
:101460004900B0FBF1F0B0FBF5F00601FFF79EF983
:1014700000EBC00101EB001061684900B0FBF1F71F
:10148000FFF794F900EBC00101EB0010616849001F
:10149000B0FBF1F0B0FBF5F06FF01801484307EB3B
:1014A000800108EBC100B0FBF5F000F0F80006EB9E
:1014B0004006FFF77BF900EBC00101EB001061680B
:1014C0004900B0FBF1F7FFF771F93CE055E0FFF799
:1014D0005DF900EBC00101EB001061684900B0FB51
:1014E000F1F0B0FBF5F00601FFF750F900EBC00199
:1014F00001EB001061684900B0FBF1F7FFF746F916
:1015000000EBC00101EB001061684900B0FBF1F095
:10151000B0FBF5F06FF01801484307EB800108EBD2
:10152000C100B0FBF5F000F0F80006EB4006FFF755
:101530002DF900EBC00101EB001061684900B0FB20
:10154000F1F7FFF723F900EBC00101EB0010616830
:101550004900B0FBF1F0B0FBF5F06FF01801484323
:1015600007EB800108EBC100B0FBF5F000F00700CD
:10157000216830448860BDE8F081FFF707F900EB8F
:10158000C00101EB001061688900B0FBF1F6FFF7C4
:10159000FDF800EBC00101EB001061688900B0FBB1
:1015A000F1F0B0FBF5F06FF01801484306EB800155
:1015B00008EB0110B0FBF5F000F0F006FFF7E6F8DD
:1015C00000EBC00101EB001061688900B0FBF1F095
:1015D000B0FBF5F006EB0016FFF7D8F800EBC00102
:1015E00001EB001061688900B0FBF1F7FFF7CEF85E
:1015F00000EBC00101EB001061688900B0FBF1F065
:10160000B0FBF5F06FF01801484307EB800108EBE1
:101610000110B0FBF5F000F00F00A9E70014014045
:101620000010014090F83910212901D002207047A4
:101630008168B1F5805F016A0BD04A1C02620268C2
:1016400009785160C18C491E0904090CC1840ED06F
:1016500017E009880268C1F3080151600169002997
:10166000016A02D0491C0162ECE7891CFBE70168B2
:10167000CA6822F08002CA600068C16841F0400177
:10168000C160002070472DE9F041984617460E468C
:101690000446069D1DE0681C1BD02DB1FEF710FF0F
:1016A000A0EB0800A84214D92068C16821F4D071C9
:1016B000C1602068416921F001014161202084F866
:1016C000390084F83A00002084F838000320BDE88F
:1016D000F0812068006836EA000004D00020B8429B
:1016E000D9D00020F3E70120F9E700000148FFF717
:1016F00053BA000014010020FEE7FEE702E008C82C
:10170000121F08C1002AFAD170477047002001E07B
:1017100001C1121F002AFBD17047000005490022B9
:1017200008780A70044902E0401EC0B20A5400283A
:10173000FAD1704700000020140000200149097808
:101740000170704700000020FEF7C8FEFFF73EFD65
:10175000FFF7B8FBFFF720FCFFF744FC01220A4922
:101760000A48FFF713FBFFF7B9FCFFF7A3FC4FF4A0
:101770007A7465102346032205A10448FFF742FB53
:101780002846FEF7B3FDF5E7010000201401002014
:1017900068690A0000000000000000000102030464
:1017A000060708090000000001020304CC17000826
:1017B0000000002014000000FC160008E0170008DC
:1017C00014000020840500000C1700080000000031
:1017D0000100000010000000000000000024F400E0
:040000050800018965
:00000001FF
