:020000040800F2
:10000000080D00209D0100084F270008B7210008B7
:100010004D27000895030008E138000800000000A3
:1000200000000000000000000000000099330008FC
:100030005504000800000000712700089B330008E9
:10004000B7010008B7010008B7010008B7010008B0
:10005000B7010008B7010008B7010008B7010008A0
:10006000B7010008B7010008B7010008B701000890
:10007000B7010008B7010008B7010008B701000880
:10008000B7010008B7010008B7010008B701000870
:10009000B7010008B7010008B7010008B701000860
:1000A000B701000899340008B7010008B70100083B
:1000B000B7010008B7010008B7010008B701000840
:1000C000B7010008B7010008B7010008B701000830
:1000D000B7010008B7010008B7010008B701000820
:1000E000B7010008B7010008B7010008B701000810
:1000F000B7010008B7010008B7010008B701000800
:10010000B7010008AD270008B7010008B7010008D3
:10011000B7010008B7010008B7010008B7010008DF
:10012000B7010008B7010008B701000899030008EB
:10013000B7010008B7010008B7010008B7010008BF
:10014000B7010008B7010008B7010008B7010008AF
:10015000B7010008A5030008B7010008B7010008AF
:10016000B7010008B7010008B7010008B70100088F
:10017000B7010008B7010008B7010008000000003F
:10018000B7010008B7010008DFF80CD000F09AF8BA
:100190000048004729540008080D00200648804701
:1001A00006480047FEE7FEE7FEE7FEE7FEE7FEE75C
:1001B000FEE7FEE7FEE7FEE7453400088901000898
:1001C0002DE9F05F0546002092469B46884606468C
:1001D000814640241BE0284641464746224600F01F
:1001E00061F853465A46C01A914110D31146184639
:1001F000224600F048F82D1A67EB01084F462246C8
:100200000120002100F03FF817EB00094E41201EAD
:10021000A4F10104DFDC484631462A464346BDE8E6
:10022000F09F421E12F8013F002BFBD111F8013B59
:1002300002F8013B002BF9D17047421C10F8011B5A
:100240000029FBD1801A7047034611F8012B00F8F2
:10025000012B002AF9D11846704730B50B460146EC
:1002600000202022012409E021FA02F59D4205D355
:1002700003FA02F5491B04FA02F52844151EA2F1FF
:100280000102F1DC30BD202A04DB203A00FA02F141
:10029000002070479140C2F1200320FA03F3194374
:1002A00090407047202A04DB203A21FA02F0002116
:1002B000704721FA02F3D040C2F120029140084376
:1002C00019467047064C074D06E0E06840F0010310
:1002D00094E8070098471034AC42F6D3FFF758FF74
:1002E000D4010208F40102087047000001460148E9
:1002F00001F0F4B9B800002010B5044801F000FA8C
:10030000042801D0012010BD002010BDB80000203D
:1003100038B501208DF800009DF80000012801D0BB
:10032000012038BD064801F0E1FA040006D14FF47F
:100330000061034801F0A8F800B10124204638BD4F
:10034000B8000020134610B50A46014600240348B1
:1003500001F0AEFB00B10124204610BDB800002022
:1003600001490120886070472C000020134610B519
:100370000A4601460024034801F01CFC00B1012498
:10038000204610BDB8000020014901204860704798
:100390002C000020FEE70000014800F091B80000AA
:1003A0001C060020014800F08BB800007C060020ED
:1003B00001681823CAB2103AB2FBF3F2054B6FF38F
:1003C0000901032A9B5CC36500D9091D81650846A4
:1003D00070470000CC58000810B5014600208B691A
:1003E0008A6A4FF0C07453B1B3F5005F15D072B193
:1003F000012A0CD0022A0AD0032A09D104E01AB13A
:10040000012A06D0022A03D1C96AC90100D50120F8
:1004100010BDC96AA142FAD010BD002AF7D0012A46
:10042000F2D0022AF3D0032AF3D010BD30B504680D
:10043000256825F480252560046863608368402B67
:10044000036803D099600068C26030BD9A6000689C
:10045000C16030BD70470022AFF3008030B50E4B55
:10046000054601205C7A002C14D1587A1C54587A25
:1004700003EB800045605D7A03F108002A54587A46
:10048000421C5A72303008703A2048702F20887011
:10049000CC70002030BD0000FC06002090F8351024
:1004A000022903D08021416501207047052180F891
:1004B00035100068016821F00101016000207047DB
:1004C0002DE9F84304464FF00009CDF80090634849
:1004D0004FF41651A56D0068B0FBF1F72E6894F843
:1004E0005C10082000FA01F131420FD021680A683F
:1004F00052070BD50A6822F004020A6094F85C10D7
:100500008840A860606D40F00100606594F85C1060
:100510004FF0010808FA01F0304208D0216849691B
:10052000090604D5A860606D40F00200606594F88B
:100530005C1004208840304208D02168096889078F
:1005400004D5A860606D40F00400606594F85C100C
:1005500010208840304218D021680968090714D556
:10056000A86020680168490304D50068000308D525
:10057000A16C07E00168C90503D4016821F00801F6
:100580000160216C09B12046884794F85C10202056
:100590008840304231D021680968C9062DD5A8604D
:1005A00094F8350005282068016806D0490347D52E
:1005B000006800031DD4616C1CE021F0160101608D
:1005C0002068416921F080014161206C08B9A06C6C
:1005D00020B12068016821F00801016094F85C10E6
:1005E0003F208840A86084F8349084F83580216DDD
:1005F0001FE0E16B09B120468847606D00282BD0D1
:10060000606DC00714D0052084F8350020680168AB
:1006100021F0010101600098401C0090B84203D80D
:1006200020680068C007F6D184F8349084F83580DB
:10063000E16C002910D001B02046BDE8F043084726
:100640000168C905D5D4016821F01001016084F862
:10065000349084F83580CCE7BDE8F8834C00002066
:100660002DE9F041044600F08BF906465CB1002507
:1006700084F83450022084F835002068016821F0A5
:10068000010101600DE00120BDE8F08100F078F982
:10069000801B052805D920206065032084F83500DB
:1006A000F2E720680068C007F0D12268116820488E
:1006B0000140D4E901031843D4E903363343184316
:1006C00063691843A3691843E3691843236A18430D
:1006D0000843616A042903D1D4E90B131943084381
:1006E000106020684069666A20F0070130460E43BA
:1006F000012704280CD1A06A0643E06A40B12046D5
:10070000FFF76AFE20B14020606584F83570BAE7D3
:10071000206846612046FFF74BFE94F85C203F219D
:1007200091408160656584F835700020ACE7000079
:100730003F8010F02DE9F0410446866D90F83400BA
:10074000002501280DD0012084F8340094F835707C
:100750000020012F07D084F8340002252846BDE888
:10076000F0810220FBE7022784F83570606520469F
:10077000FFF75CFE94F85C103F208840B060206872
:10078000016841F0160101602068416941F0800173
:100790004161206C20B12068016841F008010160CE
:1007A0002068016841F001010160D7E770B5044697
:1007B00000F0E6F80546601C02D0044800780444C6
:1007C00000F0DEF8401BA042FAD370BD40000020CC
:1007D0002DE9F84FDFF87CB100224FF001084FF00F
:1007E000030A4FF00F090BF1040E00BF0B6808FA63
:1007F00002F42340A3426ED14D68022D01D0122D88
:100800000ED1D50800EB850CDCF820505607F70E0A
:1008100009FA07F6B5430E69BE402E43CCF82060B6
:10082000066855000F790AFA05FC07F0030726EA67
:100830000C06AF40374307604E68012E05D0022EEC
:1008400003D0112E01D0122E0ED18668CF6826EA71
:100850000C06AF40374387604668A6430C79C4F363
:100860000014944034434460C6688C6826EA0C0641
:10087000AC403443C4604C68E40065D5364C256810
:1008800045F480452560246822F0030504F4804483
:100890000094324C2E19D6F8084895072F0F09FA04
:1008A00007F5AC432E4DA84201D1002524E02D4D83
:1008B000A84201D101251FE02B4DA84201D10225FC
:1008C0001AE02A4DA84201D1032515E0284DA8427F
:1008D00002D1042510E037E0264DA84201D10525BC
:1008E0000AE0254DA84201D1062505E0234DA84286
:1008F00001D1072500E00825BD402543C6F808586A
:10090000DBF800405D464E689C43F60300D51C436F
:100910002C60DEF8004075464E689C43B60300D557
:100920001C432C600B4D08352C684E689C43F60226
:1009300000D51C432C60074D0C352C684E689C4339
:10094000B60200D51C432C60521C102AFFF44EAF97
:10095000BDE8F88F003C01404438024000300140BF
:10096000000002400004024000080240000C024067
:10097000001002400014024000180240001C024017
:1009800001488068704700004000002070B50400F6
:1009900004D094F83D00002510B106E0012070BDA0
:1009A00084F83C50204600F005FA242084F83D00ED
:1009B0002068016821F00101016000F081FB3349EA
:1009C0002268B0FBF1F15160314A6368934206D965
:1009D0004FF4967359434FF47A73B1FBF3F12368E4
:1009E000491C1962616891420BD84900B0FBF1F2D1
:1009F000C2F30B02042A01D2042019E0B0FBF1F08B
:100A000016E0A3689BB301EBC10202EB0112B0FB3D
:100A1000F2F242F48042120530D04BB301EBC10236
:100A200002EB0111B0FBF1F040F4804040F40040D3
:100A30002168C861D4E90701084321680860D4E946
:100A40000310084321688860D4E905010843216840
:100A5000C8602068016841F0010101602564202020
:100A600084F83D00256384F83E50002070BD00E00E
:100A700006E001EB4102B0FBF2F2CCE70120D7E740
:100A800001EB4101B0FBF1F0D0E7000040420F0064
:100A9000A08601002DE9F84F1F4690468A4604467D
:100AA000DDF82890FFF76CFF054694F83D002028FC
:100AB0006FD1192301226E492046009501F071FC87
:100AC0000028F5D194F83C00012862D0012084F878
:100AD0003C0020680168C90703D1016841F00101A9
:100AE00001602068016821F400610160222084F81F
:100AF0003D00102084F83E0000262664C4F82480BF
:100B000067855C48E062608D20852B464A465146E9
:100B1000204601F065FB28B1206C84F83C60042875
:100B200041D04DE0208D544F68B1012814D00228E7
:100B30002068016816D041F4806101602068416935
:100B40008069009085E020684169816900910168B1
:100B500041F4007101607CE02068016821F480614B
:100B60000160F0E721F4806101602068016841F4D0
:100B70000061E2E7032849D801280BD0022817D0EA
:100B80004B46002239462046009501F00AFCB8B9D0
:100B90002AE06AE02A464946204601F077FC28B15F
:100BA000206C20280CD00120BDE8F88F206845E09B
:100BB0004B46002239462046009501F0F2FB08B171
:100BC0000320F1E72068016841F4007101602068AA
:100BD0000169606A421C62620170208D401E20859E
:100BE000608D401E6085E1E72068016821F4806126
:100BF000016020680169606A421C62620170208D98
:100C0000401E2085608D401E6085D1E72A464946FA
:100C1000204601F03BFC0028C2D120680269606ACE
:100C2000411C61620270208D401E2085608D401E37
:100C3000608520684169C94349070AD40169606A2F
:100C4000421C62620170208D401E2085608D401E16
:100C50006085208D00288DD1202084F83D0084F807
:100C60003E6084F83C6000209EE702209CE7000084
:100C7000020010000000FFFF040001002DE9F84F02
:100C80001F4690468A460446DDF82890FFF778FE16
:100C9000064694F83D0020287ED1192301224349BD
:100CA0002046009601F07DFB00287DD194F83C00A1
:100CB000012879D0012084F83C0020680168C90728
:100CC00003D1016841F0010101602068016821F44D
:100CD00000610160212084F83D00102084F83E006E
:100CE00000252564C4F8248067853148E062608D62
:100CF000208533464A465146204601F0E1FA28B1A4
:100D0000206C84F83C5004284CD00DE020684169E8
:100D10008069009030E032464946204601F0E7FB0A
:100D200028B1206C042838D00320BDE8F88F606A11
:100D3000411C6162216800780861608D401E6085F9
:100D4000208D401E80B2208521684A69D243520717
:100D50000BD450B1606A421C626200780861608DF9
:100D6000401E6085208D401E208532464946204623
:100D700001F0F0FA0028D4D1208D0028CBD154F80E
:100D80003D0B016841F400710160202004F81E0948
:100D9000E57765770020C8E706E02068016841F440
:100DA000007101600120C0E70220BEE702001000D0
:100DB0000000FFFF00B500680E4987B0884216D1D9
:100DC000C020009012200190012002900320039087
:100DD0000420049069460848FFF7FAFC07480168B8
:100DE00041F400110160006800F40010059007B0A4
:100DF00000BD0000005400400004024040380240A2
:100E000002488168027811448160704740000020E8
:100E10000B4810B5016841F400710160016841F4AC
:100E200080610160016841F480710160032000F07D
:100E300097F8002000F006F800F024F8002010BD1C
:100E4000003C024070B50D4D04464FF47A7128788D
:100E5000B1FBF0F00A490968B1FBF0F000F031FF96
:100E600048B9102C07D200222146501E00F058F835
:100E700000206C6070BD012070BD000040000020AB
:100E80004C0000201F4808B5016841F48041016012
:100E9000006800F4804000901A48001F016841F08B
:100EA00080510160006800F080500090032000F045
:100EB00057F8002211466FF00B0000F031F80022C5
:100EC00011466FF00A0000F02BF8002211466FF077
:100ED000090000F025F800221146501F00F020F80C
:100EE00000221146101F00F01BF800221146901E30
:100EF00000F016F80022BDE808401146501E00F030
:100F00000FB800004438024000F01F020121914058
:100F10004009800000F1E020C0F800117047000097
:100F2000F0B40E4B1B680C46C3F30223C3F1070554
:100F3000042D00D90425191D072901D2002300E042
:100F4000DB1E012606FA05F1491E214099409E400C
:100F5000761E16403143F0BC01F0FABB0CED00E008
:100F6000064900F0070208684FF6FF03184040EA00
:100F70000220034A10430860704700000CED00E0B7
:100F80000000FA052DE9F0470E46050065D0DFF8B0
:100F90001481D8F80000F7B200F00F00B04207D279
:100FA00088F80070D8F8000000F00F00B04254D16B
:100FB00028683D4C810712D5400703D5206840F4CE
:100FC000E05020602878000703D5206840F4604096
:100FD00020602068A96820F0F0000843206028788D
:100FE000C0072DD0304968680839012812D002287E
:100FF00013D0032811D00968890700292DDA216848
:1010000021F0030101432160FFF7BAFC814641F260
:10101000883A0EE009688903EFE709688901ECE77F
:10102000FFF7AEFCA0EB0901514502D90320BDE852
:10103000F0872068696800F00C00B0EB810FEFD1F9
:10104000D8F80010404601F00F01B14207D90770EF
:10105000006800F00F00B04201D00120E7E72878D7
:10106000400705D52068E96820F4E0500843206077
:101070002878000706D52068296920F4604040EAF6
:10108000C100206000F03CF82168084AC1F3031158
:10109000515CC840064908600020FFF7D3FE0020DD
:1010A000C5E70000003C024008380240D458000860
:1010B0004C00002001480068704700004C000020F0
:1010C0000448054900680968044AC1F38221515C5B
:1010D000C84070474C00002008380240E45800081F
:1010E0000448054900680968044AC1F34231515C6B
:1010F000C84070474C00002008380240E4580008FF
:10110000154810B5006810F00C02144813D01449AB
:10111000042A0FD0082A0ED10F4C241F22682368FE
:1011200002F03F025B0207D52068C0F38810A0FBE5
:10113000010106E0084610BD2168C1F38811A1FB3A
:1011400000010023FFF73CF82168C1F30141491C6D
:101150004900B0FBF1F010BD083802400024F40053
:1011600040787D012DE9F84F050076D02878DFF82A
:10117000F8B2BE4CC00749D0DBF800105846C1F3A6
:101180008101012908D00068C0F3810002280AD13A
:10119000201D0068400206D52068800336D56868A7
:1011A0000028E2D032E06868B0F5803F10D0B0F59A
:1011B000A02F206810D020F480302060206820F418
:1011C000802020606868A0B1FFF7DAFB06460CE0DB
:1011D000206840F48030F4E740F480202060F7E796
:1011E000FFF7CEFB801B642873D820688003F7D5F7
:1011F0000CE0FFF7C5FB064605E000BFFFF7C0FBAC
:10120000801B6428F0D820688003F7D42878DFF8A2
:10121000608280074FF000093ED5DBF80010584689
:1012200011F00C0F09D00068C0F3810002280BD127
:101230008D48001F0068400206D42068800715D53D
:10124000E868012809D111E0E868B8B10120C8F8C0
:101250000000FFF795FB064605E002E1FFF790FB73
:10126000801B0228C0D820688007F7D5206829692C
:1012700020F0F80040EAC10020600DE0C8F80090BE
:10128000FFF77EFB064604E0FFF77AFB801B02288F
:101290001FD820688007F7D42878000722D5724E1F
:1012A000744869696C3671B101210160FFF768FB10
:1012B000074604E0FFF764FBC01B022809D830682A
:1012C0008007F7D50EE0C0F80090FFF759FB0746FE
:1012D00005E083E0FFF754FBC01B02287ED830688E
:1012E0008007F7D42878400768D5DFF87CA100276D
:1012F0000AF1380ADAF80000C0000BD4DAF800105E
:1013000041F08051CAF80010DAF80000012700F01F
:1013100080500090584E3068C00510D4306840F4BA
:1013200080703060FFF72CFB009005E0FFF728FB92
:101330000099401A022851D83068C005F6D54A4EA7
:10134000A868683601280FD00528306810D020F032
:1013500001003060306820F004003060A868B8B147
:10136000FFF70EFB00900FE0306840F00100F4E75B
:1013700040F004003060F7E7FFF702FB0099411AE4
:1013800041F28830814264D830688007F4D50EE09D
:10139000FFF7F6FA009007E0FFF7F2FA0099411A1A
:1013A00041F28830814254D830688007F4D42FB19C
:1013B000DAF8001021F08051CAF80010A869C0B313
:1013C000DBF80010C1F3810102294AD00228484607
:1013D00007D0C8F86000FFF7D3FA00E039E005460F
:1013E0003AE04746C8F86000FFF7CAFA064604E04C
:1013F000FFF7C6FA801B02282BD820688001F7D49B
:10140000D5E907010843A96A1C4A490802EB0141D2
:101410006A6A41EA8211084395F82C1040EA01619A
:101420001148001F016001203866FFF7A9FA054640
:1014300005E014E0FFF7A4FA401B022809D8206851
:101440008001F7D50BE000BFFFF79AFA401B022896
:1014500002D90320BDE8F88F20688001F4D4002071
:10146000F8E70120F6E700000838024000380240A3
:1014700000004742800E4742007000400000FFFF1E
:1014800010B5FEF731FF10BDFEB5044603200D4632
:1014900084F83400606C032820D0B5F5805F1DD03F
:1014A000B5F5006F05D045B1A06B40F00060A063BA
:1014B00009E0204601F092FE02E0204601F067FEBE
:1014C000A16B0143A163A06B012658B1216840F2D2
:1014D000FF50886384F834600120FEBDA06B40F0AB
:1014E0008050E4E7211DD4E905700EC90095CDE9CF
:1014F0000170206801F060F984F834600020FEBDBE
:101500007047F0B5426E120E93090B70C2F383035D
:101510004B7002F003028A70426E120CCA70B0F86F
:101520006420120A0A7190F864204A71826E4FF6A4
:10153000FF73120E03EA0212CA80826ECB88C2F3D6
:10154000074243EA1213CB8002F00F020A72B0F88E
:101550006820C2F30722D3094B72C2F380138B7247
:10156000C2F34013CB72C2F300130B7300264E7309
:10157000446C4FF4007701236CB1012C43D0026816
:1015800040F2FF519163816B41F08051816380F89B
:1015900034300120F0BD9207120D0A6190F86820E6
:1015A0000C6944EA82020A61C26E0C69120E44EAB6
:1015B00092140C61C2F3C2040C7502F007024A7562
:1015C000C26EC2F3074254098C75C2F38204CC7513
:1015D0009207520F0A76B0F86C20C2F307240A7EF5
:1015E00042EAD4120A760A69521C42650D7EAD1C8D
:1015F000AA4042650D7A03FA05F585656D0A6A43CE
:10160000C0E917271CE090F868209206920A0A6148
:10161000C26E0C69120E44EA02220A61C26E0C69A3
:10162000C2F3074214430C61B0F86C20C2F30724E4
:101630000A69521C4FEA82224265C0E916720766A7
:10164000C4F3801201F8192F4FEA84624FEA526204
:101650004A7010F86C2F4C7844EAD2144C7002F0A7
:101660007F028A7042684FEA12624FEAD214CC704D
:10167000C2F341140C71C2F382044C714FEA8272BE
:101680004FEA12728A7142688C79C2F3074244EAC7
:1016900092148C71C2F34014CC710E7202F00102EC
:1016A0004A728288C2F307224FEAD2148C72C2F3C4
:1016B0008014CC72C2F340140C73C2F300144C7348
:1016C000C2F381048C7302F00302CA7300794FEAFB
:1016D000500008744B744FF00000F0BD426C0A607B
:1016E000826C4A60C26C8A60026DCA60426D0A6197
:1016F000826D4A61C26D8A61006EC86100207047C8
:1017000070B50446B0F8500000250104206801F0CF
:10171000D2F918B1A16B0143A16304E00021206854
:1017200001F03DF80546C5F3432070BD70B5044691
:101730000068416B4FF00105CA0540F23A3149D5C6
:101740002A0282632068C26B8A43C263206B00074F
:10175000206B22D5800702D4206B800609D5206833
:1017600001F0DAF928B1A16B0143A1632046FFF72C
:10177000C7FE216840F2FF50886384F83450206B24
:10178000C00702D1206B800703D5204600F00AFA7B
:1017900070BD204600F00AFA70BD0006FCD5206B33
:1017A000800609D5206801F0B7F928B1A16B014383
:1017B000A1632046FFF7A4FE206BC007ECD1206B8D
:1017C0008007E9D42068C16A21F00801C16284F869
:1017D0003450DEE7426B520410D54FF480418163F0
:1017E000266A002506EB8501206801F00EF86D1CC5
:1017F000082DF7D3206A2030206270BD426B12049E
:1018000010D54FF400418163A66A0025206800F0DE
:10181000E9FF46F825006D1C082DF7D3A06A20309B
:10182000A06270BD426B40F23A231A42F9D0426B7B
:10183000920703D5A26B42F00202A263426B120729
:1018400003D5A26B42F00802A263426B920603D555
:10185000A26B42F02002A263426BD20603D5A26BB8
:1018600042F01002A263426B920503D5A26B42F0D4
:101870000802A26340F2FF7282632068C26B8A434F
:10188000C263206B000623D5206C58B11549016551
:10189000206CFEF703FE0028C3D0206CBDE870402A
:1018A00001F023BBE06B58B10F490165E06BFEF717
:1018B000F5FD0028B5D0E06BBDE8704001F0EABA54
:1018C0000020A06384F834502046FFF7D9FD70BD96
:1018D000206B0007FBD584F834502046FFF710FE3C
:1018E00070BD0000EB2E0008952E000870B50400B6
:1018F00004D094F83400002510B105E0012070BD3B
:101900002577204600F038F8032084F8340020467C
:1019100000F008F8A5632563012084F83400002056
:1019200070BD0000FEB50025044676200095CDE987
:1019300001502B462A462946206800F03DFF0D4EF7
:1019400046F8A05F206800F049FF012535600220BD
:10195000FEF72CFF204601F0C9FB20B9204601F01C
:1019600052FB002805D084F83450A16B0143A163D9
:101970000120FEBD008025422DE9F04F054600689C
:101980003D4987B0884273D13C4800683B4940F4E8
:10199000006008600868022400F4006005904FF4BD
:1019A000F850CDE9000402AA002003264FF00C08ED
:1019B00082E8410169463248FEF70AFF02AA002088
:1019C00082E841010427CDE9007469462D48FEF7FD
:1019D000FFFE2E4C2C484FF00068C4E900080020A0
:1019E0004FF48069A060C4E90309B8024FF4804B4A
:1019F000C4E9050BC4E909764FF0200A0020C4E9C8
:101A000007A07E05B7102046C4E90B67FEF728FE45
:101A100018B1C9211EA001F064FFEC63A563234C3B
:101A2000194804F128024830C4E900084020A060A9
:101A30000020C4E90309C4E907A004206062032070
:101A400082E8C1004FF48051C4E9051B2046FEF72F
:101A500007FE18B1DE210EA001F043FF2C64002226
:101A600001213120A563FFF75BFA3120FFF74CFA23
:101A700007B0BDE8F08F0000002C01404438024060
:101A800000080240000C0240586402401C0600207E
:101A90002E2E2F5372632F73746D33326634787821
:101AA0005F68616C5F6D73702E6300007C060020C0
:101AB0002DE9F043154687B01F460A00044607D0BB
:101AC00094F83400012807D0022007B0BDE8F08365
:101AD000A06B40F0006008E00020A063E36DE9190E
:101AE000994204D9A06B40F00070A06351E003213B
:101AF00084F8341021688146C8622168CB6B43F4B6
:101B00009573CB63E36B24494FEA4728D963E36BB2
:101B10002249D964E16B4FEA980308652168E06BBC
:101B20008031FEF707FE1E4801260660606C012822
:101B300000D06D024FF0FF30CDE9000890200290F8
:101B400002200596CDE903096946206800F011FEE0
:101B50004FF40071206800F091FE40F2FF5880B908
:101B6000012F06D9822020632946206800F014FF47
:101B700005E0812020632946206800F026FF002828
:101B8000A3D02268C2F83880A16B0143A16384F816
:101B90003460012099E70000572E0008012E00084C
:101BA0008C85254210B5FEF7DBFB10BD10B5FEF7A6
:101BB000EBFB10BD2DE9F04F87B01F4615465FEADD
:101BC000010B044607D094F83400012807D0022006
:101BD00007B0BDE8F08FA06B40F0006008E0002087
:101BE000A063E26DE919914204D9A06B40F0007046
:101BF000A06339E0032184F8341021688046C8626C
:101C00002168CA6B42F01A02CA63226C2349D1636D
:101C1000226C2349D164216C0865606C012800D0D6
:101C20006D024FF40071206800F028FE012640F29A
:101C3000FF5988B94FF0900A012F06D9A0202063E0
:101C40002946206800F082FF05E0C4F830A029464C
:101C5000206800F094FF48B12268C2F83890A16B68
:101C60000143A16384F834600120B1E70D480660A8
:101C700022687D02AB0859468032206CFEF75AFD7F
:101C80004FF0FF308DE82104CDE90486CDF80C80BB
:101C90006946206800F06DFD002099E7DD2E000800
:101CA000012E00088C8525424FF0E02104280869A8
:101CB00003D020F004000861704740F00400FAE708
:101CC000704710B5401EB0F1807F01D3012010BDD8
:101CD0004FF0E02460610F21601700F039FD002013
:101CE000A06107202061002010BD10B5FFF7E8FFBC
:101CF00010BD7047704730B590F83820012A20D0C9
:101D0000012280F83820022380F8393003685C68AB
:101D100024F070045C6003685C680D682C435C60B0
:101D200003689C6824F080049C6003689C68496890
:101D30000C439C6080F83920002180F83810084658
:101D400030BD022030BD10B5040003D094F8390036
:101D500010B107E0012010BD002084F838002046B3
:101D600000F00CF8022084F83900211D206801F0F1
:101D700099FB012084F83900002010BD08B50068E7
:101D80000B49884212D10B48016841F00101016002
:101D90000068002200F00100009003211920FFF7E5
:101DA000BFF8BDE808401920FFF7AEB808BD000035
:101DB00000000140443802400168CA6842F0010254
:101DC000CA600068016841F00101016000207047AD
:101DD00070B5044690F83800012817D0012584F822
:101DE0003850022084F839002068826822F0770297
:101DF00022F47F4282600868502837D00DDC20280A
:101E000059D005DC88B3102841D151E0022070BDC3
:101E1000302853D040283AD13FE060282ED0702897
:101E20000BD0B0F5805F03D0B0F5005F2FD110E08C
:101E30002068816821F0070115E0CB68D1E9012114
:101E4000206801F08FFB2168886840F07700886087
:101E50001DE0CB68D1E90121206801F083FB2068F7
:101E6000816841F48041816011E01EE0CA684968E0
:101E7000206801F089FB5021206806E0CA684968A3
:101E8000206801F092FB6021206801F075FB84F866
:101E90003950002084F8380070BDCA68496820684D
:101EA00001F072FB40212068EFE700212068ECE799
:101EB00010212068E9E720212068E6E7302120682A
:101EC000E3E7704770B50446006801694FF000050C
:101ED000C943890715D4C168C943890711D4E91ECC
:101EE000016101202076206880698007204602D0A9
:101EF000FFF7E7FF04E000F098F8204600F096F8BE
:101F0000257620680169C943490717D4C168C943C8
:101F1000490713D46FF00401016102202076206884
:101F2000806910F4407F204602D0FFF7CAFF04E02A
:101F300000F07BF8204600F079F8257620680169EA
:101F4000C943090716D4C168C943090712D46FF001
:101F500008010161042020762068C06980072046BE
:101F600002D0FFF7AEFF04E000F05FF8204600F07B
:101F70005DF8257620680169C943C90617D4C16890
:101F8000C943C90613D46FF01001016108202076FF
:101F90002068C06910F4407F204602D0FFF791FF0F
:101FA00004E000F042F8204600F040F82576206872
:101FB0000169C943C90708D1C168C943C90704D128
:101FC000891E0161204600F033F820680169C94389
:101FD000090609D4C168C943090605D46FF0800118
:101FE00001612046FFF785FE20680169C943490663
:101FF00009D4C168C943490605D46FF040010161A5
:10200000204600F023F820680169C94389060BD4F3
:10201000C168C943890607D46FF0200101612046D9
:10202000BDE87040FFF766BE70BD704770470000A6
:1020300010B500680449884205D100F07FFABDE878
:10204000104001F033BD10BD00000140704770B575
:10205000040004D094F83900002510B106E00120F6
:1020600070BD84F83850204600F022F8242084F80F
:1020700039002068C16821F40051C160204601F098
:10208000A7FA2068016921F4904101612068416943
:1020900021F02A0141612068C16841F40051C1600A
:1020A000E563202084F8390084F83A00002070BDF0
:1020B00000B500680E4987B0884217D10D48016805
:1020C00041F0100101600068694600F010000590C1
:1020D0004FF4C06000900220019001200290032084
:1020E0000390072004900448FEF772FB07B000BD80
:1020F0000010014044380240000002402DE9F8433E
:10210000044690F839001F4616460D46202850D147
:10211000A5B19EB194F8380001284AD0012084F876
:1021200038004FF00008C4F83C80212084F83900C2
:10213000FEF726FCA6848146E68426E00120BDE861
:10214000F883E08C401EE084A0684B46B0F5805FC9
:102150004FF000024FF080012046009703D001F0BD
:102160008DFBE8B90DE001F089FBC8B9288821682A
:10217000C0F308004860206908B16D1C05E0AD1C83
:1021800003E0216815F8010B4860E08C0028D8D1E5
:102190004B46002240212046009701F06FFB08B11A
:1021A0000320CCE7202084F8390084F83880002010
:1021B000C5E70220C3E7FEE701684A69D24352053A
:1021C0000CD46FF480624A6104210164002140F85C
:1021D000301F202242730173012070470020704796
:1021E0002DE9F84F0446C06A1E4692460D46216806
:1021F0000A6842F480620A60042807D0012805D0EA
:1022000010F5803F02D0206B112804D120680168AE
:1022100041F4807101604FF001185346002241469D
:102220002046009600F0BDF8B8BB206908F101090E
:10223000B0F5804F12D00620216800EAD51747F08C
:10224000F00008613346524608F10701204600F0CD
:10225000D9F838B1206C04282FD01EE0E8B240F045
:1022600001001FE02168E8B2086133465246494642
:10227000204600F0C7F80028ECD120684169816948
:102280000091016841F4807101605346002241468B
:102290002046009600F085F810B10320BDE8F88FC5
:1022A00047F0F1002168086133465246494620460E
:1022B00000F0A8F80028CDD1F0E70120EEE70000FB
:1022C000F8B50446C06A1E460D461746042807D0D6
:1022D000012805D010F5803F02D0206B122804D1D0
:1022E0002068016841F480710160134600224FF0BC
:1022F00001112046009600F054F8A0B92069B0F50D
:10230000804F12D00620216800EAD51040F0F0007E
:10231000086133463A460E49204600F073F838B15A
:10232000206C042811D00320F8BD05F0FE0000E069
:10233000E8B221680861064933463A46891F2046BB
:1023400000F060F80028EBD1F8BD0120F8BD0000D6
:102350000800010070B516460D4604461AE02046F6
:10236000FFF72AFF08B1012070BD681C12D025B10B
:10237000FEF706FB801BA8420CD954F8400F40F032
:10238000200044F810090020206020216173207390
:10239000032070BD20684069C0434007DFD400209F
:1023A00070BD2DE9F0471E4690460D460446C1F328
:1023B0000747DDF8209012E0701C10D02EB1FEF718
:1023C000DFFAA0EB0900B04209D9002044F8300F31
:1023D00020216173A07320730320BDE8F08720687B
:1023E000012F0AD0806925EA00000004000C06D005
:1023F00000214145E0D00020EFE74069F3E70121EB
:10240000F7E700002DE9F0479A4691460D4604464D
:1024100000264FF02008C1F307472AE020684069F2
:10242000C043400512D42068016841F40071016086
:1024300021686FF48060486104202064266384F87A
:102440003D8084F83C600120BDE8F087B9F1FF3F92
:102450000FD0B9F1000F05D0FEF792FAA0EB0A01F8
:10246000494506D944F8306F84F80D80267303205F
:10247000EAE72068012F07D0D0F8180025EA00000D
:102480000004000CE0D0C9E74069F7E72DE9F0410E
:10249000002590460E460446202721E04069C043AF
:1024A000C0060CD421686FF01000486125642563D4
:1024B00084F83D7084F83C500120BDE8F0812EB1D5
:1024C000FEF75EFAA0EB0800B04209D954F8400FBD
:1024D00040F0200044F80409677025700320ECE701
:1024E00020684169C9434906D8D40020E5E770B5A2
:1024F00016460D4604461AE02046FFF75DFE08B179
:10250000012070BD681C12D025B1FEF739FA801B7E
:10251000A8420CD954F8400F40F0200044F81009AC
:1025200000202060202161732073032070BD20688B
:102530004069C0430006DFD4002070BDFEB5264CC4
:102540003B200A26207001232246D02123480096F2
:10255000FEF794FB002767700623621CD0211F48FA
:102560000096FEF797FAB4F80100A4F1190540BAF5
:102570002880B4F80300012340BA6880B4F805004D
:10258000224640BAA88043202070D02113480096EC
:10259000FEF774FB67700623621CD0210F4800967B
:1025A000FEF778FA34F8010F40BA00B2E88061888B
:1025B00049BA09B22981A28852BA12B26A818DE859
:1025C0000700B5F90430B5F90220B5F9001004A0F0
:1025D00001F088F9FEBD0000190000206400002011
:1025E0002564200925642009256420092564200923
:1025F0002564200925640A00F8B5114C6B200026DB
:10260000207066700A2502232246D0210D480095CD
:10261000FEF734FB1B202070082060700223224646
:10262000D02108480095FEF729FB1C202070667019
:1026300002232246D02103480095FEF71FFBF8BD78
:10264000190000206400002010B504490448FDF77B
:1026500002FF0249491E087010BD00003900002029
:10266000B8580008154808B5016841F080010160BC
:10267000016801F080010091016841F004010160EE
:10268000016801F004010091016841F0010101605D
:10269000016801F001010091016841F00801016049
:1026A000016801F008010091016841F00201016038
:1026B000006800F00200009008BD000030380240C1
:1026C0000B4810B5094901600A49416000214FF4E7
:1026D00080428160C0E9031241618161C161016290
:1026E000FEF754F9002800D0FEE710BD005400406A
:1026F00064000020A086010010B5134886B011497F
:10270000016047210024C0E9011443F60951C0E9E2
:1027100003144461FFF717FB00B1FEE74FF480504C
:10272000009069460848FFF753FB00B1FEE70494A8
:1027300004A905480594FFF7DEFA002800D0FEE75B
:1027400006B010BD000001403C010020FEE77047CC
:102750000907090E002806DA00F00F0000F1E0205A
:1027600080F8141D704700F1E02080F800147047D5
:1027700070470A6842624A688262D1E902231A43BA
:10278000D1E904310B43C16A1A4321F0F701114327
:10279000C16200207047006800F00300704708B570
:1027A000084414300090006808BD00000148FEF79E
:1027B000BDBF0000B800002070B50DF1100C114332
:1027C0009CE870002343194329434268314347F68C
:1027D000FF639A430A434260002070BD03210160F9
:1027E00000207047D0F8800070470A688260D1E905
:1027F00001231A43D1E903310B43C1681A436FF334
:102800000B011143C160002070470968C0F88010B7
:102810000020704710B586B004463720CDE900107F
:1028200040200290002003904FF48060049069469D
:102830002046FFF7DAFF41F288323721204600F0C8
:10284000B7F906B010BD000010B504460A4886B0BE
:1028500001432920CDE90010402002900020039080
:102860004FF48060049069462046FFF7BEFF204683
:1028700000F054FA06B010BD0000108010B586B00C
:1028800004461020CDE90010402002900020039063
:102890004FF48060049069462046FFF7A6FF41F29E
:1028A00088321021204600F083F906B010BD10B523
:1028B00086B004460620CDE900104020029000209A
:1028C00003904FF48060049069462046FFF78DFF27
:1028D00041F288320621204600F06AF906B010BDA8
:1028E00030B585B000240546009401944FF4806013
:1028F0000294CDE9034069462846FFF776FF0B486E
:102900004FF4FA510068B0FBF1F041F288314843CE
:10291000401E03D24FF0004005B030BD696B090680
:10292000F6D540F2FF50A8632046F5E74C000020A2
:1029300070B585B004464FF4D5700090082040264D
:10294000CDE901060025C001CDE9035069462046C6
:10295000FFF74BFF0F484FF4FA510068B0FBF1F05E
:1029600041F288314843401E02D24FF000450DE04D
:10297000616B11F0450FF6D0606B400702D5A6637E
:10298000042503E0606B400600D5A66305B0284629
:1029900070BD00004C00002010B586B00446122027
:1029A000CDE9001040200290002003904FF4806099
:1029B000049069462046FFF718FF41F28832122141
:1029C000204600F0F5F806B010BD10B586B00446FC
:1029D0001120CDE9001040200290002003904FF418
:1029E0008060049069462046FFF7FFFE41F288327E
:1029F0001121204600F0DCF806B010BD10B586B0FD
:102A000004460720CDE900204020029000200390DA
:102A10004FF48060049069462046FFF7E6FE41F2DD
:102A200088320721204600F0C3F806B010BD10B56B
:102A300086B0044600210220CDE90010C020CDE977
:102A400002014FF48060049069462046FFF7CDFEF6
:102A5000204600F03BF906B010BD10B586B0044624
:102A60000920CDE90010C0200290002003904FF40F
:102A70008060049069462046FFF7B7FE204600F0CC
:102A800025F906B010BD10B586B0044600213320EC
:102A9000CDE900104020CDE9020100010490694613
:102AA0002046FFF7A2FE41F288323321204600F093
:102AB0007FF806B010BD10B586B004460D20CDE9F4
:102AC000001040200290002003904FF4806004909A
:102AD00069462046FFF789FE41F288320D212046E3
:102AE00000F066F806B010BD30B585B00C4605465E
:102AF00000210320CDE900104020CDE902010001B2
:102B0000049069462846FFF770FE224603212846B6
:102B100000F024F905B030BD10B586B004460021A0
:102B20000C20CDE900104020CDE902010001049005
:102B300069462046FFF759FE034A0C21204600F063
:102B400037F806B010BD000000E1F50510B586B0FD
:102B500004461920CDE90010402002900020039087
:102B60004FF48060049069462046FFF73EFE41F234
:102B700088321921204600F01BF806B010BD10B5B0
:102B800086B004461820CDE90010402002900020B5
:102B900003904FF48060049069462046FFF725FEBD
:102BA00041F288321821204600F002F806B010BD2C
:102BB000444B10B51B684FF4FA54B3FBF4F3534382
:102BC0005B1E02D24FF0004010BD426B12F0450F69
:102BD000F6D0426B520703D504218163084610BD2D
:102BE000426BD20702D00121816303E00269D2B2B5
:102BF0008A4201D0012010BD40F2FF5181630021C3
:102C0000FFF7CDFD3049084201D1002010BD00285A
:102C100002DA4FF0007010BD410001D5402010BD18
:102C2000810001D5802010BDC10002D54FF4807015
:102C300010BD010102D54FF4007010BD410102D555
:102C40004FF4806010BDC10102D54FF4006010BD8B
:102C5000010202D54FF4805010BD410202D54FF45D
:102C6000005010BD810202D54FF4804010BDC1025A
:102C700002D54FF4004010BD410302D54FF400309F
:102C800010BD810302D54FF4802010BDC10302D5D1
:102C90004FF4002010BD010402D54FF4801010BD88
:102CA000410402D54FF4001010BD810402D54FF449
:102CB000800010BD000702D54FF4000010BD4FF496
:102CC000803010BD4C00002008E0FFFD12494FF499
:102CD000FA520968B1FBF2F141F288325143491EC0
:102CE00002D24FF000407047426B12F0450FF6D011
:102CF000416B490703D50421816308467047416B46
:102D0000C90703D0012181630846704740F2FF5193
:102D100081630020704700004C0000200E494FF4F2
:102D2000FA520968B1FBF2F141F288325143491E6F
:102D300002D24FF000407047426B12F0450FF6D0C0
:102D4000416B490703D5042181630846704740F26F
:102D5000FF518163002070474C0000201F4B10B5CD
:102D60001B684FF4FA54B3FBF4F341F28834634325
:102D70005B1E02D24FF0004010BD446B14F0450FB3
:102D8000F6D0436B5B0703D504218163084610BD71
:102D9000436BDB0702D00121816303E00369DBB2EF
:102DA0008B4201D0012010BD40F2FF518163002110
:102DB000FFF7F5FC10F4604F04D0410406D54FF442
:102DC000005010BD000C1080002010BD000402D582
:102DD0004FF4805010BD4FF4803010BD4C000020E7
:102DE00010B5064C01202070FDF786FA18B920783E
:102DF00020F001002070207810BD00002C00002081
:102E000010B5846BE06B406D012803D0206C406DE1
:102E100001281CD1216840F2FF5088632068C16BF3
:102E200021F49D71C163A06B40F08040A0632046F7
:102E3000FEF766FC062801D0052805D12068FFF7BB
:102E40006BFEA16B0843A063012084F83400204688
:102E5000FEF756FB10BD10B5846B206B822809D19C
:102E60002068FFF759FE28B1A16B0143A1632046FA
:102E7000FEF746FB2068C16A21F00801C1622168A3
:102E800040F2FF508863012084F834002046FEF7AA
:102E900089FE10BD70B5846B0025E06B00B1E56361
:102EA000206C002816D12046FEF72AFCA5630121DC
:102EB00084F83410062801D005280BD12068FFF7CC
:102EC0002BFEA16B0843A063A06B0028204602D014
:102ED000FEF7D6FA70BDFEF713FB70BD806B00687D
:102EE000C16B41F48071C163704770B5846B00257C
:102EF000206C00B12564E06B002816D12046FEF757
:102F0000FFFBA563012184F83410062801D00528B1
:102F10000BD12068FFF700FEA16B0843A063A06BF4
:102F20000028204602D0FEF7ABFA70BDFEF7E8FAA3
:102F300070BD2DE9F04F89B00E460446FDF720FD27
:102F400000258346009501952F4608212068FFF74C
:102F500095FC002834D1B4F8500001042068FFF734
:102F600059FC00282CD1401E4FF00808CDE902087A
:102F700030204FF00209CDE904090120CDE90670A7
:102F800002A92068FFF7F5FB2068FFF77CFD002809
:102F900016D1EA4640F22A472068416B394212D1E5
:102FA000416B890204D5FFF71DFC4AF825006D1C12
:102FB000FDF7E6FCA0EB0B00401CEDD14FF000400C
:102FC00009B0BDE8F08F416B090703D5C0F8388020
:102FD0000820F5E7416B890703D5C0F83890022037
:102FE000EEE7416B890603D5202181630846E7E7B8
:102FF00040F2FF518163009800BA7060019800BAF6
:1030000030600020DCE710B590B004460120ADF838
:1030100038002068FFF7BFFB002864D0606C0328ED
:1030200042D02068FFF703FD00285AD10021206814
:10303000FFF7B5FB606704212068FFF7B0FBA067CE
:1030400008212068FFF7ABFBE0670C212068FFF741
:10305000A6FBC4F88000606C032825D00EA9206868
:10306000FFF742FD00283CD1606C03281CD0BDF85E
:103070003800206501042068FFF7EFFC002830D1FC
:1030800000212068FFF78BFB606604212068FFF7B2
:1030900086FBA06608212068FFF781FBE0660C2113
:1030A0002068FFF77CFB206704212068FFF777FB8F
:1030B000000DE06403A92046FEF723FAB4F850009F
:1030C000002302042068FFF799FC002809D104F1CD
:1030D000100007C88DE8070094E80F00FFF76CFBAD
:1030E000002010B010BD4FF08060FAE72DE9F843E2
:1030F0000025044600950068FFF7F2FB00281AD16E
:103100002068FFF715FC4FF080784FF6FF76D8B1B6
:103110004FF08057A5640098411C0091B0421AD02E
:1031200000212068FFF776FB20B900212068FFF717
:103130008BFB10B13846BDE8F88300212068FFF70B
:103140002EFBC00FE7D01FE00127A7640098411CA9
:103150000091B04201D14046EDE700212068FFF721
:1031600059FB0028E7D14FF080412068FFF76CFB46
:103170000028E0D100212068FFF711FBC10FE5D046
:10318000400001D5676400E065640020D3E71CB50A
:10319000044600200090019000212068FFF7FFFA0C
:1031A000800102D54FF400601CBD69462046FFF740
:1031B000C0FE0028F8D10198C0030CD5B4F8500027
:1031C00001042068FFF726FB0028EDD100212068CC
:1031D000FFF76DFB1CBD4FF080601CBD1CB50446A5
:1031E00000200090019000212068FFF7D8FA8001AC
:1031F00002D54FF400601CBD69462046FFF799FEDA
:103200000028F8D1019840030CD5B4F8500001040F
:103210002068FFF7FFFA0028EDD102212068FFF7B0
:1032200046FB1CBD4FF080601CBD0000014602A0A3
:1032300000F058FBFEE70000534420436172642015
:103240006572726F722025640A00000070B5064C2A
:10325000054601202070FDF75BF818B92846FFF7F6
:10326000BFFD2070207870BD2C00002010B51248E2
:1032700088B014460078C00702D0032008B010BD03
:10328000C1B1012905D0022908D003290CD004209E
:10329000F4E76846FDF72AF806980AE06846FDF765
:1032A00025F80798208005E06846FDF71FF8079885
:1032B000400A20600020E1E72C0000202DE9F041C9
:1032C000184C4FF00008164608460125C4F808803F
:1032D0001A463146FDF736F8F0B9FDF751FB0646C0
:1032E00047F23057A06820B9FDF74AFB801BB8426F
:1032F000F8D3A06828B1C4F80880FDF741FB044664
:1033000005E0012508E000BFFCF7F6FF38B1FDF746
:1033100037FB001BB842F7D32846BDE8F0810025F3
:10332000FAE700002C000020FFF75ABD2DE9F0411C
:10333000184C4FF00008164608460125C4F80480D2
:103340001A463146FDF712F8F0B9FDF719FB0646AB
:1033500047F23057606820B9FDF712FB801BB84276
:10336000F8D3606828B1C4F80480FDF709FB04466F
:1033700005E0012508E000BFFCF7BEFF38B1FDF70E
:10338000FFFA001BB842F7D32846BDE8F0810025BC
:10339000FAE700002C000020704710B5FDF730FD63
:1033A000BDE81040FEF7A1BC30B5244893B000241E
:1033B000016841F080510160006800F08050119078
:1033C0001F48016841F4804101600068022500F453
:1033D00080401190012003901020049000950695E4
:1033E0000820CDE907404820CDE9090503200B90CE
:1033F0006846FDF7B7FE00B1FEE70F20CDE90C05EA
:103400004FF48050CDE90E4002210CA81094FDF736
:10341000B9FD00B1FEE7FDF74DFE4FF47A71B0FB48
:10342000F1F0FEF74EFC0420FEF73EFC00221146B0
:10343000501EFDF775FD13B030BD0000403802404E
:10344000007000401048016841F4700101600F48AD
:10345000016841F0010101600C4A0021083211604D
:1034600002680B4B1A400260031D0A4A1A60026888
:1034700022F48022026005480C300160024958069F
:10348000803908607047000088ED00E00038024095
:10349000FFFFF6FE103000240148FEF713BD0000C8
:1034A0003C010020F0B50268234B244D244E254FEB
:1034B000254C4FF0804C984209D0604507D0A84277
:1034C00005D0B04203D0B84201D0A04204D122F0CE
:1034D000700E4A6842EA0E0298421BD0604519D02D
:1034E000A84217D0B04215D0B84213D0A04211D094
:1034F000164DA8420ED0164DA8420BD0154DA8422D
:1035000008D0154DA84205D0144DA84202D0144D44
:10351000A84203D122F44075CA682A4302608A682F
:10352000C2620A688262984201D0A04201D1096950
:10353000016301214161F0BD000001400004004031
:1035400000080040000C0040000401400040014021
:10355000004401400048014000180040001C0040A9
:103560000020004010B5846842EA032224F47F441E
:103570000A432243826010BD826822F070020A432F
:1035800042F007018160704710B5036A046A24F0B5
:1035900001040462846924F0F00444EA021423F074
:1035A0000A020A438461026210BD10B5036A23F067
:1035B000100303628369046A23F4704343EA02320E
:1035C00024F0A00343EA01118261016210BD0000F2
:1035D0002DE9F04104460068016921F44052E16898
:1035E000114301612168C86849F20C629043236964
:1035F000A268E5691A4363692B431A430243CA6010
:103600002168486920F44072A06910434861E1696B
:103610006425B1F5004F9748974A21684FF032086A
:103620003FD0914201D081427CD1FDF759FD00EBA2
:10363000C00101EB001061688900B0FBF1F6FDF7F5
:103640004FFD00EBC00101EB001061688900B0FB89
:10365000F1F0B0FBF5F06FF01801484306EB800184
:1036600008EB0110B0FBF5F000F0F006FDF738FDB7
:1036700000EBC00101EB001061688900B0FBF1F0C4
:10368000B0FBF5F006EB0016FDF72AFD00EBC001DC
:1036900001EB001061688900B0FBF1F7FDF720FD38
:1036A000D2E0914201D081423DD1FDF719FD00EBFE
:1036B000C00101EB001061684900B0FBF1F0B0FB04
:1036C000F5F00601FDF70CFD00EBC00101EB001069
:1036D00061684900B0FBF1F7FDF702FD00EBC001A6
:1036E00001EB001061684900B0FBF1F0B0FBF5F0B0
:1036F0006FF01801484307EB800108EBC100B0FBF5
:10370000F5F000F0F80006EB4006FDF7E9FC00EBF1
:10371000C00101EB001061684900B0FBF1F7FDF753
:10372000DFFC3CE055E0FDF7CBFC00EBC00101EB1A
:10373000001061684900B0FBF1F0B0FBF5F0060144
:10374000FDF7BEFC00EBC00101EB00106168490011
:10375000B0FBF1F7FDF7B4FC00EBC00101EB00108A
:1037600061684900B0FBF1F0B0FBF5F06FF01801B3
:10377000484307EB800108EBC100B0FBF5F000F017
:10378000F80006EB4006FDF79BFC00EBC00101EBE7
:10379000001061684900B0FBF1F7FDF791FC00EB08
:1037A000C00101EB001061684900B0FBF1F0B0FB13
:1037B000F5F06FF01801484307EB800108EBC100FA
:1037C000B0FBF5F000F00700216830448860BDE8E8
:1037D000F081FDF775FC00EBC00101EB00106168A2
:1037E0008900B0FBF1F6FDF76BFC00EBC00101EBCB
:1037F000001061688900B0FBF1F0B0FBF5F06FF0EC
:103800001801484306EB800108EB0110B0FBF5F00E
:1038100000F0F006FDF754FC00EBC00101EB0010D6
:1038200061688900B0FBF1F0B0FBF5F006EB001623
:10383000FDF746FC00EBC00101EB00106168890058
:10384000B0FBF1F7FDF73CFC00EBC00101EB001011
:1038500061688900B0FBF1F0B0FBF5F06FF0180182
:10386000484307EB800108EB0110B0FBF5F000F0D6
:103870000F00A9E700140140001001402DE9F041BC
:10388000984617460E460446069D1DE0681C1BD050
:103890002DB1FDF775F8A0EB0800A84214D92068F7
:1038A000C16821F4D071C1602068416921F0010133
:1038B0004161202084F8390084F83A00002084F81F
:1038C00038000320BDE8F0812068006836EA000077
:1038D00004D00020B842D9D00020F3E70120F9E756
:1038E000FEE7FEE70FB4054B10B503A9044A0298A2
:1038F00000F02CF810BC5DF814FB000065510008C6
:10390000580000200FB4084B10B504A902AA039870
:1039100000F01CF8044602A9002000F0C1F820467F
:1039200010BC5DF814FB0000A13A000802E008C8D2
:10393000121F08C1002AFAD170477047002001E029
:1039400001C1121F002AFBD1704700002DE9FF4F73
:1039500089B09B460446002506E025280BD05A4630
:103960000B999047641C6D1C20780028F5D10DB090
:103970002846BDE8F08F0027B8460122474900E0FD
:10398000074314F8013F203B02FA03F00842F7D145
:1039900020782E2819D114F8010F47F004072A289F
:1039A0000ED06FF02F022078A0F1300109290CD839
:1039B00008EB880102EB410100EB0108641CF2E70F
:1039C0000A98641C50F8048B0A9020780028CED006
:1039D000642808D0692806D075281ED05A460B994D
:1039E00090476D1C58E00A994FF00A0901C90A91E5
:1039F000002802DA40422D2102E0390504D52B21AE
:103A00008DF82010012103E0F90704D02021F7E709
:103A10008A4608AE0DE00021FAE70A994FF00A093C
:103A200001C90A91F7E74946FCF717FC303106F85F
:103A3000011D0028F7D1ADEB060000F12009780741
:103A400001D44FF00108C84502DDA8EB090000E0F1
:103A500000208046002706E008A85A46C05D0B9962
:103A600090476D1C7F1C5745F6DB04E030205A461A
:103A70000B9990476D1CB8F10001A8F10108F5DC25
:103A800005E016F8010B5A460B9990476D1CB9F1E9
:103A90000001A9F10109F4DC641C65E709280100B3
:103AA0000A68531C0B601070704700001FB5174C5C
:103AB00012221748E16800F08DFE08B1022022E0D2
:103AC0001348C16800F050FD08B105201BE0B4F9AF
:103AD0000400B4F90A30B4F90820B4F906108DE8EE
:103AE0000F00B4F90230B4F900200AA1084800F030
:103AF0007BFF002801DA032005E0054800F020FDE7
:103B0000002802D00420FFF791FB1FBD0000002019
:103B1000EC03002025642009256420092564200980
:103B2000256420092564200925640A0010B504468F
:103B30000020E070401E2063204601F010FD08B117
:103B4000042010BD04F2322001F068FCA0F52A41E7
:103B5000553901D0032010BD94F83400E92805D070
:103B6000EB2814D194F83600902810D104F16A00A3
:103B700001F049FC0749B1EB002F06D004F18600A3
:103B800001F041FC0449884201D1002010BD02200F
:103B900010BD0000004641544641543300E0401C33
:103BA00002780AB18A42FAD1D0B27047F0B5002249
:103BB000144D134605EB021426685EB10768BE4239
:103BC00009D166688768BE4205D1A4684669B442D7
:103BD00004D000E00123521C022AEBD3022A01D0B8
:103BE00069B904E04BB9022907D01220F0BD05EBFA
:103BF00002108089B0F5807F01D00020F0BD102038
:103C0000F0BD0000DC06002030B50021054B0C465D
:103C100003EB01121568854200D11460491C02298A
:103C2000F6D330BDDC0600200268490AC06A52891A
:103C3000B1FBF2F1001D04C81AB1914203D3891AF5
:103C4000F8E7002070470068084470478269891EC1
:103C5000921E8A4201D800207047C26A408901FB47
:103C6000002070472DE9F05F82460C4601F11A00F2
:103C700001F0D4FB78BB2078012700F03F00401E04
:103C800000EB8001DFF8589001EBC00500264FF6ED
:103C9000FF7B00BF19F80600204401F0BFFB8046FF
:103CA0006FB1FF2D17D201F0B9F807463AF81500A9
:103CB0006D1C01F0B3F887420DD1474601E0D845AD
:103CC00009D1761C0D2EE5D32078400606D52FB1FC
:103CD0003AF8150010B10020BDE8F09F0120FBE785
:103CE0009A0102082DE9F04105680F00804606D0D0
:103CF00001F0B6FA022809D20120BDE8F0812E6950
:103D000016B1A869B04207D8012605E0411CF4D0DD
:103D1000A9698142F1D83E463446A869641CA04294
:103D200002D80224022E0AD32146404601F098FA16
:103D300038B10128E1D0411CDFD0B442EDD10020E0
:103D4000DBE74FF0FF3632462146284601F020FCE3
:103D500030B957B122463946284601F019FC20B146
:103D600001280FD001242046C7E72C61D5E90501C1
:103D7000891E884201D8401E6861287940F0010000
:103D80002871F0E73446EEE72DE9F84F82460068E7
:103D90000F680024C66888462546785D6D1C20287B
:103DA0002AD32F2823D05C2821D0FF2C49D2A0F180
:103DB00081017D290BD8795D6D1C01EB0020A1F1FB
:103DC000400280B23F2A02D3A1395E2939D20121B3
:103DD00000F0FEFF5FEA000933D0B9F1800F12D284
:103DE000014675A0FFF7DAFE58BB0CE06D1C795D4B
:103DF0002F29FBD05C29F9D07A19C8F80020202897
:103E000005D204250FE026F81490641CC5E70025B0
:103E100009E000BF06EB440030F8020C202801D076
:103E20002E2802D1641E002CF4D1002026F81400A4
:103E30003CB10B2220210AF1240001F089FB00276C
:103E400003E00620BDE8F88F7F1C36F81700202815
:103E5000FAD02E28F8D01FB145F0030500E0641E0B
:103E60002CB106EB440030F8020C2E28F7D14FF0AD
:103E700000094FF0080BCDF8009000BF36F817008E
:103E800007F101075FEA000824D0B8F1200F04D041
:103E9000B8F12E0F04D1A74202D045F00305EDE79B
:103EA0000098584501D2A74219D1BBF10B0F0FD092
:103EB000A74201D045F003050CD84FF00800009050
:103EC0004FEA896027464FF00B0B4FEA1069D5E7A0
:103ED00045F003059AF82400E52849D04BE0404618
:103EE000B8F1800F07D300F099FF002100F070FFB8
:103EF000804645F00205B8F1FF0F13D90099ABF1E8
:103F00000100814204D345F00305CDF800B0B5E7C8
:103F10000AEB01004FEA182280F824200098401C88
:103F200000901CE0B8F1000F04D0014625A0FFF777
:103F300035FE20B14FF05F0845F003050FE0A8F112
:103F40004100192802D849F0020908E0A8F16100EF
:103F5000192804D8413049F001091FFA80F8009A65
:103F60000AEB020181F824800098401C009085E74C
:103F700005218AF82410BBF1080F03D14FEA8960AC
:103F80004FEA1069C9F38100032803D06FEA0901E1
:103F9000890701D145F00205A90709D409F00301F9
:103FA000012901D145F01005012801D145F008058E
:103FB0008AF82F50002045E7222A3A3C3E3F7C7F7A
:103FC000000000002B2C3B3D5B5D000010B5FCF7B2
:103FD0009FF908B1002024E0002213A1134800F04B
:103FE000CDFB134C28B101201BE000BF01F00EF9FE
:103FF000E06006220F48E16800F0ECFB0828F5D0ED
:1040000008B102200DE00CA10A4800F0EDFC0028E8
:1040100001DA032005E0074800F092FA002802D0F8
:104020000420FFF703F910BD00000000B8010020D4
:1040300000000020EC030020615809615909615A11
:1040400009675809675909675A0A0000401E022883
:1040500012D20A4901EB00118889B0F5807F05D0A2
:1040600008B1401E80B2888110B103E00020FAE759
:10407000002008600020704702207047DC06002006
:104080002DE9F04704460021D0F8009000F0CCF96B
:1040900000285BD1FF25471EA84627634846E169F3
:1040A00001F05DFA060050D1216A087850B1CA7A51
:1040B000E52802F03F02A2713FD0130704D50F2A72
:1040C0003BD105E0042640E00F2A01D0E5B120E015
:1040D00094F82F20520632D4420606D591F80D806E
:1040E00000F0BF00626905462263A84209D14A7BFD
:1040F000424506D1D9F80C00FFF7B4FD08B16D1E9A
:1041000000E0FF25EDB21AE0084601F042FB404511
:104110001BD094F82F00C0070FD1D4F8201004F161
:1041200024000B2211F8013B10F8015B5B1B521EAF
:1041300002D0002BF6D000E03BB1FF252763002121
:10414000204600F005F80600A8D03046BDE8F0870C
:104150002DE9F047054647690468C069894620375C
:1041600010B1B7F5001F02D30420BDE8F087F905B0
:1041700060D1401CE861A9694FF0000829B160894D
:10418000401E10EA572F05D054E02089B0EB571F8E
:104190001DD94FE0284601F063F8064601281BD9D7
:1041A000701C33D0A069B0423ED8B9F1000F0ED0D8
:1041B0002846A969FFF796FD06000BD0012E0BD00B
:1041C000701C23D0204601F035FBF8B906E0C5F895
:1041D0001C80C9E70720C8E70220C6E74FF4007239
:1041E000002104F1340001F0B3F94FF0000831462A
:1041F0002046FFF72BFD4FF0010920630DE000BFC3
:1042000084F80390204601F015FB08B10120ACE7CB
:10421000206B08F10108401C206361894145EFD8FB
:10422000216BA1EB0800206331462046AE61FFF709
:104230000DFDE861C7F30800204434306F61286247
:10424000002092E72DE9F04F0446D0F8009090F856
:104250002F0089B010F0A00F03D0062009B0BDE8F0
:10426000F08F0025D9F80C0000E06D1C30F8151017
:104270000029FAD104F124010C226846039101F0CF
:104280005DF99DF80B00C00719D0402084F82F007D
:10429000012633466946D9F80C20039800F070FFD8
:1042A0002046FFF7EDFE10B9761C642EF1D3642E84
:1042B0000FD00428D2D19DF80B0084F82F009DF870
:1042C0000B00800707D50D200C35B5FBF0F56D1CF4
:1042D00002E00720C2E7012500212046276800F000
:1042E000A3F888B900263846E16901F038F958B9D1
:1042F000206A0078E5280AD048B10026012120462E
:10430000FFF726FF0028EED0042812D012E0761C1A
:104310002846AE42F2D1451E059567D061696842D4
:1043200001EB4011204600F07FF85FEA000803D05F
:1043300076E00720804673E0039801F02AFA4FF6F2
:10434000FF7B07904846E16901F009F95FEA000840
:1043500066D1D9F80C0006900598D4F82080C0B238
:104360000490079988F80D100F2188F80B10002190
:1043700088F80C1008F11A0001F007FA0498DFF829
:10438000A4A0401E00EB800101EBC006002701E065
:104390005D4503D0069830F81650761C1AF80710C1
:1043A00001EB0800294601F0F0F905B95D467F1CD4
:1043B0000D2FEDD35D4505D0069830F8160008B1F5
:1043C000049803E0049840F04000049088F800004E
:1043D000012189F8031000212046FFF7B9FE5FEAAA
:1043E00000081DD10598401E0590ABD14846E169F3
:1043F00001F0B5F85FEA000812D120220021206AFE
:1044000001F0A6F80B22206A039901F097F894F8BE
:104410002F00216A00F018000873012089F80300BA
:1044200040461BE79A0102082DE9F04107680E4655
:104430000546B1F5001F36D2F00634D16E61AC6886
:1044400024B93878032805D3BC6A1CB178894FEAAF
:10445000402812E03889B0EB561F24D9B86A12E020
:10446000284600F0FDFE0446401C1AD0022C1AD348
:10447000B869A04217D9A6EB080646452146EFD2F7
:104480003846FFF7E3FBC5E9064060B100EB562074
:10449000E861C6F308003844343028620020BDE8E3
:1044A000F0810120FBE70220F9E70000084910B580
:1044B0000B5C002253B901220A540A1801EB800058
:1044C000127A40680168104688470246104610BDBF
:1044D000FC06002030B4054C231804EB80001B7A46
:1044E000406804691846A44630BC6047FC060020BA
:1044F00030B4054D2C1805EB8000247A406885689F
:104500002046AC4630BC6047FC060020044A111827
:1045100002EB8000097A40684268084610470000B4
:10452000FC06002030B4054D2C1805EB8000247AE1
:104530004068C5682046AC4630BC6047FC06002099
:1045400038B5044600F036FB00280CD169462046F9
:1045500001F099F9002806D12069FFF777FD0028BE
:1045600001D10021216038BD2DE9FE4F0D460446E2
:10457000694601F088F9070064D1677D002FFBD1FF
:10458000E06A4FF0020A4FF0010804F1300B0028F6
:104590006AD0691C29D0E068A84200D20546A5610E
:1045A000002D4FD02046691EFFF73EFB0146E0611B
:1045B0000098FFF74BFB002875D000996D1E4A89C3
:1045C000521E02EA55221518208BC005E9D0226A36
:1045D000AA42E6D0207D00063BD548780123594603
:1045E000FFF7A0FF00286ED12FE002C80191A1685B
:1045F00083460225F1B10026AD1C02918946204672
:10460000761C00F02DFE014601284CD9481C5AD0DA
:1046100009F101008142F1D00198854206D8CBF81A
:1046200000600BF10400029A04C083460098806980
:104630008842E0D8E06A05600198854203D80021ED
:10464000CBF8001097E0112795E0207D00F07F0067
:104650002075009801232A4640785946FFF748FF05
:10466000002830D1256286E0E068A84203D2217D8F
:10467000890700D405464FF00009A069C4F81890D6
:1046800005B3009949894E0270B1691EB1FBF6F27B
:10469000401EB0FBF6F18A4206D3711E8843A0612A
:1046A0002D1AE1690DE04FE0A16849B900212046CB
:1046B000FFF718FB0146012846D0481C55D0A160E1
:1046C000E161D9B927E050E0A069AD1B3044A06199
:1046D000207D8007204605D5FFF704FB010004D1AB
:1046E00000250DE000F0BCFD0146481C3DD001292D
:1046F0002AD900988069884226D9E161B542E3D879
:10470000A0692844A061E80505D00098FFF79EFA4B
:10471000D0B100EB5529E168A069884204D9E06076
:10472000217D41F040012175C00524D0226A4A450F
:1047300021D0207D000610D50098012359464078ED
:10474000FFF7F0FE88B904E084F815A00220BDE868
:10475000FE8F207D00F07F002075009801234A46DF
:1047600040785946FFF7C4FE18B184F8158001203F
:10477000EDE7C4F820903846E9E700002DE9F7415D
:1047800081B0904602980090684600F0CAFD04008F
:1047900003D50B2004B0BDE8F0810D4E002756F87C
:1047A00024501DB12846FFF72FFA2F7001980028DA
:1047B00000D0077046F8240002D0B8F1010F01D0F4
:1047C0000020E7E7002201A902A800F067FBE1E76B
:1047D000540000202DE9F743ADF5147D05000BD002
:1047E00002F03F063246694695A800F057FB0400E8
:1047F0004FF0000805D0EFE009200DF5177DBDE86A
:10480000F083009810A90190C16001A8959900F06B
:104810006FFC04000ED19DF83300000601D506247C
:1048200008E0700801D0012100E0002101A8FFF795
:10483000BDF9044616F01C0F5DD04FF00109C4B15C
:10484000042C10D10020674902E0401C022804D249
:1048500001EB00121268002AF7D1022807D001A844
:10486000FFF7F0FC044646F008065CB1B4E0122401
:10487000B2E09DF80A0010F0110F47D1700701D582
:104880000824A9E0300747D500F049FD07460998FC
:1048900039460E3000F071FF09983946163000F0A5
:1048A0006CFF09992020C8720999009800F098FDC2
:1048B000074600220999009800F04BFF0998002153
:1048C0001C3000F05AFF009981F8039017B3D1F81B
:1048D00030900022394601A800F001FF04007BD18E
:1048E0004946009800F03BFE04000098A7F101073C
:1048F00007610DD070E0ECBB9DF80A00C10601D540
:10490000042469E0B10703D5C00701D0072463E0A0
:10491000300701D546F040060098006B68620998A0
:10492000A862700801D0012100E0002101A800F078
:1049300017FD2861B8B30999009800F051FDA860EF
:1049400009981C3000F05FFDC5F82C80E8600099E4
:104950002960009905F130004FF40072C988A980E0
:104960002E7585F81580C5F8208000218146C5F890
:10497000188000E030E000F0EBFDB0062ED5EE68C8
:1049800066B3AE610098A968408947020FE02846E7
:1049900000F066FC0146012800D80224481C03D020
:1049A000F61B24B105E01BE00124F61B01E0BE422A
:1049B000EDD8E96184B9F00510D00098FFF746F909
:1049C00070B100EB56222A620098012349464078D4
:1049D000FFF78EFD10B10124C5F8008020460CE7DA
:1049E0000224F9E7DC0600200FB42DE9F0479CB063
:1049F0000DF198090090002001900DF14C080290F3
:104A0000259810F8011B2590002976D0252903D080
:104A1000684600F032FEF3E7002510F8011B2E4631
:104A20002590302902D02D2902D010E0012500E088
:104A3000022510F8011B259009E000BF06EB860057
:104A400001EB40062598303E10F8011B2590A1F19E
:104A500030000928F2D96C2901D04C2905D12598BC
:104A600045F0040510F8011B2590002945D0A1F15F
:104A700061000A46192801D8203AD2B24F2A42D002
:104A800006DC422A3DD0432A38D0442AC0D13CE03B
:104A9000532A0DD0552A38D0582AB9D11023680787
:104AA00001D4442A33D059F8040B442A31D035E0DC
:104AB00059F8047B002400E0641C385D0028FBD119
:104AC000A80704D50CE02021684600F0D6FD20465A
:104AD000641CB042F7D303E068467F1C00F0CDFDB4
:104AE00039780029F8D103E02021684600F0C5FD9F
:104AF0002046641CB04283D2F6E753E019F8041B49
:104B000086E70223CBE70823C9E70A23C7E759F85A
:104B1000040B002802DA404245F00805002447460D
:104B2000B0FBF3F203FB1202B0FBF3F0D2B2092A9E
:104B300005D9782914D04FF0070C6244D2B2303234
:104B40003A55641C08B1202CEAD3280703D52D2040
:104B500008F80400641C2746E80704D0302003E06E
:104B60004FF0270CE9E72020824603E051466846D3
:104B700000F083FDA80703D438467F1CB042F5D36C
:104B80004546641E6846295D00F077FD002CF8D18B
:104B900003E05146684600F070FD38467F1CB04285
:104BA000A9D2F6E7684600F085FD1CB0BDE8F00725
:104BB0005DF814FBF8B50446694600F064FE002871
:104BC0000ED1217D4A060BD508060ED50098226A23
:104BD0000123407804F13001FFF7A4FC08B1012063
:104BE000F8BD207D00F07F00207500F098FB0646A0
:104BF000616A009800F0B3FC0028F1D1A56A29464B
:104C0000E87A40F02000E872A268206800F0A1FD78
:104C100005F11C00E16800F0B0FD314605F1160019
:104C200000F0ABFD002105F1120000F0AEFD009890
:104C30000121C17000F0BAFD217D01F0BF01217595
:104C4000F8BD2DE9FE4F04460020884618609946BD
:104C5000154602A9204600F016FE002806D1607D08
:104C6000002803D1207D800702D40720BDE8FE8FF5
:104C7000A069012742194FF0020A04F1300B824269
:104C800000D2C5439BE0A169C80575D1029840894F
:104C9000401E10EA512618D129B1E06A38B12046E9
:104CA000FEF7C2FF07E0A06838B9002100E0E16923
:104CB0002046FFF717F800287DD001282DD0411C91
:104CC00054D0E061A16801B9A060207D00060BD539
:104CD0000298226A012340785946FFF723FCA0BBC3
:104CE000207D00F07F002075E1690298FEF7AEFF9D
:104CF00098B130440190680A009027D03218029889
:104D000041898A4201D9891B0091DDE9003240784E
:104D10004146FFF707FCC0B903E084F815A0022064
:104D2000A4E7216A0198081A009988420AD208EB80
:104D300040214FF40072584600F000FC207D00F046
:104D40007F0020750098460228E00FE0216A019854
:104D500081420FD0E168A06988420BD202980123FA
:104D600059464078019AFFF7C3FB18B167750120D7
:104D70007CE701E001982062208BC0F30800C0F5B9
:104D80000076AE4200D92E462044324641463030AD
:104D900000F0D4FB207D40F080002075A069B04475
:104DA0003044A061E168884200D80846E060D9F844
:104DB0000000811900E005E0AD1BC9F80010002DCE
:104DC0007FF461AF207D40F04000207500204DE76A
:104DD00070B580281BD343F2BF4309B10D4D00E0ED
:104DE0000D4D002110245A1A02EBD27201EB62021F
:104DF00035F82260864206D001D2114600E0134603
:104E0000641EF0D104E01CB105EB8200408870BD47
:104E1000002070BDEC2B0108EC58000830B5B0F54F
:104E2000805F01D21B4900E01B4931F8022B002AA8
:104E300015D0904213D331F8024B230AE5B252FA4F
:104E400084F4844221D9092B09D2DFE803F0050953
:104E50000E11131517191B00801A31F8100030BD00
:104E6000811A01F00101401A00E0103880B230BD13
:104E70002038FBE73038F9E71A38F7E70830F5E76C
:104E80005038F3E7A0F5E350F0E7002BCDD101EB6C
:104E90004501CAE7ECFE0108DE0002082DE9FF41EA
:104EA000002790460E460F6000F03BFA050003D540
:104EB0000B2004B0BDE8F0818A4850F825409CB131
:104EC0003460207808F0FE0620B16078FFF71EFB02
:104ED000C1070BD02770E8B2B8466070FFF7E6FA5A
:104EE000C10708D00320E4E70C20E2E70EB1400739
:104EF00004D40020DDE71EB1400701D50A20D8E721
:104F0000002631462046FEF711FE022822D1002558
:104F10004FEA0D0704EB051090F8F61100F5F97053
:104F200019B1083000F06FFA00E0002047F82500C2
:104F30006D1C042DEED3002557F8256036B131469F
:104F40002046FEF7F3FD022801D203E003206D1C8A
:104F5000042DF1D3042809D002286DD204F13F00BA
:104F600000F05CFAB0F5007F66D101E00120A0E717
:104F700004F14A0000F052FA18B904F1580000F0A8
:104F800042FAE06194F84450A570012D01D0022D41
:104F900052D1454394F841006081E8B3411E084274
:104FA0004AD104F1450000F039FA2081000743D1CD
:104FB00004F1470000F032FA070004D104F1540074
:104FC00000F021FA074604F1420000F027FA010040
:104FD00032D02389481900EB131297422CD3B81A08
:104FE0006789B0FBF7F0B8B103274FF6F57C604551
:104FF00000D8022740F6F57C604500D80127801CC8
:105000003244E2623144A061C4E90861032F15D043
:1050100013B12944A16200E00EE0022F1FD000F07E
:10502000010100EB400001EB500000BFE16900F21C
:10503000FF10B1EB502F14D20D203AE704F15E00BF
:1050400000F0ECF90028F7D120890028F4D104F110
:10505000600000F0D8F9A062A0698000E6E7400097
:10506000E4E74FF0FF306061206180202071032F62
:105070002CD104F1640000F0D1F9012826D1711C73
:10508000204600F06CFA08BB84F8048004F2322059
:1050900000F0C4F9A0F52A41553917D104F13400C4
:1050A00000F0B1F91049884210D104F5067000F003
:1050B000AAF90E49884209D104F5077000F0A3F956
:1050C000606104F5087000F09EF9206105492770C1
:1050D000091F0888401C0880E0802046FEF794FDE8
:1050E00007E7000054000020525261417272416192
:1050F00073B504460568019801E0401C01900178F1
:105100002F29FAD05C29F8D00021A16001980078FD
:10511000202806D2802084F82F002046FFF784F94B
:105120007CBD01A92046FEF72FFE0028F8D12046BD
:10513000FEF7A6FF94F82F1028B10428F0D14907F4
:10514000EED405207CBD4907FCD4A079C006F8D573
:10515000A08AC0F3080041192846343100F040F914
:10516000A060DEE738B504468DF800000223012276
:1051700069460248FCF7C2FF204638BD780100208E
:105180007CB516461C4605460B2200F0D7F9052CC7
:1051900011D91D4A0CE00021B61C2346044663F3D6
:1051A0005F044008E30300D55440491C1029F4D3A0
:1051B00030880028EFD107214FEA0D0304F00F00DB
:1051C0003030392800D9C01D5854491E2409F5D162
:1051D0007E20002258544C1E06E081387D2802D8DB
:1051E000A24206D0521C521C8A4202D2A85C20283D
:1051F000F3D1082902D2585C491C00E02020A854B1
:10520000521C082AF5D37CBD211001003EB512487E
:10521000FBF713F8044610480D38FBF70EF820444E
:10522000801C00F055F904460B49FBF70DF80A48BD
:105230000AA121380269521C02616846FEF762FB2E
:1052400069462046FAF7EDFF034920460D39FAF783
:10525000E8FF20463EBD000021000020256400003C
:105260002DE9F04104680D4602290BD3A069A8423C
:1052700008D920784FF0FF36012807D002282BD01C
:10528000032839D001263046BDE8F081606A05EB7D
:10529000550700EB5721204600F061F90028F2D1B4
:1052A000C7F3080020447F1C90F83480606A00EB4C
:1052B0005721204600F053F90028E4D1C7F3080035
:1052C000204490F8341048EA0120E90701D006098B
:1052D000D9E7C0F30B06D6E7606A00EB152120463C
:1052E00000F03DF90028CED1E8B204EB40003430A4
:1052F00000F094F80646C6E7606A00EBD511204638
:1053000000F02DF90028BED140F2FF1000EA850020
:105310002044343000F077F820F07046B3E70020E6
:10532000704710B504464FF0FF302268002A13D0B2
:10533000114600E0491C0B78202B0ED33A2BF9D1F3
:1053400012F8013B303B0A2B06D28A4204D1002BD3
:1053500002D1491C1846216010BD002010BD00007C
:10536000F0B502461D4BD2F80050002003EB0014AC
:105370002668AE4207D166689768BE4203D1A4682A
:105380005669B44202D0401C0228EFD3022814D13F
:10539000002002E0401C022804D203EB0014246821
:1053A000002CF7D102280ED003EB0014256095687D
:1053B00065605269A2600022A281002903EB0011FE
:1053C000898902D019B10020F0BD491C01E04FF4D9
:1053D000807103EB0012401C9181F0BDDC060020BF
:1053E00070B506460D4601F11A0000F017F80446A4
:1053F0003078032805D105F1140000F00FF844EAD5
:105400000044204670BDC178827842EA012142788A
:10541000007842EA012140EA012070474178007893
:1054200040EA01207047000008B5FBF7F1FCFDF7EA
:10543000BBFFFDF717F922480024016841F4800101
:1054400001600068224600F48000009002213B20A9
:10545000FBF766FD3B20FBF757FD002202214520AC
:10546000FBF75EFD4520FBF74FFDFDF745F9FDF726
:1054700027F91548134901604FF4E131C0E90114DF
:105480000C21C460C0E904418461C461FCF7DFFD04
:1054900000B1FEE70C480D49C038C0E90014846033
:1054A000C460046144618461FDF7CEF8FEF78EFDAF
:1054B000FDF7A2F804483C38FCF77EFCFEE700004C
:1054C000303802400010014078010020002C0140DB
:1054D000F0B50B30154D20F007010024144A0FE001
:1054E00003688B420BD38B4205D95E1A4318476879
:1054F000C3E9006700E04368136002C004E0021DD6
:1055000010680028ECD12046002802D1286808B194
:105510000020F0BD064A07481060074A121A22F020
:105520000702C0E9002401202860D7E760000020BE
:105530005C0000200C07002008090020002A05D08C
:1055400011F8013B00F8013B521EF9D170470000F1
:105550005FFA81F100F8011B521EFBD1704770B554
:105560000446006B0D460026A8420FD0204600F0EE
:1055700061F906000AD1607801232A4604F134015A
:10558000FEF7B6FF08B1751E01262563304670BDD3
:105590002DE9F047022617460D460446022969D335
:1055A000A069A84266D920784FF00109012804D0EB
:1055B000022836D003285DD143E0616A05EB550827
:1055C00001EB58212046FFF7CAFF060052D1C8F36D
:1055D00008002044343008F10108E90704D00178BC
:1055E000FAB262F31F1100E03946017084F80390AB
:1055F000616A204601EB5821FFF7B1FF060039D15F
:10560000C8F3080020443430E90702D0C7F307117B
:1056100005E00178C7F3032201F0F00111430170A6
:1056200026E0606A00EB15212046FFF798FF060090
:1056300020D1E8B204EB4000B9B2343000F0A5F854
:1056400016E0606A00EBD5112046FFF788FF0600E0
:1056500010D140F2FF1000EA8500204434300546A6
:10566000FFF7D1FE67F31B000146284600F085F8DE
:1056700084F803903046BDE8F08738B545680446A5
:10568000002D16DB60196D1C01733D2D0DDB6B4683
:105690002A4604F10C012068FFF7D3FA0098A842CB
:1056A00001D1002501E04FF0FF356560A068401C86
:1056B000A06038BD38B542680446002A0CDB6B4652
:1056C00004F10C012068FFF7BCFA28B96068009962
:1056D000884201D1A06838BD4FF0FF3038BD2DE9B8
:1056E000F041056813460E46074602292DD3A869E6
:1056F000B0422AD93BB14FF0FF3219462846FFF796
:1057000047FF00281FD131463846FFF7A9FD0400A6
:1057100018D0012C19D0601C19D00022314628461F
:10572000FFF736FF00280ED1D5E90510821E914201
:1057300005D2491C6961297941F001012971264688
:10574000B042E0D80020BDE8F0810220FBE7012054
:10575000F9E770B50C460646154691B204F11A00F9
:1057600000F013F83078032806D1290C04F1140056
:10577000BDE8704000F009B870BD0170090A4170C1
:10578000090A8170090AC17070470170090A4170E5
:105790007047014600200B22430803EBC01011F8AC
:1057A000013B521E1844C0B2F6D1704770B5044692
:1057B00000F040F8050036D1207803282CD120795C
:1057C000012829D1420204F1340000210646FFF7E6
:1057D000BFFE4AF6552104F23220FFF7D6FF1349E7
:1057E0003046FFF7CAFF124904F50670FFF7C5FF00
:1057F00004F507706169FFF7C0FF04F508702169BF
:10580000FFF7BBFF226A0123521C226360783146F6
:10581000FEF788FE00202071002260781146FEF716
:1058200059FE00B10125284670BD00005252614169
:10583000727241612DE9F0410446C0780027F8B149
:10584000256B04F13401607801232A468846FEF76F
:1058500069FE08B1012713E00020E070606AE16989
:10586000281A88420CD2A67808E0E0690123054492
:1058700060782A464146FEF755FE761E022EF4D287
:105880003846BDE8F08170B50D4604000CD02068A4
:1058900050B1017841B1C188A288914204D14078C9
:1058A000FEF734FEC00703D000202860092070BD39
:1058B00020682860002070BD4D32000829330008A0
:1058C000BD3200082D3300086D32000800061016A6
:1058D0000006101600000000000000000102030492
:1058E000060708090000000001020304A700B1A197
:1058F000AF00C2A1B00058A2B100D3A1B70050A11F
:10590000D700D1A1F700D2A1C702BEA3C902BCA390
:10591000CA02BDA3CB02BFA3CD02C5A1D902BBA3BE
:10592000910344A3920345A3930346A3940347A37F
:10593000950348A3960349A397034AA398034BA34F
:1059400099034CA39A034DA39B034EA39C034FA31F
:105950009D0350A39E0351A39F0352A3A00353A3EF
:10596000A10354A3A30355A3A40356A3A50357A3BC
:10597000A60358A3A70359A3A8035AA3A9035BA38B
:10598000B1035CA3B2035DA3B3035EA3B4035FA33F
:10599000B50360A3B60361A3B70362A3B80363A30F
:1059A000B90364A3BA0365A3BB0366A3BC0367A3DF
:1059B000BD0368A3BE0369A3BF036AA3C0036BA3AF
:1059C000C1036CA3C3036DA3C4036EA3C5036FA37C
:1059D000C60370A3C70371A3C80372A3C90373A34B
:1059E000132056A1142058A11820A5A11920A6A162
:1059F0001C20A7A11D20A8A125204CA126204BA139
:105A0000272045A13220ACA13520ABA13B20B0A17D
:105A1000AC20E1A303214AA20521C1A109214BA287
:105A20006021B9A26121BAA26221BBA26321BCA2FA
:105A30006421BDA26521BEA26621BFA26721C0A2CA
:105A40006821C1A26921C2A29021F6A19121F4A1ED
:105A50009221F7A19321F5A19621F8A19721F9A10F
:105A60009821FBA19921FAA1152241A21A22D4A1C1
:105A70001E22DBA11F22E8A12022E7A12322FDA1F3
:105A80002522FCA12922E4A12A22E5A12B22ECA1B6
:105A90002E22EDA13422EFA13522EEA15222DCA16B
:105AA0006022DAA16122DDA16622D8A16722D9A1F4
:105AB0009522F2A19922F3A1A522E6A1BF22E9A194
:105AC000002577A2022578A20C257AA210257BA2B8
:105AD00014257CA218257DA21C2575A2242574A25C
