:020000040800F2
:10000000480500209D010008431500083F15000821
:10001000411500088502000849170008000000008B
:10002000000000000000000000000000671500084C
:100030009D03000800000000651500086915000810
:10004000B7010008B7010008B7010008B7010008B0
:10005000B7010008B7010008B7010008B7010008A0
:10006000B7010008B7010008B7010008B701000890
:10007000B7010008B7010008B7010008B701000880
:10008000ED020008B7010008B7010008B701000839
:10009000B7010008B7010008B7010008B701000860
:1000A000B7010008B7010008B7010008B701000850
:1000B000B7010008B7010008B7010008B701000840
:1000C000B7010008B7010008B7010008B701000830
:1000D000B7010008B7010008B7010008B701000820
:1000E000B7010008B7010008B7010008B701000810
:1000F000B7010008B7010008B7010008B701000800
:10010000B7010008B7010008B7010008B7010008EF
:10011000B7010008B70100086D160008B701000814
:10012000B7010008B7010008B7010008B7010008CF
:10013000B7010008B7010008B7010008B7010008BF
:10014000B7010008B7010008B7010008B7010008AF
:10015000B7010008B7010008B7010008B70100089F
:10016000B7010008B7010008B7010008B70100088F
:10017000B7010008B7010008B7010008000000003F
:10018000B7010008B7010008DFF80CD000F068F8EC
:10019000004800476D1700084805002006488047C2
:1001A00006480047FEE7FEE7FEE7FEE7FEE7FEE75C
:1001B000FEE7FEE7FEE7FEE71916000889010008E2
:1001C0002DE9F05F0546002092469B46884606468C
:1001D000814640241BE0284641464746224600F01F
:1001E0002FF853465A46C01A914110D3114618466B
:1001F000224600F016F82D1A67EB01084F462246FA
:100200000120002100F00DF817EB00094E41201EDF
:10021000A4F10104DFDC484631462A464346BDE8E6
:10022000F09F202A04DB203A00FA02F100207047F8
:100230009140C2F1200320FA03F319439040704724
:10024000202A04DB203A21FA02F00021704721FA2B
:1002500002F3D040C2F12002914008431946704792
:10026000064C074D06E0E06840F0010394E8070003
:1002700098471034AC42F6D3FFF78AFFB418000851
:10028000D4180008FEE710B5846B204600F0ACF8E7
:100290000120207110BD10B5846B204600F07FF85E
:1002A0000120207110BD10B5846B206940F004005E
:1002B0002061204600F0B6F80120207110BD10B575
:1002C000846B206940F004002061204600F06AF849
:1002D0000120207110BD10B5806B00F0A1F810BD99
:1002E00010B5806B00F05CF810BD0000014800F014
:1002F0004FBA0000E400002001681823CAB2103A87
:10030000B2FBF3F2054B6FF30901032A9B5CC36553
:1003100000D9091D81650846704700009C18000837
:1003200010B5014600208B698A6A4FF0C07453B142
:10033000B3F5005F15D072B1012A0CD0022A0AD0A1
:10034000032A09D104E01AB1012A06D0022A03D1F6
:10035000C96AC90100D5012010BDC96AA142FAD0FD
:1003600010BD002AF7D0012AF2D0022AF3D0032AC6
:10037000F3D010BD30B50468256825F480252560CC
:10038000046863608368402B036803D09960006849
:10039000C26030BD9A600068C16030BD7047704770
:1003A00070477047704770B54379012B1AD001260A
:1003B00046710223037105682C6840F6FE73934072
:1003C0009C43D1E900310B43934023432B600168E8
:1003D0000B68C0249440A3430B6006710021417157
:1003E000084670BD022070BD38B50446002100F0FB
:1003F0006BF90A4A4FF020031188491C1180C80785
:100400004FF00001009101D0423201E0034A921CFA
:100410000021204600F0D8F838BD00000000002080
:1004200070477047704770B504460068416B4FF0E5
:10043000040589040ED52571216941F0010121616E
:10044000E90241632068016821F48051016020467F
:10045000FFF7E7FF2068416B890011D525712169FD
:1004600041F0020121614FF00051416320680168B1
:1004700021F0805101602046BDE87040FFF791BF38
:1004800070BD70B5040003D02079002510B105E0DF
:10049000012070BD6571204600F008F8022020712F
:1004A000256101202071002070BD000070B5064656
:1004B00000681E4986B0884236D11D480025016873
:1004C00041F0005101600068694600F0005005905D
:1004D000102000900320CDE90105164800F0E0FA55
:1004E000164C154820604FF0606060604020C4E901
:1004F000020500012061400060618000C4E906053A
:1005000025622046656200F013FA18B175210CA02F
:1005100001F01BF9B460002211463620A66300F0FA
:1005200033FC362000F024FC06B070BD007400409F
:10053000403802400000024088600240E400002091
:100540002E2E2F5372632F73746D33326634787886
:100550005F68616C5F6D73702E63000030B5427927
:10056000012A16D0012242710223037103681D681B
:1005700002FA01F425431D60002901680B680AD0C6
:100580000C6803F4802304F46014B3F5802F0FD0BB
:1005900015E0022030BD0C6803F0040304F03804B9
:1005A000042B0CD1382C0AD14B6843F0010305E031
:1005B000B4F5601F03D14B6843F002034B60027136
:1005C00000214171084630BD2DE9F04104460D4639
:1005D0001746617900220698012920D0012666710C
:1005E00002212171F5B1D4F80CC03149CCF83C108E
:1005F000D4F80CC02F49CCF84010D4F80CC02E49C8
:10060000CCF84C102168D1F800C04CF0805CC1F8E7
:1006100000C090B3042834D0082837D134E0022039
:10062000BDE8F081D4F808C02449CCF83C10D4F8D7
:1006300008C02349CCF84010D4F808C02149CCF8B0
:100640004C102168D1F800C04CF4805CC1F800C0A7
:1006500020B1042805D0082808D105E02268083216
:1006600004E022680C3201E0226810322068016840
:1006700041F400510160A0680EE0FFE722681432E7
:1006800004E02268183201E022681C322068016808
:1006900041F000510160E068394600F0B3F920688C
:1006A0000168AE403143016000206071B8E700008E
:1006B00097020008E1020008BF0200088702000854
:1006C000D7020008A702000870B504460068026857
:1006D0004FF480538B409A430260206802680125E2
:1006E00005FA01F39A43026031B1E06800F008F8BE
:1006F00020B10421217170BDA068F7E7257170BD9C
:100700002DE9F0410446876D00F0A8FA064694F8FA
:1007100035000025022806D08020606584F834501A
:100720000120BDE8F0812068016821F01601016018
:100730002068416921F080014161206C08B9A06CFA
:1007400020B12068016821F008010160206801687B
:1007500021F0010101600BE000F080FA801B052808
:1007600006D92020606504F8345F03206070D8E764
:1007700020680068C007EFD194F85C103F208840E3
:10078000B86004F8345F012060700020C9E7000001
:100790002DE9F84304464FF00009CDF80090634876
:1007A0004FF41651A56D0068B0FBF1F72E6894F870
:1007B0005C10082000FA01F131420FD021680A686C
:1007C00052070BD50A6822F004020A6094F85C1004
:1007D0008840A860606D40F00100606594F85C108E
:1007E0004FF0010808FA01F0304208D02168496949
:1007F000090604D5A860606D40F00200606594F8B9
:100800005C1004208840304208D0216809688907BC
:1008100004D5A860606D40F00400606594F85C1039
:1008200010208840304218D021680968090714D583
:10083000A86020680168490304D50068000308D552
:10084000A16C07E00168C90503D4016821F0080123
:100850000160216C09B12046884794F85C10202083
:100860008840304231D021680968C9062DD5A8607A
:1008700094F8350005282068016806D0490347D55B
:10088000006800031DD4616C1CE021F016010160BA
:100890002068416921F080014161206C08B9A06C99
:1008A00020B12068016821F00801016094F85C1013
:1008B0003F208840A86084F8349084F83580216D0A
:1008C0001FE0E16B09B120468847606D00282BD0FE
:1008D000606DC00714D0052084F8350020680168D9
:1008E00021F0010101600098401C0090B84203D83B
:1008F00020680068C007F6D184F8349084F8358009
:10090000E16C002910D001B02046BDE8F043084753
:100910000168C905D5D4016821F01001016084F88F
:10092000349084F83580CCE7BDE8F883900000204F
:100930002DE9F041044600F091F906465CB100252E
:1009400084F83450022084F835002068016821F0D2
:10095000010101600DE00120BDE8F08100F07EF9A9
:10096000801B052805D920206065032084F8350008
:10097000F2E720680068C007F0D1226811682048BB
:100980000140D4E901031843D4E903363343184343
:1009900063691843A3691843E3691843236A18433A
:1009A0000843616A042903D1D4E90B1319430843AE
:1009B000106020684069666A20F0070130460E43E7
:1009C000012704280CD1A06A0643E06A40B1204602
:1009D000FFF7A6FC20B14020606584F83570BAE7C7
:1009E000206846612046FFF787FC94F85C203F2191
:1009F00091408160656584F835700020ACE70000A7
:100A00003F8010F02DE9F0410446866D90F83400E7
:100A1000002501280DD0012084F8340094F83570A9
:100A20000020012F07D084F8340002252846BDE8B5
:100A3000F0810220FBE7022784F8357060652046CC
:100A4000FFF798FC94F85C103F208840B060206865
:100A5000016841F0160101602068416941F08001A0
:100A60004161206C20B12068016841F008010160FB
:100A70002068016841F001010160D7E770B50446C4
:100A800000F0ECF80546601C02D0044800780444ED
:100A900000F0E4F8401BA042FAD370BD84000020AF
:100AA0002DE9F84FDFF87CB100224FF001084FF03C
:100AB000030A4FF00F090BF1040E00BF0B6808FA90
:100AC00002F42340A3426ED14D68022D01D0122DB5
:100AD0000ED1D50800EB850CDCF820505607F70E38
:100AE00009FA07F6B5430E69BE402E43CCF82060E4
:100AF000066855000F790AFA05FC07F0030726EA95
:100B00000C06AF40374307604E68012E05D0022E19
:100B100003D0112E01D0122E0ED18668CF6826EA9E
:100B20000C06AF40374387604668A6430C79C4F390
:100B30000014944034434460C6688C6826EA0C066E
:100B4000AC403443C4604C68E40065D5364C25683D
:100B500045F480452560246822F0030504F48044B0
:100B60000094324C2E19D6F8084895072F0F09FA31
:100B700007F5AC432E4DA84201D1002524E02D4DB0
:100B8000A84201D101251FE02B4DA84201D1022529
:100B90001AE02A4DA84201D1032515E0284DA842AC
:100BA00002D1042510E037E0264DA84201D10525E9
:100BB0000AE0254DA84201D1062505E0234DA842B3
:100BC00001D1072500E00825BD402543C6F8085897
:100BD000DBF800405D464E689C43F60300D51C439D
:100BE0002C60DEF8004075464E689C43B60300D585
:100BF0001C432C600B4D08352C684E689C43F60254
:100C000000D51C432C60074D0C352C684E689C4366
:100C1000B60200D51C432C60521C102AFFF44EAFC4
:100C2000BDE8F88F003C01404438024000300140EC
:100C3000000002400004024000080240000C024094
:100C4000001002400014024000180240001C024044
:100C50000AB1816170470904FBE700000148806820
:100C60007047000084000020024881680278114427
:100C700081607047840000200B4810B5016841F482
:100C800000710160016841F480610160016841F414
:100C900080710160032000F097F8002000F006F852
:100CA00000F024F8002010BD003C024070B50D4D4E
:100CB00004464FF47A712878B1FBF0F00A490968CC
:100CC000B1FBF0F000F0FBFA48B9102C07D200227B
:100CD0002146501E00F058F800206C6070BD0120C5
:100CE00070BD000084000020900000201F4808B55F
:100CF000016841F480410160006800F48040009088
:100D00001A48001F016841F080510160006800F03E
:100D100080500090032000F057F8002211466FF039
:100D20000B0000F031F8002211466FF00A0000F0CD
:100D30002BF8002211466FF0090000F025F8002280
:100D40001146501F00F020F800221146101F00F03D
:100D50001BF800221146901E00F016F80022BDE894
:100D600008401146501E00F00FB800004438024001
:100D700000F01F02012191404009800000F1E020B5
:100D8000C0F8001170470000F0B40E4B1B680C4611
:100D9000C3F30223C3F10705042D00D90425191D4F
:100DA000072901D2002300E0DB1E012606FA05F127
:100DB000491E214099409E40761E16403143F0BCAA
:100DC00000F0C0BB0CED00E0064900F00702086827
:100DD0004FF6FF03184040EA0220034A1043086020
:100DE000704700000CED00E00000FA052DE9F04727
:100DF0000E46050065D0DFF81481D8F80000F7B280
:100E000000F00F00B04207D288F80070D8F8000058
:100E100000F00F00B04254D128683D4C810712D534
:100E2000400703D5206840F4E05020602878000790
:100E300003D5206840F4604020602068A96820F055
:100E4000F000084320602878C0072DD0304968683A
:100E50000839012812D0022813D0032811D00968BC
:100E6000890700292DDA216821F00301014321605F
:100E7000FFF7F4FE814641F2883A0EE009688903E3
:100E8000EFE709688901ECE7FFF7E8FEA0EB09014D
:100E9000514502D90320BDE8F0872068696800F059
:100EA0000C00B0EB810FEFD1D8F80010404601F0F4
:100EB0000F01B14207D90770006800F00F00B0427F
:100EC00001D00120E7E72878400705D52068E968C8
:100ED00020F4E050084320602878000706D52068F9
:100EE000296920F4604040EAC100206000F01CF84D
:100EF0002168084AC1F30311515CC84006490860E3
:100F00000020FFF7D3FE0020C5E70000003C0240B0
:100F100008380240A418000890000020014800682A
:100F20007047000090000020154810B5006810F0D0
:100F30000C02144813D04110042A0FD0082A0ED1F5
:100F40000F4C241F2268236802F03F025B0207D582
:100F50002068C0F38810A0FB010106E0084610BD20
:100F60002168C1F38811A1FB00010023FFF728F9D4
:100F70002168C1F30141491C4900B0FBF1F010BDEB
:100F8000083802400024F4002DE9F84F050076D01F
:100F90002878DFF8F8B2BE4CC00749D0DBF8001063
:100FA0005846C1F38101012908D00068C0F38100CF
:100FB00002280AD1201D0068400206D5206880035F
:100FC00036D568680028E2D032E06868B0F5803F26
:100FD00010D0B0F5A02F206810D020F48030206011
:100FE000206820F4802020606868A0B1FFF736FEFA
:100FF00006460CE0206840F48030F4E740F480209E
:101000002060F7E7FFF72AFE801B642873D820686A
:101010008003F7D50CE0FFF721FE064605E000BF90
:10102000FFF71CFE801B6428F0D820688003F7D4EB
:101030002878DFF8608280074FF000093ED5DBF8A2
:101040000010584611F00C0F09D00068C0F3810061
:1010500002280BD18D48001F0068400206D420688A
:10106000800715D5E868012809D111E0E868B8B112
:101070000120C8F80000FFF7F1FD064605E002E197
:10108000FFF7ECFD801B0228C0D820688007F7D549
:101090002068296920F0F80040EAC10020600DE0D6
:1010A000C8F80090FFF7DAFD064604E0FFF7D6FD2A
:1010B000801B02281FD820688007F7D428780007F3
:1010C00022D5724E744869696C3671B10121016094
:1010D000FFF7C4FD074604E0FFF7C0FDC01B022870
:1010E00009D830688007F7D50EE0C0F80090FFF708
:1010F000B5FD074605E083E0FFF7B0FDC01B022801
:101100007ED830688007F7D42878400768D5DFF8A4
:101110007CA100270AF1380ADAF80000C0000BD4DD
:10112000DAF8001041F08051CAF80010DAF8000037
:10113000012700F080500090584E3068C00510D450
:10114000306840F480703060FFF788FD009005E063
:10115000FFF784FD0099401A022851D83068C00575
:10116000F6D54A4EA868683601280FD005283068A1
:1011700010D020F001003060306820F004003060B2
:10118000A868B8B1FFF76AFD00900FE0306840F042
:101190000100F4E740F004003060F7E7FFF75EFD80
:1011A0000099411A41F28830814264D83068800742
:1011B000F4D50EE0FFF752FD009007E0FFF74EFD7B
:1011C0000099411A41F28830814254D83068800732
:1011D000F4D42FB1DAF8001021F08051CAF80010D1
:1011E000A869C0B3DBF80010C1F3810102294AD01D
:1011F0000228484607D0C8F86000FFF72FFD00E03E
:1012000039E005463AE04746C8F86000FFF726FD9A
:10121000064604E0FFF722FD801B02282BD8206839
:101220008001F7D4D5E907010843A96A1C4A490897
:1012300002EB01416A6A41EA8211084395F82C10D9
:1012400040EA01611148001F016001203866FFF784
:1012500005FD054605E014E0FFF700FD401B0228F0
:1012600009D820688001F7D50BE000BFFFF7F6FC36
:10127000401B022802D90320BDE8F88F20688001B6
:10128000F4D40020F8E70120F6E700000838024017
:101290000038024000004742800E47420070004084
:1012A0000000FFFF4FF0E0210428086903D020F080
:1012B00004000861704740F00400FAE7704710B579
:1012C000401EB0F1807F01D3012010BD4FF0E0241B
:1012D00060610F21601700F035F90020A061072040
:1012E0002061002010BD10B5FFF7E8FF10BD70476A
:1012F000704730B590F83820012A20D0012280F8BC
:101300003820022380F8393003685C6824F07004C8
:101310005C6003685C680D682C435C6003689C68D3
:1013200024F080049C6003689C6849680C439C60BE
:1013300080F83920002180F83810084630BD02209E
:1013400030BD10B5040003D094F8390010B107E0A7
:10135000012010BD002084F83800204600F00CF871
:10136000022084F83900211D206800F08DF9012049
:1013700084F83900002010BD08B500680B49884288
:1013800012D10B48016841F0100101600068002291
:1013900000F01000009011463620FFF7F5FCBDE884
:1013A00008403620FFF7E4BC08BD000000100040F4
:1013B00040380240022180F8391001680A6842F082
:1013C00001020A60012180F839100020704770473F
:1013D00070B50446006801694FF00005C9438907EC
:1013E00015D4C168C943890711D4E91E01610120E0
:1013F0002076206880698007204602D0FFF7E7FF4B
:1014000004E000F098F8204600F096F82576206871
:101410000169C943490717D4C168C943490713D4AF
:101420006FF004010161022020762068806910F4C9
:10143000407F204602D0FFF7CAFF04E000F07BF8AF
:10144000204600F079F8257620680169C94309072C
:1014500016D4C168C943090712D46FF008010161AD
:10146000042020762068C0698007204602D0FFF75C
:10147000AEFF04E000F05FF8204600F05DF825764E
:1014800020680169C943C90617D4C168C943C906A0
:1014900013D46FF010010161082020762068C06924
:1014A00010F4407F204602D0FFF791FF04E000F0E7
:1014B00042F8204600F040F8257620680169C943CB
:1014C000C90708D1C168C943C90704D1891E016190
:1014D000204600F032F820680169C943090609D4A2
:1014E000C168C943090605D46FF080010161204637
:1014F000FFF7FDFE20680169C943490609D4C168A8
:10150000C943490605D46FF040010161204600F04F
:1015100015F820680169C94389060BD4C168C9431D
:10152000890607D46FF0200101612046BDE87040B4
:10153000FFF7DEBE70BD7047704770477047FEE72B
:10154000FEE770470907090E002806DA00F00F00D1
:1015500000F1E02080F8141D704700F1E02080F8D1
:10156000001470477047704710B5FFF77DFBBDE86A
:101570001040FFF7B8BE000030B5254893B00025F5
:10158000016841F080510160006800F080501190C6
:101590002048016841F4804101600068022400F4A1
:1015A0008040119001200390102004900094069434
:1015B0000820CDE90750A820CDE9090404200B90AC
:1015C0006846FFF7E1FC00B1FEE70CA90F2081E8B7
:1015D00031004FF4A0500F904FF48050109005212F
:1015E0000CA8FFF703FC00B1FEE7FFF797FC4FF4F0
:1015F0007A71B0FBF1F0FFF762FE0420FFF752FEB4
:1016000000221146501EFFF7BFFB13B030BD000093
:1016100040380240007000401048016841F47001F9
:1016200001600F48016841F0010101600C4A00218E
:101630000832116002680B4B1A400260031D0A4A0F
:101640001A60026822F48022026005480C300160B2
:1016500002495806803908607047000088ED00E0B4
:1016600000380240FFFFF6FE1030002410B5044899
:10167000FEF7D9FEBDE810400248FFF7A9BE000002
:1016800094000020A8000020F0B50268234B244DF0
:10169000244E254F254C4FF0804C984209D0604590
:1016A00007D0A84205D0B04203D0B84201D0A04232
:1016B00004D122F0700E4A6842EA0E0298421BD012
:1016C000604519D0A84217D0B04215D0B84213D007
:1016D000A04211D0164DA8420ED0164DA8420BD0F4
:1016E000154DA84208D0154DA84205D0144DA8426A
:1016F00002D0144DA84203D122F44075CA682A438F
:1017000002608A68C2620A688262984201D0A0427E
:1017100001D10969016301214161F0BD000001406F
:101720000004004000080040000C0040000401409C
:1017300000400140004401400048014000180040C2
:10174000001C004000200040FEE7FEE702E008C861
:10175000121F08C1002AFAD170477047002001E02B
:1017600001C1121F002AFBD17047000086B0FFF7AD
:1017700083FAFFF701FF434D0024286840F0800002
:101780002860286800F080000590286840F001007B
:10179000286028683C4E00F0010005902246C021D8
:1017A0003046FFF755FAC02000900120CDE9010432
:1017B000694630460394FFF773F9286840F4001037
:1017C00028602868002200F40010009011461020C4
:1017D000FFF7DAFA1020FFF7CBFA2D492B48086003
:1017E0000846FEF74EFE00B1FEE70420CDE90004F6
:1017F000002269462648FEF7D6FD00B1FEE72448E0
:101800002449143001604FF47A71C0E90114490190
:10181000C160FFF796FD00B1FEE72020CDE900048E
:101820001B4869461430FFF764FD00B1FEE7184815
:101830001430FFF7BFFD00211548FEF78FFE20236F
:10184000154A002112480094FEF7BEFE01228021B5
:101850003046FFF7FDF9002240213046FFF7F8F946
:10186000C820FFF70BF9002280213046FFF7F0F97E
:10187000012240213046FFF7EBF9C820FFF7FEF8C0
:10188000E4E70000303802400000024000740040ED
:1018900094000020001000400200002000061016F6
:1018A0000006101600000000000000000102030402
:1018B00006070809D4180008000000209400000062
:1018C0004C1700086819000894000020B4040000B8
:1018D0005C1700080000FF077006F0048E03580232
:1018E00059019C002700000027009C005901580264
:1018F0008E03F004700600088F090F0B710CA70D02
:10190000A60E630FD80FFF0FD80F630FA60EA70DFB
:10191000710C0F0B8F090000000000000000FF0F8A
:10192000FF0FFF0FFF0F0000000000000000FF0F7F
:10193000FF0FFF0FFF0F0000000000000000FF0F6F
:10194000FF0FFF0FFF0F0000000000000000FF0F5F
:10195000FF0FFF0FFF0F000001000000100000004C
:08196000000000000024F40067
:040000050800018965
:00000001FF
